:020000040002F8
:10100000B039002025B10200D72702006328020072
:1010100000000000000000000000000000000000D0
:10102000000000000000000000000000DF7F020060
:101030000000000000000000D78E020057B0020040
:1010400007B2020013B20200E99402001B9D0200E5
:1010500057A3020000000000F1840200F7800200A4
:1010600069B202006BB20200B95802006DB2020010
:101070006FB2020071B2020073B2020075B20200D8
:101080007D8602000370020077B2020079B202008E
:10109000217002007BB202003D7502007DB20200A9
:1010A0007FB2020081B202000000000000000000D8
:1010B0000000000000000000000000000000000030
:1010C000F1B5A2B014001F00029100200B900AE0BD
:1010D0000298229A90470290002800D1CAE20B9809
:1010E000401C0B90641C2178002901D10B98C3E2AD
:1010F0002529EDD1002005900690079008900990D1
:101100000A9002E0010001200843641C2178202994
:10111000F8D023290ED02B2904D02D2907D030292F
:101120000BD00DE001000220084380B2EDE7010082
:101130000420F9E701000820F6E701001020F3E79A
:101140002A290FD1396839600A68091D39600D9262
:10115000002A05D551420D9101000420084380B2B8
:10116000641C12E000210D910AE00D9A754B9A4221
:1011700005D093009A185200511830390D91641C13
:1011800021780A00303A0A2AEFD321782E2903D099
:101190000021C9430C911EE0641C21782A2907D143
:1011A000396839600A68091D39600C92641C12E0C4
:1011B00000210C910AE00C9A624B9A4205D09300F0
:1011C0009A185200511830390C91641C21780A0089
:1011D000303A0A2AEFD3694608872578290058480B
:1011E0007844FF305D3000F0E4FE002801D0641C3C
:1011F00000E0002568463A30057068463A300078CD
:10120000682804D12178682901D1622005E06C2882
:1012100007D120786C2804D1712069463A310870D2
:10122000641C12A804902578641C280025382AD054
:101230001C3800D1CFE0001F022800D8CBE01338C3
:1012400000D1EEE0093800D1C5E0801E00D157E1A1
:10125000401E00D12FE1401E022800D8BBE0001F35
:1012600000D128E1401F00D186E0401E00D1D8E027
:10127000401E26D0C01E0BD0801E00D1D1E0C01E63
:1012800000D1CEE046E1252012A9087001204BE1F3
:10129000386838600568001D386003950C9E002E84
:1012A00003D5280000F08FFE09E03200002128005D
:1012B00000F091FE002801D0401B00E030000690B5
:1012C00033E1386838600268001D38600020C04390
:1012D000002110406A4603C212A80390049B3C25DB
:1012E000684603C8002904D1002802D10C9A002ABC
:1012F00014D06D1E11950207120F3032D2B23A2A65
:1013000000DB27325A5500090A071043090901D1A9
:10131000002803D0039A5E19B242EAD33C20401B56
:101320000690591903910C9988420FDA081A08900F
:101330006846008F0449014068460187F5E000BF18
:10134000D49E0000FFFFFF7FEFFF0000002900D4C4
:10135000EBE069463831097814220A40102A00D09F
:10136000E3E00D99059A891A089A891A0D1A012D38
:1013700000DADAE00895D8E068463A30007862286A
:1013800019D0682806D06A280CD06C281BD0712888
:1013900008D018E0386838600168001D38600B9884
:1013A0000880C2E0386838600268001D38600B9819
:1013B000C11703C2B9E0386838600168001D3860A1
:1013C0000B980870B1E0386838600168001D38601B
:1013D0000B980860A9E03A68D21D072082433A6062
:1013E00003CA3A606A4603C2002902D505982D2136
:1013F0000AE06846008F810702D505982B2103E09B
:10140000C00705D50598202112AA1154401C05904B
:1014100012A80599401803902900684600F0FCF9CD
:1014200083E068463A3000786C280BD0712801D0F0
:101430006A2807D13A68D21D072082433A6003CA5E
:101440003A6005E0396839600868091D3960002193
:101450006A4603C268463A300078682803D1684675
:1014600003C880B20BE0622803D1684603C8C0B24B
:1014700005E0742801D07A2804D1684603C8002109
:101480006A4603C268463830007800072FD56846A0
:1014900003C8002901D1002829D02020284378281A
:1014A00025D10598302112AA1154401C411C0591E8
:1014B00012A90D541BE0390068463A30007800F05C
:1014C000DDF86A4603C26846002902DA05982D2134
:1014D00009E0008F810702D505982B2103E0C007A2
:1014E00005D50598202112AA1154401C059012A878
:1014F0000599401803902900684600F0F3F814E0BD
:1015000001200590386838600168001D386012A815
:1015100001700AE0252012A9087001200590002D15
:1015200003D012A84570022005900D980599401A25
:101530000899401A0699401A0999401A0799401AC1
:101540000A99401A1190684638300078400711D443
:10155000202010A90870002509E0012310AA69467F
:10156000229800F00EFD002800D083E06D1C119839
:101570008542F2DB059E12AD0BE029780298229A93
:1015800090470290002875D00B98401C0B906D1C62
:10159000761E002EF1D1302010A90870089E00257B
:1015A00008E0012310AA6946229800F0EAFC00280E
:1015B00060D16D1CB542F4DB069E039D0BE02978DB
:1015C0000298229A90470290002853D00B98401C12
:1015D0000B906D1C761E002EF1D1302010A90870E2
:1015E000099E002508E0012310AA6946229800F010
:1015F000C8FC00283ED16D1CB542F4DB079E039861
:10160000069945180BE029780298229A9047029093
:1016100000282FD00B98401C0B906D1C761E002EBE
:10162000F1D1302010A908700A9E002508E001239E
:1016300010AA6946229800F0A4FC00281AD16D1C5B
:10164000B542F4DB684638300078400700D44AE5FC
:10165000202010A90870002500E06D1C119885421B
:1016600000DB40E5012310AA6946229800F089FCBE
:101670000028F2D00020C04323B0F0BD0A00622849
:1016800022D0682819D06A2808D06C2823D0712865
:1016900004D074281FD07A2808D01CE01368DB1D02
:1016A00007208343136003CB1360704711681160F8
:1016B0000868091D116000217047116811600868F1
:1016C000091D116000B20BE0116811600868091D66
:1016D000116040B204E0116811600868091D1160D2
:1016E000C1177047F3B583B0006900906846027C6B
:1016F0006F2A01D1082406E020211143782901D066
:101700000A2400E010243C25039803C806000F00BB
:10171000642A01D0692A07D1002905DA00200021B6
:10172000801BB94106000F00002F12D1002E10D1EE
:101730000398006B00280CD1082C3CD1039838305A
:101740000078000737D53B25302000993B310870E1
:1017500031E06D1E0195300039002200E31700F0E2
:1017600046FC3032D2B23A2A03DB6846007C51385C
:10177000121800984255300039002200E31700F09B
:1017800036FC06000F0001D1002E05D00398C0687A
:10179000009949198842DCD3082C0CD103983830C1
:1017A0000078000707D50098405D302803D06D1EF3
:1017B0003020009948553C20401B039988610099CE
:1017C0004919039AD1600399096B884209DA081A0A
:1017D000039908620398008F0E490140039801871E
:1017E00015E0002913D503993831097814220A40ED
:1017F000102A0CD10399496B039A5269891A039AEA
:10180000126A891A0D1A012D01DB0398056205B0D1
:10181000F0BD0000EFFF0000F3B591B006AD03C8C6
:1018200002AA03C212A80078202101430091612975
:101830000BD01198006B002801D5062003E004D1DD
:10184000672902D101201199086311984168480065
:10185000400DAA4A904225D1080310D11198006882
:1018600000280CD103201199886112A800786138F2
:101870001A2842D3234878448A3000900BE0032092
:101880001199886112A8007861381A2831D31E484E
:10189000784474300090032200991198C06800F0D9
:1018A000DBFBF7E1012817DA119800F003FC0128AF
:1018B00012DB002700260098612832D11198C068F9
:1018C00030210170401C411C119AD16012A9097885
:1018D00061291FD178211EE011994968884A0A4080
:1018E00088491143119A51608749461A0027FF43DE
:1018F000E1E7064878441430CCE7054878441030D6
:10190000BBE700BF2499000018990000109900005F
:10191000149900005821017011984069801C119998
:101920004861002F03D1002468468780A8E1009811
:10193000612800D09FE01198046B002C01D5212470
:1019400000E0641C24B2601C0090119803C804AA33
:1019500003C202A803C80022002300F0CDFB04A8A4
:1019600003C802D280221206514002AA03C2301FCD
:101970006946888000270F7606AE761C00E0F61DCB
:101980000098012830DB02A803C80022002300F0E1
:10199000CCFB29D21C2102A800F0E0FB02A803C85E
:1019A00000F06AFC05000098C01F009001280ADBC7
:1019B000280000F08FFC02000B0002A803C800F012
:1019C00000FD02AA03C2F61D072004E0761E2907C7
:1019D000090F31702D11012D01DB401EF6D5401E7F
:1019E000CDD4761E3770FAE706A8401C311A06AD32
:1019F0006D1CA14200DA0C0024B2200032D48842CF
:101A000005DA06A909184978082900DB0F2706A975
:101A1000091801E0641E491E401E0A78BA42F9D036
:101A20000F2F04D106A909184A78521C4A700028C1
:101A300006D506AD641C019800B2001D6946888079
:101A400024B2601E0ED429180A783032D2B23A2A53
:101A500003DB12AB1B783A3BD2180A70401E491EBA
:101A60000028F1D51198006B002800D408E1601E11
:101A70001199086304E102A803C80022002300F0C2
:101A80003BFB06D202A803C880221206514002AADC
:101A900003C236B280487043804900F01FFD69469A
:101AA00088800720019909B2421A00207C49012A46
:101AB00020DB049202AA30CA00260F000498C00757
:101AC00007D532003B002000290000F061FD040032
:101AD0000D000498401004903000390032003B00A3
:101AE00000F056FD06000F0004980028E6D102A879
:101AF00030C028E0544200266A4F18E0FF0700007B
:101B0000FFFF0F800000E03FFE030000E00707D565
:101B100004A803C832003B0000F03AFD06000F00A5
:101B2000641004A803C804AA0CCA00F031FD04AA7A
:101B300003C2002CEAD102A803C832003B0000F027
:101B4000E9FD02AA03C20098662803D1019800B2F9
:101B50000A3000E006201199096B08180490142837
:101B600001DB1320049030206946087606AC641C23
:101B70000498012840DB02A803C800F08FFB050091
:101B800008340594042428000A2100F0AAFC0F0060
:101B900028000A2100F0A5FC050030370598401EFA
:101BA000077028000A2100F09CFC0F0028000A2181
:101BB00000F097FC05000598801E059030370770EF
:101BC000641EE0D1059C083404980838049001286C
:101BD000CEDB02A803C800F061FB00F085FB020029
:101BE0000B0002A803C800F0ECFB00222E4B00F013
:101BF000CFFC02AA03C2BEE706A8401C201A06AD0D
:101C00006D1C6A4605E0401E019909B2491E91808B
:101C10006D1C29783029F6D00099662903D10199E5
:101C200009B2491C04E0652901D1012100E000212D
:101C3000119A126B541824B2A04200DA040024B2A4
:101C400021001DD4814204DA685C352801DB39208B
:101C500000E030206A1800E0641E521E491E13780E
:101C60008342F9D0392802D1685C401C68540029AD
:101C700006D56D1E641C019800B2401C6946888020
:101C8000019800B2009023B22A0012A8017811989E
:101C900000F00CF813B0F0BD97750000A0860100AD
:101CA000000024400000F03F84D79741F3B589B08D
:101CB00015001C0000F0A9FD0190406A00786946FB
:101CC00008720998076B012C01DA0124ACA50AA857
:101CD000017820200843109E662801D1761C18E068
:101CE000672800D09FE036B20321C9438E4200DA54
:101CF0009DE0BE4200DB9AE0761C099838300078FF
:101D0000000702D4BC4200DA270036B2BF1B00D560
:101D100000270998C06800900998806900990918FF
:101D2000019136B2012E2CDA401C3021019A11703B
:101D3000012F04DA099938310978090704D5694671
:101D4000097A009A1154401C0999886170428742AF
:101D500000DA7E4236B2704209994862BF19A74242
:101D600000DA3C0024B20998C461220029000098DE
:101D7000099B9B69C01800F06FF9381B09998862AC
:101D8000E0E0B44220DA22002900019800F064F972
:101D9000099989690919099A9161301B099A506258
:101DA000012F04DA099838300078000709D5684611
:101DB000007A099AD26850540998C069401C099960
:101DC000C86109988762BDE032002900019800F0DF
:101DD00043F9099880698019A41B012F04DA099935
:101DE00038310978090705D56946097A099AD26810
:101DF0001154401C0999886124B2A74200DA3C00C2
:101E000024B22200A9190998C068099B9B69C018CF
:101E100000F022F909988069001909998861381B36
:101E2000099948628EE0612914D1702015E0BC4206
:101E300005DA099938310978090700D427007F1E8F
:101E400000D500270AA80078672801D1652004E0A2
:101E5000452002E0412902D150200AA908700998C2
:101E60008169481C099AD26800922A78009B5A54CA
:101E7000691C012F07DA099A38321278120702D446
:101E8000099988611BE06A46127A009B1A54401C2B
:101E9000099A9061012F12DB641E24B2A74200DA76
:101EA0003C0024B22200009B181800F0D5F80998D5
:101EB0008069001909998861381B09994862099855
:101EC000C0680999896945180AA80078287036B24F
:101ED000300003D42B206870AD1C03E02D21697005
:101EE000AD1C4642002405AF08E00A2203A800F01A
:101EF000A7FC04983870039E641C7F1C31B2012932
:101F0000F3DA022C08DA0AA80078202101436529B7
:101F100002D1302028706D1C002C09D1302028708F
:101F20006D1C07E0641E05A8005D303028706D1C34
:101F3000012CF7DA0998C068099989694018281AAC
:101F40000999C86109983830007814210140102996
:101F500014D1099840690999896940180999496A11
:101F600040180999C96940180999896A401809995E
:101F7000496B884202DA081A099908620BB0F0BD71
:101F8000300079B50E0014001D00002005E0F06A55
:101F9000401CF0620020641C6D1E002D08D02178CA
:101FA000B068009A9047B0600028F0D10020C0438C
:101FB00076BDC9B200E0401C02788A4202D0002AF5
:101FC000F9D100207047010000E0491C0A78002A7E
:101FD000FBD1081A7047C9B201E0401C521E002A0A
:101FE00003D003788B42F8D170470020704712422B
:101FF00024D0994228D970B500251B4202D00C008C
:10200000002109E00024012649186441944200D3CC
:10201000A41A7641F8D33100012601E0764109D2B5
:10202000001864416D41A41A9D41F7D2A4185D4186
:10203000B619F5D3300022002B0070BD1B42D8D159
:1020400008B500F00DFC08BD01D19042D3D20200CA
:102050000B00002100207047124207D08B0706D0EA
:102060000B78491C0370401C521EF7D87047830739
:1020700006D00B78491C0370401C521EF9D17047E2
:1020800070B4103A03D378C9103A78C0FBD2530722
:1020900001D318C918C001D508C908C0D20704D394
:1020A0000B880380891C801C002A01D50B780370E3
:1020B00070BC704730B401004B68802212061A4091
:1020C00001201B031B0B4B600BD10B68002B08D1AD
:1020D0000DE00B686400DD0F25434D605B000B6075
:1020E000401E4C68E302F4D523031B0B4B604B6886
:1020F0001A434A6030BC704730B4012464054D0077
:10210000EC420BD85D00EC4208D80C001C43640084
:102110000443144304D2994200D1904230BC70472A
:10212000FCD08B42FAD18242F8E730B40124640536
:102130004D00EC420BD85D00EC4208D80C001C436B
:1021400064000443144304D28B4200D1824230BC69
:102150007047FCD09942FAD19042F8E770B504007C
:102160000D0060684000400D3F4EB04207D16068EE
:10217000000302D12068002816D0022070BD00287C
:1021800004D12000FFF796FF01286BDA012D0DDB4B
:10219000311A8D420AD36068002802D500203349E5
:1021A00001E00020310503C4012070BD4142A94275
:1021B000616806DA2E4A0A4028180005104360605C
:1021C00047E080221206114062681203120B80233E
:1021D0005B0313436360401E2D1800202A00353234
:1021E000352A02D36160206070BD00221E23DB43CC
:1021F0009D4204DA2035226863682360606068428B
:1022000011D0521E9241D243D20F20231B1A2568AF
:102210009D402A432568C54066689E402E4326603F
:102220006368C3406360606808436060114882422D
:1022300006D28020000682420ED12078C0070BD53E
:102240002068401C20602068002805D16068401C80
:1022500060600020C04370BD60688842F9D120688A
:102260000028F6D1002070BDFF0700000000F0FF3D
:10227000FFFF0F8001000080F4464A1805D200F0ED
:102280000FF801D580174008604700F009F80121D8
:10229000C907884200D90800404260474A1812D254
:1022A000400DC90208430121C9070843520D4021CE
:1022B0000901521A521C06D452421F3201D4D04096
:1022C0007047C0177047002070470268531C0360B6
:1022D00011707047010009D5F446404200F006F83D
:1022E0000122D20711436047010000BF42221201C0
:1022F000D21E004207D002D4521E0018FCD5C10ADB
:1023000040051205891870478B4200D1824205D9D9
:102310008446100062468C4619006346DF184C184C
:10232000640D7F0D3AD0661C760537D0E61B352E3E
:1023300034DCDB022B43DB0A0C0DC9022943C91232
:10234000202E0DDB1700203E06D01F00F741F34082
:102350005F400026012A7741C01871410DD217E075
:102360001700F741F2405740F3415A40B340F34061
:102370005A400026801859410AD3A21C52050FD09A
:10238000C207012F724117004008CB0718434908C4
:10239000641C24054208AF4170416141F0BC7047A4
:1023A000641C21050020F9E76B4010E06B40ABE7AF
:1023B000F742F3D1E943F1E72442EFD100200021B5
:1023C000ECE7F0B40125ED070F005F40EED40C0000
:1023D000871A9C4105D2C01BA141D21963416940B3
:1023E0006B40AE0ADF184C18F442E1D2640D7F0D49
:1023F000E2D0E61B362ED1DCDB022B43DB0AA446FF
:102400000C0DC9022943C90A012E28DC04D1D607C4
:102410005208DF073A435B08EF0A76429041994140
:1024200014D039423BD1B61940414941761C39425A
:1024300004D1761C001849413942FAD0B9436746A5
:10244000B74208D9A41B24052143A7E70042EAD1DB
:102450003642E8D1A2E7E40AE10700209EE7202EF9
:102460000BDD203E1F00F340F7415F40012A0022B0
:1024700057417E42984191410BE01700F741F240ED
:102480005740F3415A40B340F3405A407E42904196
:1024900099410A0303D2641EB619404149410027FD
:1024A000641E24054208AE4178416141F0BC70478A
:1024B000F446002804D4494200F013F84042604733
:1024C0004042002905D45FD000F00BF84042494259
:1024D0006047494200F005F84942604703460B4314
:1024E000E6D40022030A8B420BD203098B4219D295
:1024F00043088B422ED2411A00D201465241104667
:102500007047FF2209023FD012068B4205D31212F8
:1025100009028B4201D31212090203098B4219D31B
:1025200000E0090AC3098B4201D3CB01C01A524112
:1025300083098B4201D38B01C01A524143098B425C
:1025400001D34B01C01A524103098B4201D30B0145
:10255000C01A5241C3088B4201D3CB00C01A52416A
:1025600083088B4201D38B00C01A524143088B422F
:1025700001D34B00C01A5241884200D3401A524145
:10258000CFD201461046704708B500F06BF908BD80
:10259000F0B50E005E400125ED072E40B446AE0AB0
:1025A000DF184C18F44208D2F7420ED2640D01D065
:1025B0007F0D12D100206146F0BD05D1F74201D850
:1025C0007F0D05D10020C143F0BDFBD1640DF9D0D2
:1025D0000020C143490549088FE0E419C902DB0224
:1025E00029432B43DB0A460DC00231438E4630B4EB
:1025F00087B295B27D432E0CADB2140C7C43A41966
:10260000260C240425439CB27C43A419190C79435D
:10261000270CC919A4B20F043C43090C000C97B253
:1026200047432E0CBE193543ADB2170C4743360C49
:10263000BF19A6B2BF193E043543240C3E0C36190F
:102640009FB24743BF19BCB23E0C89191F0C4743C8
:102650007F183E043443390C704680B297B247432A
:102660002E0CBE193543ADB2170C4743360CBF19BB
:10267000A6B2BF193E043543240C3E0C36199FB256
:102680004743BF19BCB23E0C89191F0C47437F1842
:102690003E043443390C77463F0C90B278432E0CFD
:1026A00080190604ADB22E43050CA0B22D18120CF1
:1026B0007A435019020C80B2240CA4189AB27A43BF
:1026C000121914042043120C89181B0C7B43C918DF
:1026D00030BCEF0A394203D1B61940414941641E6A
:1026E0006F12BF0DE41B0BDBFF19BC4211DA24058E
:1026F00000274208AE417841614166463143F0BD52
:10270000641C05D1401C6141CF0201D34908F4E7A4
:1027100050E75DE7F0B40E005E400125ED072E4066
:10272000B446AE0ADF184C18F4423BD2F74241D20D
:10273000640D43D07F0D38D0E41BC902DB0229436E
:102740002B43CF0ADB0A0600B61A9F4104D2641E4F
:10275000B6197F41B6185F416812800D2418001821
:10276000844222DAE80C0021B6197F41B61A9F4153
:1027700002D2B6185F413F1C40414941F4D3241CAA
:1027800021DD2405B6197F41B61A9F4105D3374391
:10279000C60737430026012F704161416646314329
:1027A000F0BC7047FCD1F74205D20020C143490577
:1027B0004908F3E704D00020C143F1E77F0DFAD0C8
:1027C00000206146ECE72442FAD1401C61410F032E
:1027D000F6D30020E2E7FEE780B5124800F043F8A8
:1027E00011A1016041608160C1600161416181614D
:1027F0000EA242628162C162016341630CA28263E4
:102800000DA2C2630164416401BD10B5054800F02A
:102810002AF804002068002801D1FFF7DDFF20001E
:1028200010BD000030200020000000002E0000003D
:1028300066616C73650000007472756500000000CD
:102840007CB504000E00150030002900FFF746FE9D
:1028500000904543701B0190684603C803C476BDD1
:102860007047FEE770477047401E00BF00BF00BFC3
:1028700000BF00BF00BF00BF00BF00BF00BF00BF60
:1028800000BFF1D1704797480F2101830021418398
:10289000818391218900411841617047F0B587B06B
:1028A0000026904C618B0800A28B121A36D0626908
:1028B000238B184083001818800010180578401CDE
:1028C000491C61830178227C002A07D1002905D1A7
:1028D000691EC9B2401C00F093F917E08A07920FF5
:1028E000032A03D1290000F0F3FC0CE000290AD1EF
:1028F000401C07001022210000F064F9691EC9B2D3
:10290000380000F0EDF900F0D0FDA062207C002836
:1029100004D1608C002801D101F027F8A74D287858
:1029200000280DD000F0C1FDA16A401A1F2804D371
:1029300000F0BBFDA06201F018F82878002804D14F
:102940006684268200F0B1FDA062A16B606B8842B4
:102950002BD02A78002A27D0694680B201F0EEF801
:10296000002819D00098E16A884215D3206B00999D
:10297000884211D3039103A86946097A017101992C
:1029800041710A0A82710A0CC271090E0172092290
:1029900003A9072000F024F8606B401C606388499D
:1029A000884202D3666300E0616307B0F0BD38B5CA
:1029B0004C4CA38B228B658B5D1BAA420FDB656998
:1029C0001A4093009A189200AB1819705B1C0A0009
:1029D00001001800FFF740FBA08B401CA08331BD15
:1029E000F0B591B00300150068469A000123134327
:1029F0000370002907D0002D05D0142D03DA2A001A
:102A0000401CFFF729FB6D1C364C00F04EFDA06208
:102A1000EDB2112D00DB102505AE30001030002185
:102A20000022002300278EC02A00694630001030A3
:102A3000FFF726FB05A82ECC2EC005A84DDF1021E0
:102A40002036300000F099FF11B0F0BD70B592B0A3
:102A50000300140068469A00012313430370002901
:102A600007D0002C05D0142C03DA2200401CFFF7FD
:102A7000F3FA641C00F019FD1A498862E4B2112CC3
:102A800000DB102405AD28001030002100220023B7
:102A900000264EC02200694628001030FFF7F0FAE9
:102AA00010228B4905A8FFF7D7FA05A84AE002B51E
:102AB00082B0010041480078002810D06846002903
:102AC00001D0112100E010210170042202A9401C54
:102AD000FFF7C2FA052269460920FFF781FF03B01C
:102AE00000BD0000342B0020344A1278002A00D1A7
:102AF000704770B592B06A46002801D0112000E0FE
:102B000010201070517001A8212101706946401CED
:102B10000A7802704A7842706E4C00F0C6FCA062DF
:102B200006AD2800103000210022002300264EC0F0
:102B3000032201A928001030FFF7A2FA06A84ECC04
:102B40004EC006A84DDF10212035280000F015FFEB
:102B500012B070BDF1B45F490A00034608245E4D0F
:102B60006F6818784006400E3818007E107018788C
:102B7000009EF6788619B011400E8019C011C00170
:102B8000301A3818007E10725B1C521C641EE7D18C
:102B90000800F2BC704710B582B00020694608708A
:102BA000684601F06BFA684600780828F8DB4B4C61
:102BB0000821200001F064FA200016BDB81F002093
:102BC000420E0000F0B585B004000E00002C15D0B8
:102BD000002E13D01700102F10DB10070ED1002588
:102BE0006A463100200001F059FE1022694620009B
:102BF000FFF732FA10341035BD42F1DB05B0F0BDFD
:102C000070B584B0040000266A46168010295CD195
:102C1000304D688C002802D110222D4901E010228D
:102C200029002000FFF7CEFF2078800849D100F06E
:102C30003CFCA8626078012827D1688C002844D128
:102C40000A34684621780170617841700088298CC7
:102C5000401A401E042814D20120688401AC207060
:102C6000FFF799FF08220100601CFFF7F5F9092220
:102C700001A90020FFF7EAFE8F2080002818FFF747
:102C800069FF6846008828841FE002281DD1688CEF
:102C900001281AD108228F2080002918A01C01F0D9
:102CA000A5FE002810D10120287401AC112020704D
:102CB000032060700020A070032201A9FFF790FE9E
:102CC00002E0688C002800D06E8404B070BD000063
:102CD000D0B10200342B002034210020702D0020C0
:102CE000F0B597B001256A46157001788908441C33
:102CF000491E122900D9E3E201A04900405A874445
:102D00003C0024004A007600A200AE00BA00EA00AF
:102D1000C801BE05BE05BE05BE05BE05BE051A033B
:102D2000520462056E050422210001A8FFF794F900
:102D3000019800F0BDFB01226946022064E10420F5
:102D4000B34908700122694602205DE1B148B24EE4
:102D500041688968316022789143316008230422F8
:102D6000310002F017FB002802D1042000F09BFE86
:102D700001226946032047E1A648A74E41688968B9
:102D8000316022780A43326008230422310002F0C5
:102D900001FB002802D1042000F085FE01226946D3
:102DA000042031E10222C0490520FFF719FE87E225
:102DB0000020694608700122062025E1BB4D29004C
:102DC00038312800343000F0D8FE0422210001A858
:102DD000FFF742F90198B6494018E8620422211D24
:102DE00001A8FFF739F90198286369E220780128E2
:102DF00017D1B04E68043060800830600C20AE49B6
:102E000048620420AD490860C82002F05EFB06203D
:102E10007F4908700A22C8214900642002F00EFD93
:102E20004EE2022804D1A14D6078A87408201BE26C
:102E3000032827D19F4E68043060800830600C2042
:102E40009D49486204279D480760C82002F03DFB69
:102E50000121607802F089FF002801D1212000E0E3
:102E6000202003AD287060786870F803706000203F
:102E700092490860C80B70608F484762022203A91C
:102E80000820C1E0042800D01AE23020694608700A
:102E90006078782816DA0422A11C01A8FFF7DCF874
:102EA0005D4E019830606078830004223100A748AD
:102EB00002F070FA002802D1042000F0F4FD312065
:102EC00069460870012208209EE02078012817D169
:102ED0009F480168002903D10560002076490860F9
:102EE00020207449486096204000FFF7BDFC072071
:102EF000474908700A22C8214900642002F09EFC5C
:102F00002078022833D103AD102028700422611CE0
:102F100001A8FFF7A1F8019803F02AFC000402D4ED
:102F2000402028701BE0002003F022FC0700000472
:102F30001AD4112028700422611C01A8FFF78CF814
:102F4000354E01983060BB009BB204223100C4486A
:102F500002F020FA002802D1042000F0A4FD04228F
:102F6000611C681CFFF778F8052203A94BE00328D1
:102F70001FD12020694608700422611C02A8FFF7B7
:102F80006BF8029803F0F4FB010410D4224E0021E8
:102F9000316083009BB204223100B14802F0FAF99B
:102FA000002802D1042000F07EFD212027E04120EE
:102FB00025E0042800D083E130206946087004220F
:102FC000611C01A8FFF748F8019803F0D1FB050048
:102FD000000416D40422611D01A8FFF73DF80E4E2F
:102FE00001983060AB009BB204223100B54802F07A
:102FF000D1F9002802D1042000F055FD31206946A6
:103000000870012269460920FFF7EAFC58E100BF79
:10301000CF20002034210020103100202078022809
:103020004ED11020694608700020A07360782028D7
:1030300000DB87E0A17830390A2900D382E0A24D75
:1030400069684200101880000818017830390A2990
:1030500005D2C07830380A2801D2412070E0A01C87
:10306000FEF7B1FFC1B2A01C03F024FB002801D47D
:10307000402065E0A01CFEF7A6FF0200A11C9348BB
:1030800003F084FD61784A0053189B041B0C0C224A
:103090000100280002F07EF9002802D1042000F08F
:1030A00002FD11204CE000BF8E340020342B0020A4
:1030B000F0D8FFFF080500501C0700500025004015
:1030C00003281BD12020694608706078202839DA4F
:1030D0007E4E0C21300003F093FD607841000B1808
:1030E0009B041B0C0C223100774802F053F9002896
:1030F00002D1042000F0D7FC212021E0042800D0D8
:10310000DEE0302069460870607820281ADA042250
:10311000A11C02A8FEF7A0FF6C4E029830606078F8
:103120008000C021490043189BB204223100664848
:1031300002F030F9002802D1042000F0B4FC312064
:103140006946087005A8412199E000BF6021002070
:103150000035004050206946087001A821780170B0
:103160006178417068468088042800DAA8E0512020
:1031700069460870452705A80770401C0A78027048
:10318000B34D00F092F9A8620AAE30001030002171
:10319000002200230EC00160022205A93000103079
:1031A000FEF76EFF0AA80ECD0EC0296801600C3D27
:1031B0000AA84DDF10212036300000F0DEFB434E20
:1031C0006846808830600422A11C01A8FEF744FFF5
:1031D000019870600422A11D01A8FEF73DFF01982F
:1031E000B0600C230C2231009A4802F0D3F800287A
:1031F00002D1042000F057FC11206946087005A890
:103200000770401C0A78027000F04FF9A8620AACFF
:103210002000103000210022002300264EC0022290
:1032200005A920001030FEF72BFF0AA84ECD4EC096
:103230000AA84DDF10212034200000F09EFB322030
:1032400002F043F900F091FB0A2002F03EF9BFF3CF
:103250004F8F814881490860BFF34F8F00BFFDE762
:10326000502100207A4D122068740020686227E007
:10327000012000F0C7FC6846057005A84D210170CB
:103280006946401C0A780270714D00F00EF9A86280
:103290000AAC2000103000210022002300264EC07E
:1032A000022205A920001030FEF7EAFE0AA84ECD42
:1032B0004EC00AA84DDF10212034200000F05DFB35
:1032C00017B0F0BD58210020482100201031002007
:1032D00070B596B00A000178890843789B010B43CA
:1032E000811C951E5A4CA08C834200D0A2E0401C49
:1032F000A084E08C8026B600EDB2721B824207DB10
:103300002A0020183C30FEF7A7FEE08C4019E0842C
:10331000607C08284BD1E18CB14248D102AD10202D
:103320002870A07C68704E483102016089080160F5
:103330000C204C49086004204B490860C82002F06A
:10334000C4F83200210020003C30FFF73BFC210094
:103350003C31012002F0E9FC002812D1009000234A
:1033600078220021012002F0A7FC002801D1402092
:1033700006E0A17C012002F0CCFC002801D1112044
:10338000287004A82121017002A9401C0A7802704B
:103390004A78427000F089F8A06209AD2800103028
:1033A00000210022002300264EC0032232E0122812
:1033B0004BD1E08C802848D10120694608718022D9
:1033C000210020003C30FFF7FDFB284D802221002A
:1033D0003C312800FEF740FE1823802229001D48BA
:1033E00001F0D8FF002802D1042000F05CFB04A803
:1033F0004921017001A9401C0A78027000F055F8BB
:10340000A06209AD28001030002100220023002610
:103410004EC0022204A928001030FEF731FE09A890
:103420004ECC4EC009A84DDF10212035280000F0F9
:10343000A4FA0AE002AD602028706B70180AA87028
:10344000032202A9607CFFF7CBFA16B070BD000022
:10345000342B0020342100200400FA050CED00E09C
:1034600008050050400700500025004010310020A2
:103470001CB5AB4A012100BFB0A003F018FEA94C57
:10348000002280210902201D03F04EFE6846A64955
:1034900001800121C1701E2101710C2141710021A7
:1034A000C18000F0C9F8206013BD9E4800687047D5
:1034B0009C490860704780B501009A48006800F098
:1034C00007F801BD80B500F0B7F89649086001BD66
:1034D000F2B584B00400954D2900FFF702F806000C
:1034E00020002900FEF7FDFF0091914FFF246E346C
:1034F0002000451C02E0002911D02800864217D385
:10350000361A7F1CBFB238006421FEF7E7FF0020A7
:10351000C01980088000381AEDD0002906D1380083
:10352000C8214900FEF7DAFF0029E6D02000E5E7D0
:1035300001241F253800C8214900FEF7CFFF039161
:1035400038006421FEF7CAFF019100BF7FA202E0AC
:10355000002915D01D25AE4217D30C2C15DA761B89
:10356000641CE4B213195B1E1D78022CF3D17B108E
:103570009B0FDB199B109B00FB1AE9D0002902D19D
:10358000039B002BE6D01C25E5E700983C21FEF7C5
:10359000A8FF0498C171E1252D0100982900FEF7CC
:1035A000A0FF08003C21FEF79CFF04998871009859
:1035B0002900FEF796FF04994871761C049806715D
:1035C0000498C47004980780684606720498C4780A
:1035D000068830006421FEF781FFCDB230006421FF
:1035E000FEF77CFFC0B2142801DB6435EDB2681031
:1035F000800F40198610A81980B20721FEF76EFFD0
:103600006846007A081800BF4DA10919491E0978BB
:103610004018B100691A02D1032C00DA401E80B2B2
:103620000721FEF75BFF89B2002900D1072104982A
:10363000817005B0F0BD0000F0B583B004002088B3
:10364000694608803A4D68460088A84201DA0020A1
:103650005EE0684600883749471837484743684660
:103660000688681C864216D364212800FEF739FFBD
:10367000A80702D1002909D101E0002908D12800BA
:10368000C8214900FEF72DFF002901D127483F1826
:103690006D1CB542E8D30025E078401E019026D08D
:1036A0002AA6C821490068460088FEF717FF029144
:1036B000642168460088FEF711FF03206A461288DD
:1036C00010401A4B32785A43BF18012D0AD10028F6
:1036D00002D1002905D101E0002903D1029A002A74
:1036E00000D1FF186D1C761C019A9542EAD320790F
:1036F000401E0E49484338186179E12212015143B6
:103700004018A1790A01511A89004018E17940183E
:1037100003B0F0BD03480168491C01607047000018
:1037200015370200DC340020E10700008051010061
:10373000B20700004EF8FFFF8033E101E0340020C3
:103740000003030601040602050003051F1C1F1EDB
:103750001F1E1F1F1E1F1E1F38B50500934C29007A
:1037600020001C3003F0B1FD288810282AD0112831
:1037700021D0132813D019281DD01A2802D052287E
:1037800003D031BDA879607631BD0023002200212D
:10379000608BA9DF00281FD08EA2CE2108E0002375
:1037A00000228521608B7FDF002815D089A2C921E6
:1037B00003F04EFE31BD002020767D48608320005E
:1037C00073DF31BD00207B49087001202076A88876
:1037D00060830322042184DF31BD80B501F038FC11
:1037E00001BD80B50800D1B2FFF7E1F801BD0000CE
:1037F000F0B5A7B06D4C00234822210048310820C5
:1038000003F077FE73A5002803D02A005D2103F0A2
:103810001FFE05AA0121002003F0A1FE002803D00D
:103820002A00632103F014FE634803F0AFFE002872
:1038300003D02A00662103F00BFE05A803F0ADFEBD
:10384000002803D02A006A2103F002FE5B4803F03F
:1038500064FE002803D02A006E2103F0F9FD5848C9
:1038600003F063FE002803D02A00722103F0F0FD6C
:10387000112069460870052254A120003C30FEF753
:10388000FFFB03A871DF002803D02A00302103F0DA
:10389000DFFD20003C3000E0401C01780029FBD116
:1038A000F823FE225BA103F0BDFE20003C30FEF7B2
:1038B0008AFB82B221003C3168467CDF002803D0BD
:1038C0002A003A2103F0C4FD01A80021002206C00D
:1038D00001A8182101805021418001278780C8213B
:1038E0004900C1807ADF002803D02A00442103F078
:1038F000AFFD684600210160324800906946200013
:103900001C3003F011FD002803D02A00522103F0DF
:103910009FFD382118A803F075F918A8022101703D
:10392000002686700521C17038210AA803F06AF9C3
:103930000AA80782200038300F900AA918A804F0BE
:1039400072F9002803D02A00882103F081FD182194
:10395000200003F057F9267066602672FA20C00036
:103960002082B420608227B0F0BD13210F48408B25
:1039700076DF70470D4873DF704770B506000D00A5
:10398000152D12DA094C2A00310020001C3003F0FA
:103990002DFD0D49884208D1C82001F096FD2A006E
:1039A00031001C34200003F021FD70BDA01F002059
:1039B000FFFF0000442B0020001E002059370200AA
:1039C000DB370200E3370200043000004144454C7D
:1039D00000000000443A5C576F726B466F6C646580
:1039E000725C70726F6A6563745C41442D30395F3C
:1039F000D6C7C4DCCBF85C6669726D776172655CB2
:103A00004150505C7372635C757365725F626C6584
:103A10002E63000025303258253032580000000057
:103A20007CB501F0F1FB6D460C20A8807148E88060
:103A3000714E0096714C2100684601F01FFC8020F9
:103A40008000A8800820E8800096210008316846A0
:103A500001F014FC22001C3201212000083001F08A
:103A600068FC2200243202212000083001F061FCB1
:103A700022002C3203212000083001F05AFC2200E1
:103A8000343204212000083001F053FC002000F003
:103A9000B9F820003C3004F067FA18342100002007
:103AA00000F06BF873BD55490861BE4848614A692A
:103AB0008242FCD04869704770B506000024E44398
:103AC000FFF7F3FC4E49884210D34C4D3100A869F2
:103AD00080B200F00DF8002808D0A8690400401C4E
:103AE000A8614449884201D30020A861200070BD2C
:103AF000F0B583B007000E00002400250922002045
:103B000004F020F9708174723C4C6A463900200040
:103B100001F00FFC00230C223100684601F03AFC52
:103B2000002808D1042020619E48606161698142BB
:103B3000FCD060690125280003B0F0BD70B50D0010
:103B400041000E18B6002D4C606881194889964ACC
:103B5000904210D000280ED00922002004F0F2F884
:103B6000616889194A89904205D1002D01D00DC99B
:103B70000DC5012070BD002070BDF3B583B00020DD
:103B800001900024C04300900027002500261B4818
:103B9000406881194889844A904219D0002817D07A
:103BA0000922002004F0CEF81449496889194A898D
:103BB00090420DD108680099814201D3009001958F
:103BC000B84205D307006C1C0A48844200D3002485
:103BD0006D1C0C3607488542D9D30398002802D0C3
:103BE0000198039908600498002800D0046005B08B
:103BF000F0BD0000420E0000973D02002C21002085
:103C000001A8395AF8B5694CE1680A68654F4968F6
:103C1000674BC9188A4207D1002805D1012A00D173
:103C20009EE0002A00D09BE08025AD002900200006
:103C3000083001F0F1FB290020001C3001F0ECFB02
:103C400029002000243001F0E7FB290020002C305F
:103C500001F0E2FB29002000343001F0DDFB0F20F1
:103C60005449C86010204861534D46032E60C0027D
:103C700028600C205149086004204E490860C82083
:103C800001F023FC02F07FF86E60002649480660D0
:103C9000C00B6860042049490860B54D0F202860BA
:103CA0000823042229002000083001F073FB0028BB
:103CB00006D10420206167616069B842FCD0606968
:103CC000012028600023042229002000083001F090
:103CD00061FB002806D10420206167616069B84259
:103CE000FCD060692868A349401828600423042296
:103CF00029002000083001F04DFB002806D10420E7
:103D0000206167616069B842FCD060696E60AE6036
:103D1000032028600C230C2229002000083001F029
:103D200039FB002806D10420206167616069B84230
:103D3000FCD06069802200BFA6A12800FEF7A0F990
:103D40001823802229002000083001F023FB0028DE
:103D500006D10420206167616069B842FCD06069C7
:103D6000E068C068032815D0814D00266E60AE6003
:103D7000032028600C230C2229002000083001F0C9
:103D800009FB002806D10420206167616069B84200
:103D9000FCD06069F1BD784803698B4200D1426173
:103DA00070470000FFFFFF0FFFFF00002C210020E5
:103DB000CBFBFFFF002500400805005040070050E6
:103DC00070B584B00C1D25686EA1280004F0F6F8CB
:103DD000002800D1CAE000BF6CA1280004F0EEF872
:103DE000002813D1606803F072FF0600A068002865
:103DF00000D1BBE05E4D03F07BFF28605E4CB3005A
:103E00009BB204222900200024307EE061A128001A
:103E100004F0D4F8002813D1606803F058FF0600BE
:103E2000A068002800D1A1E0514D03F050FF2860A8
:103E3000514CB3009BB20422290020002C3064E0D6
:103E400056A1280004F0BAF8002816D1606803F0E3
:103E50003EFF0600A068002800D187E0444D03F033
:103E600036FF2860444CB000C021490043189BB283
:103E70000422290020001C3047E000BF49A128008F
:103E800004F09CF8002812D1606803F020FF0600BF
:103E9000A06800286AD0364D03F019FF2860364C20
:103EA000B3009BB204222900200034302DE033A15E
:103EB000280004F083F8002814D1606803F007FF9D
:103EC0000500A168002951D00C22294802F05EFEAD
:103ED000294C69004B199B041B0C0C22010020008B
:103EE0001C3012E031A1280004F068F8002819D134
:103EF000606800283AD01E4D03F0FAFE28601E4C80
:103F00000823042229002000083001F043FA002889
:103F10002CD1042020611A48606161698142FCD083
:103F2000606923E024A1280004F048F8002807D1A4
:103F3000606803F0CCFE694680B2FFF7FFFD15E034
:103F40001FA1280004F03AF800280BD1FFF7ADFAC2
:103F50000090A06803F0BBFE69460872E06803F0B9
:103F6000B6FE03E019A1280004F028F804B070BDE3
:103F700010310020350400002C21002070776400EF
:103F8000FFFFFF0F76657273696F6E006D317569A3
:103F9000640000006D317473000000007077647479
:103FA00073000000667067747300000066756E63CE
:103FB00074696F6E00000000726561646C6F670069
:103FC00077726974656C6F670000000064667569DC
:103FD0006E666F005E83B812ED73D54770B387C30A
:103FE0006A69E81D7863146E853F74A2A9E9F4BB81
:103FF000D2976135B45408D64CB98D0353444F8ED3
:10400000B6F14234481C6DF8A5379AD73E5F186662
:1040100043A6E56FC61022ADC9029B5CA151FB17F8
:10402000062A7C198CFCD907CAEEEA7B2C94954EA3
:104030000177E2F91B657E86257FA7CFCCDCBE0524
:104040001F84DD57D08FECC2AEF79875E020DA31CF
:10405000260B6C8880B50849087800280AD1684684
:1040600012DF6A461278002A02D001220A7002BDCD
:10407000022002BD082002BDA035002039DF7047B4
:104080003ADF7047F8B5C0484068C04F01783970D2
:10409000417879708178B970C178F9700179397196
:1040A000417979718179B971C179F971017A39727E
:1040B000417A7972817AB972C17AF972017B397366
:1040C000417B7973817BB973C07BF873042410370B
:1040D0006DA56E460422391F6846FDF7BDFFA00797
:1040E00017D1327870783070B0787070F178B17024
:1040F000F2703278AA5C3270285C7070685CB070C4
:10410000F078285CF070307810A1A208895C4140FA
:1041100031703800103800783178414039703800FB
:104120000F38007871784140797038000E38007887
:10413000B1784140B97038000D380078F1784140CD
:10414000F970641C3F1D2C2CC4D3F1BD8D010204F9
:1041500008102040801B366CD8AB4D9A2F5EBC6394
:10416000C697356AD4B37DFAEFC5913972E4D3BDF1
:1041700061C29F254A943366CC831D3A74E8CB8D87
:1041800001020408102040801B366CD8AB4D9A2FDA
:104190005EBC63C697356AD4B37DFAEFC5913972B8
:1041A000E4D3BD61C29F254A943366CC831D3A7423
:1041B000E8CB8D01020408102040801B366CD8AB80
:1041C0004D9A2F5EBC63C697356AD4B37DFAEFC5AE
:1041D000913972E4D3BD61C29F254A943366CC8382
:1041E0001D3A74E8CB8D01020408102040801B3674
:1041F0006CD8AB4D9A2F5EBC63C697356AD4B37D3D
:10420000FAEFC5913972E4D3BD61C29F254A943358
:1042100066CC831D3A74E8CB8D010204081020405F
:10422000801B366CD8AB4D9A2F5EBC63C697356A3F
:10423000D4B37DFAEFC5913972E4D3BD61C29F2535
:104240004A943366CC831D3A74E8CB0010B44E49CF
:1042500009684E4A0001101804220B7804785C406B
:104260000C704B7844785C404C708B7884785C4060
:104270008C70CB78C4785C40CC70001D091D521E38
:10428000EBD110BC70470000637C777BF26B6FC58D
:104290003001672BFED7AB76CA82C97DFA5947F049
:1042A000ADD4A2AF9CA472C0B7FD9326363FF7CC25
:1042B00034A5E5F171D8311504C723C31896059AC2
:1042C000071280E2EB27B27509832C1A1B6E5AA0E5
:1042D000523BD6B329E32F8453D100ED20FCB15BD0
:1042E0006ACBBE394A4C58CFD0EFAAFB434D338539
:1042F00045F9027F503C9FA851A3408F929D38F50D
:10430000BCB6DA2110FFF3D2CD0C13EC5F97441743
:10431000C4A77E3D645D197360814FDC222A9088BA
:1043200046EEB814DE5E0BDBE0323A0A4906245C46
:10433000C2D3AC629195E479E7C8376D8DD54EA9AB
:104340006C56F4EA657AAE08BA78252E1CA6B4C677
:10435000E8DD741F4BBD8B8A703EB5664803F60ED0
:10436000613557B986C11D9EE1F8981169D98E94BF
:104370009B1E87E9CE5528DF8CA1890DBFE64268D8
:1043800041992D0FB054BB167C350020103200200F
:104390004100C0091B2250434840C0B27047000092
:1043A000F0B587B0004801E07C350020006804903B
:1043B0000420059004980478407869464870049871
:1043C000807888700498C07808702000FFF7E0FFBC
:1043D00007002000FFF7DCFFFFF7DAFF6946C8712E
:1043E0002000FFF7D5FFFFF7D3FFFFF7D1FF6946A6
:1043F00088712000FFF7CCFFFFF7CAFFFFF7C8FF67
:10440000FFF7C6FF68464078FFF7C2FF694648716C
:1044100068464078FFF7BCFFFFF7BAFF6846407870
:10442000FFF7B6FFFFF7B4FFFFF7B2FF6946C870AA
:1044300068464078FFF7ACFFFFF7AAFFFFF7A8FF39
:10444000FFF7A6FF68468078FFF7A2FF68468078EE
:10445000FFF79EFFFFF79CFF69460871684680786A
:10446000FFF796FFFFF794FFFFF792FF05006846FE
:104470008078FFF78DFFFFF78BFFFFF789FFFFF7CE
:1044800087FF68460078FFF783FF68460078FFF7EC
:104490007FFFFFF77DFF68460078FFF779FFFFF7A2
:1044A00077FFFFF775FF060068460078FFF770FF9B
:1044B000FFF76EFFFFF76CFFFFF76AFF6846C079F2
:1044C0007840694689794140684640784840694665
:1044D000497941406846C0784840694689784140FA
:1044E0006846007948404540684600786840464044
:1044F000049806702000FFF74BFF2000FFF748FFED
:10450000FFF746FF2000FFF743FFFFF741FFFFF7EC
:104510003FFF07002000FFF73BFFFFF739FFFFF7E2
:1045200037FFFFF735FF68464078FFF731FF6946F0
:10453000087168464078FFF72BFFFFF729FF6946AF
:10454000C87068464078FFF723FFFFF721FFFFF7A9
:104550001FFF6946487168464078FFF719FFFFF76B
:1045600017FFFFF715FFFFF713FF68468078FFF787
:104570000FFF6946887168468078FFF709FFFFF7EB
:1045800007FF68468078FFF703FFFFF701FFFFF79B
:10459000FFFE6946C87168468078FFF7F9FEFFF7AD
:1045A000F7FEFFF7F5FEFFF7F3FE68460078FFF72A
:1045B000EFFE68460078FFF7EBFEFFF7E9FE050027
:1045C00068460078FFF7E4FEFFF7E2FEFFF7E0FE43
:1045D000060068460078FFF7DBFEFFF7D9FEFFF71D
:1045E000D7FEFFF7D5FE67406846007978406946F8
:1045F000C9784140684640794840694689784140D9
:104600006846807948406946C979414068460078E3
:10461000484045406E40049846702000FFF7B8FEC1
:104620002000FFF7B5FEFFF7B3FE6946C871200012
:10463000FFF7AEFEFFF7ACFEFFF7AAFE69468871F2
:104640002000FFF7A5FEFFF7A3FEFFF7A1FEFFF78F
:104650009FFE68464078FFF79BFE68464078FFF76C
:1046600097FEFFF795FE68464078FFF791FEFFF74B
:104670008FFE010068468078C0091B2250436A46BD
:104680005071684680784000D0706846C078527992
:10469000424068468272827AD3091B256B436D467D
:1046A0002B7150006B461B7943406846C373C37B34
:1046B0000078C0091B2568436D466872684600781B
:1046C000400028726846007A6D7A4540E8091B264A
:1046D00070436E46B0736800B67B464068464673CA
:1046E000407BC6091B277E436F463E73DE091B27AE
:1046F0007E436F46FE7246006846C0796040BF79CF
:1047000047406846407878404F004740C8091B2121
:10471000484378406946C9784140684640794840F6
:104720005100414068460079484059004140684680
:10473000C07A48406946097841406846007A484056
:104740006946497A414071406846007B4840049977
:104750008870E0091B21484369460871610068467A
:104760000079484041000006C00F1B2250434840DA
:104770006946497849006A465278D2091B235A4350
:104780004A401106C90F59436B46D97051006A4619
:10479000D2784A409B7A6F463B706B46DB7B3B701E
:1047A000630063406C4624795C404300634000062C
:1047B000C00F1B24604358406B465B784340594010
:1047C0006846C0784840510041401006C00F1B2287
:1047D0005043484069468978414068460078400027
:1047E00048406946C97A41406846007A484069466F
:1047F000497A4140680048406946897B41404E40C3
:104800006846007B70400499C8700498001D0490AD
:104810000598401E059000D0CCE507B0F0BD000023
:1048200031480068042100BF30A20378D35C0370D4
:104830000379D35C0371037AD35C0372037BD35C8B
:104840000373401C491EF0D1704727480068417B24
:10485000427A427342794272427842714170817861
:10486000827A827081728179827B82718173C17850
:10487000C279C270C27AC271C27BC272C173704700
:1048800004220B7803704B7843708B788370CB785D
:10489000C370091D001D521EF3D1704738B50C00BE
:1048A000150001002800FFF7EBFF0F48056044608A
:1048B000FFF7E8FB0A20FFF7C9FC0924FFF7C5FF53
:1048C000FFF7AEFF2000FFF7C1FCFFF769FD641E94
:1048D000E4B2002CF2D1FFF7B8FFFFF7A1FF0020F0
:1048E000FFF7B4FC31BD00007C35002052096AD5C9
:1048F0003036A538BF40A39E81F3D7FB7CE33982D5
:104900009B2FFF87348E4344C4DEE9CB547B943223
:10491000A6C2233DEE4C950B42FAC34E082EA1666B
:1049200028D924B2765BA2496D8BD12572F8F66442
:1049300086689816D4A45CCC5D65B6926C704850BD
:10494000FDEDB9DA5E154657A78D9D8490D8AB0072
:104950008CBCD30AF7E45805B8B34506D02C1E8F9B
:10496000CA3F0F02C1AFBD0301138A6B3A911141D7
:104970004F67DCEA97F2CFCEF0B4E67396AC7422C0
:10498000E7AD3585E2F937E81C75DF6E47F11A713E
:104990001D29C5896FB7620EAA18BE1BFC563E4B77
:1049A000C6D279209ADBC0FE78CD5AF41FDDA83339
:1049B0008807C731B11210592780EC5F60517FA979
:1049C00019B54A0D2DE57A9F93C99CEFA0E03B4DA8
:1049D000AE2AF5B0C8EBBB3C83539961172B047E1C
:1049E000BA77D626E169146355210C7D10B402E034
:1049F000401C491C521E002A09D00B7804789C42A6
:104A0000F6D002D20020C04302E0012000E00020E6
:104A100010BC7047F8B5CC4C207881000818800095
:104A200025182D1DC948C06900902B6900222978DE
:104A300028000830C64EAD686F007D19AD0075596D
:104A4000A847207800F071F96078401E60702078E7
:104A5000401CC0B2082800D100202070002000F0C7
:104A60004FF8F1BD70B5B84B187881000818800078
:104A70001C18241DC94D2A68E068A18840182169C6
:104A8000668892B2B24220D22A6892B2B41A2A68D8
:104A90001204920C0919001929DF010012D0112803
:104AA00005D1AA48016A08220A4302620AE019787D
:104AB0008A00511889005918091D00F071F9042065
:104AC00000F01EF8286880B217E0B20829DF010064
:104AD00012D0112805D19D48016A08220A430262BA
:104AE0000AE019788A00511889005918091D00F048
:104AF00057F9042000F004F860889449886170BD7B
:104B0000F8B5914D914C08E029788A005118890038
:104B10006918091D00F044F904202070207800284D
:104B200046D002280DD040D3032848D1206928DF81
:104B3000010044D01128E7D1206A082101432162F5
:104B4000F1BD28788100081880002D182D1DEE6811
:104B5000924F3000396889B2FDF7C3FC2061396893
:104B6000276A01229743009068883018401E89B256
:104B7000FDF7B7FC01000098884202D102203843BB
:104B800002E00220874338002062A068002807D195
:104B90000220216A014003D1607000F054F8F1BD99
:104BA0000020607000F00CF8F1BDFFF75BFFF1BD75
:104BB0006061A0616878002801D000F00CFBF1BDB5
:104BC00080B576480268016892B21002801A89B2F4
:104BD000FDF784FC28DF010013D0112805D15B48C4
:104BE000016A08220A43026201BD57490A7893000C
:104BF0009A1892008918091D00F0D2F80420FFF7D6
:104C00007FFF01BD10B565480168046800684F4B1F
:104C100009048A0C1969A4B2614380B20402201A03
:104C200029DF01000ED0112800D179E046490A7829
:104C300093009A1892008918091D00F0B1F8042019
:104C4000FFF75EFF10BD80B54049086928DF02000C
:104C500012D0112804D1086A082202430A6201BD59
:104C600039490A7893009A1892008918091D00F0B2
:104C700097F80420FFF744FF01BDF8B5324C2078C7
:104C80008100081880002218121DD368434801686B
:104C9000006855885B1992889D185B4EF2680092F7
:104CA00080B20202171A280089B2FDF71AFC79189F
:104CB000009A280029DF010011D0112804D1306AA0
:104CC000082101433162F1BD21788A005118890021
:104CD0006118091D00F064F80420FFF711FFF1BD11
:104CE00010B52E4801680468184B9A6889B208020A
:104CF000411A1869401EA4B2604329DF01000ED09A
:104D0000112800D10CE010490A7893009A189200FB
:104D10008918091D00F044F80420FFF7F1FE10BDCA
:104D2000186A08210143196210BD8C4982001018CD
:104D30008000081800210171C1803222C260016127
:104D40004161018170470000C0320020B83400206A
:104D5000B82E002070B5814C6578082D1CD02678BF
:104D60007519082D00D3083DAE007519AD00651901
:104D700028716A6103C92A000C3203C2EB800498CF
:104D800028816078401C60701F480078002801D19D
:104D900000F021FA002070BD042070BD100000104A
:104DA00070B582B00C001849C969009123690200EE
:104DB000217820000830A04DA46866003419A400B2
:104DC0002C59A04773BD00B5644801788A0051187A
:104DD00089004018001D33490968C2684388D21809
:104DE00080881018401E89B2FDF77BFBB7490A691D
:104DF000824205D306D1C868401E8041C00F00BD65
:104E0000012000BD002000BDB8340020F8B5AF4C33
:104E1000276A38073CD4514801788A005118890024
:104E20004518281DC1684288891880880818401EC6
:104E30001C49096889B2FDF754FBE668002E0BD0C7
:104E40002169814208D10020A060012139432162FB
:104E50006070FFF7B5FEF1BDFFF7B5FF002806D083
:104E60000020A06002206070FFF7EDFEF1BD002E73
:104E700004D003206070FFF700FFF1BD28790428FB
:104E800002D0FFF7C7FDF1BD0120FFF739FEF1BDEC
:104E900008208743276200BF8DA0617889004058B1
:104EA0008047F1BD1000001080B58848016A0A07EC
:104EB0000FD42A4801788A005118890040180079D7
:104EC000042802D0FFF7A6FD01BD0120FFF718FE60
:104ED00001BD55E038B57D4C256A280735D42069D9
:104EE000401C2061A068002804D004206070FFF7F7
:104EF000F7FE31BDFFF767FF002804D00220607085
:104F0000FFF7A1FE31BDE06800280ED00120054268
:104F100006D12843206200206070FFF751FE31BDAA
:104F200003206070FFF7A9FE31BD0C4801788A00AC
:104F30005118890040180079042802D0FFF76AFD53
:104F400031BD0120FFF7DCFD31BD0820854325621E
:104F50005FA0617889004058804731BDC032002091
:104F600080B55A48016A0A0709D40222114202D0C8
:104F700001230B4303624270FFF765FE01BD00BFD2
:104F800008229143016200BF51A140788000085877
:104F9000804701BD80B54D48016A0A0704D401214C
:104FA0004170FFF72FFE01BDEAE7000080B54749D9
:104FB0000878012804D03ED303281AD036D301BD87
:104FC00020228A5C12070FD4AB48027893009A180B
:104FD00092008018001D42888969511A4180090495
:104FE0001BD0FFF73FFD01BD0A6A08239A430A62FE
:104FF00019E020228A5C1207F6D40869401C086177
:10500000FFF7E1FE00280DD19B4801788A00511876
:10501000890040180079042802D0FFF7FBFC01BD8D
:10502000012000E00320FFF76BFD01BD03A04978DC
:1050300089004058804701BDB82E0020954F0200DE
:10504000614F0200D54E0200A94E02000D4E020033
:1050500001001E4A1078002800D1704770B582B058
:10506000042832D002292ED003292ED12021515CD0
:10507000090728D45169491C516103290AD0022823
:1050800002D0FFF73DFD73BD11A051788900405853
:10509000804773BD784801788B00591889004418FF
:1050A000241DD069009023690D222178200008304A
:1050B000B54DA46866003419A4002C59A0470420FB
:1050C000FFF71EFD73BDFFF771FF73BDB8340020FD
:1050D000C14B0200054C0200474C02007B4C020011
:1050E000E14C0200F0B583B0634801788A005118A2
:1050F000890047183F1DFE68A348B9684A00511847
:1051000089004018058941896A46118040680290EB
:105110009E4C2168300089B2FDF7E3F9491E8941B0
:10512000C90F02986A461288554340190190B88801
:105130007A88B3181B180093954D0023EB60002963
:1051400009D0216889B28A4208D00099019A914217
:1051500001D1002802D0B968332907D12168300075
:1051600089B2FDF7BEF92861032030E021683018CC
:1051700089B2FDF7B6F98808A8602168009889B25D
:10518000FDF7AFF9002921D00098019988421DD080
:105190000F46216886B2BFB2380089B2FDF79EF98A
:1051A00000903000216889B2FDF798F9010000985D
:1051B000884201D1B81B07E02768BFB230002168E0
:1051C00089B2FDF78BF9781A8008E8600220FFF7B2
:1051D00097FC03B0F0BD80B5274801788A005118CC
:1051E00089004018001D4188694AD1610078012872
:1051F00004D0032805D0042803D001BDFFF780FCAC
:1052000001BDFFF76FFF01BD70B400211A4B19807B
:105210000C330422042432251800083801709E1F24
:1052200031801D60596099601E1F31801973D981CA
:105230005D619961D96119822833641EECD1544BA8
:1052400059805248006880B2CD2444435C601961A3
:10525000704C1925200008380160002020806080F3
:105260006160A081E08118346D1EF3D1187059611E
:1052700099611A6270BC7047C0320020F3B5444C8B
:105280002021615C490701D40820F6BD002805D023
:105290000199002902D001680A0001D10E20F6BD53
:1052A0003A4B1D688288ADB2954215D3082A13DBAC
:1052B000C5886E4635806D462D88002D0CD01D6842
:1052C000ADB22E02761B65686F463F885743ED19D5
:1052D000AE4201D3950701D00720F6BD6588322D77
:1052E00001D10420F6BD019E35606668019F7E6095
:1052F000254E6F007F19BF00F619019F7F68776008
:1053000031603281C18871811A6819681E686768C6
:105310008388C088434392B29818401E89B2FDF733
:10532000DDF8B6B27043381860606D1C65800020EF
:10533000F6BD30B45B4B1B785B0701D4082020E03E
:10534000002801D0002A01D10E201AE00368322B78
:1053500012D20D4C5D00ED18AD0064192568002DCA
:105360000AD04068258969434018616865892489A5
:1053700065434919884201D3072002E01360506059
:10538000002030BC70470000B82E00201000001034
:10539000B8340020F2B582B042490978490701D4F7
:1053A000082034E00299002901D0002801D10E2004
:1053B0002DE00168322917D23B4C4D006918890055
:1053C0006618316800290FD031890C00456877686C
:1053D00076896643BE19B54206D2002A04D09142AE
:1053E00002D3D1188C4201DA072010E00321029C7D
:1053F0000C4203D10B4201D10D4201D0102006E036
:1054000000931300029A01000420FFF7A3FC03B0ED
:10541000F0BD0000C02E0020F8B504000D002148AA
:105420000078400701D40820F2BD002C01D10E20E5
:10543000F2BD206832282AD21B4942001018800091
:105440000E183068002822D0676870687189328928
:105450005143401887421AD2B80701D01020F2BD3C
:105460007068381A1146FDF73CF800290FD1280062
:105470003189FDF733F8002909D1002D07D0706874
:1054800031897289514340187919884201D2072025
:10549000F2BD002000902B00002221000320FFF726
:1054A00059FCF2BDD8340020B82E0020401E00BFA9
:1054B00000BF00BF00BF00BF00BF00BF00BF00BFF4
:1054C00000BF00BF00BFF1D1704711B581B0064CDD
:1054D00005E00198401E01902000FFF7E7FF0198CA
:1054E0000028F6D113BD0000E7030000F8B580489E
:1054F00002F0E6FD02F032FE02F053FF002801D177
:1055000002F026FF0126AB48466000257948056079
:1055100079480660A848056045600420A649C8602F
:10552000764805601020C1494860754F3868754954
:10553000014039603868C121890201433960724CE9
:1055400020000C3002F014FE20000D3002F010FE9E
:105550006E4A6F49207B02F067FE6C4A9749607B78
:1055600002F062FE207B02F07CFE607B02F079FE9E
:105570009348066093480560FF20801C92490860AC
:105580009248056045600421C16088039049086025
:1055900001210A2003F046F88E4A012137A001F0CC
:1055A00086FD8D4A002100BF35A001F080FD964A9E
:1055B000002100BF33A001F07AFD944A002100BF12
:1055C00031A001F074FD9A4A002100BF2FA001F024
:1055D0006EFD984A002100BF2DA001F068FD964A9B
:1055E000002100BF2BA001F062FD2000143001F06B
:1055F000DAFD70484660C660386803218843386029
:1056000010208A494860E5802572C8202080658086
:10561000A680FA20C000E08180086749C863FA20AC
:105620000864102081494860396803200843F82144
:1056300049010143396000BF00BF00BF38605D48C9
:1056400006602672002294492000143001F06CFD9F
:105650000420764908600022A4214900200054302B
:1056600001F062FD0022F021C9022000343001F077
:105670005BFD9434200002F077FCF1BD341F002064
:10568000541F0020741F0020141F0020EC33002042
:10569000183400204434002080B503F025F801BD03
:1056A00010B48B4A01235360D3608A4C2060BB48FE
:1056B0000160136010BC704700B501008648FCF71C
:1056C0000DFF864908604008486010209649086030
:1056D0000B48026803211143F82252010A43026079
:1056E00000BF00BF00BF016001203249086000BD5B
:1056F0008B5802000C9C0040009200400493004034
:1057000010650040FFE0ECFF001F0020006000403B
:105710004491004010B5864C2000743001F043FDE8
:1057200042488021C9024160890901604900416005
:105730000020208200229A497434200001F0F4FCF9
:1057400010BDF3B581B017001D00794C2000143056
:1057500001F029FD754801260660866091480168C0
:1057600003229143016010206F4908600020E0800F
:1057700020726846008920806780A58068468088FE
:10578000E08168468088FFF797FF267268460289A5
:105790000023D203FA20400000218018FA22920050
:1057A000FCF725FC010000221434200001F0BCFCB1
:1057B00003B0F0BD009000400495004040910040CF
:1057C00004A000400CAC004000A2004004A5004032
:1057D00004A300409D580200B1580200F8B506002D
:1057E0000F0015009C4C20000C3001F0DCFC6E48D2
:1057F00080214905416000220023E3802272268037
:105800006780A58001602EE0E15802003559020052
:10581000F8B506000F001500A64C20000C3001F072
:10582000C2FC61488021090314E000000805005013
:10583000AD590200035A02005D5A0200F8B5060095
:105840000F0015009C4C20000C3001F0ACFC5648B9
:105850008021C902016000220023E3802272268099
:105860006780A580416001202072F603FA20400085
:1058700000218019FA229200FCF7B9FB01000022F6
:105880000C34200001F050FCF1BD0421264A1160C7
:105890008A490880704700009A19000080B50420EA
:1058A0004149086000224221854801F03DFC01BDCC
:1058B000012084490860704738B50024824804609C
:1058C000364D2868010001D080472C6031BD0000B2
:1058D00000A0004040A5004040420F00409500401D
:1058E00010B5134C208A3049802252015300002801
:1058F00006D1012020824B604A600022490B1BE741
:1059000001280AD10B604A6000222549200074302A
:1059100001F00AFC0220208210BD4B604A6000208A
:1059200020829001086010BD0C05005004900040DA
:10593000001F002038B5654CA088E18881422CD238
:105940000125227A002A13D0BA4A15609560154ABB
:1059500013680325AB4313601022B74B1A60002273
:105960002272491CE18089B2814216D2628804E029
:10597000E089FFF7A1FE257222880023D203FA20D6
:10598000400000218018FA229200FCF730FB010051
:1059900000221434200001F0C7FB31BD9C350020EB
:1059A000CD0C0000106500400805005038B52A4CA9
:1059B000A088E188814223D2A04A80235B05257A12
:1059C000002D09D0536000222272491CE18089B267
:1059D000814215D2628803E0136001202072228880
:1059E0000023D203FA20400000218018FA229200FE
:1059F000FCF7FDFA010000220C34200001F094FBBA
:105A000031BD38B52B4CA088E188814223D28B4A26
:105A100080231B03257A002D09D0136000222272F7
:105A2000491CE18089B2814215D2628803E053604B
:105A30000120207222880023D203FA204000002196
:105A40008018FA229200FCF7D2FA010000220C34EE
:105A5000200001F069FB31BDE033002038B5164C61
:105A6000A088E188814223D2744A8023DB02257A10
:105A7000002D09D0136000222272491CE18089B2F6
:105A8000814215D2628803E053600120207222888F
:105A90000023D203FA20400000218018FA2292004D
:105AA000FCF7A5FA010000220C34200001F03CFBB9
:105AB00031BD00000C340020383400208E3400202A
:105AC000541F00200070004040A10040001F002033
:105AD000F8B50C1D256800BF5DA1280002F06EFA24
:105AE000002806D1606802F0F2F880B2FFF7E4FD0A
:105AF000F1BD00BF58A1280002F060FA002824D0B0
:105B000057A1280002F05AFA002815D1206902F0A6
:105B1000DEF80600E06802F0DAF80500A06802F09E
:105B2000D6F80700606802F0D2F8B3B2AAB2B9B2F0
:105B300080B2FFF706FEF1BD4CA1280002F03EFA4C
:105B400000280FD13E4801F02EFB3A4801210160A8
:105B500081603C480168032291430160102037496D
:105B60004860F1BD44A1280002F028FA002812D1B3
:105B7000354C2000743001F016FB30488021C902FA
:105B800041608909016049004160002020820022B3
:105B90002E49743475E600BF3AA1280002F00EFACF
:105BA000002845D039A1280002F008FA002810D1B9
:105BB000E06802F08CF80600A06802F088F80500A2
:105BC000606802F084F8B2B2A9B280B2FFF706FEB4
:105BD000F1BD00BF2FA1280002F0F0F9002810D17C
:105BE000E06802F074F80600A06802F070F80500A2
:105BF000606802F06CF8B2B2A9B280B2FFF708FE9A
:105C0000F1BD00BF25A1280002F0D8F900280FD16E
:105C1000E06802F05CF80600A06802F058F80500A1
:105C2000606802F054F8B2B2A9B280B2FFF706FE83
:105C3000F1BD0000049000400C0500500805005024
:105C4000141F002010650040001F0020CD0C000034
:105C500062757A6F6E00000062757A6F666600008A
:105C6000616C61726D73746172740000616C617259
:105C70006D73746F700000006C6F636B6F70656E96
:105C800000000000626174766F6C00006C656474E3
:105C9000700000006C656477617200006C6564667A
:105CA0006C61670080B5544802F05EF953480F21DB
:105CB00001601021816001BD30B583B01D006C46CC
:105CC0002070080A6070A170100AE070227105222D
:105CD0006946042000F0CDF84949684600F029F9EA
:105CE00000280ED1002D0CD00699002909D0227869
:105CF000120263781A432A80A2781202E3781A43C8
:105D00000A8003B030BDFA218900002000F011F9AB
:105D100002BD80B56A461070080A50709170032267
:105D20006946062000F0A5F8EDE771B581B00C00DA
:105D3000012201A9092000F09CF8FA218900002025
:105D400000F0F7F806000ED180256D002A00210032
:105D5000082000F0B4F80A20FFF7B7FB2A00A118CA
:105D6000082000F0ACF8300076BD80B56A46030A22
:105D700013705070080A9070D170042269460C208C
:105D800000F077F8BFE780B5002200210D2000F079
:105D900070F8FA21C900B8E710B582B004000022FB
:105DA0000021102000F065F81549684600F0C1F8A0
:105DB000002805D169460A78120249780A432280F0
:105DC00016BD38B505000C0000220021112000F09E
:105DD00050F80B49684600F0ACF800280AD1694633
:105DE0000A7812024B781A432A808A781202C978FC
:105DF0000A43228032BD0000E02100200C25004033
:105E0000B80B000010B582B00400EF2002F0C3FD13
:105E1000012002F0C0FDFF2002F0BDFDFF2002F0D6
:105E2000BAFDFF2002F0B7FDFF2002F0B4FD012013
:105E300002F0B1FD002002F0AEFD032002F0ABFD48
:105E40001D2002F0A8FD002002F0A5FD212002F097
:105E5000A2FDC821684600F06CF8002807D1002C8C
:105E600005D069460A78120249780A43228016BD95
:105E70000000F2B504001700EF2002F08CFD0120B5
:105E800002F089FDFF2002F086FDFF2002F083FD75
:105E9000FF2002F080FDFF2002F07DFD012002F0D6
:105EA0007AFDFD1C2804000E02F075FDE8B202F038
:105EB00072FD200002F06FFD2C19641C20E0F2B589
:105EC00004001700EF2002F066FD012002F063FDE0
:105ED000FF2002F060FDFF2002F05DFDFF2002F0D8
:105EE0005AFDFF2002F057FD200002F054FDBD1CBA
:105EF0002804000E02F04FFDE8B202F04CFD6419D8
:105F0000A4B20025009E08E0307802F044FD30780D
:105F10002418A4B26D1CADB2761CBD4202DA009802
:105F20000028F1D1200A02F036FDE0B202F033FD84
:105F3000F1BDF3B587B000240025002703AE70192A
:105F400002F012FD00280AD16D1CADB2022D12D153
:105F50003078EF2802D17078012800D00025012088
:105F6000FFF7B3FA641CFFF797FB6846008CA4B2F6
:105F70008442E4D33CE00A2DF1D1B379072BEED172
:105F8000707A0700317AF2799B185B18181880B282
:105F9000009010020143C81E80B2019000250DE060
:105FA00007984619300002F0DFFC002806D100985F
:105FB0003178401880B200906D1CADB201988542D6
:105FC000EEDB002502AE701902F0CEFC002800D1F5
:105FD0006D1C022DF7DB307800990904090E884208
:105FE00004D170780099C9B28842C3D0FE27C1E7B6
:105FF0006846008C844200D3FF27380009B0F0BD0A
:106000000000000030B585B00C1D256859A128009E
:1060100001F0D4FF00280BD1534880218902016090
:10602000890801600C20514908600420504910E0A3
:1060300052A1280001F0C2FF00280CD14A4880215B
:106040008902416000214A4A1160D10B416004205D
:106050004649086086E000BF4BA1280001F0AEFF72
:10606000002800D17EE000BF49A1280001F0A6FF72
:10607000002808D1606801F02AFE00220021C0B289
:10608000FFF7F7FE6EE000BF43A1280001F096FF86
:10609000002800D166E000BF42A1280001F08EFF79
:1060A00000285FD041A1280001F088FF002859D0C6
:1060B00040A1280001F082FF002853D03FA1280012
:1060C00001F07CFF00284DD03FA1280001F076FFB1
:1060D000002847D03FA1280001F070FF002841D0E0
:1060E0003FA1280001F06AFF00283BD03FA1280013
:1060F00001F064FF002835D03EA1280001F05EFFCA
:1061000000280DD168460021002200230EC00F2078
:10611000FFF7AFFEFA2189006846FFF70AFF21E08A
:1061200037A1280001F04AFF00281BD036A1280023
:1061300001F044FF002815D036A1280001F03EFFF1
:1061400000280FD037A1280001F038FF002809D01F
:1061500039A1280001F032FF002803D038A128001F
:1061600001F02CFF05B030BD08050050400700507D
:1061700000250040706F7765726F6E00706F7765F5
:10618000726F6666000000006973746F7563680063
:1061900073656E64636D6400676574696D616765DE
:1061A0000000000067656E63686172006D61746372
:1061B0006800000073656172636800007265676D56
:1061C0006F64656C0000000073746F7265636861D2
:1061D000720000006C6F616463686172000000000F
:1061E00064656C657463686172000000656D70744D
:1061F0007900000072656164737973706172610087
:10620000656E726F6C6C0000696E64656E746966B1
:10621000790000006869676873706565647365611B
:106220007263680076616C696474656D706C657426
:10623000656E756D00000000757063686172000026
:10624000646F776E6368617200000000401E00BFDB
:1062500000BF00BF00BF00BF00BF00BF00BF00BF46
:1062600000BF00BF00BFF1D170470000F8B5294C56
:106270002000683001F078FEA42202212BA002F059
:1062800003FC02F033FC244A012100BF2BA000F0E4
:106290000EFF00228021C9012000283000F044FFB9
:1062A0001E4A002126A000F002FF1D4D8027BF02DC
:1062B0002F60BE082E600C201A49086004201A497D
:1062C0000860C820FFF701F90020FFF79BFD0028B8
:1062D00003D0A07D01210143A1756F600020124908
:1062E00008606E6004200F4908600021012000F062
:1062F000E1F9012803D0A07D02210143A17501200D
:1063000000F036FA012803D0A07D04210143A175D5
:10631000F1BD0000B8200020376802005D6802006F
:106320000805005040070050002500400E01010004
:106330007F6A02001D0003007F6A0200E020002047
:1063400000210020F0B585B0002069460860B94CF6
:10635000E07DB94E06283BD0072800D097E0207D8D
:10636000002873D00020207500F002FA05001ED42A
:1063700002F078FC002869D0CB480768380000F0AC
:10638000F7F90021C94388420CD1C8490F60AB001E
:106390009BB20422C648FEF7FDFF002802D104206C
:1063A000FDF781FB39000120FCF781FB37E0032377
:1063B000C8229621C420C000FFF7C3F90322C821D8
:1063C0009620FFF725FA00210020FCF770FB26E05D
:1063D000B0684104C90F39D000A9891C6846FFF78D
:1063E000F0FC092813D16846FFF7D6FC050010D051
:1063F0000323C8229621C420C000FFF7A2F903227C
:10640000C8219620FFF704FA2900002005E00028A3
:106410000AD168460188C9B20120FCF765FBFDF787
:1064200044F8801F206211E0FF280FD10323C82207
:106430009621C420C000FFF784F90322C8219620CA
:10644000FFF7E6F9FF210020FCF74EFBFDF72DF8E2
:10645000216A401A05281DD30020E07520203060F5
:106460000020BE490860880D7060400070600425FF
:10647000BB4F3D60000270600020BA490860C80B45
:1064800070607D6200013060400830608AE0FDF796
:106490000CF82062E07D002800D183E0062800DBB4
:1064A00000E105280CD1A07D00286DD10123002238
:1064B00096214900AC48FFF744F9FFF72BF96FE04C
:1064C000012815D10125A9484068806828405BD083
:1064D0000123002296214900A348FFF732F9FFF774
:1064E00019F9FCF7E2FF019001A80572607C46E013
:1064F000042815D108259D4840688068284043D06D
:1065000001230022962149009748FFF71AF9FFF767
:1065100001F9FCF7CAFF019001A8057200202EE0E6
:10652000022815D1042591484068806828402BD066
:1065300001230022962149008B48FFF702F9FFF75B
:10654000E9F8FCF7B2FF019001A80572606A16E055
:10655000032819D10225854840688068284013D057
:1065600001230022962149007F48FFF7EAF8FFF750
:10657000D1F8FCF79AFF019001A80572A07C029067
:1065800001A8FDF799FA0BE00223C8229621C42046
:10659000C000FFF7D6F80222C8219620FFF738F98D
:1065A0000020E07500F0CAF9607D002812D00020BC
:1065B0006075B0684104C90F01D000F059F980201E
:1065C00080027060002067490860C80B706004207A
:1065D00063494862207D002864D00020207504258E
:1065E0005F4F02F03FFB002851D020203060002098
:1065F0005A490860880D7060400070603D602A480C
:106600000068616A814243D0606200F0B1F8049092
:1066100000281CD4A07D04210143A175FCF745FF8F
:1066200092494968049A92008958884206D2022009
:106630001BE000BFB8200020080500500223C8223C
:106640009621C420C000FFF77CF802221AE0002146
:10665000C94388421CD1012000F08AF80128A07D9E
:1066600005D1FB210140A1750520E07510E0042152
:106670000143A1750323C8229621C420C000FFF75F
:1066800060F80322C8219620FFF7C2F800E060629C
:1066900020203060002031490860880D7060400083
:1066A00070603D6005B0F0BDD421002010310020A5
:1066B00050210020F0B585B006000F00002E10D14B
:1066C00000249C484068017830390A293CD2641C77
:1066D000017B30390A2937D2641C1830202C38DA73
:1066E000F1E7012E12D10024924840680178303938
:1066F0000A2903D2C17830390A2903D3641C0C302B
:10670000202CF3DB202C24D1012024E03A00101FA0
:1067100009281ED231006846FBF79EFC00248548FC
:1067200040686100091989004518287830380A281E
:106730000CD22800FBF747FC03003A002900300088
:1067400001F0A4FA002801D0200004E0641C202CF1
:10675000E5DB0020C04305B0F0BD0000003500407F
:106760001C07005000250040C40700003421002011
:10677000010071484268002000291DD111680029DC
:1067800058D00023DB43994254D0401C5168002963
:1067900050D099424ED0401C916800294AD099426D
:1067A00048D0401CD168002944D0994242D0401CB6
:1067B000103278283CDAE1E7012926D11168002956
:1067C00003D00023DB4399421BD1401C51680029B0
:1067D00003D00023DB43994213D1401C9168002968
:1067E00003D00023DB4399420BD1401CD168002920
:1067F00003D00023DB43994203D1401C1032782898
:10680000DCDB782814D10120704713688B4211D04B
:10681000401C53688B420DD0401C93688B4209D0BA
:10682000401CD3688B4205D0401C10327828ECDB2A
:106830000020C043704780B5A5480168002904D1F5
:10684000012101600020A34908602020A2490860BE
:10685000C049FA204000FEF723FF01BD0120BE49D8
:10686000487570470120BC490875704758210020C1
:1068700070B582B0002469460C60891C6846FFF739
:10688000A0FA002825D19448802189020160B349EB
:106890000C60C90B01600420B14908600125AE4EAF
:1068A000B07D2843B075FCF700FEAE4949686A46E2
:1068B000128892008958884202D27474F57573BDAB
:1068C0000223C8229621C420C000FEF73AFF02220C
:1068D00025E009282CD1A04E6846FFF793FA00283E
:1068E00022D17D488021890201609C490C60C90B3E
:1068F000016004209A490860B07DFE210140B17515
:1069000068460088002802D10520F07573BD032376
:10691000C8229621C420C000FEF713FF0322C8211D
:106920009620FEF775FF73BDB07D01210143B1755F
:1069300073BD0000482100205021002070B5864C16
:10694000E07C00282AD00025E57402F0DDF906007D
:10695000217E8E4222D0267600281FD001220021DF
:1069600096204000FEF73AFF0123002296210801FD
:10697000FEF7E7FEFCF799FDE061207C0C2803DAC6
:106980002654401C207405E00B22611C200002F0FC
:106990008FFAE6722A2E01D1257470BD207C04285E
:1069A0005EDBFCF782FDE169401A022858D3217CA6
:1069B0002000FFF77FFE060021D4A07D02210143C5
:1069C000A175FCF772FD002567494968B200891876
:1069D000C02252008958884204D2A6740320E07570
:1069E00025741EE02574FCF760FDE0610223C822D7
:1069F0009621C420C000FEF7A4FE02222CE0002055
:106A0000C04386422CD100210120FFF753FE01280C
:106A10000BD1A07DFD210140A1750520E07500206E
:106A20002074FCF742FDE0611AE0FCF73EFDE169ED
:106A3000401A032814D3A07D02210143A175002030
:106A40002074FCF732FDE0610323C8229621C420A4
:106A5000C000FEF776FE0322C8219620FEF7D8FE7E
:106A6000207C00280AD0FCF720FDE169401A0328A9
:106A700004D300202074FCF718FDE06170BD80B5E0
:106A80000E2819D1394988684204D20F1ED03248E5
:106A9000427D002A1AD1802292020A6092080A607E
:106AA0000C212F4A116004212C4A11600022304928
:106AB000483000F039FB01BD1D2807D12B48806804
:106AC0000121400F084001D12348C17401BD0000DD
:106AD000003500401C0700500C05005010B5091D82
