:020000040001F9
:10B00000482A0020F93F0200E7C6010073C701008B
:10B010000000000000000000000000000000000030
:10B02000000000000000000000000000B7D901008F
:10B030000000000000000000E3320200B340020004
:10B04000BF40020003410200CDE101007B3E02004F
:10B050002B3C02000000000069EC010023410200CB
:10B06000533F0200613F02004D4102004F41020088
:10B070005141020053410200554102005741020074
:10B080007DED0100BBDE0100594102005B41020081
:10B09000D3DE01005D4102000D1F02005F4102008E
:10B0A0006141020063410200000000000000000056
:10B0B0000000000000000000000000000000000090
:10B0C000F1B5A4B014001F0014ADA9600020E8621F
:10B0D0000AE0A868249A9047A860002800D1CFE22F
:10B0E000E86A401CE862641C2178080001D1E86A23
:10B0F000C8E22529EDD100206861A861E8612862D5
:10B100006862A86202E0010001200843641C217803
:10B110002029F8D023290ED02B2904D02D2907D09F
:10B1200030290BD00DE001000220084380B2EDE78A
:10B1300001000420F9E701000820F6E701001020D3
:10B14000F3E72A290FD1396839600A68091D396087
:10B150006A63002A05D5514269630100042008434F
:10B1600080B2641C12E0002169630AE06A6B794BCB
:10B170009A4205D093009A185200511830396963E9
:10B18000641C21780A00303A0A2AEFD321782E294C
:10B1900003D00021C94329631EE0641C21782A29B9
:10B1A00007D1396839600A68091D39602A63641C4F
:10B1B00012E0002129630AE02A6B664B9A4205D00F
:10B1C00093009A185200511830392963641C217871
:10B1D0000A00303A0A2AEFD328872678310004483B
:10B1E00078440C3000F0DDFE002803D0641C02E03F
:10B1F000E48E000000263A202E54285C682804D1F2
:10B200002178682901D1622005E06C2806D12078D8
:10B210006C2803D171203A216854641C05A8286168
:10B220002678641C300025382AD01C3800D1D8E09C
:10B23000001F022800D8D4E0133800D1F6E0093806
:10B2400000D1CEE0801E00D15AE1401E00D134E191
:10B25000401E022800D8C4E0001F00D12DE1401F8D
:10B2600000D190E0401E00D1E0E0401E27D0C01E7B
:10B270000BD0801E00D1D9E0C01E00D1D6E049E13C
:10B2800025206946087501204EE13868386001685C
:10B29000001D3860E9602E6B002E03D5084600F0D3
:10B2A0008AFE0AE032000021E86800F08CFE0028E7
:10B2B00002D0E968401A00E03000A86135E1386842
:10B2C00038600268001D38600020C0430021104033
:10B2D00014AA03C205A8E860286900903C2214A8BB
:10B2E00003C802AB03C302A803C8002904D1002885
:10B2F00002D1286B00281DD0521E02A803C80007E7
:10B30000000F3030C0B23A2800DB27300099885453
:10B3100002A803C800090B071843090902AB03C3BD
:10B3200002A803C801D1002804D0E8680099891850
:10B330008842E1D33C20801AA86100998918E9600D
:10B34000296B88420ADA081A2862288F02490140CC
:10B350002987EAE0FFFFFF7FEFFF0000002900D40C
:10B36000E3E03821695C14220A40102A00D0DCE0B6
:10B37000696B6A69891A2A6A891A0A1A012A00DA23
:10B38000D3E02A62D1E03A20285C622819D06828EC
:10B3900006D06A280CD06C281BD0712808D018E081
:10B3A000386838600168001D3860E86A0880BCE0D1
:10B3B000386838600268001D3860E86AC11703C247
:10B3C000B3E0386838600168001D3860E86A0870CA
:10B3D000ABE0386838600168001D3860E86A0860D2
:10B3E000A3E03A68D21D072082433A6003CA3A605C
:10B3F00014AA03C2002902D568692D2109E0288F0B
:10B40000810702D568692B2103E0C00705D568696B
:10B41000202105AA1154401C686105A869694018DB
:10B42000E860310014A800F0FBF97EE03A20285CC7
:10B430006C280BD0712801D06A2807D13A68D21D38
:10B44000072082433A6003CA3A6005E039683960F0
:10B450000868091D3960002114AA03C23A20285C3B
:10B46000682803D114A803C880B20BE0622803D176
:10B4700014A803C8C0B205E0742801D07A2804D10A
:10B4800014A803C8002114AA03C23820285C0007AE
:10B490002DD514A803C8002901D1002827D02020C9
:10B4A0003043782823D16869302105AA1154401C03
:10B4B000411C696105A90E5419E039003A20285C45
:10B4C00000F0E2F814AA03C2002902DA68692D210B
:10B4D00009E0288F810702D568692B2103E0C007A6
:10B4E00005D56869202105AA1154401C686105A88A
:10B4F00069694018E860310014A800F0F9F814E018
:10B5000001206861386838600168001D386068464D
:10B5100001750AE025206946087501206861300040
:10B5200003D005A8467002206861686B6969401AFB
:10B53000296A401AA969401A696A401AE969401AD9
:10B54000A96A401A04903820285C400711D42020B2
:10B5500069460871049801280BDB049E012301AAA7
:10B5600014A9249800F005FD002800D088E0761E7C
:10B57000F4D1686905AE00280FD000903178A86832
:10B58000249A9047A86000287AD0E86A401CE862B4
:10B59000761C0098401E0090F0D13020694608715A
:10B5A0002E6A012E09DB012301AA14A9249800F0B8
:10B5B000E0FC002864D1761EF5D1EE68A869002869
:10B5C0000FD000903178A868249A9047A86000288E
:10B5D00056D0E86A401CE862761C0098401E009035
:10B5E000F0D13020694608716E6A012E09DB012313
:10B5F00001AA14A9249800F0BCFC002840D1761EB2
:10B60000F5D1E868A9694618E86900280FD00090CC
:10B610003178A868249A9047A860002830D0E86A5A
:10B62000401CE862761C0098401E0090F0D130204B
:10B6300069460871AE6A012E09DB012301AA14A92B
:10B64000249800F096FC00281AD1761EF5D13820F7
:10B65000285C400700D447E520206946087104981B
:10B66000012800DA40E5049E012301AA14A92498C8
:10B6700000F07FFC002803D1761E00D134E5F3E70B
:10B680000020C04325B0F0BD0A00622822D06828FF
:10B6900019D06A2808D06C2823D0712804D07428C7
:10B6A0001FD07A2808D01CE01368DB1D07208343D5
:10B6B000136003CB13607047116811600868091D9F
:10B6C000116000217047116811600868091D116040
:10B6D00000B20BE0116811600868091D116040B2EA
:10B6E00004E0116811600868091D1160C1177047F6
:10B6F000F3B583B0006900906846027C6F2A01D1DF
:10B70000082406E020211143782901D00A2400E012
:10B7100010243C25039803C806000F00642A01D0BA
:10B72000692A07D1002905DA00200021801BB941D0
:10B7300006000F00002F10D1002E0ED10398006BD1
:10B7400000280AD1082C3AD103983821405C000720
:10B7500035D53B253020009930E06D1E0195300035
:10B7600039002200E31700F03AFC3032D2B23A2A14
:10B7700003DB6846007C51381218009842553000AF
:10B7800039002200E31700F02AFC06000F0001D167
:10B79000002E05D00398C068009949198842DCD36F
:10B7A000082C0CD103983821405C000707D500987D
:10B7B000405D302803D06D1E3020009948553C2054
:10B7C000401B0399886100994919039AD160039934
:10B7D000096B884209DA081A039908620398008FF6
:10B7E0000E4901400398018715E0002913D50399FC
:10B7F0003822895C14220A40102A0CD10399496B23
:10B80000039A5269891A039A126A891A0D1A012D2C
:10B8100001DB0398056205B0F0BD0000EFFF0000FA
:10B82000F3B591B006AA03C802AB03C312A800780F
:10B8300020210143009161290BD01198006B002851
:10B8400001D5062003E004D1672902D10120119916
:10B850000863119840684100490DA64B994225D1D3
:10B86000000310D11198006800280CD10320119911
:10B87000886112A8007861381A283AD31F487844A2
:10B880007A3000900BE003201199886112A80078AB
:10B8900061381A2829D31A4878446430009003226A
:10B8A00000991198C06800F0CFFBE9E1012919DB8C
:10B8B000914B034091481843119B586090480D1AD2
:10B8C0000026F6430098612827D11198C0683021DE
:10B8D0000170811C119BD96012A90978612915D1C9
:10B8E000782114E000260025ECE70648784414305F
:10B8F000D4E7054878441030C3E700BFEC87000068
:10B90000E0870000D8870000DC87000058214170E4
:10B9100011984069801C11994861002E03D10024C0
:10B9200068468680A3E10098612800D09EE01198C7
:10B93000046B002C01D5212400E0641C24B2601C9F
:10B9400000901198C0C802A803C80022002300F08C
:10B95000A9FB02D280200006474002A8C0C0281FD1
:10B960006946888000260E7606A8471C00980128A4
:10B9700035DB02A803C8002280235B0300F0ABFB89
:10B980002DD81C2102A800F0BFFB02A803C800F0BC
:10B99000FBFB05000098C01F009001280ADB28006F
:10B9A00000F020FC02000B0002A803C800F091FC8C
:10B9B00002AA03C2F81D072104E0401E2A07120F45
:10B9C00002702D11012D01DB491EF6D5491E02D44E
:10B9D000401E0670FAE7C71D00980128C9DA06A8BC
:10B9E000401C391A06A8421CA14200DA0C0024B2FD
:10B9F000200032D4884205DA06A9091849780829B6
:10BA000000DB0F2606A9091801E0641E491E401E2E
:10BA10000B78B342F9D00F2E04D106A909184B7840
:10BA20005B1C4B70002806D506AA641C019800B266
:10BA3000001D6946888024B2601E0ED411180B7850
:10BA40003033DBB23A2B03DB12AD2D783A3D5B1974
:10BA50000B70401E491E0028F1D51198006B00287C
:10BA600000D404E1601E1199086300E102A803C834
:10BA70000022002300F016FB06D202A803C8802291
:10BA80001206514002AA03C22DB27E4868437E4985
:10BA900000F0ACFC694688800720019909B2421A7F
:10BAA00000207A49012A20DB049202AA30CA00262B
:10BAB0000F000498C00707D532003B002000290082
:10BAC00000F0EEFC04000D000498401004903000DB
:10BAD000390032003B0000F0E3FC06000F00049840
:10BAE0000028E6D102A830C029E054420026684F61
:10BAF00019E000BFFF070000FFFF0F800000E03FDC
:10BB0000FE030000E00707D504A803C832003B008D
:10BB100000F0C6FC06000F00641004A803C804AAC5
:10BB20000CCA00F0BDFC04AA03C2002CEAD102A892
:10BB300003C832003B0000F075FD02AA03C2009862
:10BB4000662803D1019800B20A3000E0062011995E
:10BB5000096B08180490142801DB1320049030208E
:10BB60006946087606A8441C049801283BDB02A815
:10BB700003C800F01BFB06000834042530000A212E
:10BB800000F037FC0F0030000A2100F032FC060004
:10BB90003037601E077030000A2100F02AFC0F00C9
:10BBA00030000A2100F025FC0600A41E3037277063
:10BBB0006D1EE3D108340498083804900128D3DBC3
:10BBC00002A803C800F0F2FA00F016FB02000B0016
:10BBD00002A803C800F07DFB00222E4B00F060FCA1
:10BBE00002AA03C2C3E706A8401C201A06A94A1CE1
:10BBF0006B4605E0401E019909B2491E9980521C0E
:10BC000011783029F6D00099662903D1019909B23B
:10BC1000491C04E0652901D1012100E00021119BAC
:10BC20001B6B5C1824B2A04200DA040024B221008D
:10BC30001DD4814204DA505C352801DB392000E054
:10BC40003020531800E0641E5B1E491E1D7885429B
:10BC5000F9D0392802D1505C401C5054002906D537
:10BC6000521E641C019800B2401C694688800198ED
:10BC700000B2009023B212A80178119800F00CF8DD
:10BC800013B0F0BD97750000A086010000002440AD
:10BC90000000F03F84D79741F3B587B015001C0032
:10BCA00000F03BFD0090406A0078694608710798F3
:10BCB000076B012C01DA0124ADA508A8017820202A
:10BCC00008430E9E662801D1761C17E0672800D035
:10BCD0009EE00321C9438E4200DA9DE0BE4200DBB4
:10BCE0009AE0761C07983821405C000702D4BC42D9
:10BCF00000DA270036B2BF1B00D5002707988069FD
:10BD00000799C9680918009136B2012E2EDA401C35
:10BD10003021009A1170012F04DA07993822895CCA
:10BD2000090705D569460979079AD2681154401C5C
:10BD3000079988617042874200DA7E4236B27042CB
:10BD400007994862BF19A74200DA3C0024B207985D
:10BD5000C461220029000798C068079B9B69C0182E
:10BD600000F072F9381B07998862E2E0B44220DAE9
:10BD700022002900009800F067F9079989690919DC
:10BD8000079A9161301B079A5062012F04DA0798D5
:10BD90003822805C000709D568460079079AD26886
:10BDA00050540798C069401C0799C861079887627A
:10BDB000BFE032002900009800F046F9079880693A
:10BDC0008019A41B012F04DA07993822895C09071E
:10BDD00005D569460979079AD2681154401C07991C
:10BDE000886124B2A74200DA3C0024B22200A919DB
:10BDF0000798C068079B9B69C01800F025F9079851
:10BE00008069001907998861381B0799486290E09A
:10BE1000612914D1702015E0BC4205DA0799382257
:10BE2000895C090700D427007F1E00D5002708A8D9
:10BE30000078672801D1652004E0452002E041290F
:10BE400002D1502008A9087007988069411C079A00
:10BE500091612978079AD2681154681C0090012FCB
:10BE600004DA07983821405C000720D507988169DB
:10BE7000481C079A90616A461279079BDB685A54FE
:10BE8000012F14DB641E24B2A74200DA3C0024B266
:10BE900022000099079BDB68181800F0D5F8079876
:10BEA0008069001907998861381B079948620798CB
:10BEB000C06807998969411808A80078087030009F
:10BEC00003D42B2048708D1C03E02D224A708D1C5A
:10BED0004642002404AF08E00A2202A800F038FC21
:10BEE00003983870029E641C7F1C31B20129F3DA7A
:10BEF000022C08DA08A8007820210143652902D124
:10BF0000302028706D1C002C09D1302028706D1C49
:10BF100007E0641E04A8005D303028706D1C012C01
:10BF2000F7DA0798C068079989694018281A0799AD
:10BF3000C86107983821405C14210140102914D1B0
:10BF4000079840690799896940180799496A401814
:10BF50000799C96940180799896A40180799496B78
:10BF6000884202DA081A0799086209B0F0BD000099
:10BF70003000F1B50E0014000027002B0FD01D007B
:10BF80002178B068009A9047B060002806D0F06A27
:10BF9000401CF062641C6D1E01D0F1E7FF433800C5
:10BFA000F2BDC9B200E0401C02788A4202D0002AE9
:10BFB000F9D100207047010000E0491C0A78002AEE
:10BFC000FBD1081A7047C9B201E0401C521E002A7A
:10BFD00003D003788B42F8D170470020704712429B
:10BFE00024D0994228D970B500251B4202D00C00FC
:10BFF000002109E00024012649186441944200D33D
:10C00000A41A7641F8D33100012601E0764109D225
:10C01000001864416D41A41A9D41F7D2A4185D41F6
:10C02000B619F5D3300022002B0070BD1B42D8D1C9
:10C0300008B500F09DFB08BD01D19042D3D20200AB
:10C040000B00002100207047124207D08B0706D05A
:10C050000B78491C0370401C521EF7D870478307A9
:10C0600006D00B78491C0370401C521EF9D1704752
:10C0700070B4103A03D378C9103A78C0FBD2530792
:10C0800001D318C918C001D508C908C0D20704D304
:10C090000B880380891C801C002A01D50B78037053
:10C0A00070BC704730B4012464054D00EC420BD8DD
:10C0B0005D00EC4208D80C001C43640004431443A8
:10C0C00004D2994200D1904230BC7047FCD08B42E0
:10C0D000FAD18242F8E730B4012464054D00EC4205
:10C0E0000BD85D00EC4208D80C001C4364000443EC
:10C0F000144304D28B4200D1824230BC7047FCD042
:10C100009942FAD19042F8E710B40200506840001A
:10C11000400D194B984207D15068000302D11068B6
:10C12000002811D0022025E0002823D001290DDBB2
:10C130001B1A99420AD35068002802D500200F49E3
:10C1400001E000200E4903C2012013E043428B426C
:10C1500009DA53680B4C1C40081800052043506056
:10C160000020C04306E05068802109060840506066
:10C170000020106010BC7047FF0700000000F0FFB7
:10C180000000F07FFFFF0F80F4464A1805D200F050
:10C190000FF801D580174008604700F009F8012129
:10C1A000C907884200D90800404260474A1812D2A5
:10C1B000400DC90208430121C9070843520D40211F
:10C1C0000901521A521C06D452421F3201D4D040E7
:10C1D0007047C0177047002070470268531C036007
:10C1E00011707047010009D5F446404200F006F88E
:10C1F0000122D20711436047010000BF4222120111
:10C20000D21E004207D002D4521E0018FCD5C10A2B
:10C2100040051205891870478B4200D1824205D92A
:10C220008446100062468C4619006346DF184C189D
:10C23000640D7F0D3AD0661C760537D0E61B352E8F
:10C2400034DCDB022B43DB0A0C0DC9022943C91283
:10C25000202E0DDB1700203E06D01F00F741F340D3
:10C260005F400026012A7741C01871410DD217E0C6
:10C270001700F741F2405740F3415A40B340F340B2
:10C280005A400026801859410AD3A21C52050FD0EB
:10C29000C207012F724117004008CB071843490815
:10C2A000641C24054208AF4170416141F0BC7047F5
:10C2B000641C21050020F9E76B4010E06B40ABE700
:10C2C000F742F3D1E943F1E72442EFD10020002106
:10C2D000ECE7F0B40125ED070F005F40EED40C0051
:10C2E000871A9C4105D2C01BA141D2196341694004
:10C2F0006B40AE0ADF184C18F442E1D2640D7F0D9A
:10C30000E2D0E61B362ED1DCDB022B43DB0AA4464F
:10C310000C0DC9022943C90A012E28DC04D1D60715
:10C320005208DF073A435B08EF0A76429041994191
:10C3300014D039423BD1B61940414941761C3942AB
:10C3400004D1761C001849413942FAD0B9436746F6
:10C35000B74208D9A41B24052143A7E70042EAD12C
:10C360003642E8D1A2E7E40AE10700209EE7202E4A
:10C370000BDD203E1F00F340F7415F40012A002201
:10C3800057417E42984191410BE01700F741F2403E
:10C390005740F3415A40B340F3405A407E429041E7
:10C3A00099410A0303D2641EB6194041494100274E
:10C3B000641E24054208AE4178416141F0BC7047DB
:10C3C000F446002804D4494200F013F84042604784
:10C3D0004042002905D45FD000F00BF840424942AA
:10C3E0006047494200F005F84942604703460B4365
:10C3F000E6D40022030A8B420BD203098B4219D2E6
:10C4000043088B422ED2411A00D2014652411046B7
:10C410007047FF2209023FD012068B4205D3121249
:10C4200009028B4201D31212090203098B4219D36C
:10C4300000E0090AC3098B4201D3CB01C01A524163
:10C4400083098B4201D38B01C01A524143098B42AD
:10C4500001D34B01C01A524103098B4201D30B0196
:10C46000C01A5241C3088B4201D3CB00C01A5241BB
:10C4700083088B4201D38B00C01A524143088B4280
:10C4800001D34B00C01A5241884200D3401A524196
:10C49000CFD201461046704708B500F06BF908BDD1
:10C4A000F0B50E005E400125ED072E40B446AE0A01
:10C4B000DF184C18F44208D2F7420ED2640D01D0B6
:10C4C0007F0D12D100206146F0BD05D1F74201D8A1
:10C4D0007F0D05D10020C143F0BDFBD1640DF9D023
:10C4E0000020C143490549088FE0E419C902DB0275
:10C4F00029432B43DB0A460DC00231438E4630B43C
:10C5000087B295B27D432E0CADB2140C7C43A419B6
:10C51000260C240425439CB27C43A419190C7943AE
:10C52000270CC919A4B20F043C43090C000C97B2A4
:10C5300047432E0CBE193543ADB2170C4743360C9A
:10C54000BF19A6B2BF193E043543240C3E0C361960
:10C550009FB24743BF19BCB23E0C89191F0C474319
:10C560007F183E043443390C704680B297B247437B
:10C570002E0CBE193543ADB2170C4743360CBF190C
:10C58000A6B2BF193E043543240C3E0C36199FB2A7
:10C590004743BF19BCB23E0C89191F0C47437F1893
:10C5A0003E043443390C77463F0C90B278432E0C4E
:10C5B00080190604ADB22E43050CA0B22D18120C42
:10C5C0007A435019020C80B2240CA4189AB27A4310
:10C5D000121914042043120C89181B0C7B43C91830
:10C5E00030BCEF0A394203D1B61940414941641EBB
:10C5F0006F12BF0DE41B0BDBFF19BC4211DA2405DF
:10C6000000274208AE417841614166463143F0BDA2
:10C61000641C05D1401C6141CF0201D34908F4E7F5
:10C6200050E75DE7F0B40E005E400125ED072E40B7
:10C63000B446AE0ADF184C18F4423BD2F74241D25E
:10C64000640D43D07F0D38D0E41BC902DB022943BF
:10C650002B43CF0ADB0A0600B61A9F4104D2641EA0
:10C66000B6197F41B6185F416812800D2418001872
:10C67000844222DAE80C0021B6197F41B61A9F41A4
:10C6800002D2B6185F413F1C40414941F4D3241CFB
:10C6900021DD2405B6197F41B61A9F4105D33743E2
:10C6A000C60737430026012F70416141664631437A
:10C6B000F0BC7047FCD1F74205D20020C1434905C8
:10C6C0004908F3E704D00020C143F1E77F0DFAD019
:10C6D00000206146ECE72442FAD1401C61410F037F
:10C6E000F6D30020E2E7FEE780B5124800F043F8F9
:10C6F00011A1016041608160C1600161416181619E
:10C700000EA242628162C162016341630CA2826334
:10C710000DA2C2630164416401BD10B5054800F07B
:10C720002AF804002068002801D1FFF7DDFF20006F
:10C7300010BD0000C0250020000000002E000000F9
:10C7400066616C736500000074727565000000001E
:10C750007CB504000E00150030002900FFF746FEEE
:10C7600000904543701B0190684603C803C473BD25
:10C770007047FEE77047704752000A439900114323
:10C78000009A12020A430199090411438B4A80005E
:10C790001150704700B583B0002101910091002332
:10C7A00001220121FFF7E8FF07BD00B583B0002299
:10C7B000019200920B000021FFF7DEFF07BD000091
:10C7C00010B57F4C802252002100A01801F08AF899
:10C7D0007C4A002108A001F0BDFB88204000201801
:10C7E00001F01AF8784C1020206000BF03A001F07F
:10C7F0005BFC0520206010BDA01F00203E2047509C
:10C80000525320496E69740D0A0000006F48006899
:10C81000042800D0704780B500F0E2F801F0BFFCBA
:10C820006B49C98B014301D000F00CFA01BD684986
:10C830008A7E824206D08876002803D1C86C012205
:10C840000243CA6470470000F1B50C00614884429D
:10C8500000DB441E5E48007E062840D110275A485F
:10C860000760009A210000BF1EA001F01DFC0526F4
:10C870005548066000250098002825D0200023D0C8
:10C8800051480660210000BF1EA001F00DFCFA21F6
:10C89000890051A000F0ACFC002815D04A48066081
:10C8A0002100009801F081FC4C4900BF19A000F064
:10C8B0009FFC002808D001780A0002D0401C3A29C9
:10C8C000F9D100F05BFE05003F480760AAB22100E5
:10C8D00014A001F0E9FB3C48066020B2F2BD002044
:10C8E000C043F2BD3E20475052535F536F636B65A8
:10C8F0007453656E64446174613A252E2A730D0A7F
:10C900000000000041542B43495053454E443D25FF
:10C91000640D0A0044415441204143434550543A78
:10C92000000000003E2054435049505F53656E6440
:10C930002025752C207265743A25640D0A000000CC
:10C940000020C043A7494A7E062A0CD0032A0AD0F9
:10C950000020052A07D10A7E062A04D14C22895CD0
:10C96000490700D40120704710B59E4AD368984209
:10C9700002D1148AA14207D0D06011820723137616
:10C98000D36C04241C43D464002804D0002902D0B2
:10C990000120FFF74CFF10BD10B50A0001009248BE
:10C9A00000F0CAFF0400000405D1FFF7C9FF012809
:10C9B00001D00024E44320B210BD00000007005065
:10C9C000C01F0020B9D201000C25004014250040F2
:10C9D0003C1F0020010200003E000000B80B0000D8
:10C9E000F8B5804CE06C102505270026A18A0B299C
:10C9F00004DAE18A0B2901DAC10707D5012188434E
:10CA0000E064666100F00AFB66760BE0607E002859
:10CA100008D0012838D0022800D189E0042800D1AC
:10CA200092E010E0A07E00280DD000F0DDFA01F0C9
:10CA30006FFCE06501206076BF480560B04801F0FA
:10CA400033FBBD480760607E052847D1E06C410795
:10CA500000D48EE0217E0425ED43082913D000295F
:10CA600011D0B5480760A749A74801F01DFBFA217E
:10CA70008900A64800F0BCFB01F04AFCA06500F06C
:10CA800037FB2076E06C72E001F042FCE16D401A69
:10CA90000C28D8D301F03CFC206500210620FFF7CC
:10CAA00084FEA54807600321B7A001F07EFB642146
:10CAB000B64800F09DFBA04807600321B2A001F03A
:10CAC00074FBFA218900B14800F092FB00280AD0DB
:10CAD00000F074F9002803D0022060762676F1BDBC
:10CAE0000320607613E09448056000BF3FA001F08A
:10CAF000DBFA91480760062060760021FFF755FEBB
:10CB000000210720FFF751FE607E03289BD18A4851
:10CB1000056000BF3BA001F0C7FA8748076000210D
:10CB20000620FFF742FE00210720FFF73EFE8AE7BE
:10CB300000F01AFB012801D1052000E004206076F6
:10CB400000F0ACFAA0747EE701F0E2FB216D401A20
:10CB50001E28F8D301F0DCFB206500F005FB00285F
:10CB600003D1E08A401CE0826DE767766EE70540FE
:10CB7000E564207E002808D004281CD00628AED00A
:10CB8000082802D0092816D018E001F0C1FB606522
:10CB9000E1680029A3D0228A1000A0D0664807606F
:10CBA00020A001F081FA7A49784800F021FB00F0DA
:10CBB0009FFA2076F1BD00F053FA8FE701F0A8FB51
:10CBC000616D401A3C2803D300F04AFA0820207611
:10CBD00001F09EFBA16D401A0328EBD301F098FBF6
:10CBE000A065E4E73C1F0020C02000203E20475005
:10CBF0005253206D6F64756C65206661756C742E80
:10CC00000D0A00003E2047505253206D6F64756C32
:10CC100065206E6F2053494D20636172642E0D0AAA
:10CC20000000000041542B43495053544152543D9D
:10CC300022544350222C222573222C222564220DBB
:10CC40000A000000F0B583B0002501950095B84CAE
:10CC5000E08BFF2851D20527B64E301801F08FFA2D
:10CC6000002810D01020344908600121E08B3018D2
:10CC700001F09BFA30480760E08B401CE083200005
:10CC8000603001F0F9F901A801F0F6F96A46216E69
:10CC9000019801F003FAE18B7018042906DB811E6C
:10CCA0004A780A2A02D109780D2903D00099A24AAC
:10CCB000914223D3057000BF15A1300001F080FC24
:10CCC000002805D114A1300001F07AFC002802D020
:10CCD00000F00EFA2076D049300001F071FC0028F7
:10CCE00008D000F041FA012800D00427677600F050
:10CCF000D5F9A074300000F015F8E583F7BD000009
:10CD0000C03C0200E03C0200ECD40100EC3C02001C
:10CD1000434C4F5345440000434F4E4E454354202F
:10CD20004F4B0000F8B500BF1AA7390001F048FCCE
:10CD30000400014E002C25E00C2500402078010065
:10CD400002D0641C2C28F9D1200000F017FC85B219
:10CD50002078010002D0641C3A28F9D110203060FC
:10CD6000220029000DA001F09FF9052030602A0063
:10CD70002100C44800F0FEFD39006019401C01F09C
:10CD80001FFC0400DAD1F1BD41540D00E8D10100CF
:10CD9000B80B00004950442C000000003E204750D2
:10CDA000525320536F636B657420526563656976D7
:10CDB000653A252E2A730D0A00000000F8B5002000
:10CDC00069460870C44C0525256005215BA001F06B
:10CDD000ECF9C24E6421300000F00AFA256005210A
:10CDE00058A001F0E2F96421300000F001FABC49DA
:10CDF000BC4800F0FDF92560D54F00BF53A13800B5
:10CE000001F052F96421300000F0F2F9256000BF12
:10CE100050A1380001F048F96421300000F0E8F931
:10CE2000256000BF4DA1380001F03EF964213000BB
:10CE300000F0DEF9256000BF4AA1380001F034F9A6
:10CE40006421300000F0D4F9256000BF48A138000B
:10CE500001F02AF96421300000F0CAF9256000BF12
:10CE600045A1380001F020F96421300000F0C0F93C
:10CE7000256000BF42A1380001F016F9642130009E
:10CE800000F0B6F9256000BF40A1380001F00CF9B0
:10CE90006421300000F0ACF9256000BF3DA13800EE
:10CEA00001F002F96421300000F0A2F9256000BF12
:10CEB0003AA1380001F0F8F86421300000F098F948
:10CEC000256000BF38A1380001F0EEF86421300081
:10CED00000F08EF9256000BF36A1380001F0E4F8BB
:10CEE0006421300000F084F9256000BF34A13800CF
:10CEF00001F0DAF86421300000F07AF9256000BF13
:10CF000033A1380001F0D0F8FA21890032A000F0F6
:10CF10006FF9002808D000BF31A101F051FB0028B3
:10CF200002D001206946087068460078F2BD000012
:10CF30003C1F0020A8300020AD0D000041544531B9
:10CF40000D000000415456310D000000435344547D
:10CF50003D3000004353434C4B3D30004946433D78
:10CF6000302C300043534D494E533D3100000000FA
:10CF7000435347533D300000434D47463D31000089
:10CF8000435343533D2247534D22000043524547EC
:10CF90003D320000434C49503D3100004349504D63
:10CFA00055583D3000000000434950484541443D3C
:10CFB000310000004349505153454E443D3100007B
:10CFC000434E4D493D322C322C302C302C30000059
:10CFD0004350494E3F0000002B4350494E3A000059
:10CFE000524541445900000010B500210620FFF7CA
:10CFF000DCFB00210720FFF7D8FBC82001F00BFB6A
:10D00000AF4C802020600720FFF7C4FB4020206049
:10D010000620FFF7BFFB10BDB0D1010010B5002402
:10D020004020A74908600620FFF7B4FBA54900BFD0
:10D0300007A000F0DDF8002800D001240021062020
:10D04000FFF7B3FB00210720FFF7AFFB200010BD67
:10D05000504F57455220444F574E0D0A00000000D4
:10D0600080B505201C49086007A1394801F01CF86B
:10D07000954900BF06A000F0BBF8002800D00120B1
:10D0800002BD0000C02000204349505348555400C1
:10D0900053485554204F4B0D0A00000010B5002492
:10D0A00005208A4908608AA1294800F0FDFFFA217D
:10D0B000890000BF0CA000F09BF800280AD000E017
:10D0C000401C01780A0002D030390A29F8D200F059
:10D0D00055FA0400E0B210BD0C250040E8D1010073
:10D0E00088130000D8CF01002B4353513A000000B1
:10D0F00070B5002505207549086000BF15A11448CA
:10D1000000F0D2FF6F4900BF15A000F071F80400D5
:10D110001CD02078010002D0641C3A28F9D1207874
:10D12000202801D1641CFAE76A48EDB2A900401832
:10D13000066A300000F018FA02003100200001F009
:10D1400079FA002802D06D1C002EEDD1E8B270BD36
:10D15000ECD401004349505354415455530000004E
:10D1600053544154453A000080B5052057490860A2
:10D170000DA1594800F098FFFA2189000CA000F099
:10D1800037F800280ED001780A0002D0401C2C2964
:10D19000F9D100F0F3F9C0B2012801D0052801D17E
:10D1A000012002BD002002BD435245473F00000060
:10D1B0002B435245473A000080B50521434A116090
:10D1C000010000BF03A000F06FFF3E4906A000F081
:10D1D0000FF801BD41542B435454533D312C2225AB
:10D1E00073220D0A000000004F4B0D0A00000000E2
:10D1F000F1B582B00D0000270026364C27772000BD
:10D20000643000F00FFF0096E803FA21490040184F
:10D210004900FFF7EEF8010000222000643000F022
:10D22000D5FEE78302E001F052FA48DF207F0028B4
:10D230003AD1E08BFF28F6D29449081800F09FFFFE
:10D240000028F0D010202149086001218F48E28B8E
:10D25000801800F0AAFF05201C490860E58B6D1CB2
:10D26000E5838A48ADB24019042D06DB811E4A7859
:10D270000A2A02D109780D2903D0029909783E299A
:10D28000D4D107700298FEF796FE03002A00029997
:10D290007E4800F049F9060006D100BF04A17B4892
:10D2A00001F08EF90028C1D0E7833000FEBD0000F8
:10D2B0004552524F520000000120754908777047CF
:10D2C0000C050050B80B0000102700000C25004092
:10D2D000435351003C1F0020ECD40100F8B50C1D55
:10D2E0002068009005266B4F10256B4901F0FEFA6F
:10D2F000002813D169A1606801F0F8FA002801D173
:10D30000012005E066A1606801F0F0FA002801D173
:10D31000FFF78DFA3D6061686248A4E062490098B9
:10D3200001F0E4FA00280AD13D605948017E8900E5
:10D3300041180A6A417E5D4800F0B6FEA3E05CA198
:10D34000009801F0D3FA00281AD154A1606801F0C6
:10D35000CDFA002806D14020564908600620FFF784
:10D3600019FA09E04EA1606801F0C0FA002803D163
:10D3700000210620FFF719FA3D6061684E4872E00F
:10D380004E49009801F0B2FA00280DD1241D4C49F5
:10D39000206801F0ABFA002807D13D60494800F051
:10D3A00083FE3E60FFF720FEF1BD4749206801F093
:10D3B0009DFA002807D13D60444800F075FE3E60AC
:10D3C000FFF72CFEF1BD42A1206801F08FFA002882
:10D3D00005D1FFF763FE3D6001003E4843E03EA1FA
:10D3E000206801F083FA002809D13E60616800BF1F
:10D3F0003EA000F059FE3D606168384833E038498E
:10D40000206801F073FA00280BD13E60606800903C
:10D41000FEF7D1FD81B2009800F0C7FE3D603148B3
:10D420002FE000BF33A1206801F060FA00281DD171
:10D430006068009019A101F059FA002806D18020F7
:10D440001C4908600720FFF7A5F909E014A100981E
:10D4500001F04CFA002803D100210720FFF7A5F9BD
:10D460003D60616825A000F01FFE0CE01EA1206851
:10D4700001F03CFA002807D16068FFF79DFE3D608F
:10D4800024A000F011FE3E60F1BD0000A830002095
:10D490003C1F00200C250040F4D401006F6E0000FA
:10D4A0006F666600F83C02000C3D0200143D02006D
:10D4B0006B6579000C050050383D0200503D0200BC
:10D4C000583D0200603D0200783D0200843D0200AC
:10D4D00063737100A03D020061740000B83D02005A
:10D4E000D43D0200DC3D02007474730041542B25CE
:10D4F000730D0A00706F7765720000003E20475080
:10D500005253207465737420706F7765723A257377
:10D510000D0A00003E205454535F506C6179206422
:10D520006F6E652E0D0A0000F4B500281AD0002990
:10D5300018D0002A16D0002B14D0002401E0641C5F
:10D5400024B2D51AA5420DDB002501E06D1C2DB2D9
:10D550000619765D4F5DBE42F1D16E1C9E42F5D13B
:10D560000019F2BD0020F2BD01000020002900D109
:10D57000704780B50800FEF71EFD02BD70B50400BF
:10D580000026002C0BD004E00A204643303D7619DB
:10D59000641C2578280001F0BAF90028F4D1300085
:10D5A00070BDF8B505000024002D21D02878302862
:10D5B0000AD16878782801D0582805D1AD1C03E03D
:10D5C000573F2001C4196D1C2E7830000FD0370052
:10D5D00001F09DF9002801D0303FF2E730004138DA
:10D5E000062801D2373FECE7613E062EE8D3200043
:10D5F000F2BD000070B5002307A409E00502001287
:10D600000E7846407000205A684080B2491C5B1C6E
:10D610009DB29542F2D370BD0000211042206330CC
:10D620008440A550C660E770088129914AA16BB17A
:10D630008CC1ADD1CEE1EFF1311210027332522222
:10D64000B5529442F772D662399318837BB35AA3CA
:10D65000BDD39CC3FFF3DEE36224433420040114F2
:10D66000E664C774A44485546AA54BB5288509951A
:10D67000EEE5CFF5ACC58DD55336722611163006C2
:10D68000D776F6669556B4465BB77AA7199738876A
:10D69000DFF7FEE79DD7BCC7C448E5588668A77882
:10D6A0004008611802282338CCC9EDD98EE9AFF9BA
:10D6B000488969990AA92BB9F55AD44AB77A966A62
:10D6C000711A500A333A122AFDDBDCCBBFFB9EEB0A
:10D6D000799B588B3BBB1AABA66C877CE44CC55C32
:10D6E000222C033C600C411CAEED8FFDECCDCDDD5A
:10D6F0002AAD0BBD688D499D977EB66ED55EF44E02
:10D70000133E322E511E700E9FFFBEEFDDDFFCCFA9
:10D710001BBF3AAF599F788F8891A981CAB1EBA1FD
:10D720000CD12DC14EF16FE18010A100C230E32079
:10D730000450254046706760B9839893FBA3DAB321
:10D740003DC31CD37FE35EF3B1029012F322D232C9
:10D750003542145277625672EAB5CBA5A8958985F1
:10D760006EF54FE52CD50DC5E234C324A014810419
:10D770006674476424540544DBA7FAB79987B897C1
:10D780005FE77EF71DC73CD7D326F2369106B01669
:10D7900057667676154634564CD96DC90EF92FE981
:10D7A000C899E9898AB9ABA94458654806782768B9
:10D7B000C018E1088238A3287DCB5CDB3FEB1EFB61
:10D7C000F98BD89BBBAB9ABB754A545A376A167A09
:10D7D000F10AD01AB32A923A2EFD0FED6CDD4DCD31
:10D7E000AABD8BADE89DC98D267C076C645C454C59
:10D7F000A23C832CE01CC10C1FEF3EFF5DCF7CDF01
:10D800009BAFBABFD98FF89F176E367E554E745EA8
:10D81000932EB23ED10EF01E002200280ED00168D9
:10D8200000290BD02E4A1168002902D1106004E0B3
:10D8300011008A68002AFBD188600122100070471D
:10D84000F0B593B00700002025490C68002101AA1B
:10D850008300D150401C1028FADB3878010005D035
:10D8600001F05AF8002801D17F1CF6E70125019745
:10D870003E0002E0009806606D1C01A8A900401857
:10D8800000903078002816D0102D14DA307801007E
:10D8900007D001F041F8002803D0761CF6E730707D
:10D8A000761C3078010003D001F036F80028F6D05D
:10D8B00030780028DED100200099086000E0A468DC
:10D8C000002C0BD0012DFADB2168380001F00EF896
:10D8D0000028F4D101A928006268904713B0F0BD78
:10D8E0004C37002000290BD0002A09D0531E1A40C3
:10D8F00006D10160436000218160C1600120704752
:10D900000020704710B50268C36844681C40115578
:10D91000C168491CC16010BD8168026843680B4042
:10D92000D25C491C816010007047C1688068081A89
:10D930007047C16881607047F8B504000F0015009A
:10D940000026002F14D0002D12D0FFF7EEFFA842C2
:10D9500002D20500002D0BD02068A16862680A4041
:10D96000805CB855A068401CA0606D1E761CF1E775
:10D970003000F2BDF8B504000F0015000026002F9E
:10D9800017D0002D15D0FFF7D0FF6168081A401C92
:10D99000A84202D20500002D0BD02068E168626821
:10D9A0000A40B95D8154E068401CE0606D1E761C41
:10D9B000F1E73000F2BDFEE7002805D40121C006E2
:10D9C000C00E81408E4801607047002805D40121B7
:10D9D000C006C00E81408B4801607047002805D406
:10D9E0000121C006C00E814087480160704710B514
:10D9F000C20018231340FF249C40E2438907090E0C
:10DA00009940002801D4BC4B03E0BC4B0007000F39
:10DA1000083880088000181803681A401143016014
:10DA200010BD0000401E00BF00BF00BF00BF00BF10
:10DA300000BF00BF00BF00BF00BF00BF00BFF1D1EB
:10DA4000704738B580208002AD490860AD4880211C
:10DA5000490201640160AC4C012525602F20FFF7CD
:10DA6000E1FF6560A94C002525612F20FFF7DAFF53
:10DA7000E57031BDF8B5A54EF568002D38D000240D
:10DA8000C64800683169401A07023F0A2868874281
:10DA90001CD33F1A24182800ED69017C002913D0FB
:10DAA0000021017442698169F36918000AD01000ED
:10DAB0009847002808D000BF0EA2FF21623100F075
:10DAC00043FF01E008009047002DDFD1B078717866
:10DAD000814206D1401CB070C0B2022801D10020A2
:10DAE000B070B0788000301844611420FFF76DFFEB
:10DAF000F1BD0000443A5C576F726B466F6C646511
:10DB0000725C70726F6A6563745C41442D31355F7D
:10DB1000B9B2CFEDD3EAC9A1CFEEC4BF5C666972DA
:10DB20006D776172655C53444B5C6C6962726172C3
:10DB30006965735C74696D65725C6170705F74694E
:10DB40006D65722E63000000FFB5704AD0680390C7
:10DB5000107869460871002069460B795C1E0C71CB
:10DB60000121002B45D093686C462479E4001B19F1
:10DB700000931B7817E02C00ED69002D13D0BD42F7
:10DB8000F9D1AC4207D1F669D660002E03D1AF4E71
:10DB90003160106111712E68ED69E561002D02D0D0
:10DBA0002C68A4192C60009D6D78DCB2AC42D3D0F7
:10DBB000009C6468DBB218255D4364195B1C009E01
:10DBC000B678DDB2B54200D100232578022D02D00F
:10DBD000032D07D0E7E764680294D6683400250077
:10DBE000029FCAE7D468002CDDD02074E469D460B9
:10DBF000F8E7D268039B9A4200D0012004B0F0BD40
:10DC000000E100E000E200E080E200E0FCB53F4A15
:10DC1000D1680191137800211C00631EDBB2002C37
:10DC200006D1D068019A904263D00120F6BDD4603D
:10DC300000282FD19468DD00641925786678B542F4
:10DC4000EAD0666818276F43F6196D1C2570A7780F
:10DC5000EDB2BD4200D1217074683578012DE9D153
:10DC6000257C002DE6D1B5686560F568A56035694D
:10DC7000E5607569A5611579002D00D06160656862
:10DC80001669AE1B3602360ABD4FBE4205D2A568E4
:10DC900075190AE00400E069F1E71669751B2D02A9
:10DCA0002D0AA668B54202D2751B256000E02160EE
:10DCB0006160A16001252574E161D668002EB6D0AF
:10DCC00037682568AF4203D37D1B3560E661AEE758
:10DCD00000963768AF4205D2ED1B0096F669002E1C
:10DCE00002D0F6E77F1B37602560E661009DEC619E
:10DCF0009EE70020F6BD000000E400E01CED00E01F
:10DD000080E100E008130140041001405836002073
:10DD1000FEB5BF4FF86800283CD0006802901F4C49
:10DD20002068009038690190BA4D00980199461A10
:10DD30002E40F61CF878002812D1B74880214902FD
:10DD4000016401601120FFF749FE1120FFF734FE46
:10DD50000120B24908602F20FFF764FE0120F8700F
:10DD60000298864200D20600019880192840E0639C
:10DD70002168009A801A2840891A0D40ED1CA8429B
:10DD80000AD22068E0632F20FFF74CFE1120FFF736
:10DD90001CFEF7BDFFF755FEF7BD0000041501405E
:10DDA000F0B585B000249A4D28690390E968029186
:10DDB0006A781100AB789A420FD0491CC9B2022987
:10DDC00000D100218A00AA1852690192801800022D
:10DDD000000A28610120009001E00194009469701C
:10DDE000FFF7B2FE0600E868009900291FD00199EC
:10DDF000009413E0C91A009EF318009300231360E7
:10DE00000190D069D368002B08D0039E009FF619BB
:10DE10003602360A56609360D461019C002805D012
:10DE2000020013689942E5D2591A11600126E86090
:10DE30002000FFF7EBFE002801D1002E02D002984F
:10DE4000FFF766FF0020287105B0F0BD0810014003
:10DE500010B54278521C8478D3B2A34200D100227C
:10DE60000478D3B2A34201D1002010BD0A704168EA
:10DE7000407818225043081810BDF0B583B00C004C
:10DE800017001E00C00000907E4D01A9A868009AEE
:10DE90008018FFF7DDFF002801D10420FEBD01211D
:10DEA000017044605E4909688160C7600661089935
:10DEB000416168460079A968D6E080B572480021C2
:10DEC000016441648164C16401604160FFF7D2FD77
:10DED00001BD80B5FFF764FF01BDFBB51500032749
:10DEE0003D4204D100264A4C002D02D1A6600720F5
:10DEF000FEBDFFF7A6FD0298E0612770A56018350A
:10DF00000020A168C20089180E704E706A4612790E
:10DF10008A704D6069460979182251436D18401C7A
:10DF20000328EEDBE6606670A6701420FFF756FD4E
:10DF300003211420FFF75BFD1420FFF73DFD384D52
:10DF40000098686003211120FFF751FD28682061C7
:10DF50000020FEBD4B4B9B68002B09D0130001D065
:10DF6000002801D1072070470068037C002B01D0F6
:10DF7000082070470374417442610020704700001C
:10DF8000FFFF7F0041480068C205D20D1CD0103A47
:10DF9000D1001820084052B20321002A01D43C4B82
:10DFA00003E03C4B1207120F083A920892009A586D
:10DFB000C24090090140012902D0032902D003E0A8
:10DFC000002070470120704702207047F8B5040018
:10DFD0000D0017002B488068002808D0002C06D0C0
:10DFE000052D01D20720F2BD6069002801D108206B
:10DFF000F2BD607C012801D12E0000E00026FFF771
:10E00000C1FF009733002A002100FFF736FFF2BD61
:10E0100058360020FFFFFF000413014000100140AC
:10E0200004150140F0B583B00400164EB768002F08
:10E0300004D0002C02D06069002801D10820FEBD68
:10E0400000252574FFF79EFFC000009001A9381835
:10E05000FFF7FEFE002801D10420FEBD0221017061
:10E06000446068460079B168009A891848701420A5
:10E07000FFF7ABFC0020FEBD0749096801600020E6
:10E0800070470000583600200011014004ED00E008
:10E0900000E400E01CED00E004150140401A00021D
:10E0A000000A1060002070470EB400B582B003A9CA
:10E0B00000916B4602000121034878440A30FCF7C6
:10E0C000FFFF029906B008472560000070B582B0D6
:10E0D00065488022520001001431001DFFF702FC48
:10E0E000624A002175A0FFF735FF614800210160F9
:10E0F0004161C161C1635F4C042565610526E6602D
:10E10000E1665D48606201205C49086081229200FE
:10E110005B4B1A6088600321022000F023FC25601D
:10E1200000F0DCFC002801D100F0B6FC64A000681F
:10E130000090032069464870524D2A00182000F0D4
:10E14000DBFC2A0069460F2000F0D6FC00211820D5
:10E1500000F024FD00210F2000F020FD1020E060E1
:10E1600051A0FFF7A1FFE66073BD474900220A6096
:10E17000464A106008680028FCD00120704770B53E
:10E1800004000025384E301DFFF7CFFB002804D0D7
:10E19000301DFFF7C1FB20700125280070BD80B540
:10E1A0003B48FFF7C2FB80B202BD10B5364A374C80
:10E1B0000B0409D00023136003782360401C491E20
:10E1C0001368002BF4D1FBE7012010BD70B50024CB
:10E1D000274D286800280CD02C60234E301DFFF7F7
:10E1E000A4FBFF2805D22B480168C9B2301DFFF7F8
:10E1F00089FBEC61EC6370BD10B50121264A11600A
:10E20000194C2070182000F00DFD0F2000F00AFDC1
:10E21000002222498A2040002018FFF7D7FE10BDB7
:10E2200038B51F4D104C6088002810D100221D49C0
:10E230008A2040002018FFF7C9FE201DFFF779FB58
:10E240002078286001200D490860608031BD0020E1
:10E250006080042028600021182000F09FFC00212D
:10E260000F2000F09BFC31BD742F002021E2010043
:10E27000082100400025004000509D000020004083
:10E2800004230040F9E101001C2100401C2500404E
:10E29000782F00201825004004200040CD0C0000FD
:10E2A000142500409A1900003E205541525420691F
:10E2B0006E69742E2E2E0D0A00000000883000209A
:10E2C000020000001CB5AA4A012100BFB5A0FFF75B
:10E2D00041FE002280210902A648FFF777FE68462A
:10E2E000A54901800421C1701421017111214171DE
:10E2F000252181710021C17100F017F89F4C102079
:10E30000206000BFA3A0FFF7CFFE0520206013BD53
:10E310009B48006870479A490860704780B50100C3
:10E320009748006800F008F801BD80B500F0B2F829
:10E330009349086001BD0000F2B583B00400914E1E
:10E340003100FEF756F8050020003100FEF751F8C5
:10E3500000918D4CFF266E36300002E0002911D06E
:10E36000701C854216D32D1A641CA4B220006421AF
:10E37000FEF73CF80020001980088000201AEDD03C
:10E380000029E9D12000C8214900FEF72FF8002913
:10E39000E6D0E1E701261F2720006421FEF726F8DA
:10E3A000019102E0002817D01D27BD421DD30C2E7D
:10E3B0001BDAED1B761CF6B27EA08019401E077892
:10E3C000022EF2D16010800F001980108000201AF8
:10E3D0000198E7D0002806D12000C8214900FEF7A7
:10E3E00005F80029E0D01C27DFE700983C21FEF764
:10E3F00000F80398C171E1273F0100983900FDF74B
:10E40000F8FF08003C21FDF7F4FF0399887100989C
:10E410003900FDF7EEFF039948716D1C03980571F3
:10E420000398C67003980480684605720398C47800
:10E43000068830006421FDF7D9FFCDB23000642199
:10E44000FDF7D4FFC0B2142801DB6435EDB26810CB
:10E45000800F40198610A81980B20721FDF7C6FF6A
:10E460006846007A081800BF4FA10919491E0978AB
:10E470004018B100691A02D1032C00DA401E80B2A4
:10E480000721FDF7B3FF080400D10721039881702D
:10E49000FFBD0000F1B582B00088694608803A4DA2
:10E4A00068460088A84201DA0020FEBD6846008860
:10E4B0003649441836484443324E0AE0002907D111
:10E4C0002800C8214900FDF794FF002900D1A419B4
:10E4D0006D1C6421032768460088854207D2280006
:10E4E000FDF787FF2F40E9D10029F0D1E8E70025AB
:10E4F00068460088FDF77AFF01910BE0002808D1FB
:10E5000068460088C8214900FDF770FF002900D146
:10E51000A4196D1C0298C078401E85420ED200BF1F
:10E5200024A0405D70432418012DF2D16846008874
:10E5300038420198E2D10028EAD1E1E70298007957
:10E54000401E7043201802994979E122120151437B
:10E550004018029989793C22514340180299C9799F
:10E560004018FEBD06480168491C01607047000064
:10E5700065E50100B8360020E20700000C250040E8
:10E580005837002080510100B20700004EF8FFFF0D
:10E590008033E1013E2052544320496E69742E0DB0
:10E5A0000A000000B836002000030306010406023A
:10E5B000050003051F1C1F1E1F1E1F1F1E1F1E1FE1
:10E5C00070B40A78130008D114E05B1C1E78A642D0
:10E5D0000AD001E0002C0CD0401C04789442F9D100
:10E5E000002806D003000D006D1C2C782600ECD10D
:10E5F00000E0002070BC7047401E00BF00BF00BF9D
:10E6000000BF00BF00BF00BF00BF00BF00BF00BF12
:10E6100000BFF1D1704701B505E00098401E0090A1
:10E620000348FFF7E9FF00980028F6D101BD00007C
:10E63000E703000010B402E0401C491C521E002AEF
:10E640000BD00B7804789C4205D002D20020C04346
:10E6500004E0012002E0002CEED1002010BC704745
:10E6600010B5614A012100BF0DA0FFF773FC5F4A9E
:10E67000002100BF0BA0FFF76DFC5D4A002100BF29
:10E6800009A0FFF767FC5B48FFF7C6F8714C102044
:10E69000206000BF77A0FFF707FD0520206010BDB8
:10E6A0003836002098350020C435002010B56B4C5A
:10E6B0008020C0012060684800214180001DFFF7D4
:10E6C000B1FC8020C00360604000606010BD80B578
:10E6D00000F08AFB01BD0000F8B505245D4F102550
:10E6E0005D4E70880B280FDB5F4800688102C90F00
:10E6F0000AD0301DFFF796FCFFF7D8FF34703D605D
:10E7000063A0FFF7D1FC3C60574800688103C90F44
:10E710000CD1301DFFF786FCFFF7C8FF06203070D4
:10E720003D6000BF5FA0FFF7BFFC3C6070880B2816
:10E7300018DB4D480068C102C90F13D0301DFFF728
:10E7400071FCFFF7B3FF3078012801D1032002E00C
:10E75000022801D1042030703D6000BF56A0FFF7B1
:10E76000A3FC3C607088411C7180FA2189008842BA
:10E770000ADB00207080FFF799FF072030703D60B2
:10E7800053A0FFF791FC3C60F1BDF8B50022344C7A
:10E79000E0883649884200D1E280E388A1888B4234
:10E7A00020D2FA21890048082C4D8026B601277A0C
:10E7B000002F09D02E6022725B1CE380A2889BB2DE
:10E7C00093420FD2628803E06E6001222272228897
:10E7D000D2031018FDF70DFE0100002220000C30BE
:10E7E000FFF7F4FBF1BD0000D9E601008BE7010063
:10E7F000F9E70100301F0020F8B50022194CE0882D
:10E800001A49884200D1E280E388A1888B4220D255
:10E81000FA2189004808114D8026F601277A002F39
:10E8200009D02E6022725B1CE380A2889BB29342C7
:10E830000FD2628803E06E60012222722288D20326
:10E840001018FDF7D6FD0100002220000C30FFF764
:10E85000BDFBF1BD0C2500403436002008050050FA
:10E860008C350020B835002010050050FFFF000057
:10E87000704700003E2044657669636520636F6ED3
:10E8800074726F6C20696E69742E0D0A00000000AE
:10E890003E204D6F746F7220697320537475636BE3
:10E8A0002E0D0A003E204D6F746F72204952205386
:10E8B0007475636B2E0D0A003E204D6F746F7220CD
:10E8C00052756E6E696E67206F7665722E0D0A0046
:10E8D0003E204D6F746F722052756E6E696E6720A8
:10E8E00054696D656F75742E0D0A000001E0401CBF
:10E8F000491C0A780378934203D1002BF7D10020FA
:10E90000704702D20020C043704701207047303862
:10E910000A288041C00F704710B50400202C11D088
:10E9200020385F280CD3200000F008FB002807D116
:10E93000200000F00CFB401E8041C043C00F10BD02
:10E94000012010BD002010BDE0B56B46198001927A
:10E9500002906A460021024800F04EFB07BD00000D
:10E960000140000010B5C20018231340FF249C4052
:10E97000E2438907090E994003000FD40D4C830828
:10E980009B00E3181C682240114319600121C00656
:10E99000C00E814008480160084809E0084B0007A4
:10E9A000000F083880088000181803681A401143C7
:10E9B000016010BD00E400E080E200E000E100E062
:10E9C0001CED00E0484940180068012800D00020F4
:10E9D000704752000A4399001143009A12020A43F9
:10E9E000019909041143414A8000115070473F4A80
:10E9F0008000101802683E4B13400360026809044F
:10EA00001143016070473B490818202140560428F3
:10EA10008041C00F7047374908182021405604280C
:10EA200001DB01207047002070473249081820217F
:10EA30004056C043C00F704771B581B00020C0433D
:10EA40000423140002D10425082300E00025514CC2
:10EA500000E06D1C9D4212D2AE00A61900963668E9
:10EA60008642F6D1019BE31820269D55009801604F
:10EA7000002A03D1019861193C228854280040B231
:10EA800076BD44490022D2438300CA50042802DBE9
:10EA900008183C214254704738B5164C4420205C7D
:10EAA000002801D0082032BDFF2220212000203084
:10EAB00000F020FB00252800FFF7E3FF6D1C082D68
:10EAC000F9DB03210620FFF74DFF802000063249C5
:10EAD0000860012044216054002032BD5048007875
:10EAE000002800D00120704700600040000700505F
:10EAF000FFFFFCFF00350020F0B583B007000E00DB
:10EB000015000024FFF791FF002801D008243EE003
:10EB1000F27829003800FFF78FFF05000020C0437E
:10EB2000854233D0B078002807D08C48B90040180F
:10EB3000016802229143016007E001900090737820
:10EB4000002200213800FFF744FF3078F1780029D7
:10EB500013D04449AA0089180A68814B13400B60FE
:10EB60000A683B02F8256D011D400004C0239B028A
:10EB700003402B4313430B6009E07A494A193C23B5
:10EB8000D25C800110434919C85400E004242000DD
:10EB9000FEBD00000035002004630040F2B5070010
:10EBA000704CE5190126FFF736FF002815D020200C
:10EBB000285620183C2140560006800F02210328C9
:10EBC00004D169480068F840064000E0012800D000
:10EBD00003213800FFF70BFFF1BD3800FFF713FFEB
:10EBE00000281CD0202028561E49820089180A6857
:10EBF00032430A60002182003302D21812B2564B0F
:10EC0000D218116069460978002908D02021695678
:10EC100089006158002902D0864054480660F1BD41
:10EC20004435002010B50400FFF7F5FE002804D09D
:10EC300000212000FFF7DBFE10BD2000FFF7E3FE00
:10EC400000280ED04748001920214056054982006F
:10EC500089180A6801239A430A60012181404448C7
:10EC6000016010BD10650040F8B5002600968025B3
:10EC70006D000124042728B2FFF7A4FE002809D064
:10EC80003A480068204005D000202DB2324969186A
:10EC90000860264364002D1D7F1EECD180273F06AF
:10ECA000BE204000FFF78EFE002806D0002032492B
:10ECB00008603E432C4800680090300713D00124C0
:10ECC000002534420BD0AA002A4881180868096838
:10ECD0008903890FC004C00E224B9A5890476400E4
:10ECE0006D1C042DEDD3374035D000251D4840194B
:10ECF000402140560021C943884229D0C0B20600B5
:10ED0000C0218E4317498A192023D25692008C586D
:10ED100021001DD00006870F1048B1004058800325
:10ED2000800F0121B140009A0A4002D002280FD181
:10ED300001E003280CD1032F07D1022801D10321C0
:10ED400000E002213000FFF752FE39003000A047FA
:10ED50006D1C042DCAD3F1BD0060004000070050B7
:10ED6000FFE0FCFF00350020100500500463004068
:10ED700008630040106500407C6100404B4800681B
:10ED8000C00700D4704780B5002049490860494851
:10ED90004068804701BD000038B504004548416027
:10EDA0000178002915D101210170002C01D100BF8B
:10EDB0005FA4414D2078A8606068C003FA218900F3
:10EDC000FDF717FB2860217A1020FFF7CBFD00200C
:10EDD00032BD082032BD012034490860374908603F
:10EDE00002203449087070470020354A04E0354954
:10EDF00003069B0DD150401C334909688842F6D365
:10EE000070470000F0B583B00700002569460D711A
:10EE10002E480068C005C00D0424002814D0103806
:10EE2000C2001821114040B20322002801D4284B0F
:10EE300003E0284B0007000F0838800880001858AE
:10EE4000C8408009024000E00422009223A6012A63
:10EE50000BD001A836DF022801D172B605E00028E8
:10EE600003D032006221FFF76FFD174801680829BF
:10EE70000AD23970491C01601748016801223B78A9
:10EE80009A400A4302600024009801280BD062B621
:10EE90006846007937DF022805D0002803D0320009
:10EEA0006E21FFF751FD2000FEBD0000040301406C
:10EEB000000101402437002004050140000001400A
:10EEC000000601403546526E4837002004ED00E050
:10EED00000E400E01CED00E008050140443A5C5706
:10EEE0006F726B466F6C6465725C70726F6A65639B
:10EEF000745C41442D31355FB9B2CFEDD3EAC9A17D
:10EF0000CFEEC4BF5C6669726D776172655C534415
:10EF10004B5C647269766572735F6E72665C77646F
:10EF2000745C6E72665F6472765F7764742E6300E1
:10EF300001000000581B00000100000010B5040093
:10EF4000012000F0F7F8200000F0FEF810BD10B529
:10EF50000400012000F0EEF8200000F000F910BDE0
:10EF600010B584B0684600BF5FA11CC91CC03748FB
:10EF7000019037496846FFF70FFF364C2000FFF736
:10EF800041FFFFF728FFFFF72FFF0023221D11216C
:10EF90000020FEF7A2FF002804D000BF33A24F21BB
:10EFA000FFF7D2FC00F011F9FFF790F800F06AF9D2
:10EFB000FFF788F900F040FD00F05CFE00F0C3FDB3
:10EFC000002001F0FFF801F015F9FDF7F9FBFFF75C
:10EFD00047FB01F055FBFFF77AFB01F015F900F054
:10EFE00075F9FDF713FC01F07DFBFFF7D8F8002859
:10EFF000F1D148DFEFE70000F8B5174C90682060CA
:10F00000108860605368A360144F10263E606268E9
:10F01000216800BF26A0FFF747F805253D60642062
:10F02000FFF7F9FA3E60A3686268216820A0FFF745
:10F030003BF83D606420FFF7EEFABFF34F8F0848BE
:10F0400008490860BFF34F8F00BFFDE7102700009D
:10F0500069F00100482A0020043700200C250040F8
:10F060000400FA050CED00E070470000443A5C57DC
:10F070006F726B466F6C6465725C70726F6A656309
:10F08000745C41442D31355FB9B2CFEDD3EAC9A1EB
:10F09000CFEEC4BF5C6669726D776172655C41508A
:10F0A000505C7372635C6D61696E2E6300000000DA
:10F0B0003E20415050204572726F722068616E642C
:10F0C0006C65723A20436F64653A20307825582089
:10F0D000206C696E653A2025642066696C653A206B
:10F0E00025730D0A0000000001000000581B0000FD
:10F0F000010000001206130A1A43130C1A4300BF42
:10F10000130030B414001500103902D310393CC07C
:10F11000FCD2490700D30CC000D504C0890002D33B
:10F120000280801C002900D5027030BC70470000AE
:10F130000022E5E710B504000248FDF71CFBA10022
:10F14000405810BD54250020010061391A2901D210
:10F150000120704741381A288041C00F70470100D4
:10F1600021390F290CD301003A39072908D30100AE
:10F170005B39062904D37B3804288041C00F7047CF
:10F180000120704752000A4399001143009A12026D
:10F190000A43019909041143384A8000115070470D
:10F1A00000B583B0002101910091002301220121CB
:10F1B000FFF7E8FF07BD00B583B00022019200927F
:10F1C0000B000021FFF7DEFF07BD10B5002403E0B0
:10F1D0001A2C05D01B2C03D001212000FFF7EBFFD8
:10F1E000641C1F2CF4DB1620FFF7DAFF1720FFF753
:10F1F000D7FF234C8020C0036060400060600D207A
:10F20000FFF7CEFF0E20FFF7CBFF802080012060AC
:10F21000400020600820FFF7C3FF03211120FFF703
:10F22000CAFF03211420FFF7C6FF01211520FFF7B5
:10F23000C2FF00210720FFF7BEFF00210620FFF7D5
:10F24000BAFF2020206000052060400A20600520D1
:10F25000FFF7A6FF1920FFF7A3FF1020FFF7A0FF7D
:10F2600003210420FFF7A7FF03211820FFF7A3FFC6
:10F2700003210F20FFF79FFF10BD00000007005083
:10F280000805005010B56E4C2000FEF7C5FA2000AE
:10F290000C30FEF7C1FA20001830FEF7BDFA20004E
:10F2A0002430FEF7B9FAC84C1020206002A0FEF707
:10F2B000FBFE0520206010BD3E20436F6D6D616E2A
:10F2C0006420496E69742E0D0A000000F8B5BE4D29
:10F2D000A8680F283AD1BD4C4020205A2018FEF7CC
:10F2E0004EFF002832D04020205A411C0200002747
:10F2F000A35C0A2B25D11020286089B22000FEF7DC
:10F3000054FF052028600420A8604021615A6754FA
:10F31000250000E06D1C2E78202EFBD03000203818
:10F320005F2809D33000FFF709FE002804D1300020
:10F33000FFF70DFE0028EDD02800FEF781FA4020EF
:10F3400003E0402021523F2A00DB2752F1BD00009C
:10F35000F0B58BB000250F1D3868009005261024ED
:10F3600038A1FFF7C3FA00281AD17868FEF706F92A
:10F37000050095480460290034A0FEF795FE9248E8
:10F38000066000F0DBFB0A352800FFF744F9BFF305
:10F390004F8FAA48AA490860BFF34F8F00BFFDE70F
:10F3A00033A10098FFF7A2FA00281ED17868FEF773
:10F3B000E5F8009030A7009885423ED22A00390037
:10F3C00005A801F06FFC05A8FCF7F5FD81B205A8C2
:10F3D00000F0BEFB7C48046005A900BFB3A0FEF7A7
:10F3E00063FE794806606D1CE5E7ABA10098FFF766
:10F3F0007DFA002812D103A871DF7348046003A8C6
:10F400004178029181780191C17800910379427924
:10F41000817900BFABA0FEF747FE0CE0B3A10098D6
:10F42000FFF764FA002808D167480460012100BF93
:10F43000B0A0FEF739FE644806600BB0F0BD0000D6
:10F44000001F002072657365740000003E20537930
:10F450007374656D2057696C6C20526573657420F8
:10F460002564206D73206C61747465722E0D0A0022
:10F4700074657374626C6500746573742073656E73
:10F48000643A25640D0A0000F3B587B0002683A70F
:10F4900004AC10E0A7A12868FFF728FA002809D1DA
:10F4A00004A8FEF73BFF6868FEF768F8E07104A85F
:10F4B000FEF73BFF761C079886426CDA0898B1008D
:10F4C000451839002868FFF711FA00281CD1686830
:10F4D000FEF754F82080A868FEF750F8E070E8685E
:10F4E000FEF74CF820712869FEF748F860716869EA
:10F4F000FEF744F8A071A869FEF740F8E071E869EA
:10F50000FEF73CF8A070D2E780A12868FFF7EEF97B
:10F51000002807D104A8FEF701FF6868FEF72EF85F
:10F520002080C4E77BA12868FFF7E0F9002807D115
:10F5300004A8FEF7F3FE6868FEF720F8E070B6E76F
:10F5400076A12868FFF7D2F9002807D104A8FEF7B2
:10F55000E5FE6868FEF712F82071A8E771A1286837
:10F56000FFF7C4F9002807D104A8FEF7D7FE6868A2
:10F57000FEF704F860719AE76CA12868FFF7B6F906
:10F58000002800D086E704A8FEF7C8FE6868FDF7EB
:10F59000F5FFA0718BE704A8FEF7C0FE404D1020D8
:10F5A0002860A0780390E0790290A07901906079BA
:10F5B00000902379E278218860A0FEF775FD052090
:10F5C000286009B0F0BD00000C250040483500203F
:10F5D000F3B581B000240527314D10260FE000BFA0
:10F5E00072A10098FFF782F9002807D12E602D48FC
:10F5F000C16900BF6FA0FEF757FD2F60641C019822
:10F60000844219DA0298A1004058009056A1FFF7F1
:10F610006DF9002804D12E602248416855A0EAE720
:10F6200059A10098FFF762F90028D8D12E601D4833
:10F63000016800BF57A0DEE7F7BD00000400FA052F
:10F640000CED00E0F3B581B00024174F144D1026E7
:10F650000EE000BF63A10098FFF748F9002806D12B
:10F660002E60796862A0FEF71FFD05202860641CEB
:10F67000019884420EDA0298A1004058009000BF21
:10F6800051A1FFF733F90028E3D12E60396800BF9C
:10F690004FA0E8E7F7BD00006D616300736574007B
:10F6A0000C25004010000010101000103E20746562
:10F6B000737420424C452073656E643A2025730DA7
:10F6C0000A0000003E204D41433A253032583A2589
:10F6D0003032583A253032583A253032583A2530AF
:10F6E00032583A253032580D0A00000076657273A0
:10F6F000696F6E003E2073797374656D2076657254
:10F7000073696F6E3A25750D0A00000079656172A4
:10F71000000000006D6F6E74680000006461746525
:10F7200000000000686F7572000000006D696E7562
:10F73000746500007365636F6E6473003E207469C6
:10F740006D653A20253034642D25642D25642025EF
:10F750003032643A253032643A25303264206461B4
:10F76000792D2564200D0A00636F646573697A65DD
:10F77000000000003E20636F64652073697A653A7B
:10F780002025640D0A0000007061676573697A6561
:10F79000000000003E20636F646520706167652093
:10F7A00073697A653A2025640D0A0000505046437B
:10F7B000000000003E20505046433A20307825306B
:10F7C00034580D0A0000000046574944000000006C
:10F7D0003E20465749443A203078253034580D0AA7
:10F7E00000000000424F4F544144445200000000CA
:10F7F0003E20426F6F746C6F616465722041646477
:10F80000726573733A203078253034580D0A000041
:10F81000F0B587B0112069460871B54C052200BFCC
:10F8200024A12000FCF724FC04A871DFB1A7002864
:10F8300003D03A002C21FFF787F8200000E0401C9D
:10F8400001780029FBD104A98A7900924B790A79C1
:10F850001AA101F027FA2000FCF7ADFB82B22100CB
:10F8600001A87CDF0600B94D1020286017A0FEF724
:10F870001BFC05202860002E04D03A003521300002
:10F88000FFF762F802A80021002206C002A8182192
:10F8900001805021418001218180C8214900C1801F
:10F8A0007ADF002803D03A003F21FFF74DF807B078
:10F8B000F0BD000041443135000000002D253032FC
:10F8C0005825303258253032580000003E2044651B
:10F8D00076696365204E616D653A25730D0A0000F7
:10F8E00030B59DB038210EA8FFF722FC0EA80221EA
:10F8F0000170002585700521C17038216846FFF729
:10F9000017FC012069460882A34C20001C3005909A
:10F910000EA801F0D7FC002804D000BF75A28321F7
:10F92000FFF712F818212000FFF702FC2570656030
:10F930002572FA20C0002082B42060821DB030BD44
:10F9400010B504002100954801F074FD200000F07E
:10F9500005F810BD80B502F06DF801BDF8B50700DF
:10F960008D4C608B05261025398810290AD0112965
:10F9700023D0132938D0192927D01A2949D0522940
:10F980003BD0F1BD01202076FEF7C2FC844908601F
:10F990006E480560096800BF89A0FEF785FB6B48CB
:10F9A000066005608CA0FEF77FFB68480660B8889B
:10F9B00060830322042184DFF1BD6448056000BF39
:10F9C0008AA0FEF771FB614806600020207675482A
:10F9D00060835E48056000BF8AA0FEF765FB5B4858
:10F9E0000660200073DFF1BD0023002285217FDF48
:10F9F000002810D03FA2C52108E0002300220021EA
:10FA0000A9DF002807D000BF3AA2CA21FEF79CFF59
:10FA1000F1BDB8796076F1BD38B508001400E1B2E7
:10FA200000F0ACFC494D1020286021007CA0FEF7BE
:10FA30003BFB0520286031BD30B587B0574D002312
:10FA4000482229001C31082002F03BFA29A4002892
:10FA500003D022005821FEF777FF01AA01210020E0
:10FA600002F065FA002803D022005E21FEF76CFF49
:10FA70004D4802F073FA002803D022006121FEF7FE
:10FA800063FF01A802F071FA002803D0220065216B
:10FA9000FEF75AFF454802F028FA002803D022005A
:10FAA0006921FEF751FF424802F027FA002803D0EF
:10FAB00022006D21FEF748FFFFF7AAFE3D480090A7
:10FAC0006946280001F0E2FC002803D022004D2105
:10FAD000FEF73AFFFFF704FF1C4C1020206000BF28
:10FAE00055A0FEF7E1FA0520206007B030BD000008
:10FAF00010370020443A5C576F726B466F6C646538
:10FB0000725C70726F6A6563745C41442D31355F5D
:10FB1000B9B2CFEDD3EAC9A1CFEEC4BF5C666972BA
:10FB20006D776172655C4150505C7372635C757394
:10FB300065725F626C652E63000000001321164839
:10FB4000408B76DF7047144873DF70470C25004008
:10FB500070B506000D00152D1DDA104C2A0031007D
:10FB6000200001F0C5FC1449884207D1C820FEF7E7
:10FB700052FD2A003100200001F0BAFC08280AD00A
:10FB8000002808D00D4C1021216001002FA0FEF7A5
:10FB90008BFA0520206070BD8C240020EC330020FF
:10FBA000D4230020FFFF0000001E002041F90100C7
:10FBB00055F9010019FA0100043000000C2500403D
:10FBC0003E20417574684F4B5F5453202530327589
:10FBD0002E530D0A000000003E20424C4520436F8A
:10FBE0006E6E65637465642E0D0A00003E20424C03
:10FBF00045204469736F6E6E65637465642E0D0AEB
:10FC0000000000003E20424C45206164766572741D
:10FC10006973696E6720626567696E2E0D0A000060
:10FC20003E206C656E206F6620646174612069738C
:10FC3000203A2025750D0A003E20424C4520537481
:10FC40006172742E2E2E0D0A000000003E20424CE0
:10FC5000452073656E64206661696C65642C20655F
:10FC600072726F7220636F64653A307825580D0A9E
:10FC700000000000F0B583B001F09AFF6C46082048
:10FC8000A080A020C000E08092480090924D290002
:10FC90004431684601F0B4FF102790480760A96C12
:10FCA00014A0FEF701FA05268C4806608C4800680F
:10FCB000A0800120E0808748009029004C316846F0
:10FCC00001F09EFF85480760296D00BF0EA0FEF77A
:10FCD000EBF982480660002000F04EF8280054300E
:10FCE000FDF79AFD7D4807600DA0FEF7DDF97B4822
:10FCF0000660F7BD3E2070734C6F672069643A253B
:10FD000023780D0A000000003E207073576F726B5D
:10FD1000446174612069643A2523780D0A0000006B
:10FD20003E20576F726B4461746120496E69742E76
:10FD30000D0A000010B5684C4222A11C0020FDF7FE
:10FD400059FC208000234422210020004C3001F087
:10FD5000DDFF00280DD1042000F0ADF85F4C10202D
:10FD6000206000BFA7A0FEF79FF9052020600120BA
:10FD700010BD002010BD0000F8B505261025002894
:10FD800007D05648056000BFA5A0FEF78DF953487F
:10FD90000660514C0023442221004C31200001F028
:10FDA000F9FF002845D167888B48874207D1002793
:10FDB0004A480560A2A0FEF777F94848066042224B
:10FDC000A11C0020FDF716FC2188884208D043487A
:10FDD000056000BFA0A0FEF767F94048066005E097
:10FDE000022F03DA012F1DD0002F22D101206080C5
:10FDF0007A4860600020208165810F229DA120004B
:10FE00000C30FCF735F97648A0873C20E0870020CD
:10FE10004021605242216052FFF78CFF2F4805605D
:10FE200098A002E02D4805609DA0FEF73DF92B4803
:10FE30000660F1BDF0B585B00500002669460E727A
:10FE4000684F40203C5AFEF763FA674988422ED338
:10FE5000641CA4B2A020C000844200DB0024FEF792
:10FE600057FA0090019503AA21003800443001F0B0
:10FE700021FF00230822694603A801F047FF00285C
:10FE800015D1042000F017F8012069460872574D7B
:10FE900010202860019B009A210000BF86A0FEF779
:10FEA00003F90520286040203C52FFF743FF6846D5
:10FEB000007A05B0F0BD4E4908604E4848604A6877
:10FEC0008242FCD048687047494803688B4200D1A1
:10FED00042607047C9FE0100AC2400200C250040A0
:10FEE00010000010F8B50E1D30680090424F052438
:10FEF000102500BF7CA1FEF7F9FC00280CD170682A
:10FF0000FDF73CFB796CC000081838490D60426869
:10FF1000016800BF76A01CE07DA10098FEF7E6FC1A
:10FF200000280BD17068FDF73CFBFFF783FF2F48DB
:10FF3000056000BF79A0FEF7B7F84AE07CA1009801
:10FF4000FEF7D4FC002807D128480560FA8FB98F46
:10FF50007AA0FEF7A9F83CE082A10098FEF7C6FC63
:10FF600000280DD17068002804D0FDF707FB386029
:10FF7000FFF7E0FE1D480560396800BF7CA026E061
:10FF80001EA10098FEF7B2FC00280DD17068002871
:10FF900005D001001A4802F02FF8FFF7CBFE1348F6
:10FFA0000560174977A012E07DA10098FEF79EFC3E
:10FFB000002810D17068002804D0FDF7DFFA3887D8
:10FFC000FFF7B8FE09480560398F00BF76A0FEF73D
:10FFD0006BF806480460F1BDFFFF000001127A00D3
:10FFE000B3260000AC24002001A8395A0C2500409B
:10FFF00034370020FFFFFF0FB0240020697000009D
:020000040002F8
:10000000B82400203E20576F726B20506172616DE2
:1000100020557064617465204F4B2E0D0A0000005E
:100020003E20576F726B2044617461204661637497
:100030006F72792052657365742E0D0A00000000FE
:100040003E20576F726B2044617461204E6F7420A4
:10005000496E69742E0D0A003E20576F726B204462
:1000600061746120435243204661756C742E0D0A01
:10007000000000003132302E32352E3230312E3237
:10008000303100003E20576F726B207665727369C5
:100090006F6E312064656661756C742E0D0A000008
:1000A0003E20576F726B2064617461206C6F6164D5
:1000B000204F4B2E0D0A00003E2057726974655F79
:1000C00053746F72654C6F6720696E6465783A256A
:1000D000752C2074696D653A25752C2072666964EB
:1000E0003A2523782E0D0A00726561646C6F6700F3
:1000F0003E20726561646C6F672074696D653A2596
:10010000752C2072666964A3BA2523782E0D0A0027
:1001100077726974656C6F67000000003E2077722B
:100120006974656C6F67204F4B2E0D0A000000004C
:100130006C6F67696E646578000000003E20537440
:10014000726F65204C6F6F67205265636F72643AFF
:1001500025752C205265706F72743A25752E0D0A24
:100160000000000064657669636569640000000052
:100170003E204465766963652049443A25750D0A39
:10018000000000003E204D51545420636F6E6E6598
:100190006374207365727665723A25730D0A0000E8
:1001A000706F7274000000003E204D515454206363
:1001B0006F6E6E65637420706F72743A25750D0AE8
:1001C0000000000080B50849087800280AD1684678
:1001D00012DF6A461278002A02D001220A7002BD9C
:1001E000022002BD082002BD4437002039DF7047DD
:1001F0003ADF7047A248072181800021C180018138
:100200000100243101607047F0B583B09C4CE08858
:1002100001009C4F10262289521A63D02268A388BD
:1002200019401423594351180A786B465A70491CD7
:100230000191401CE080FEF76BF820613E6000BF3A
:100240003AA0FDF731FF052038603E603DA0FDF784
:100250002BFF0520386000250AE03E6001982DB292
:10026000415D00BF42A0FDF71FFF052038606D1CF7
:100270006946497828B28842EFDB01980078002867
:1002800027D1481E694608701022210014310198B8
:10029000401C00F0F9F83E6030A0FDF705FF052096
:1002A000386000250AE03E6001982DB2401941787F
:1002B0002FA0FDF7F9FE052038606D1C694609780E
:1002C00028B28842EFDB0198401C00F0FDF80028BE
:1002D0002BD13E60B2A0FDF7E7FE05203860FFF7A6
:1002E0002DFCF7BDA94D2878002802D1FEF710F8A3
:1002F00020612878002818D0FEF70AF82169401AF2
:100300003D2812D3FEF704F820613E60216900BF4A
:10031000ADA0FDF7C9FE05203860FFF70FFC3E6079
:10032000AFA0FDF7C1FE05203860F7BD3E20686133
:100330006E646C652074686520646174613A0D0AAE
:10034000000000003E2050726F746F636F6C5F415D
:100350006E616C7973653A0D0A0000003E204145DC
:100360005320446563727970743A0D0A00000000EE
:100370003E203078253032582E0D0A0070B5404CA2
:100380002589A388E688AE1BB3420DDB26682B4087
:1003900014225343F2181170531C0A000100180074
:1003A000FBF752FE6D1C258170BD0000F0B591B0C9
:1003B00006000F001500334C10202060310000BFF4
:1003C0008EA0FDF771FE052020606C460020207095
:1003D000B00001210143617000F03FF804220100E8
:1003E000A01CFBF731FE264EB089401CB081A071E5
:1003F0000004000EE071002F09D0280007D00D2D59
:1004000005DA2A00390020000830FBF71DFE083508
:10041000EAB2122A00DB112205AD280010300021BB
:10042000002300278AC00160521E611C2800103082
:10043000FBF70AFE3000143005A9CCC8CCC105A8D2
:100440004DDF102229002031601CFBF7FDFD11213A
:100450006846FFF77DFB11B0F0BD10B582B00020FB
:10046000694608706846FFF7C1FE684600780828AC
:10047000F8DB474C04212000FFF7BAFE200016BD30
:10048000C42300200C250040F0B585B004000E0008
:10049000002C16D0002E14D01700102F11DB1007DF
:1004A0000FD100250BE06A463100200002F0C3F9AD
:1004B000102269462000FBF7C7FD10341035BD42FD
:1004C000F1DB05B0F0BD0000F0B585B006000021FD
:1004D00068460173307805242E4D102283079B0F48
:1004E000012B09D02C4801702A6000BF4AA0FDF7FB
:1004F000DBFD2C60002046E07179B3791B020B43D1
:100500000193254949885B1A5B1E042B2FD20127D2
:100510006B461F73800802902A60029945A0FDF780
:10052000C3FD2C601D4D6C4602981A2801D0352859
:1005300024D10422F11D6846FBF786FD0098696806
:1005400088421BD1042231000B316846FBF77CFD49
:100550000098FDF7E0FE277067706889A070288911
:10056000E070042269461920FFF720FF06E02A60A8
:10057000019A00BF36A0FDF797FD2C60019806494F
:1005800048806846007B05B0F0BD0000A424002030
:100590002C3700200C25004050370020AC240020D0
:1005A0003E20496E76616C696420424C4520666F3E
:1005B000726D61742C20424C4520646973636F6EC8
:1005C0006E6563742E0D0A003E20417574684F4BB2
:1005D0005F545320253032752E730D0A0000000041
:1005E0003E2054696D656F757420646973636F6E26
:1005F0006E65637465642E0D0A0000003E2053652D
:100600006E645F436D643A2523782C206C656E3AE6
:1006100025750D0A000000003E20436F6D6D616E70
:1006200064207479706520696E76616C69642E0D42
:100630000A0000003E205265636569766520636F9D
:100640006D6D616E6420307825582E0D0A00000013
:100650003E2052756E6E696E6720696E6465782003
:100660006661756C742C2073746F72653A25752CF5
:1006700020726563656976653A25750D0A0000008C
:100680003EB5684C9D2080002518280002F0FEF938
:10069000802040000290BA21490061180191009029
:1006A00023007433604A2900200002F036FAA120AA
:1006B00080002018FDF7B0F80120FCF7B8F85B4C7B
:1006C0001020206002A0FDF7EFFC0520206037BD60
:1006D0003E204D51545420696E6974204F4B2E0DAD
:1006E0000A00000080B500F0A3F800214D4802F098
:1006F0008CFB01BD70B5060000244C4D1020286015
:1007000070688268416800BF0FA0FDF7CDFC05202E
:100710002860B8480C2161434518686800280ED04D
:1007200071684A688968FDF785FF002807D1AA68C3
:10073000100004D03068C16889B280689047641C9A
:10074000082CE6DB70BD00003E20526563656976CB
:1007500065204E6577206D657373616765252E2A68
:10076000732C207061796C6F61643A0D0A0000008F
:1007700070B505000C000026F643FCF7E1F80028F0
:1007800008D0A9480168491C016021002800FCF735
:100790005BF80600300070BD80B5FCF7FDF801285D
:1007A00003DBA1490A68521C0A6002BDF0B585B09E
:1007B00007006846017000244470029203931948B0
:1007C000016A090615D06A46390002F0F5FB0500FA
:1007D000964902D00888401C00E000200880744E32
:1007E000102030602A00390005A0FDF75DFC0520CF
:1007F0003060012D01DB012000E0002005B0F0BDDC
:100800003E204D515454207075626C697368207499
:100810006F703A25732C2072657475726E3A256478
:100820000D0A0000DC200020881300000C25004089
:10083000F8B50024A748006A002805D0FCF780F826
:10084000002801D1A3480462784EA248007F002806
:1008500000D099E0FDF75CFD70603088022807DB6E
:1008600034809C490C77086A002801D000F0C4F855
:100870007088052810DB9748006A002801D000F036
:10088000BBF8748010204A49086000BF97A0FDF7AC
:100890000BFC0520464908608E48006A002800D0FD
:1008A00084E08D4FFCF74CF8002804D1B98F380054
:1008B0000C30FCF759F8FCF743F8012872D1874D4A
:1008C000042028725A2028837A6885A130000830D5
:1008D00000F0E8F930000830E86000BF8AA0286422
:1008E0008BA0E8640120A876EC7600F063F800287D
:1008F00059D010202E4908603100083186A0FDF73C
:10090000D3FB05202A49086010200860BA8F3900FF
:100910000C3100BF86A0FDF7C7FB05202449086005
:10092000102008602D2100BF88A0FDF7BDFB052029
:100930001F490860002070806649C20089184C6217
:10094000401C0828F8DB00272A480C21794344186A
:100950006068002814D0634B227801465D4802F09D
:10096000D1FA05001020124908602A00616800BF12
:100970007DA0FDF799FB05200D490860002D0ED1E3
:100980007F1C082F12DADFE7FDF7C2FC7168401AFE
:10099000062800D261E7FDF7BBFC706060E7308895
:1009A000401C3080F1BD7088401C7080F1BD00009B
:1009B0000C250040F8B505244B4E1025474F390053
:1009C000444802F053FA00280CD03900414802F0A4
:1009D0004DFA010006D035606CA0FDF765FB346070
:1009E0000020F2BD356000BF72A0FDF75DFB3460F2
:1009F0000120F2BD5034002038B5364802F03DFBEE
:100A000001000524384D10200029286006D000BFC1
:100A10006DA0FDF749FB2C60002032BD75A0FDF7ED
:100A200043FB2C60012032BD3C370020E435002020
:100A3000F0B583B0081D0090076805252A4E1024E4
:100A400072A13800FDF752FF002819D10098806884
:100A5000FCF794FD07000098C0680190FBF7ABFA23
:100A600083B2019AF9B200984068FFF79FFE002810
:100A70002ED034600098416866A0FDF715FB26E093
:100A80006AA13800FDF732FF002807D13460114811
:100A9000027F016A67A0FDF707FB18E06FA138002D
:100AA000FDF724FF002805D1FFF7A6FF346000BF43
:100AB0006DA00AE073A13800FDF718FF002807D1E8
:100AC000FFF778FF346000BF70A0FDF7EDFA3560E6
