:020000040001F9
:10B0000048260020F5190200E7C6010073C70100B9
:10B010000000000000000000000000000000000030
:10B020000000000000000000000000008FE70100A9
:10B030000000000000000000AB0A02008F1A0200AE
:10B040009B1A0200FD1A0200D914020037E4010025
:10B050006718020000000000310F0200FF1A020012
:10B06000D3180200E11802006DFC0100011B020070
:10B07000031B0200051B0200071B0200091B020044
:10B080007DEF0100FBEB01000B1B02000D1B02001A
:10B0900019EC01000F1B020031030200111B02001A
:10B0A000131B0200151B020000000000000000003E
:10B0B0000000000000000000000000000000000090
:10B0C000F1B5A4B014001F0014ADA9600020E8621F
:10B0D0000AE0A868249A9047A860002800D1CFE22F
:10B0E000E86A401CE862641C2178080001D1E86A23
:10B0F000C8E22529EDD100206861A861E8612862D5
:10B100006862A86202E0010001200843641C217803
:10B110002029F8D023290ED02B2904D02D2907D09F
:10B1200030290BD00DE001000220084380B2EDE78A
:10B1300001000420F9E701000820F6E701001020D3
:10B14000F3E72A290FD1396839600A68091D396087
:10B150006A63002A05D5514269630100042008434F
:10B1600080B2641C12E0002169630AE06A6B794BCB
:10B170009A4205D093009A185200511830396963E9
:10B18000641C21780A00303A0A2AEFD321782E294C
:10B1900003D00021C94329631EE0641C21782A29B9
:10B1A00007D1396839600A68091D39602A63641C4F
:10B1B00012E0002129630AE02A6B664B9A4205D00F
:10B1C00093009A185200511830392963641C217871
:10B1D0000A00303A0A2AEFD328872678310004483B
:10B1E00078440C3000F0DDFE002803D0641C02E03F
:10B1F000C068000000263A202E54285C682804D13C
:10B200002178682901D1622005E06C2806D12078D8
:10B210006C2803D171203A216854641C05A8286168
:10B220002678641C300025382AD01C3800D1D8E09C
:10B23000001F022800D8D4E0133800D1F6E0093806
:10B2400000D1CEE0801E00D15AE1401E00D134E191
:10B25000401E022800D8C4E0001F00D12DE1401F8D
:10B2600000D190E0401E00D1E0E0401E27D0C01E7B
:10B270000BD0801E00D1D9E0C01E00D1D6E049E13C
:10B2800025206946087501204EE13868386001685C
:10B29000001D3860E9602E6B002E03D5084600F0D3
:10B2A0008AFE0AE032000021E86800F08CFE0028E7
:10B2B00002D0E968401A00E03000A86135E1386842
:10B2C00038600268001D38600020C0430021104033
:10B2D00014AA03C205A8E860286900903C2214A8BB
:10B2E00003C802AB03C302A803C8002904D1002885
:10B2F00002D1286B00281DD0521E02A803C80007E7
:10B30000000F3030C0B23A2800DB27300099885453
:10B3100002A803C800090B071843090902AB03C3BD
:10B3200002A803C801D1002804D0E8680099891850
:10B330008842E1D33C20801AA86100998918E9600D
:10B34000296B88420ADA081A2862288F02490140CC
:10B350002987EAE0FFFFFF7FEFFF0000002900D40C
:10B36000E3E03821695C14220A40102A00D0DCE0B6
:10B37000696B6A69891A2A6A891A0A1A012A00DA23
:10B38000D3E02A62D1E03A20285C622819D06828EC
:10B3900006D06A280CD06C281BD0712808D018E081
:10B3A000386838600168001D3860E86A0880BCE0D1
:10B3B000386838600268001D3860E86AC11703C247
:10B3C000B3E0386838600168001D3860E86A0870CA
:10B3D000ABE0386838600168001D3860E86A0860D2
:10B3E000A3E03A68D21D072082433A6003CA3A605C
:10B3F00014AA03C2002902D568692D2109E0288F0B
:10B40000810702D568692B2103E0C00705D568696B
:10B41000202105AA1154401C686105A869694018DB
:10B42000E860310014A800F0FBF97EE03A20285CC7
:10B430006C280BD0712801D06A2807D13A68D21D38
:10B44000072082433A6003CA3A6005E039683960F0
:10B450000868091D3960002114AA03C23A20285C3B
:10B46000682803D114A803C880B20BE0622803D176
:10B4700014A803C8C0B205E0742801D07A2804D10A
:10B4800014A803C8002114AA03C23820285C0007AE
:10B490002DD514A803C8002901D1002827D02020C9
:10B4A0003043782823D16869302105AA1154401C03
:10B4B000411C696105A90E5419E039003A20285C45
:10B4C00000F0E2F814AA03C2002902DA68692D210B
:10B4D00009E0288F810702D568692B2103E0C007A6
:10B4E00005D56869202105AA1154401C686105A88A
:10B4F00069694018E860310014A800F0F9F814E018
:10B5000001206861386838600168001D386068464D
:10B5100001750AE025206946087501206861300040
:10B5200003D005A8467002206861686B6969401AFB
:10B53000296A401AA969401A696A401AE969401AD9
:10B54000A96A401A04903820285C400711D42020B2
:10B5500069460871049801280BDB049E012301AAA7
:10B5600014A9249800F005FD002800D088E0761E7C
:10B57000F4D1686905AE00280FD000903178A86832
:10B58000249A9047A86000287AD0E86A401CE862B4
:10B59000761C0098401E0090F0D13020694608715A
:10B5A0002E6A012E09DB012301AA14A9249800F0B8
:10B5B000E0FC002864D1761EF5D1EE68A869002869
:10B5C0000FD000903178A868249A9047A86000288E
:10B5D00056D0E86A401CE862761C0098401E009035
:10B5E000F0D13020694608716E6A012E09DB012313
:10B5F00001AA14A9249800F0BCFC002840D1761EB2
:10B60000F5D1E868A9694618E86900280FD00090CC
:10B610003178A868249A9047A860002830D0E86A5A
:10B62000401CE862761C0098401E0090F0D130204B
:10B6300069460871AE6A012E09DB012301AA14A92B
:10B64000249800F096FC00281AD1761EF5D13820F7
:10B65000285C400700D447E520206946087104981B
:10B66000012800DA40E5049E012301AA14A92498C8
:10B6700000F07FFC002803D1761E00D134E5F3E70B
:10B680000020C04325B0F0BD0A00622822D06828FF
:10B6900019D06A2808D06C2823D0712804D07428C7
:10B6A0001FD07A2808D01CE01368DB1D07208343D5
:10B6B000136003CB13607047116811600868091D9F
:10B6C000116000217047116811600868091D116040
:10B6D00000B20BE0116811600868091D116040B2EA
:10B6E00004E0116811600868091D1160C1177047F6
:10B6F000F3B583B0006900906846027C6F2A01D1DF
:10B70000082406E020211143782901D00A2400E012
:10B7100010243C25039803C806000F00642A01D0BA
:10B72000692A07D1002905DA00200021801BB941D0
:10B7300006000F00002F10D1002E0ED10398006BD1
:10B7400000280AD1082C3AD103983821405C000720
:10B7500035D53B253020009930E06D1E0195300035
:10B7600039002200E31700F03AFC3032D2B23A2A14
:10B7700003DB6846007C51381218009842553000AF
:10B7800039002200E31700F02AFC06000F0001D167
:10B79000002E05D00398C068009949198842DCD36F
:10B7A000082C0CD103983821405C000707D500987D
:10B7B000405D302803D06D1E3020009948553C2054
:10B7C000401B0399886100994919039AD160039934
:10B7D000096B884209DA081A039908620398008FF6
:10B7E0000E4901400398018715E0002913D50399FC
:10B7F0003822895C14220A40102A0CD10399496B23
:10B80000039A5269891A039A126A891A0D1A012D2C
:10B8100001DB0398056205B0F0BD0000EFFF0000FA
:10B82000F3B591B006AA03C802AB03C312A800780F
:10B8300020210143009161290BD01198006B002851
:10B8400001D5062003E004D1672902D10120119916
:10B850000863119840684100490DA64B994225D1D3
:10B86000000310D11198006800280CD10320119911
:10B87000886112A8007861381A283AD31F487844A2
:10B880007A3000900BE003201199886112A80078AB
:10B8900061381A2829D31A4878446430009003226A
:10B8A00000991198C06800F0CFFBE9E1012919DB8C
:10B8B000914B034091481843119B586090480D1AD2
:10B8C0000026F6430098612827D11198C0683021DE
:10B8D0000170811C119BD96012A90978612915D1C9
:10B8E000782114E000260025ECE70648784414305F
:10B8F000D4E7054878441030C3E700BFC8610000B2
:10B90000BC610000B4610000B861000058214170C2
:10B9100011984069801C11994861002E03D10024C0
:10B9200068468680A3E10098612800D09EE01198C7
:10B93000046B002C01D5212400E0641C24B2601C9F
:10B9400000901198C0C802A803C80022002300F08C
:10B95000A9FB02D280200006474002A8C0C0281FD1
:10B960006946888000260E7606A8471C00980128A4
:10B9700035DB02A803C8002280235B0300F0ABFB89
:10B980002DD81C2102A800F0BFFB02A803C800F0BC
:10B99000FBFB05000098C01F009001280ADB28006F
:10B9A00000F020FC02000B0002A803C800F091FC8C
:10B9B00002AA03C2F81D072104E0401E2A07120F45
:10B9C00002702D11012D01DB491EF6D5491E02D44E
:10B9D000401E0670FAE7C71D00980128C9DA06A8BC
:10B9E000401C391A06A8421CA14200DA0C0024B2FD
:10B9F000200032D4884205DA06A9091849780829B6
:10BA000000DB0F2606A9091801E0641E491E401E2E
:10BA10000B78B342F9D00F2E04D106A909184B7840
:10BA20005B1C4B70002806D506AA641C019800B266
:10BA3000001D6946888024B2601E0ED411180B7850
:10BA40003033DBB23A2B03DB12AD2D783A3D5B1974
:10BA50000B70401E491E0028F1D51198006B00287C
:10BA600000D404E1601E1199086300E102A803C834
:10BA70000022002300F016FB06D202A803C8802291
:10BA80001206514002AA03C22DB27E4868437E4985
:10BA900000F0ACFC694688800720019909B2421A7F
:10BAA00000207A49012A20DB049202AA30CA00262B
:10BAB0000F000498C00707D532003B002000290082
:10BAC00000F0EEFC04000D000498401004903000DB
:10BAD000390032003B0000F0E3FC06000F00049840
:10BAE0000028E6D102A830C029E054420026684F61
:10BAF00019E000BFFF070000FFFF0F800000E03FDC
:10BB0000FE030000E00707D504A803C832003B008D
:10BB100000F0C6FC06000F00641004A803C804AAC5
:10BB20000CCA00F0BDFC04AA03C2002CEAD102A892
:10BB300003C832003B0000F075FD02AA03C2009862
:10BB4000662803D1019800B20A3000E0062011995E
:10BB5000096B08180490142801DB1320049030208E
:10BB60006946087606A8441C049801283BDB02A815
:10BB700003C800F01BFB06000834042530000A212E
:10BB800000F037FC0F0030000A2100F032FC060004
:10BB90003037601E077030000A2100F02AFC0F00C9
:10BBA00030000A2100F025FC0600A41E3037277063
:10BBB0006D1EE3D108340498083804900128D3DBC3
:10BBC00002A803C800F0F2FA00F016FB02000B0016
:10BBD00002A803C800F07DFB00222E4B00F060FCA1
:10BBE00002AA03C2C3E706A8401C201A06A94A1CE1
:10BBF0006B4605E0401E019909B2491E9980521C0E
:10BC000011783029F6D00099662903D1019909B23B
:10BC1000491C04E0652901D1012100E00021119BAC
:10BC20001B6B5C1824B2A04200DA040024B221008D
:10BC30001DD4814204DA505C352801DB392000E054
:10BC40003020531800E0641E5B1E491E1D7885429B
:10BC5000F9D0392802D1505C401C5054002906D537
:10BC6000521E641C019800B2401C694688800198ED
:10BC700000B2009023B212A80178119800F00CF8DD
:10BC800013B0F0BD97750000A086010000002440AD
:10BC90000000F03F84D79741F3B587B015001C0032
:10BCA00000F03BFD0090406A0078694608710798F3
:10BCB000076B012C01DA0124ADA508A8017820202A
:10BCC00008430E9E662801D1761C17E0672800D035
:10BCD0009EE00321C9438E4200DA9DE0BE4200DBB4
:10BCE0009AE0761C07983821405C000702D4BC42D9
:10BCF00000DA270036B2BF1B00D5002707988069FD
:10BD00000799C9680918009136B2012E2EDA401C35
:10BD10003021009A1170012F04DA07993822895CCA
:10BD2000090705D569460979079AD2681154401C5C
:10BD3000079988617042874200DA7E4236B27042CB
:10BD400007994862BF19A74200DA3C0024B207985D
:10BD5000C461220029000798C068079B9B69C0182E
:10BD600000F072F9381B07998862E2E0B44220DAE9
:10BD700022002900009800F067F9079989690919DC
:10BD8000079A9161301B079A5062012F04DA0798D5
:10BD90003822805C000709D568460079079AD26886
:10BDA00050540798C069401C0799C861079887627A
:10BDB000BFE032002900009800F046F9079880693A
:10BDC0008019A41B012F04DA07993822895C09071E
:10BDD00005D569460979079AD2681154401C07991C
:10BDE000886124B2A74200DA3C0024B22200A919DB
:10BDF0000798C068079B9B69C01800F025F9079851
:10BE00008069001907998861381B0799486290E09A
:10BE1000612914D1702015E0BC4205DA0799382257
:10BE2000895C090700D427007F1E00D5002708A8D9
:10BE30000078672801D1652004E0452002E041290F
:10BE400002D1502008A9087007988069411C079A00
:10BE500091612978079AD2681154681C0090012FCB
:10BE600004DA07983821405C000720D507988169DB
:10BE7000481C079A90616A461279079BDB685A54FE
:10BE8000012F14DB641E24B2A74200DA3C0024B266
:10BE900022000099079BDB68181800F0D5F8079876
:10BEA0008069001907998861381B079948620798CB
:10BEB000C06807998969411808A80078087030009F
:10BEC00003D42B2048708D1C03E02D224A708D1C5A
:10BED0004642002404AF08E00A2202A800F038FC21
:10BEE00003983870029E641C7F1C31B20129F3DA7A
:10BEF000022C08DA08A8007820210143652902D124
:10BF0000302028706D1C002C09D1302028706D1C49
:10BF100007E0641E04A8005D303028706D1C012C01
:10BF2000F7DA0798C068079989694018281A0799AD
:10BF3000C86107983821405C14210140102914D1B0
:10BF4000079840690799896940180799496A401814
:10BF50000799C96940180799896A40180799496B78
:10BF6000884202DA081A0799086209B0F0BD000099
:10BF70003000F1B50E0014000027002B0FD01D007B
:10BF80002178B068009A9047B060002806D0F06A27
:10BF9000401CF062641C6D1E01D0F1E7FF433800C5
:10BFA000F2BDC9B200E0401C02788A4202D0002AE9
:10BFB000F9D100207047010000E0491C0A78002AEE
:10BFC000FBD1081A7047C9B201E0401C521E002A7A
:10BFD00003D003788B42F8D170470020704712429B
:10BFE00024D0994228D970B500251B4202D00C00FC
:10BFF000002109E00024012649186441944200D33D
:10C00000A41A7641F8D33100012601E0764109D225
:10C01000001864416D41A41A9D41F7D2A4185D41F6
:10C02000B619F5D3300022002B0070BD1B42D8D1C9
:10C0300008B500F09DFB08BD01D19042D3D20200AB
:10C040000B00002100207047124207D08B0706D05A
:10C050000B78491C0370401C521EF7D870478307A9
:10C0600006D00B78491C0370401C521EF9D1704752
:10C0700070B4103A03D378C9103A78C0FBD2530792
:10C0800001D318C918C001D508C908C0D20704D304
:10C090000B880380891C801C002A01D50B78037053
:10C0A00070BC704730B4012464054D00EC420BD8DD
:10C0B0005D00EC4208D80C001C43640004431443A8
:10C0C00004D2994200D1904230BC7047FCD08B42E0
:10C0D000FAD18242F8E730B4012464054D00EC4205
:10C0E0000BD85D00EC4208D80C001C4364000443EC
:10C0F000144304D28B4200D1824230BC7047FCD042
:10C100009942FAD19042F8E710B40200506840001A
:10C11000400D194B984207D15068000302D11068B6
:10C12000002811D0022025E0002823D001290DDBB2
:10C130001B1A99420AD35068002802D500200F49E3
:10C1400001E000200E4903C2012013E043428B426C
:10C1500009DA53680B4C1C40081800052043506056
:10C160000020C04306E05068802109060840506066
:10C170000020106010BC7047FF0700000000F0FFB7
:10C180000000F07FFFFF0F80F4464A1805D200F050
:10C190000FF801D580174008604700F009F8012129
:10C1A000C907884200D90800404260474A1812D2A5
:10C1B000400DC90208430121C9070843520D40211F
:10C1C0000901521A521C06D452421F3201D4D040E7
:10C1D0007047C0177047002070470268531C036007
:10C1E00011707047010009D5F446404200F006F88E
:10C1F0000122D20711436047010000BF4222120111
:10C20000D21E004207D002D4521E0018FCD5C10A2B
:10C2100040051205891870478B4200D1824205D92A
:10C220008446100062468C4619006346DF184C189D
:10C23000640D7F0D3AD0661C760537D0E61B352E8F
:10C2400034DCDB022B43DB0A0C0DC9022943C91283
:10C25000202E0DDB1700203E06D01F00F741F340D3
:10C260005F400026012A7741C01871410DD217E0C6
:10C270001700F741F2405740F3415A40B340F340B2
:10C280005A400026801859410AD3A21C52050FD0EB
:10C29000C207012F724117004008CB071843490815
:10C2A000641C24054208AF4170416141F0BC7047F5
:10C2B000641C21050020F9E76B4010E06B40ABE700
:10C2C000F742F3D1E943F1E72442EFD10020002106
:10C2D000ECE7F0B40125ED070F005F40EED40C0051
:10C2E000871A9C4105D2C01BA141D2196341694004
:10C2F0006B40AE0ADF184C18F442E1D2640D7F0D9A
:10C30000E2D0E61B362ED1DCDB022B43DB0AA4464F
:10C310000C0DC9022943C90A012E28DC04D1D60715
:10C320005208DF073A435B08EF0A76429041994191
:10C3300014D039423BD1B61940414941761C3942AB
:10C3400004D1761C001849413942FAD0B9436746F6
:10C35000B74208D9A41B24052143A7E70042EAD12C
:10C360003642E8D1A2E7E40AE10700209EE7202E4A
:10C370000BDD203E1F00F340F7415F40012A002201
:10C3800057417E42984191410BE01700F741F2403E
:10C390005740F3415A40B340F3405A407E429041E7
:10C3A00099410A0303D2641EB6194041494100274E
:10C3B000641E24054208AE4178416141F0BC7047DB
:10C3C000F446002804D4494200F013F84042604784
:10C3D0004042002905D45FD000F00BF840424942AA
:10C3E0006047494200F005F84942604703460B4365
:10C3F000E6D40022030A8B420BD203098B4219D2E6
:10C4000043088B422ED2411A00D2014652411046B7
:10C410007047FF2209023FD012068B4205D3121249
:10C4200009028B4201D31212090203098B4219D36C
:10C4300000E0090AC3098B4201D3CB01C01A524163
:10C4400083098B4201D38B01C01A524143098B42AD
:10C4500001D34B01C01A524103098B4201D30B0196
:10C46000C01A5241C3088B4201D3CB00C01A5241BB
:10C4700083088B4201D38B00C01A524143088B4280
:10C4800001D34B00C01A5241884200D3401A524196
:10C49000CFD201461046704708B500F06BF908BDD1
:10C4A000F0B50E005E400125ED072E40B446AE0A01
:10C4B000DF184C18F44208D2F7420ED2640D01D0B6
:10C4C0007F0D12D100206146F0BD05D1F74201D8A1
:10C4D0007F0D05D10020C143F0BDFBD1640DF9D023
:10C4E0000020C143490549088FE0E419C902DB0275
:10C4F00029432B43DB0A460DC00231438E4630B43C
:10C5000087B295B27D432E0CADB2140C7C43A419B6
:10C51000260C240425439CB27C43A419190C7943AE
:10C52000270CC919A4B20F043C43090C000C97B2A4
:10C5300047432E0CBE193543ADB2170C4743360C9A
:10C54000BF19A6B2BF193E043543240C3E0C361960
:10C550009FB24743BF19BCB23E0C89191F0C474319
:10C560007F183E043443390C704680B297B247437B
:10C570002E0CBE193543ADB2170C4743360CBF190C
:10C58000A6B2BF193E043543240C3E0C36199FB2A7
:10C590004743BF19BCB23E0C89191F0C47437F1893
:10C5A0003E043443390C77463F0C90B278432E0C4E
:10C5B00080190604ADB22E43050CA0B22D18120C42
:10C5C0007A435019020C80B2240CA4189AB27A4310
:10C5D000121914042043120C89181B0C7B43C91830
:10C5E00030BCEF0A394203D1B61940414941641EBB
:10C5F0006F12BF0DE41B0BDBFF19BC4211DA2405DF
:10C6000000274208AE417841614166463143F0BDA2
:10C61000641C05D1401C6141CF0201D34908F4E7F5
:10C6200050E75DE7F0B40E005E400125ED072E40B7
:10C63000B446AE0ADF184C18F4423BD2F74241D25E
:10C64000640D43D07F0D38D0E41BC902DB022943BF
:10C650002B43CF0ADB0A0600B61A9F4104D2641EA0
:10C66000B6197F41B6185F416812800D2418001872
:10C67000844222DAE80C0021B6197F41B61A9F41A4
:10C6800002D2B6185F413F1C40414941F4D3241CFB
:10C6900021DD2405B6197F41B61A9F4105D33743E2
:10C6A000C60737430026012F70416141664631437A
:10C6B000F0BC7047FCD1F74205D20020C1434905C8
:10C6C0004908F3E704D00020C143F1E77F0DFAD019
:10C6D00000206146ECE72442FAD1401C61410F037F
:10C6E000F6D30020E2E7FEE780B5124800F043F8F9
:10C6F00011A1016041608160C1600161416181619E
:10C700000EA242628162C162016341630CA2826334
:10C710000DA2C2630164416401BD10B5054800F07B
:10C720002AF804002068002801D1FFF7DDFF20006F
:10C7300010BD0000C0210020000000002E000000FD
:10C7400066616C736500000074727565000000001E
:10C750007CB504000E00150030002900FFF746FEEE
:10C7600000904543701B0190684603C803C473BD25
:10C770007047FEE770477047F8B5C1484168C14847
:10C780000A7802704A7842708A788270CA78C270D9
:10C790000A7902714A7942718A798271CA79C271C1
:10C7A0000A7A02724A7A42728A7A8272CA7AC272A9
:10C7B0000A7B02734A7B42738A7B8273C97BC17393
:10C7C00004240700103700BF6DA56E460422391FF0
:10C7D0006846FFF739FCA00717D1327870783070BF
:10C7E000B0787070F178B170F2703278AA5C327003
:10C7F000285C7070685CB070F078285CF0703078FD
:10C8000010A1A208895C41403170380010380078CE
:10C8100031784140397038000F38007871784140E4
:10C82000797038000E380078B1784140B97038001E
:10C830000D380078F1784140F970641C3F1D2C2CB4
:10C84000C4D3F1BD8D01020408102040801B366C5A
:10C85000D8AB4D9A2F5EBC63C697356AD4B37DFAC8
:10C86000EFC5913972E4D3BD61C29F254A94336606
:10C87000CC831D3A74E8CB8D01020408102040805F
:10C880001B366CD8AB4D9A2F5EBC63C697356AD405
:10C89000B37DFAEFC5913972E4D3BD61C29F254AD9
:10C8A000943366CC831D3A74E8CB8D0102040810E2
:10C8B0002040801B366CD8AB4D9A2F5EBC63C69768
:10C8C000356AD4B37DFAEFC5913972E4D3BD61C244
:10C8D0009F254A943366CC831D3A74E8CB8D0102C0
:10C8E0000408102040801B366CD8AB4D9A2F5EBCDC
:10C8F00063C697356AD4B37DFAEFC5913972E4D334
:10C90000BD61C29F254A943366CC831D3A74E8CB3F
:10C910008D01020408102040801B366CD8AB4D9A64
:10C920002F5EBC63C697356AD4B37DFAEFC59139E3
:10C9300072E4D3BD61C29F254A943366CC831D3A0D
:10C9400074E8CB0010B44E4909684E4A0001101833
:10C9500004220B7804785C400C704B7844785C407F
:10C960004C708B7884785C408C70CB78C4785C4059
:10C97000CC70001D091D521EEBD110BC7047000089
:10C98000637C777BF26B6FC53001672BFED7AB768C
:10C99000CA82C97DFA5947F0ADD4A2AF9CA472C037
:10C9A000B7FD9326363FF7CC34A5E5F171D83115A4
:10C9B00004C723C31896059A071280E2EB27B275C5
:10C9C00009832C1A1B6E5AA0523BD6B329E32F843D
:10C9D00053D100ED20FCB15B6ACBBE394A4C58CF35
:10C9E000D0EFAAFB434D338545F9027F503C9FA809
:10C9F00051A3408F929D38F5BCB6DA2110FFF3D2D7
:10CA0000CD0C13EC5F974417C4A77E3D645D19738A
:10CA100060814FDC222A908846EEB814DE5E0BDB84
:10CA2000E0323A0A4906245CC2D3AC629195E479BB
:10CA3000E7C8376D8DD54EA96C56F4EA657AAE0815
:10CA4000BA78252E1CA6B4C6E8DD741F4BBD8B8AB0
:10CA5000703EB5664803F60E613557B986C11D9E16
:10CA6000E1F8981169D98E949B1E87E9CE5528DF8D
:10CA70008CA1890DBFE6426841992D0FB054BB16B9
:10CA800044380020203500204100C0091B225043BB
:10CA90004840C0B270470000F0B587B0004801E0E0
:10CAA000443800200068039004200590039804781F
:10CAB0004078694648700398807888700398C078F9
:10CAC00008702000FFF7E0FF05002000FFF7DCFF03
:10CAD000FFF7DAFF6840694688712000FFF7D4FF4E
:10CAE000FFF7D2FFFFF7D0FF694648712000FFF73C
:10CAF000CBFFFFF7C9FFFFF7C7FFFFF7C5FF68468A
:10CB00004078FFF7C1FF6946087168464078FFF733
:10CB1000BBFFFFF7B9FF68464078FFF7B5FFFFF7A7
:10CB2000B3FFFFF7B1FF6946C87068464078FFF76A
:10CB3000ABFFFFF7A9FFFFF7A7FFFFF7A5FF6846C9
:10CB40008078FFF7A1FF68468078FFF79DFFFFF729
:10CB50009BFF070068468078FFF796FFFFF794FF7A
:10CB6000FFF792FF050068468078FFF78DFFFFF71B
:10CB70008BFFFFF789FFFFF787FF68460078FFF715
:10CB800083FF68460078FFF77FFFFFF77DFF684669
:10CB90000078FFF779FFFFF777FFFFF775FF0600D3
:10CBA00068460078FFF770FFFFF76EFFFFF76CFF36
:10CBB000FFF76AFF684680796946497941406846CF
:10CBC000407848406946097941406846C078484005
:10CBD0006946897841404F407D406846007868400A
:10CBE0004640039806702000FFF74EFF2000FFF735
:10CBF0004BFFFFF749FF2000FFF746FFFFF744FF19
:10CC0000FFF742FF07002000FFF73EFFFFF73CFF62
:10CC1000FFF73AFFFFF738FF68464078FFF734FF29
:10CC20006946C87068464078FFF72EFFFFF72CFF73
:10CC30006946087168464078FFF726FFFFF724FF32
:10CC4000FFF722FF6946487168464078FFF71CFFEE
:10CC5000FFF71AFFFFF718FFFFF716FF6846807807
:10CC6000FFF712FF6946887168468078FFF70CFF6E
:10CC7000FFF70AFF68468078FFF706FFFFF704FF1B
:10CC8000FFF702FF6946C87168468078FFF7FCFE2F
:10CC9000FFF7FAFEFFF7F8FEFFF7F6FE68460078AA
:10CCA000FFF7F2FE68460078FFF7EEFEFFF7ECFEB6
:10CCB000050068460078FFF7E7FEFFF7E5FEFFF79F
:10CCC000E3FE060068460078FFF7DEFEFFF7DCFEB5
:10CCD000FFF7DAFEFFF7D8FE67406846C078784075
:10CCE00069460979414068464079484069468978F3
:10CCF00041406846807948406946C9794140684664
:10CD00000078484045406E40039846702000FFF789
:10CD1000BBFE2000FFF7B8FEFFF7B6FE694688713C
:10CD20002000FFF7B1FEFFF7AFFEFFF7ADFE69464B
:10CD300048712000FFF7A8FEFFF7A6FEFFF7A4FE4C
:10CD4000FFF7A2FE68464078FFF79EFE68464078EF
:10CD5000FFF79AFEFFF798FE68464078FFF794FECB
:10CD6000FFF792FE010068468078C0091B225043FD
:10CD70006A461071684680784000D0706846C07876
:10CD800012794240D0091B2358436B46D87150009A
:10CD9000DB79434068468374837C0078C0091B2597
:10CDA00068436D466872684600784000287268469D
:10CDB000007A6D7A4540E8091B2670436E46707410
:10CDC0006800767C464068460674067CF0091B279E
:10CDD00078436F46F872D8091B2778436F46B872BC
:10CDE00076006846807960408446684647796046A8
:10CDF00047406846407878404F004740C9091B20AB
:10CE0000414379406846C0784840694609794140C5
:10CE1000500048406946C979414058004840694639
:10CE2000897A41406846007848406946097A41401D
:10CE30006846407A484070406946C97A4140039844
:10CE40008170E0091B21484369460870610068460B
:10CE50000078484041000006C00F1B23584348405B
:10CE6000694649784B0069464978C9091B277943C7
:10CE700059400F06FF0F1B235F436B46DF704900CD
:10CE8000DB784B406A46927C6F463D716500654099
:10CE90006C4627786F4044007C400006C00F1B257D
:10CEA000684360406C466478444061406846C0789E
:10CEB0004840590041401806C00F1B2358434840C2
:10CEC000694689784140500048406946897A414026
:10CED0006846007A48406946497A41406846007988
:10CEE000400048406946497C41404E406846C07A0F
:10CEF00070400399C8700398001D03900598401E68
:10CF0000059000D0D2E507B0F0BD000031480068C0
:10CF1000042100BF30A20378D35C03700379D35C93
:10CF20000371037AD35C0372037BD35C0373401CED
:10CF3000491EF0D1704727480068417B427A42730E
:10CF4000427942724278427141708178827A82706D
:10CF500081728179827B82718173C178C279C2705A
:10CF6000C27AC271C27BC272C173704700228B5CED
:10CF70008354521C8B5C8354521C8B5C8354521C14
:10CF80008B5C8354521C102AF1DB704738B50C00BF
:10CF9000150001002800FFF7E9FF0E480560446016
:10CFA000FFF7EAFB0A20FFF7CDFC0924FFF7C3FFD8
:10CFB000FFF7ACFFE0B2FFF7C5FCFFF76DFD641EA5
:10CFC0002006F3D1FFF7B7FFFFF7A0FF0020FFF720
:10CFD000B9FC31BD4438002052096AD53036A53835
:10CFE000BF40A39E81F3D7FB7CE339829B2FFF8751
:10CFF000348E4344C4DEE9CB547B9432A6C2233D35
:10D00000EE4C950B42FAC34E082EA16628D924B2E5
:10D01000765BA2496D8BD12572F8F6648668981606
:10D02000D4A45CCC5D65B6926C704850FDEDB9DA65
:10D030005E154657A78D9D8490D8AB008CBCD30A53
:10D04000F7E45805B8B34506D02C1E8FCA3F0F022F
:10D05000C1AFBD0301138A6B3A9111414F67DCEAFE
:10D0600097F2CFCEF0B4E67396AC7422E7AD358577
:10D07000E2F937E81C75DF6E47F11A711D29C58981
:10D080006FB7620EAA18BE1BFC563E4BC6D2792063
:10D090009ADBC0FE78CD5AF41FDDA8338807C7316C
:10D0A000B11210592780EC5F60517FA919B54A0D64
:10D0B0002DE57A9F93C99CEFA0E03B4DAE2AF5B0D9
:10D0C000C8EBBB3C83539961172B047EBA77D626F5
:10D0D000E169146355210C7DF8B5CD4C20788100B1
:10D0E000081880002018051DCA48C06900902B69E7
:10D0F0000022297828000830C74EAD686F007D19DE
:10D10000AD007559A847207800F074F96078401E8A
:10D1100060702078401CC0B2082800D10020207028
:10D12000002000F04FF8F1BD70B5B94B18788100C0
:10D13000081880001818041DCA4D2A68E068A188E4
:10D1400040182169668892B2B24220D22A6892B20F
:10D15000B41A2A681204920C0919001929DF010077
:10D1600012D0112805D1AB48016A08220A43026295
:10D170000AE019788A00511889005918091D00F031
:10D1800073F9042000F01EF8286880B217E0B20896
:10D1900029DF010012D0112805D19E48016A08221A
:10D1A0000A4302620AE019788A0051188900591866
:10D1B000091D00F059F9042000F004F86088954931
:10D1C000886170BDF0B583B0914D924C08E029782C
:10D1D0008A00511889006918091D00F045F90420DA
:10D1E00020702078002847D002280DD041D3032892
:10D1F00049D1206928DF010045D01128E7D1206AF4
:10D200000821014321623EE0266A0120864326620E
:10D2100028788100081880002818051DE86801900A
:10D22000904F396889B2FFF7E4F8206100900198C7
:10D2300069884018401E396889B2FFF7DAF800990A
:10D24000814203D102203043206202E00220864363
:10D250002662A068002807D10220216A014003D17C
:10D26000607000F055F80EE00020607000F00DF8DE
:10D2700009E0FFF759FF06E06061A06168780028C7
:10D2800001D000F00EFB03B0F0BD80B57548026818
:10D29000016892B21002801A89B2FFF7A7F828DF5E
:10D2A000010013D0112805D15A48016A08220A4307
:10D2B000026201BD56490A7893009A1892008918B3
:10D2C000091D00F0D1F80420FFF77CFF01BD10B567
:10D2D00064480168046800684E4B09048A0C1969A7
:10D2E000A4B2614380B20402201A29DF01000ED0EB
:10D2F000112800D179E046490A7893009A189200E3
:10D300008918091D00F0B0F80420FFF75BFF10BD7D
:10D3100080B54049086928DF020012D0112804D1E5
:10D32000086A082202430A6201BD39490A7893005B
:10D330009A1892008918091D00F096F80420FFF74A
:10D3400041FF01BDF8B5324C2078810008188000FB
:10D350002018021DD36843480168006855885B198E
:10D3600092889D185A4EF268009280B20202171AF3
:10D37000280089B2FFF73DF87918009A280029DFC4
:10D38000010011D0112804D1306A08210143316213
:10D39000F1BD21788A00511889006118091D00F03B
:10D3A00063F80420FFF70EFFF1BD10B52D480168AA
:10D3B0000468184B9A6889B20802411A1869401E1D
:10D3C000A4B2604329DF01000ED0112800D10CE087
:10D3D0000F490A7893009A1892008918091D00F0E5
:10D3E00043F80420FFF7EEFE10BD186A0821014340
:10D3F000196210BD8B4982001018800008180021A6
:10D400000171C1803222C2600161416101817047B6
:10D41000D03500205C370020742F002070B5814C7F
:10D420006578082D1CD026787519082D00D3083D85
:10D43000AE007519AD00651928716A6103C92A002B
:10D440000C3203C2EB80049828816078401C607025
:10D450001F480078002801D100F023FA002070BD99
:10D46000042070BD1000001070B582B00C00184987
:10D47000C969009123690200217820000830A04D7D
:10D48000A46866003419A4002C59A04773BD00B5E8
:10D49000644801788A00511889004018001D3349FA
:10D4A0000968C2684388D21880881018401E89B263
:10D4B000FEF79FFFB7490A69824205D306D1C868C3
:10D4C000401E8041C00F00BD012000BD002000BDF6
:10D4D0005C370020F8B5AF4C276A38073CD4514878
:10D4E00001788A00511889004518281DC1684288B2
:10D4F000891880880818401E1C49096889B2FEF7FF
:10D5000078FFE668002E0BD02169814208D1002007
:10D51000A0600121394321626070FFF7B6FEF1BDC2
:10D52000FFF7B5FF002806D00020A0600220607041
:10D53000FFF7EEFEF1BD002E04D003206070FFF770
:10D5400001FFF1BD2879042802D0FFF7C5FDF1BD28
:10D550000120FFF737FEF1BD08208743276200BF97
:10D560008DA06178890040588047F1BD10000010FF
:10D5700080B58848016A0A070FD42A4801788A00D2
:10D580005118890040180079042802D0FFF7A4FD43
:10D5900001BD0120FFF716FE01BD55E038B57D4CF9
:10D5A000256A280735D42069401C2061A06800281E
:10D5B00004D004206070FFF7F8FE31BDFFF767FF6D
:10D5C000002804D002206070FFF7A2FE31BDE068A1
:10D5D00000280ED00120054206D1284320620020F9
:10D5E0006070FFF752FE31BD03206070FFF7AAFEA6
:10D5F00031BD0C4801788A00511889004018007923
:10D60000042802D0FFF768FD31BD0120FFF7DAFDE5
:10D6100031BD0820854325625FA0617889004058AC
:10D62000804731BDD035002080B55A48016A0A07CD
:10D6300009D40222114202D001230B43036242703B
:10D64000FFF766FE01BD00BF08229143016200BFE3
:10D6500051A1407880000858804701BD80B54D48F1
:10D66000016A0A0704D401214170FFF730FE01BDB1
:10D67000EAE7000080B547490878012804D03ED386
:10D6800003281AD036D301BD20228A5C12070FD49A
:10D690009048027893009A1892008018001D4288E2
:10D6A0008969511A418009041BD0FFF73DFD01BD76
:10D6B0000A6A08239A430A6219E020228A5C120748
:10D6C000F6D40869401C0861FFF7E1FE00280DD17F
:10D6D000804801788A005118890040180079042890
:10D6E00002D0FFF7F9FC01BD012000E00320FFF7A5
:10D6F00069FD01BD03A0497889004058804701BDFC
:10D70000742F00205DD6010029D601009DD50100AF
:10D7100071D50100D5D4010001001E4A1078030024
:10D7200000D1704770B582B0042832D002292ED0C3
:10D7300003292ED12021515C090728D45169491CA5
:10D74000516103290AD0022802D0FFF73BFD73BDC7
:10D7500011A0517889004058804773BD5D48017819
:10D760008B00591889004018041DD0690090236966
:10D770000D22217820000830574DA4686600341926
:10D78000A4002C59A0470420FFF71CFD73BDFFF730
:10D7900071FF73BD5C3700208BD20100CFD2010036
:10D7A00011D3010045D30100ABD30100F0B583B024
:10D7B000484801788A00511889004018051DEE6814
:10D7C000AF6845487900C9198900401801896A463F
:10D7D00051804189118040680290404C216830009E
:10D7E00089B2FEF706FE481E8041C00F02996A46C4
:10D7F00052886B461B885A4389180191AA88698808
:10D8000073189B180093364D0023EB60002809D055
:10D81000206880B2814207D000980199884201D1E6
:10D82000100001D0332F07D12168300089B2FEF7F4
:10D83000E0FD2861032030E02168B01889B2FEF7CE
:10D84000D8FD8808A8602168009889B2FEF7D1FD4C
:10D85000002921D00098019988421DD00F462168E7
:10D8600086B2BFB2380089B2FEF7C0FD009030002A
:10D87000216889B2FEF7BAFD01000098884201D103
:10D88000B81B07E02768BFB23000216889B2FEF7F5
:10D89000ADFD781A8008E8600220FFF793FC03B022
:10D8A000F0BD80B50B4801788A00511889004018F6
:10D8B000001D41880A4AD1610078012804D003285C
:10D8C00005D0042803D001BDFFF77CFC01BDFFF7A4
:10D8D0006DFF01BDD0350020742F00201000001016
:10D8E0005C370020F2B582B01E490978490701D49F
:10D8F000082034E00299002901D0002801D10E202F
:10D900002DE00168322917D2174C4D0069188900A3
:10D910006618316800290FD031890C004568776896
:10D9200076896643BE19B54206D2160004D09142EC
:10D9300002D3D1188C4201DA072010E00321029CA7
:10D940000C420BD10B4209D10D4207D100931300B9
:10D95000029A01000420FFF761FD00E0102003B0EF
:10D96000F0BD00007C370020742F0020401E00BF57
:10D9700000BF00BF00BF00BF00BF00BF00BF00BFAF
:10D9800000BF00BF00BFF1D17047F0B587B0B84805
:10D9900000F0A0FC802000060490002502A88581EC
:10D9A000FF264671057185700221417003210170C7
:10D9B000C670002202A9AE4800F0F8FB00F052FA4F
:10D9C00000F0F0F9AB480168002906D1AA490D60C2
:10D9D00001210160FF2000F0A5FA8027FF05A7487C
:10D9E00047609F20694648710D710120009001AB8E
:10D9F000012201A9491C9E4800F089FC6846467135
:10DA000069460D710120009001AB012201A9491C5A
:10DA1000974800F07CFC9A4C684600792070684674
:10DA2000467169460D710120009001AB012201A9E8
:10DA3000491C8F4800F06BFC6846007960706846AE
:10DA4000467105710120009001AB012201A9491C1A
:10DA5000874800F05CFC68460079A0708748076042
:10DA60002078EF2810D1A0780100143906290BD2B4
:10DA700001211438814008056060701C208100017C
:10DA800060816068000BA08100F02BFAA0890A3841
:10DA900020612000143000F03FFE07B0F0BD38B523
:10DAA000040074480168002906D1734A11600121FD
:10DAB0000160FF2000F036FA714D2869401CA989E9
:10DAC0004A1E904201D308000A38286100F009FA82
:10DAD000286900032060012032BDF2B582B0050044
:10DAE000170064480168002906D1634A11600121CA
:10DAF0000160FF2000F016FA604E8024E405746097
:10DB0000032000F00FFA2802000E00F00BFA2804A0
:10DB1000000E00F007FAE8B200F004FAFFB2009736
:10DB2000029B00220021524800F0F1FB346000F01B
:10DB3000D8F9012003B0F0BD10B503000020802407
:10DB4000A401A34206D34E4C6468A34202D218003B
:10DB500000F001F810BDF4B506000C000027002C01
:10DB600006D0002A04D0901945494968884201D35B
:10DB70000020F2BD3F480168002906D13E4A1160ED
:10DB800001210160FF2000F0CDF900F087F9F5B226
:10DB9000002D12D080204000401B009D854200D9FE
:10DBA00005002A002100300000F01AF92F00761934
:10DBB000641902E0761964197F19009887420CD223
:10DBC00080256D00C01BA84200D205002A0021005C
:10DBD000300000F005F90028ECD100F043F900F026
:10DBE00080F90098874201D10120F2BD0020F2BDEA
:10DBF0007CB500261F480168002906D11E490E6029
:10DC000001210160FF2000F08DF900F047F91B4D64
:10DC10008024E4056C6006206946487168460671F8
:10DC20000120009001AB012201A9491C104800F01D
:10DC30006EFB2C606C60C72000F074F92C60B84853
:10DC400000F084F9040000F00DF900F04AF920001A
:10DC500076BD80B5002280239B01984206D3084BF5
:10DC60005B68984202D200F00DF80200100002BD7D
:10DC7000A4E10100003500400007005008050050F5
:10DC8000D0200020F0B585B00400080001D10020AC
:10DC900084E0240B2403080320180490C54801687D
:10DCA000002906D1C44A116001210160FF2000F063
:10DCB00039F900F0F3F83A4F8026F605002501E027
:10DCC00003982418049884425ED2001BB10B88424A
:10DCD00007D3200408D10391D82069460871B748BA
:10DCE00013E04908884209D3600407D1F00B039080
:10DCF000522069460871C820C00006E0B00C0390AD
:10DD0000202069460871C820400002907E600620ED
:10DD100000F008F93E607E6069464D710120009078
:10DD200001AB5B1C012201A9A54800F0F0FA200C10
:10DD3000694648710D710120009001AB012201A9D3
:10DD4000491C9F4800F0E3FA200A694648710D71AA
:10DD50000120009001AB012201A9491C984800F064
:10DD6000D6FA69464C71684605710120009001ABF6
:10DD7000012201A9491C924800F0C9FA3E600298AC
:10DD800000F0E4F800289BD100F06CF800F0A9F84E
:10DD90000498844201D1012000E0002005B0F0BDCC
:10DDA0000805005038B583480168002906D1824A29
:10DDB000116001210160FF2000F0B4F8814C802542
:10DDC000ED056560AB2000F0ADF82560FF2000F0A8
:10DDD000A9F8FF2000F0A6F800F083F8012032BD7A
:10DDE000F2B582B00400170000210020029A002A38
:10DDF00036D0002F34D0FF22921C974230D2714E81
:10DE00008025ED05756006206A46507168460171EF
:10DE10000120009001AB012201A9491C684800F0D3
:10DE200076FA35607560022000F07CF82002000E62
:10DE300000F078F82004000E00F074F8E0B200F072
:10DE400071F83C00002000900023FAB202995C486F
:10DE500000F05DFA641EF5D13560642000F076F8BC
:10DE600003B0F0BD7CB5BF4C8025ED056560062094
:10DE700069464871002008710120009001AB012221
:10DE800001A9491C4E4800F042FA2560022626608E
:10DE90006560012000F046F89E201AE07CB5B14C88
:10DEA0008025ED05656006206946487100200871EF
:10DEB0000120009001AB012201A9491C404800F05B
:10DEC00026FA2560022626606560012000F02AF807
:10DED000822000F027F825606660642000F036F8A4
:10DEE00076BD30B583B0374C8020C0052060FF2060
:10DEF0006946487100250D710120009001AB012297
:10DF000001A9491C2E4800F002FA2A4805600820A1
:10DF10006060042060602849086003B030BD0000E4
:10DF20003075000000B583B0694648710020087163
:10DF30000120009001AB012201A9491C99A000F029
:10DF4000E6F96846007903B000BD0000F0B583B083
:10DF5000040000200290834F8025ED057D600520A0
:10DF6000FFF7E0FFFF20FFF7DDFFFF206946487164
:10DF7000002008710120009001AB012201A9491C79
:10DF800088A000F0C4F968460679F0070BD5632035
:10DF9000FFF7ECFC0298401C0290A0000019400022
:10DFA00002998842E1D23D60F107C90F0120484043
:10DFB00003B0F0BD0035004000070050B80B000072
:10DFC000A4E101000805005070B5A2B0002600963B
:10DFD0000C1D256864A1280000F0C8FB00280BD1A7
:10DFE000604D8026F605606800F04AFA002801D0EE
:10DFF0002E60B5E06E60B3E05CA1280000F0B6FBD7
:10E00000002806D1606800F03BFAC0B2FFF78AFF33
:10E01000A6E000BF59A1280000F0A8FB002836D1D7
:10E02000656853A1280000F0A1FB002802D1FFF78A
:10E03000DFFD95E0287801006139062907D301004A
:10E040004139062903D330380A2800D388E049A192
:10E050002000083000F074FB002803D4280000F0F2
:10E0600020FA02E0280000F00BFA009042A1200004
:10E07000083000F065FB002804D401210098FFF768
:10E0800001FE6DE001210098FFF7E3FD68E000BFAD
:10E090003CA1280000F06AFB002803D16846FFF786
:10E0A000FEFC5DE039A1280000F060FB002802D1F1
:10E0B000FFF76BFC54E000BF36A1280000F056FBD0
:10E0C000002822D12BA120000C3000F039FB0028C1
:10E0D000606806D400F0E5F90090A06800F0E1F96E
:10E0E00005E000F0CDF90090A06800F0C9F9050046
:10E0F000802D00D37F252A0001A90098FFF7EDFCB1
:10E1000000282DD001A846552AE000BF23A12800F1
:10E1100000F02CFB002823D116A120000C3000F0C9
:10E120000FFB0028606802D400F0BBF901E000F0AA
:10E13000A7F90090A068FDF73EFF05000EA12000A2
:10E140000C3000F0FDFA002805D42A00A1680098E0
:10E15000FFF701FD04E02A00A1680098FFF7ECFC3E
:10E1600022B070BD08050050435300005257000014
:10E17000616C6C002D7800002D6400006572617385
:10E18000650000007377617000000000696E6974BB
:10E19000000000007265616400000000777269741D
:10E1A000650000000030004003000000F1B582B0BF
:10E1B0004079884B44011B1900931B7E002B01D032
:10E1C00008207DE0002902D13EA100010918009835
:10E1D000026001240A78012090407F4B0A7B022ACA
:10E1E00001DA586000E018607C4D087880002C50FF
:10E1F0004A78FF2A06D001209040586003209600FC
:10E20000A85101E00022D2438878FF2803D00026DD
:10E210008700EE5101E00020C043CE78FF2E06D0EB
:10E220000127B7401F600323CE78B600AB51694B7E
:10E23000029D6D796D015B19CD789D76029B1B68FF
:10E24000A025ED005D190E78AE60EA60286188684F
:10E2500068620A7B4E7B701E8041C043C00F012A5A
:10E260000AD00CD3032A01D003D308E00200062011
:10E2700004E00200042001E002000220104368656F
:10E280005448029A5279520180184A79C27600980D
:10E290000068002803D00420C122920098502C600E
:10E2A00000980068002805D0097902980422805659
:10E2B00000F06EFA0020009948760098047600205D
:10E2C00003B0F0BD020304FF03FF000000000040A4
:10E2D000000000003F4942795201891802680B682A
:10E2E000002B0ED00423C056002805D40123C006FD
:10E2F000C00E83405C4803600020C043C2239B00E3
:10E30000D0500020A023DB00D05008767047F0B535
:10E3100083B0304C45796D016419657E002D01D0C4
:10E32000112054E02568002D01D001256576A160FB
:10E3300022732361089B2375657FFC262E40667738
:10E34000A57EFF2D03D00126AE40234D6E600068F0
:10E350000090002020770098C125AD004019029060
:10E360000420029D6860009D84267600AD19019509
:10E370000025019E3560150001D00D7800E0E57E96
:10E38000009E3A4FF6193560022A01DB497802E017
:10E39000022B01DBE17E31602168002902D0029965
:10E3A000086013E0019800680028FBD00020019964
:10E3B00008602100009800F013F80028F2D1A07E38
:10E3C000FF2803D00121814003480160002003B0F1
:10E3D000F0BD0000C43700200805005000070050C1
:10E3E00038B4A322D200801802686B461A700A7FE4
:10E3F0000C7DA24202D21B780C69A3540A7F521CE6
:10E400000A77D2B2531C9BB20C7BA34203DA896811
:10E41000C95C41600CE00D7DAB4202DAC97E41600F
:10E4200006E01000A04203D3AA428041C00F00E0E2
:10E43000012032BC704738B500250F4805600C4CF0
:10E4400021000E48FFF7CCFF00280BD1A07EFF284B
:10E4500003D0012181400748016065762571201DA8
:10E460002168884731BD000080E100E01C05000004
:10E47000C43700200805005008310040003000403B
:10E480000100002000290BD005E08300181840008F
:10E49000303A8018491C0A781300303B0A2BF4D319
:10E4A000704701000020002900D1704710B40A789D
:10E4B000302A0AD14A78782A01D0582A05D1891CF5
:10E4C00003E0573A00018018491C0A7813000ED067
:10E4D0001C00303C0A2C01D2303AF3E71C00413CCE
:10E4E000062C01D2373AEDE7613B062BE9D310BC8D
:10E4F00070470000130000D1704730B406A3040237
:10E5000000120D7845406800185A604080B2491CDE
:10E51000521EF4D130BC70470000211042206330FD
:10E520008440A550C660E770088129914AA16BB16B
:10E530008CC1ADD1CEE1EFF1311210027332522213
:10E54000B5529442F772D662399318837BB35AA3BB
:10E55000BDD39CC3FFF3DEE36224433420040114E3
:10E56000E664C774A44485546AA54BB5288509950B
:10E57000EEE5CFF5ACC58DD55336722611163006B3
:10E58000D776F6669556B4465BB77AA7199738875B
:10E59000DFF7FEE79DD7BCC7C448E5588668A77873
:10E5A0004008611802282338CCC9EDD98EE9AFF9AB
:10E5B000488969990AA92BB9F55AD44AB77A966A53
:10E5C000711A500A333A122AFDDBDCCBBFFB9EEBFB
:10E5D000799B588B3BBB1AABA66C877CE44CC55C23
:10E5E000222C033C600C411CAEED8FFDECCDCDDD4B
:10E5F0002AAD0BBD688D499D977EB66ED55EF44EF3
:10E60000133E322E511E700E9FFFBEEFDDDFFCCF9A
:10E610001BBF3AAF599F788F8891A981CAB1EBA1EE
:10E620000CD12DC14EF16FE18010A100C230E3206A
:10E630000450254046706760B9839893FBA3DAB312
:10E640003DC31CD37FE35EF3B1029012F322D232BA
:10E650003542145277625672EAB5CBA5A8958985E2
:10E660006EF54FE52CD50DC5E234C324A01481040A
:10E670006674476424540544DBA7FAB79987B897B2
:10E680005FE77EF71DC73CD7D326F2369106B0165A
:10E6900057667676154634564CD96DC90EF92FE972
:10E6A000C899E9898AB9ABA94458654806782768AA
:10E6B000C018E1088238A3287DCB5CDB3FEB1EFB52
:10E6C000F98BD89BBBAB9ABB754A545A376A167AFA
:10E6D000F10AD01AB32A923A2EFD0FED6CDD4DCD22
:10E6E000AABD8BADE89DC98D267C076C645C454C4A
:10E6F000A23C832CE01CC10C1FEF3EFF5DCF7CDFF2
:10E700009BAFBABFD98FF89F176E367E554E745E99
:10E71000932EB23ED10EF01E002200280ED00168CA
:10E7200000290BD0104A1168002902D1106004E0C2
:10E7300011008A68002AFBD188600122100070470E
:10E740007AB506000024E443002500E06D1CADB25C
:10E75000A8003058002805D0009900F007F80028DC
:10E76000F4D12C00200076BD6838002001E0401C68
:10E77000491C0A780378934203D1002BF7D100207B
:10E78000704702D20020C043704701207047FEE767
:10E7900010B4C20018231340FF249C40E2438907B1
:10E7A000090E994003000FD40E4C83089B00E31818
:10E7B0001C682240114319600121C006C00E81402F
:10E7C00009480160094809E0094B0007000F0838B3
:10E7D00080088000181803681A401143016010BCBB
:10E7E000704700BF00E400E080E200E000E100E0EC
:10E7F0001CED00E0401E00BF00BF00BF00BF00BF17
:10E8000000BF00BF00BF00BF00BF00BF00BFF1D10D
:10E81000704738B580208002A9490860A948802146
:10E82000490201640160A84C012525602F20FFF7F3
:10E83000E1FF6560A54C002525612F20FFF7DAFF79
:10E84000E57031BDF8B5A14EF568002D39D0002432
:10E850009F4800683169401A07023F0A28688742CA
:10E860001CD33F1A24182800ED69017C002913D01D
:10E870000021017442698169F36918000AD010000F
:10E880009847002808D000BF0EA2FF21623100F097
:10E89000DBFA01E008009047002DDFD1B0787178F5
:10E8A000814206D1401CB070C0B2022801D10020C4
:10E8B000B070B078800030184461802040038549F2
:10E8C0000860F1BD433A5C55736572735C7A6C6D98
:10E8D0005C4465736B746F705C41442D313520B9B5
:10E8E000B2CFEDD3EAC9A15C6669726D77617265DA
:10E8F0005C53444B5C6C69627261726965735C74F1
:10E90000696D65725C6170705F74696D65722E63AC
:10E9100000000000F8B46D48C168009101780A0059
:10E9200043D0491E8268C9B2CB00D218137819E0CF
:10E930002C00ED69002D15D0B542F9D1AC4209D1BA
:10E94000FE69C660002E05D10126B24F3E60002749
:10E95000076106712E68ED69E561002D02D02C6813
:10E96000A4192C605578DCB2AC42D8D05468DBB224
:10E970005D00ED18ED0064195B1C9678DDB2B542C0
:10E9800000D100232578022D02D0032D05D0E9E720
:10E990006668C7683C002500CCE7C468002CE1D05D
:10E9A00000252574E469C460F7E7C06800998842CF
:10E9B00001D0012000E00020F2BC7047FCB44349C4
:10E9C000CA6801920A786B461A706A461278002A61
:10E9D0006CD06A461278521E6B461A708A681B7891
:10E9E000DB00D21800E0CB6000282FD113785478D8
:10E9F000A342EAD054685D00ED18ED0064195B1C79
:10EA000013709578DBB2AB4201D1002313706368B9
:10EA10002578012DEAD11D7C002DE7D1A5685D6028
:10EA2000E5689D602569DD6064699C610C79002C56
:10EA300001D000245C605C680D69651B2D022D0A05
:10EA4000BA4EB54205D29C682C190CE00300D86977
:10EA5000F1E70D692C1B2402240A9D68AC4201D207
:10EA60002C1B00E000241C6000245C609C600124DE
:10EA70001C740024DC61CC68002CB4D026681D68AE
:10EA8000AE4203D3751B2560DC61ACE72600376816
:10EA9000AF4205D2ED1B3400F669002E02D0F6E736
:10EAA0007F1B37601D60DE61E3619DE7C8680199E7
:10EAB000884201D0012000E00020F6BC7047000031
:10EAC00080E100E00813014004100140A437002059
:10EAD0000415014000E200E0F0B583B00024944D3D
:10EAE000286901906A781100AB789A420ED0491CCF
:10EAF000C9B2022900D100218A00AA1852690092E5
:10EB000080180002000A2861012701E00094002714
:10EB10006970FFF7FFFE0600E868002F1CD0009A1E
:10EB2000002310E0921B9B1900260E600090C8691C
:10EB3000CE68002E07D0019FFF183F023F0A4F60AA
:10EB40008E60CC61009C002805D001000E68B242A6
:10EB5000E8D2B21A0A600126E8602000FFF72EFF13
:10EB6000002801D1002E44D0E86800283FD000687A
:10EB70000090A84C206801902869029001980299A1
:10EB8000401A07023F0AFF1CE878002810D1A2486B
:10EB900080214902016401604800A0490860A04941
:10EBA000086001269F4806602F20FFF723FEEE70C5
:10EBB0000098874200D207000298C0190002000A9C
:10EBC000E0630199401A0002000A2168019A891A3B
:10EBD0000902090AC91C88420BD22068E0632F2071
:10EBE000FFF708FE802080028F49086001E0FFF7F0
:10EBF00010FE0020287103B0F0BD80B58B480021C5
:10EC0000016441648164C16401604160FFF71AFEE0
:10EC100001BD00000810014080B5FFF75DFF01BD98
:10EC2000FBB5140003273C4204D10025404E002CC4
:10EC300002D1B56007203DE0FFF7EBFD0298F061DF
:10EC40003770B46020001830694609794A005118BD
:10EC5000C9002246157055706B461B799370506041
:10EC6000441815725572684600799072D460157414
:10EC7000557468460079907460185061F56075703D
:10EC8000B570802149036548016069484268FF23E7
:10EC90009A43C02313434360614A11605D49009A5F
:10ECA0004A600268634B1340BA031A430260086863
:10ECB0003061002003B0F0BD5F4B9B68002B09D092
:10ECC000130001D0002801D1072070470068037CA1
:10ECD000002B01D00820704703744174426100206A
:10ECE000704756480068C205D20D1CD0103AD100BA
:10ECF0001820084052B20321002A01D4504B03E0EF
:10ED0000504B1207120F083A920892009A58C240CC
:10ED100090090140012902D0032902D003E000201C
:10ED2000704701207047022070470000FFFF7F00FE
:10ED3000A4370020F7B504003F488568002D08D0AF
:10ED4000002C06D0052901D2072032E06069002896
:10ED500001D108202DE0607C012801D10E4600E0A1
:10ED60000026FFF7BEFFC00028184378591C87789B
:10ED7000CDB2BD4200D100210778CDB2BD4205D051
:10ED800042685D00EB18DB00D21801D1042010E0CE
:10ED90000123137054601F4B1B689360019BD36069
:10EDA0001661029B53614170802040031E49086038
:10EDB000002003B0F0BDF8B504001F488568002DA1
:10EDC00004D0002C02D06069002801D10820F2BDD7
:10EDD00000262674FFF785FFC00028184378591CC9
:10EDE0008778CDB2BD4200D100210778CDB2BD42B7
:10EDF00005D042685D00EB18DB00D21801D1042079
:10EE0000F2BD0223137054604170D80406490860B3
:10EE10000020F2BD041501400413014080E200E02F
:10EE200000E100E00010014000E200E000110140BC
:10EE300010E400E0FF00FFFFA437002004ED00E035
:10EE400000E400E01CED00E000B583B06B461980E3
:10EE5000019202906A460021024800F046F803B091
:10EE600000BD00000140000010B584B0684600BF3E
:10EE70003FA11CC91CC0284801902849684600F0E1
:10EE80008BF8274C200000F0C1F800F0A4F800F047
:10EE9000ABF80023221D11210020FFF7C1FE00283E
:10EEA00004D000BF23A25D21FFF7CEFF00F04EF992
:10EEB00000F0A8F900F0F6F900F034FB00F0B2FB26
:10EEC000002000F007FC00F01DFCFEF75EFD00F0E6
:10EED0009FFD00F097FD00F051FE00F085F800F076
:10EEE0005BFF00F019FC48DFF7E780B50D4891683B
:10EEF00001601188416051688160642000F0A5FFC5
:10EF0000642000F0A2FFBFF34F8F07480749086055
:10EF1000BFF34F8F00BFFDE78813000031EF010002
:10EF2000482600202C3800200400FA050CED00E0F3
:10EF300070470000433A5C55736572735C7A6C6D80
:10EF40005C4465736B746F705C41442D313520B93E
:10EF5000B2CFEDD3EAC9A15C6669726D7761726563
:10EF60005C4150505C7372635C6D61696E2E63002E
:10EF700001000000581B0000010000004B48006821
:10EF8000C00700D4704780B500204949086049484F
:10EF90004068804701BD000038B504004548416025
:10EFA0000178002915D101210170002C01D100BF89
:10EFB0005EA4414D2078A8606068C003FA218900F2
:10EFC000FDF717FA2860217A1020FFF7E1FB0020F7
:10EFD00032BD082032BD012034490860374908603D
:10EFE000022034490870704700203549096800291B
:10EFF00000D1704710B4334A334B0406A40D1351AB
:10F00000401C8842F9D310BC7047000070B582B034
:10F010000500002469460C702C480068C205D20D1A
:10F0200014D0103AD1001820084052B20326002A0A
:10F0300001D4274903E027491207120F083A920822
:10F0400092008958C1408809064000E00426012E3C
:10F050000CD0684636DF022801D172B606E00028DF
:10F0600004D000BF1DA26221FFF7EEFE1448016824
:10F0700008290AD22970491C016017480168012239
:10F080002B789A400A43026000E00424012E0BD042
:10F0900062B66846007837DF022805D0002803D022
:10F0A0000EA26E21FFF7D0FE200076BD04030140C2
:10F0B00000010140543800200405014000000140D7
:10F0C00064380020000601403546526E04ED00E031
:10F0D00000E400E01CED00E008050140433A5C5507
:10F0E000736572735C7A6C6D5C4465736B746F707E
:10F0F0005C41442D313520B9B2CFEDD3EAC9A15CD2
:10F100006669726D776172655C53444B5C647269C9
:10F11000766572735F6E72665C7764745C6E72663D
:10F120005F6472765F7764742E63000001000000F4
:10F13000581B0000010000000321224A80001150EA
:10F14000704789001F4A80001150704738B504206D
:10F150001C4C20600121221D03E01A2902D01B292A
:10F1600000D01060491C1A2902D01B2900D0506021
:10F17000491C1A2902D01B2900D09060491C0C326E
:10F180001F29EADB1E20FFF7D7FF0120FFF7D4FF7E
:10F190000D4D8020C00528601620FFF7CDFF1720F9
:10F1A000FFF7CAFF03206063A063A06460640321CB
:10F1B0001520FFF7C6FF8020C0036860400068602C
:10F1C00031BD00000007005008050050704780B5B1
:10F1D0001C4918228A6019220A6000F0DFFE02BD75
:10F1E00038B505000C00174818218160192101600D
:10F1F000200005D0287800F0E8FE6D1C641EF9D1CF
:10F2000031BD000010B588B004A800BF22A11CC900
:10F210001CC00E4800908021890001914018029086
:10F2200003910323084A694604A800F06FFE0C21ED
:10F23000074A1160002803D006A29B21FFF704FEB5
:10F2400008B010BD0C250040CDF10100742B00204A
:10F2500060070050433A5C55736572735C7A6C6D5D
:10F260005C4465736B746F705C41442D313520B91B
:10F27000B2CFEDD3EAC9A15C6669726D7761726540
:10F280005C4150505C7372635C757365725F75614D
:10F2900072742E63000000001819000000000000C6
:10F2A00000A04E001CB54B4A012100BF50A0FFF743
:10F2B00003FD494C002280210902201DFFF73AFD81
:10F2C0006846464901800421C17014210171112151
:10F2D0004171252181710021C17100F009F8206080
:10F2E00013BD3D48006870473B4908607047000007
:10F2F000FCB5040020886946088068460088394DBE
:10F30000A84201DA0020F6BD37494718374847437D
:10F3100068460688681C864216D328006421FDF7DB
:10F3200068F8A80702D1002909D101E0002908D115
:10F330002800C8214900FDF75CF8002901D12848C0
:10F340003F186D1CB542E8D30025E078401E0190BF
:10F3500028D000BF27A668460088C8214900FDF7CD
:10F3600048F86846418000886421FDF742F8032090
:10F370006A46128810401A4B32785A43BF18012D42
:10F380000BD1020002D10A0406D101E00A0404D123
:10F390006A465288002A00D1FF186D1C761C019A1B
:10F3A0009542E9D32079401E0D49484338186179C8
:10F3B000E122120151434018A1790A01511A890032
:10F3C0004018E1794018F6BD03480168491C016006
:10F3D00070470000C9F3010080370020E2070000F9
:10F3E00080510100B20700004EF8FFFF8033E101B9
:10F3F000843700201F1C1F1E1F1E1F1F1E1F1E1FC5
:10F4000010B586B0112069460871944C94A001682B
:10F41000216004A871DF002804D000BF99A2312127
:10F42000FFF712FD200000E0401C01780029FBD10D
:10F4300004A98A7900924B790A7900BFA1A100F052
:10F44000E9FD2000FCF7B7FD82B2210001A87CDFB6
:10F45000002803D08BA23B21FFF7F6FC02A8002175
:10F46000002206C002A818210180502141800121FC
:10F470008180C8214900C1807ADF002804D000BF04
:10F4800080A24521FFF7E0FC06B010BD38B50500AD
:10F49000744C290020001C3000F021FE2888102820
:10F4A0002AD0112821D0132813D019281DD01A28AA
:10F4B00002D0522803D031BDA879607631BD002337
:10F4C00000220021608BA9DF002820D06DA2D4216A
:10F4D00008E0002300228521608B7FDF002816D002
:10F4E00068A2CF21FFF7B0FC31BD002020765E4836
:10F4F0006083200073DF31BD01202076FFF7F1FE2D
:10F500005A490860A88860830322042184DF31BD42
:10F5100080B5FEF701F901BD80B50800D1B200F059
:10F5200037F901BD70B5A2B04E4C0023482221002E
:10F530003C31082000F0D7FE52A6002803D032004C
:10F540005E21FFF781FC01AA0121002000F001FFEC
:10F55000002803D032006421FFF776FC444800F015
:10F560000FFF002803D032006721FFF76DFC01A8D0
:10F5700000F00DFF002803D032006B21FFF764FC80
:10F580003C4800F0C4FE002803D032006F21FFF792
:10F590005BFC394800F0C3FE002803D03200732121
:10F5A000FFF752FCFFF72CFF34480090694620001B
:10F5B0001C3000F0C3FD002803D032005321FFF7B8
:10F5C00043FC382114A800F051FF14A80221017057
:10F5D000002585700521C170382106A800F046FF7E
:10F5E000012006A90882200038300B9014A801F0F1
:10F5F00029FA002803D032008921FFF725FC1821C1
:10F60000200000F033FF257065602572FA20C000ED
:10F610002082B420608222B070BD13211148408B3B
:10F6200076DF70470F4873DF704770B506000D0036
:10F63000152D12DA0B4C2A00310020001C3000F08E
:10F64000DFFD0F49884208D1C82000F0FEFB2A00E8
:10F65000310020001C3000F0D3FD70BD3838002090
:10F6600041465500F4200020FFFF0000741F0020D9
:10F67000001E00208DF4010011F5010019F50100B4
:10F6800004300000433A5C55736572735C7A6C6DAC
:10F690005C4465736B746F705C41442D313520B9E7
:10F6A000B2CFEDD3EAC9A15C6669726D776172650C
:10F6B0005C4150505C7372635C757365725F626C21
:10F6C000652E6300253032582530325825303258A7
:10F6D0000000000080B50849087800280AD1684673
:10F6E00012DF6A461278002A02D001220A7002BD97
:10F6F000022002BD082002BD6038002039DF7047BB
:10F700003ADF70472E480F2181800021C18001819E
:10F7100001002C310160704770B584B0284CE0883E
:10F7200001002289521A22D02268A38819408B0036
:10F730005918890051180A784D1C401CE08028781F
:10F74000002810D1561E681C09D06A4621001C31C1
:10F75000FDF71CFC10226946681CFCF775FCF1B231
:10F76000681C00F0BBF8FFF7BCFD20610EE01548F7
:10F77000007800280AD0FFF7B4FD2169401AB528A7
:10F7800004D3FFF7AEFD2061FFF747FF04B070BD63
:10F7900070B50B4C2589A388E688AE1BB3420EDBFF
:10F7A00026682B409A00D2189200B2181170531C90
:10F7B0000A0001001800FCF747FC6D1C258170BD94
:10F7C000641F00200C210020F4B590B005000F004C
:10F7D0001E0001A80C2100F049FE00242C70681DB9
:10F7E00000A9491C02780A7042784A70B9000120C9
:10F7F00008437F4F69464978BA89891A491E042906
:10F8000068701BD2684604706846FFF777FF684649
:10F8100000780828F8DB042138001430FFF770FF67
:10F82000042239001431A81CFCF70EFC00A8401C6F
:10F83000A91D02780A7042784A7015E069460C707A
:10F840006846FFF75BFF684600780828F8DB04216C
:10F8500038001430FFF754FF042239001431A81C7B
:10F86000FCF7F2FBAC71EC711098002809D00A2E5D
:10F8700000DB09263200014628000830FCF7E4FBD3
:10F8800005E0092201A928000830FCF7DDFB04ACE3
:10F890002000103000210022002300264EC010223C
:10F8A000691C20001030FCF7CFFB39001C3104A884
:10F8B0004CC94CC00A68026004A84DDF1022210028
:10F8C0002031681CFCF7C0FB11212800FFF7ADFEBA
:10F8D00068464078B88111B0F0BD000070B584B0C2
:10F8E000040001A80C2100F0C1FD207880081A282E
:10F8F0002ED02E2830D0352875D1E0790006217A17
:10F9000009040143607A00020843A57A05430422F2
:10F9100021000B316846FCF797FB0098FFF7E4FCE9
:10F92000344E30002430FEF7ABFD01A901220A71EC
:10F93000854209D13000243001AA036813601B20DE
:10F940004871C020305A8871072301AA192147E065
:10F95000200000F064F946E0E01D694602780A7074
:10F9600068460088042836DB234D2A6004222100E3
:10F9700008316846FCF768FB0098686004222100A3
:10F980000C316846FCF760FB0098A8600C230C2241
:10F9900029001648FDF7A6FF002802D1042001F037
:10F9A00085F8652069460871012301AA2C212000F1
:10F9B000FFF70AFF322000F048FAFFF72EFE0A2078
:10F9C00000F043FABFF34F8F0C480D490860BFF3B6
:10F9D0004F8F00BFFDE764200871012301AA2C218D
:10F9E0002000FFF7F1FE04B070BD00008021002070
:10F9F000641F0020CC310020203400200400FA05D0
:10FA00000CED00E080B54B48FEF786FE01BD00001E
:10FA100070B5494C9525AD002A0021000020FEF765
:10FA20005CF89426B6003200211D0020FEF762FD2E
:10FA30006188814204D1002802D04049884246D1E1
:10FA40002A0021000020FEF748F83200211D002086
:10FA5000FEF750FD6188814204D1002802D0374969
:10FA6000884234D12088354A904201D0002805D1FF
:10FA70002A0021000020FEF730F801E0022824DBF4
:10FA80000020208001202080250084352C482880FB
:10FA9000092200BF2CA120002430FCF7E9FA26003F
:10FAA000BC366420B0800F222AA1201DFCF7E0FAAA
:10FAB000092200BF2BA120005430FCF7D9FA002006
:10FAC000A871A875AA22A054306000F001F870BD9A
:10FAD00070B5194C94229200211D0020FEF70AFDFA
:10FAE00060808026760101213000FEF7CBF8952555
:10FAF000AD002A0021003000FEF72DF80121002082
:10FB0000FEF7C0F82A0021000020FEF724F870BD9F
:10FB100010B50C1D16A12068FEF728FE002807D19D
:10FB20006168002904D0074801F0EEF8FFF7D0FF24
:10FB300010BD0000581F0020CC310020FFFF000046
:10FB40005B070000F0310020383030303030303189
:10FB5000000000003133392E3139392E3137352E3E
:10FB600033390000616675736D61727400000000C6
:10FB7000646576696365696400000000F8B501F0AA
:10FB8000CBF801F0C8F9002801D101F09BF901265A
:10FB9000654806600025654805606548066065485B
:10FBA000056045600427C76063480560634C20001A
:10FBB00001F0BCF8601C01F0B9F8614A6149207895
:10FBC00001F011F95E4A6049607801F00CF9207883
:10FBD00001F026F9607801F023F95C4806605C4882
:10FBE0000560FF20801C5B4908605B48056045603C
:10FBF000C76030045949086001210A20FEF7C8FD9A
:10FC0000574A002162A0FFF757F8564A002100BF6B
:10FC100060A0FFF751F8201DFEF77EFDF1BD38B55D
:10FC20000500524C20000830FFF7C5F8656000253C
:10FC3000657050488021C9030160490041604E4809
:10FC40000188491E018020002830FFF7B4F8257094
:10FC50000022474920002830FFF76CF80022C0211D
:10FC6000490220000830FFF765F831BD38B500249F
:10FC7000424804603C4D2868010001D080472C6058
:10FC800031BD00BF3E488021C903016049000160C9
:10FC9000704710B584B068460C2100F0E7FB334C88
:10FCA0002078010006D10022314920002830FFF7DA
:10FCB00041F81BE0012819D120002830FFF77BF81C
:10FCC0003048694642790A7082794A70C2798A70EE
:10FCD000007AC870552008710020207001206070E3
:10FCE00005236A463B216068FFF76EFD04B010BD36
:10FCF000F8B5080024A14068FEF738FD002812D1AD
:10FD00001C4C8025ED0325606E006660FA27BF005D
:10FD1000380000F09AF8380000F097F8380000F04A
:10FD200094F865606660F1BD049000400C9C004052
:10FD3000009200400495004004930040481F0020BA
:10FD400000600040449100404091004004A0004009
:10FD50000CAC004000A2004004A5004004A30040F9
:10FD600083FC010093FC01005C380020001F002090
:10FD70009A190000080500508C32002040A1004074
:10FD80000C05005078360020626F72726F770000A9
:10FD9000081F0020281F002038B5214C0DE09A18BC
:10FDA000227089B21F2901DB002169801F2801DB35
:10FDB000002028802888401C288025004435288879
:10FDC00020182430FFF703FA002827D128882118AB
:10FDD00024228A5C7E2A09D10121A980114909784F
:10FDE000002906D101210F4B197002E0A9880029D2
:10FDF000DCD0698863181A71491C698023789A429B
:10FE0000CDD189B2201DFFF7EBF90120064908701A
:10FE10000020A880688028802070CBE731BD0000DA
:10FE200074360020011F0020001F0020401E00BF6C
:10FE300000BF00BF00BF00BF00BF00BF00BF00BFCA
:10FE400000BF00BF00BFF1D1704711B581B0064CB3
:10FE500005E00198401E01902000FFF7E7FF0198A0
:10FE60000028F6D113BD0000E70300001CB501789F
:10FE7000012923D15D4C40680178201D01F006F96D
:10FE8000002804D001216A461170019007E0E06863
:10FE90002169081A012805D10020694608706846C2
:10FEA000616A8847E06821892269101A81422CD34F
:10FEB00001212000293001F0DDF913BD02290AD10A
:10FEC0006A461170C0680190484C01212000293019
:10FED00001F0D0F916E0002917D1444C2100283157
:10FEE0002000143001F0E5F8002804D101212000A1
:10FEF000283001F060F9E069216A081A05D1032071
:10FF0000694608706846616A884713BDF0B589B0D4
:10FF100004000D001F00354E7262002D01D1072034
:10FF20003AE06A6892B22968301D01F099F8002819
:10FF300032D1EA6892B2A9683000143001F090F82A
:10FF4000002829D1684600BF2AA12022FCF790F89A
:10FF5000A06806902179481E8041C043C00F6946C1
:10FF600008750F776079002800D00E204875E0787A
:10FF70000290A078039020780190607800901C494E
:10FF8000684601F0A9F8002806D101F0E5F9012141
:10FF90003000293001F06EF909B0F0BD38B5040029
:10FFA000124DE8682969081A2989884208D1012177
:10FFB0002800293001F05EF9002801D0052032BD6B
:10FFC0002100281D01F075F832BD38B50400074D39
:10FFD0002C700121280001F0EEF8112804D1210035
:10FFE0002800143001F052F832BD0000083700201C
:10FFF0006DFE0100090000000B0000000A00000077
:020000040002F8
:1000000008000000000000000000000000509D00FB
:10001000030000000CB41CB5040004A80190009477
:1000200001AB0A006946084878441C30FBF748F8E1
:100030000021009A1170002801D40098001B02B022
:10004000019910BC03B0084793C1FFFFF0B58FB012
:100050000400032101A800F009FA112501A8057088
:1000600045708178F9220A400221114381701C21D8
:1000700008A800F0FBF908A800781021014308A89F
:100080000170002609960B960C9601A80D900E960D
:1000900002A821788170032703210180684600F0BF
:1000A000E5F96846057045708178E3220A401743F8
:1000B0008770142103A800F0D9F902A803906846BC
:1000C000049003A80121018146811421818123002C
:1000D0000C3303AA08A96088A2DF0FB0F0BD002886
:1000E00000D1704710B5002926D00A88102A04D004
:1000F000112A04D0502A05D010BD898800E0544947
:10010000818210BDCA88048AA2420CD1CB8B022BFB
:1001100009D12022895CCA07D20F511E8941C943E7
:10012000C90F817510BD83889A4205D183691A0071
:1001300002D0CA8B2031984710BD0000F0B593B0B3
:1001400004000F000FA800BF42A11022FBF790FF90
:10015000002C01D0002F01D10E204FE03C48A0829E
:100160003868A0610025A57521000FA863DF00286D
:1001700044D102A82178817001260680A21C02A920
:100180000120A0DF002839D139002000FFF75EFFF1
:10019000002833D11C2108A800F068F908A80078CD
:1001A0000C21014308A8017009950B950C950D953C
:1001B0000E9501A8217881700221018003216846F3
:1001C00000F054F911206946087048708878E322DD
:1001D0000240032010438870142103A800F046F960
:1001E00001A803906846049003A806814581142164
:1001F0008181231D03AA08A96088A2DF13B0F0BD86
:1002000074B585B0002801D10E201FE0828A104B02
:100210009A4202D0827D002A01D1082016E06A4667
:10022000928A152A01DB072010E06A460023002489
:100230000025002678C26A4683891380039105A9A8
:100240000291012191706946808AA6DF06B070BDD7
:10025000FFFF00009AC22CA4AFA5A9E093F3A3B5B9
:100260000000406E80B5FEF740FE01BD7CB54C4EEF
:100270003078002836D03069002801D1012500E00F
:100280000025F068002801D1012400E00024002DA1
:1002900010D1684652DF052801D101250AE0002867
:1002A00005D000BF41A2A921FEF7CEFD02E00098D3
:1002B00031698847002C13D170886946888001A96C
:1002C000B06861DF052801D1012409E0002804D0CD
:1002D00036A2C821FEF7B8FD02E0B068F168884791
:1002E0002542D4D073BD10B500290ED08C070CD197
:1002F0002B4CA160628063602A4910DF002803D183
:100300000120207016202EDF10BD072010BD010037
:1003100001D10E2070472249C860002070470100BB
:1003200001D10E2070471E4908610020704700006F
:1003300080B51B484068010008D08047002807D0DE
:100340001AA2BB214900FEF77FFD01BDFFF78EFF1A
:1003500001BD70B504000D0016001421300000F03E
:1003600085F80120308000213161317BFE220A4076
:10037000327335727472002C00D0B072002070BDE0
:1003800081B0094900910099002001B0704782B006
:100390000549019101990091694660DF02B07047FB
:1003A0001838002065020200001F0020433A5C5507
:1003B000736572735C7A6C6D5C4465736B746F709B
:1003C0005C41442D313520B9B2CFEDD3EAC9A15CEF
:1003D0006669726D776172655C53444B5C736F66DE
:1003E000746465766963655C636F6D6D6F6E5C7375
:1003F0006F66746465766963655F68616E646C6579
:10040000725C736F66746465766963655F68616E5C
:10041000646C65722E630000094205D083070BD01F
:100420000270401C491EF9D1704700001206130AE1
:100430001A43130C1A4300BF130030B41400150004
:10044000103902D310393CC0FCD2490700D30CC08C
:1004500000D504C0890002D30280801C002900D589
:10046000027030BC704700000022D5E70022E3E7AD
:1004700039B581B00C000178012904D140780028F9
:1004800001D1072048E01588A81C834222D3012906
:1004900005D1019840782818801C83421AD3581B34
:1004A000831E68460380694610882018801C7DDF03
:1004B000002831D10198017802290FD169460988B5
:1004C00098B2884208D2082069460B80694609889C
:1004D000FF290FD30C201FE00920F7E7082001298E
:1004E000F2D1019D6D7899B2A94200D929006B46DD
:1004F0001980EBE769460988491C1388E154118883
:10050000491C118089B260541088401C10806946D3
:10051000098840181080002003B030BDF7B584B0C2
:1005200000240C9D28880290002604E02888097881
:1005300040182880761C04980088864234DA01A886
:1005400004994968B20089180A8802804A88428062
:100550000022694665DF002833D168460078097EAD
:100560008842E7D1002C01D0002000E00220298839
:100570006A46928E6F463F78CF19381882421CDB4C
:10058000002C09D1491C29806846007D89B2585445
:100590002888401C2880012428881A18694601A848
:1005A00065DF0028C2D00CE0002C09D02888029911
:1005B000401A401E80B2FF2801DD0C2001E0585493
:1005C000002007B0F0BDFEB506001700089D099C8D
:1005D000019400950222FFF7A1FF002807D10194A2
:1005E0000095029B102239003000FFF797FF03B0FF
:1005F000F0BDB3B41188881D834201D20C2013E0F2
:100600000098008806280EDB1D4CA04202DB1D4D21
:10061000A84208D1009D6D88062D04DB194FA54224
:1006200004DBBD4206D00720B6BC7047B84201D0FB
:100630008542F8D30520019B58541088401C108037
:100640001221019B80B219541088401C108001991E
:1006500080B20818009909880170090A4170108851
:10066000801C1080019980B2081800994988017097
:10067000090A41701088801C10800020D4E7000017
:10068000810C0000FFFF0000F1B50C001500806A2E
:10069000002838D0002608E080B22018FBF7D4FCF0
:1006A0002888B98840182880761C00992831097953
:1006B000F0B2884229D20098806AF6B27100891996
:1006C00089004718B888801CFF2801D30C20F2BD90
:1006D000401C298860542888401C2880162180B23C
:1006E00021542888401C288080B220183988017045
:1006F000090A41702888801C2880BA881100D3D04C
:10070000B9680029C8D10720F2BD0020F2BDF0B5BC
:1007100083B006000D001400002021880291208083
:1007200031002C318968002914D00978029A032AF3
:1007300000D285E102222A702288521C22801123D5
:1007400092B2AB542288521C228092B2A9542188C2
:10075000491C218031002C314A68002A32D023887C
:10076000029F190012318F4200D269E11121E95430
:100770002188491C2180102389B26B542188491C8F
:10078000218011000F3104220B782788EB55238834
:100790005B1C23804F1E3F789BB2EF5423885B1C69
:1007A00023808F1E3F789BB2EF5423885B1C2380ED
:1007B000CF1E3F789BB2EF5423885B1C2380091F18
:1007C000521EE1D131002C3189780A0025D02288CF
:1007D000029BD01C834200D232E10220A85422881E
:1007E000521C22801C2392B2AB542288521C2280BD
:1007F00001290BD000D2FFE0032908D004D304293B
:1008000000D0F9E0032002E0012000E0002092B2D5
:10081000A8542088401C2080002031002C314978C9
:1008200000292BD0029821880931884200D207E1A3
:10083000684671DF002800D000E108202188685454
:100840002088401C20801B2180B229542088401C15
:1008500020806F460622791C80B22818FBF7F4FB33
:100860002088801D208039784A1E9241D243D20FC1
:1008700080B22A542088401C20800020B1780029B2
:1008800021D002982188091D884200D2D8E068460C
:1008900079DF002800D0D1E0032021886854208827
:1008A000401C2080192180B229542088401C2080BF
:1008B00080B22818694609880170090A41702088A9
:1008C000801C20800020F1780A0017D049B22288CD
:1008D000029BD01C834200D2B2E00220A8542088A0
:1008E000401C2080012280B22A542088401C208095
:1008F00080B229542088401C208000207168002983
:1009000017D009562288029BD01C834200D297E060
:100910000220A8542088401C20800A2280B22A5439
:100920002088401C208080B229542088401C2080D0
:100930000020318900290CD0029880B201900094E7
:100940002B000622022130000830FFF73CFE002871
:1009500074D1318A00290CD0029880B201900094A1
:100960002B000722032130001030FFF72CFE002857
:1009700064D1318B00290CD0029880B20190009490
:100980002B001522142130001830FFF71CFE002820
:1009900054D1376A002F08D0029B9BB22200290055
:1009A0003800FFF726FE002848D1776A002F2ED0A6
:1009B000B888801C2188029A0B189B1C9A423FD34E
:1009C000FF283DD2401C68542088401C2080FF2115
:1009D00080B229542088401C208080B22818398891
:1009E0000170090A41702088801C2080BA8811009B
:1009F0000CD0B968002901D107201FE080B2281867
:100A0000FBF722FB2088B9884018208000202C2189
:100A1000715C002908D0029B9BB2220029003000A3
:100A2000FFF732FE002809D13178002906D0029B59
:100A30009BB2220029003000FFF71AFD03B0F0BD81
:100A40000C20FBE730B591B00C001F216A465180A5
:100A5000118000280AD0C17849070FD5921C09A936
:100A6000FFF755FE00281ED109AD02E000256946BA
:100A70004880002C0DD0E078002801D0072012E03B
:100A80006A4601A92000FFF742FE00280BD101AA07
:100A900002E000226946088068460388DBB241888C
:100AA000C9B2280072DF11B030BDFEE713490861FA
:100AB000134848614A698242FCD04869704770B562
:100AC0000D0041000E18B6000C4C60688119488971
