:020000040001F9
:10B0000088290020699E020027F90100FB1F020029
:10B010000000000000000000000000000000000030
:10B020000000000000000000000000001F260200D9
:10B0300000000000000000007F3902008339020098
:10B040006F6B0200A76B0200DBE80100639D02004A
:10B05000A379020000000000252902005F8A020097
:10B060003B9E0200499E0200BB930200239F020008
:10B070002F9F02005F9F02007F9F0200A99F020096
:10B08000191E02003FE10100AB9F0200AD9F0200CC
:10B0900057E10100AF9F020025890200B19F020025
:10B0A000B39F0200B59F02000000000000000000F6
:10B0B0000000000000000000000000000000000090
:10B0C000E022520080180268914203D34368D218EC
:10B0D000914202D380680028F5D170471848016872
:10B0E00000290ED1802149028160090941600021B7
:10B0F000C943C160016104214161124A11601249D2
:10B1000001600120704730B407230C0008341C4252
:10B1100001D1002304E008240D000835641B2340FE
:10B12000C918D21A8161C260012313434B602823DE
:10B1300089184B6002490969C16130BC7047000041
:10B14000343F0020A83800206859883CF0B587B00B
:10B15000040007200D000835054205D008250E0023
:10B160000836AD1B05404919029111000831014212
:10B1700005D0082115000835491B08401218170092
:10B180000298C018039005460298381AC01A019018
:10B190000326334302984360BD4201D301F0ECFA29
:10B1A0003879C00701D401F0E7FA0198102801D2DC
:10B1B00001F0E2FAA069874208D1E06801994018DD
:10B1C000E060A5610121014369606AE1606987422D
:10B1D00009D1A06801994018A0606561012101436F
:10B1E000696028505DE178680640012E00D0B9E022
:10B1F000072188430590C00820283CD2B9680091F7
:10B20000FE680490B74201D101F0B6FA0098874277
:10B2100001D101F0B1FA7868072188430499C90087
:10B22000884201D001F0A8FA0498C00020180099C3
:10B2300002002832914207D02269914200D289E06F
:10B24000C968B94200D085E000998E4206D12068D5
:10B250000121049A9140884320607DE02830864295
:10B2600005D02069864275D3B068B84272D1CE60ED
:10B270000098B06070E0B8690090FE68BE420CD0E3
:10B28000B8682169884225D3C168B94222D1B16822
:10B29000B9421FD1C660B0601EE0380014300668A5
:10B2A000002E07D1380010300668002E14D001E0BF
:10B2B00008000668310014310A68002AF8D131000C
:10B2C00010310A68002AF3D12169884202D3002193
:10B2D000016001E001F050FA009800283CD0F869C4
:10B2E0008000201898214900401801688F4209D138
:10B2F0000660002E14D160680121FA6991408843EC
:10B30000606029E000982169884207D30069B8424B
:10B31000009801D1066103E0466101E001F02CFADA
:10B32000002E19D02069864214D30099B161396981
:10B33000002906D0814202D331618E6101E001F023
:10B340001BFA7869002807D02169884202D370610E
:10B35000866101E001F010FA05983F1801980599FF
:10B360004018019078680121884378600198014372
:10B370006960019828500198C008202822D20090C6
:10B38000C000271828373E000198102801D201F08C
:10B39000F3F9206800990200CA40D10705D40121C1
:10B3A000009A91400143216007E0B8682169884212
:10B3B00001D3060001E001F0DFF9BD60F560AE6089
:10B3C000EF606EE00198000A01D1002225E08021A3
:10B3D0004902884201D31F221FE0FF21C9434118BF
:10B3E000090C082211408840304A8218120C0423AC
:10B3F0001A4090402E4BC3181B0C022633400E26D9
:10B40000711A891AC91A9840C00B08184100019A8C
:10B41000C01DC240D007C00F0A1890002018982104
:10B4200049004118EA6100206861286163681E00D4
:10B43000D640F60705D401209040184360600D60A7
:10B440001BE009681F2A019B05D019265208B21A71
:10B45000934000E011004A680726B243019EB242C1
:10B4600010D0DA0F92008E1810365B003268002A76
:10B47000F0D12069864212D33560A961ED6003984E
:10B48000A8600EE08A682369994208D39A4206D3DD
:10B49000D560039B8B60AA60E960A86101E001F0C0
:10B4A0006BF90298083007B0F0BD000000F0FFFF14
:10B4B00000C0FFFFF2B586B004008F480068002886
:10B4C00001D1FFF70BFE8C488168069840182F3099
:10B4D000491E88430699814200D3DCE1D821490006
:10B4E00061188968002909D0D8225200A258101882
:10B4F000824200D3CFE1814200D2CCE101F080F959
:10B50000002800D1C7E1009007680021C9438842A4
:10B5100000D1C0E1D82040002058C019D8214900EE
:10B52000605061184968814200D20100D820400073
:10B5300020184160A069002839D12069002802D074
:10B540000099814201D2009820610098D8214900D9
:10B5500061180861D8204000201847610026D820D3
:10B5600040002018C6616448006860620020C04343
:10B57000206220002830C0600146816008314161AE
:10B580000161B61C1030202EF5D3C448844203D18B
:10B59000283F3A00009926E0201F006807218843D1
:10B5A000211808390098C019421A283A1BE0E020F7
:10B5B0004000201800E08068002818D00099026838
:10B5C0004368D2189142F6D1017B09070FD4A169D3
:10B5D000026891420BD3D218914208D2D919416026
:10B5E000E068C219A1692000FFF78DFD3FE10098D6
:10B5F0002169884200D22061E02040002018009993
:10B60000C91900E08068002810D002688A42F9D188
:10B61000017B09070AD4009901604168C91941609A
:10B62000069B00992000FFF791FD35E1A06903908A
:10B63000054629002000FFF743FD0168406808180F
:10B64000059027380026410701D1002003E008219A
:10B65000081A4007400F059908182F3829001031A3
:10B66000884201D2019500E00190019818300290C3
:10B6700004963800283800990831490701D1002183
:10B6800005E00821009A0832891A4907490F401A33
:10B69000009A5118A161E060012202434A60282209
:10B6A0000818426014480069E061019808304007BA
:10B6B00001D001F061F81B20019948600198083021
:10B6C000E02149006118102201F0C4F80098D82147
:10B6D000490061180861D820400020184761D8202F
:10B6E00040002018C66101980830D821490061182F
:10B6F0008861059805E000BF343F00200299091DCC
:10B7000002910721029A51600499491C04910299FF
:10B7100008318142F2D30498022801DA01F02CF8B2
:10B720000198A84200D1A2E0411B426801239A433C
:10B73000426001220A436A600160C808202821D2C1
:10B740000090C000271828373E00102901D201F0D0
:10B7500013F8206800990200CA40D10705D40121DE
:10B76000009A91400143216007E0B868216988424E
:10B7700001D3060001E000F0FFFFBD60F560AE60A0
:10B78000EF6074E0080A01D1002228E01A04904218
:10B7900001D31F2223E0FF22D2438218120C082378
:10B7A0001A40009290403E4A8218120C04231A401C
:10B7B00090403C4BC3181B0C02273B4001930E23C7
:10B7C000009FDB1B9A1A019BD21A9840C00B1018DD
:10B7D0004200C01D0B00C340D807C00F12189000D4
:10B7E000201898235B00C0180090EA616E612E61FA
:10B7F00060680300D340DB0707D401219140014377
:10B8000061600098056000981DE0009800681F2A9C
:10B8100001D10A0006E0192352089B1A0A009A4037
:10B8200000E0380043680727BB438B4210D0D30F9A
:10B830009B00C318103352001F68002FF1D12169FB
:10B840008B4212D31D60A861ED600398A8600EE0E2
:10B8500081682269904208D3914206D3CD60039A51
:10B860008260A960E860AE6101E000F085FFE068F9
:10B87000069981420FD2401AE060A169069A8A189F
:10B88000A2610123034353600698032202434A60E6
:10B890000800083000E0002007B0F0BDEC360020C2
:10B8A00000F0FFFF00C0FFFFF2B584B004000020ED
:10B8B000009004984542000A25D080214902884220
:10B8C00001D31F201FE0FF21C9434118090C0822A2
:10B8D00011408840B34A8218120C04231A40904049
:10B8E000114BC3181B0C022633400E26711A891AFD
:10B8F000C91A9840C00B08184100049AC01DC240E4
:10B90000D007C00F081881006118982252008B5888
:10B91000002B28D01F28049A03D019214608891B20
:10B920008A40002103E000BF00C0FFFF52005E68B4
:10B930000727BE43049FF61BAE4202D20093350098
:10B940000CD05E69D70FBF00DB191B69002E02D037
:10B950009E4200D03100002BE8D10B00002B3FD1DC
:10B96000009900293ED1012101228240500043422A
:10B97000034362681A4000D178E150421040401EF3
:10B98000020B10231A40D040430908263340D84008
:10B99000860804273E400296F040460802273E40B3
:10B9A0000196F04046083140D218029BD218019B04
:10B9B000D2185218C8401018800020189821490049
:10B9C00043580DE003005868072188430499401A42
:10B9D000A84201D20500009318690028F2D15B69E2
:10B9E000002BF0D10098002800D13FE1A068049915
:10B9F000401A854200D339E1009E2069864200D278
:10BA000032E1681802900098406807218843029943
:10BA1000884201D000F0B0FE009804994718BE4259
:10BA200000D321E1806901900098C66886420DD05C
:10BA300080682169884225D3C168009A914221D14A
:10BA4000B16891421ED1C660B0601DE01430066836
:10BA5000002E07D1009810300668002E14D001E0A7
:10BA600008000668310014310A68002AF8D1310054
:10BA700010310A68002AF3D12169884202D30021DB
:10BA8000016001E000F078FE0198002843D00098A2
:10BA9000C069800020189821490040180099026868
:10BAA00091420AD10660002E16D160680121009AE9
:10BAB000D2699140884360602DE0019821698842F5
:10BAC00008D3006900998842019801D1066103E01A
:10BAD000466101E000F050FE002E1CD02069864235
:10BAE00017D30198B06100980069002807D0216938
:10BAF000884202D33061866101E000F03DFE00988B
:10BB00004069002807D02169884202D370618661AC
:10BB100001E000F031FE03200121102D0AD2029A2B
:10BB20001043009A50600098029A801842681143AE
:10BB3000416096E0049A1043009A50600120284327
:10BB400078607D51E808202819D2C200A61828364E
:10BB5000350022681300C3400B4003D181401143DC
:10BB6000216007E0B0682169884201D3050001E047
:10BB700000F002FEB760EF60BD60FE6071E0280A71
:10BB800001D100222AE00A04904201D31F2225E0BD
:10BB9000FF22D2438218120C08231A4001929040CF
:10BBA000004A01E000F0FFFF8218120C04231A4043
:10BBB0009040304BC3181B0C0226334002930E23D7
:10BBC000019E9B1B9A1A029BD21A9840C00B101818
:10BBD0004200C01D2B00C3400B40D218900020181B
:10BBE00098235B00C018FA6100237B613B616368A6
:10BBF0001E00D6400E4004D1914019436160076099
:10BC00001CE000681F2A01D1290006E01921520812
:10BC10008A1A2900914000E01000426807239A43E5
:10BC2000AA420FD0CA0F92008318103349001A6835
:10BC3000002AF1D121698B4211D31F60B861FF60E6
:10BC4000BF600EE081682269904208D3914206D31A
:10BC5000CF608760B960F8600020B86101E000F053
:10BC60008BFD0098083002E000F086FD002005B052
:10BC7000F0BD000000C0FFFFF2B586B004006168AF
:10BC800048420840401E010B10221140C8404209A2
:10BC900008231A40D040830804252B40D84045088B
:10BCA00002263540E8408607F60F8918C918491959
:10BCB0008919F04008188000201898214900405840
:10BCC0000700416807229143069A8D1A09E008008F
:10BCD000416807229143069A891AA94201D20D00B0
:10BCE000070001690029F2D140690028F0D12069DC
:10BCF000874200D2D3E0A8180190786807218843D2
:10BD00000199884201D000F037FD06983818049058
:10BD1000874200D3C3E0B8690090FE68BE420CD0F1
:10BD2000B8682169884225D3C168B94222D1B16877
:10BD3000B9421FD1C660B0601EE0380014300668FA
:10BD4000002E07D1380010300668002E14D001E014
:10BD500008000668310014310A68002AF8D1310061
:10BD600010310A68002AF3D12169884202D30021E8
:10BD7000016001E000F000FD009800283DD0F86966
:10BD80008000201898214900401801688F4209D18D
:10BD90000660002E14D160680121FA699140884341
:10BDA00060602AE000982169884207D30069B842A0
:10BDB000009801D1066103E0466101E000F0DCFC7F
:10BDC000002E1AD02069864215D30098B0613869D8
:10BDD000002807D02169884202D33061866101E0E2
:10BDE00000F0CAFC7869002807D02169884202D394
:10BDF0007061866101E000F0BFFC0320102D09D2C4
:10BE000001990843786001983818416801220A4373
:10BE1000426041E006990843786001202843049974
:10BE2000486004984551A0680090C608202E01D3B0
:10BE300000F0A2FC009800282BD0606903900196C6
:10BE4000F00020182830029006460098102801D2F1
:10BE500000F092FC206801990200CA40D10705D485
:10BE60000121019A91400143216008E00298806815
:10BE70002169884201D3060001E000F07DFC0398AF
:10BE8000029988600398F06003988660029803998D
:10BE9000C860A560049860613800083002E000F0D6
:10BEA0006BFC002007B0F0BDF0B587B0040000BF08
:10BEB00000BFBA4DF52C00D325E10B2C01D2102484
:10BEC00002E00B3407208443E008009028680099C2
:10BED000C840032738424DD00126012282438818EA
:10BEE0000090C00028182830029084680098C00094
:10BEF00003906068072188430399884201D000F0CD
:10BF00003BFCA06801900298844201D100F034FC0F
:10BF10000198844201D100F02FFC6068072188431A
:10BF20000399884201D000F027FC029801998842C9
:10BF300006D12968009A01209040814329600FE0D2
:10BF400008462969884209D3C068A04206D10198F1
:10BF50000299886002980199C86001E000F00CFC29
:10BF60000398074367600398201841680E434660B2
:10BF7000260007E1A968A14200D3D7E0002800D13C
:10BF8000B7E00126009901228A405100009A9040B2
:10BF90004A420A43024051421140491E080B1022F6
:10BFA0001040C1404A0908231A400092D1408A0833
:10BFB00004231A400192D1404A0802231A400292F7
:10BFC000D1404A083240009BC018019BC018029B18
:10BFD000C0188018D14040180390C000281828309D
:10BFE0000090806804900398C00002900498406814
:10BFF000072188430299884201D000F0BDFB0498D4
:10C000008068019004980099884201D100F0B4FB47
:10C0100004980199884201D100F0AEFB0498406871
:10C02000072188430299884201D000F0A5FB0098BF
:10C030000199884206D12968039A012090408143E2
:10C04000296010E00846296988420AD3C06804992B
:10C05000884206D101980099886000980199C860CB
:10C0600001E000F089FB0298001B0390274304982D
:10C07000476004980019059003983043059948607B
:10C08000039805990850A8680090C408202C01D393
:10C0900000F072FB0098002825D068690290019496
:10C0A000E0002F1828373C000098102801D200F03B
:10C0B00063FB286801990200CA40324003D18E40D8
:10C0C00006432E6007E0B8682969884201D304005E
:10C0D00001E000F051FB0298B8600298E06002981D
:10C0E00084600298C7600398A86005986861049E00
:10C0F00048E06868002836D021002800FFF7BCFD22
:10C10000060013D045E03F20C043844202D3002400
:10C11000E4430BE00B34072084436868002805D013
:10C1200021002800FFF7C0FB060032D1A968A14218
:10C1300019D30A1B686901260327102A08D301199D
:10C140006961AA6016434E608A502743476008E041
:10C150000022AA606A610F43476041184A6816438B
:10C160004E6006000EE0E86884420DD2001BE860D5
:10C17000A9690A19AA6101230343536003202043DC
:10C1800048600E00083604E021002800FFF792F90D
:10C19000060000BF00BF300007B0F0BDEC36002045
:10C1A000002800D17047F0B585B00838050000BF01
:10C1B00000BF474C2069854200D2D2E26B68032160
:10C1C00003221A40012A00D1CBE2DE08F600AA19A8
:10C1D000029201273B4241D12A680B4000D1C2E2C2
:10C1E000B6185342ED18854200D2BAE263699D4207
:10C1F00000D102E1D108202900D380E0A868019095
:10C20000E868009003910098854201D100F0B4FAEB
:10C210000198854201D100F0AFFA68680721884390
:10C220000399C900884201D000F0A6FA0398C00023
:10C230002018019902002832914205D022699142CA
:10C240005AD3C968A94257D10099019A914243D162
:10C250002168039A01209040814321600298854221
:10C2600000D37EE24068384200D17AE2810700D5EF
:10C27000C5E10299A269914200D0CEE0E06881193F
:10C28000E160A5610F436F606069854202D10020C3
:10C290006061A060E069884200D364E20D480068F4
:10C2A000002801D1FEF71AFFA169002900D15AE246
:10C2B000E068292802D32000FEF702FFE069E16868
:10C2C000884200D34FE20020C043E0614BE200BF50
:10C2D000EC360020343F00202830814206D008464A
:10C2E0002169884208D38068A84205D10098D060AF
:10C2F000019800998860B1E700F03EFAAEE7A969BD
:10C300000091EA68AA420DD0A9680192814228D31F
:10C31000C868A84225D19068A84222D1CA60019875
:10C32000816020E0290014310A680192002A09D1B5
:10C33000290010310A680192002A14D002E011008D
:10C340000A680192019A14321368002BF7D1019AFE
:10C3500010321368002BF2D1814202D30020086012
:10C3600001E000F009FA0098002800D176E7E869BA
:10C370008000201898214900401801688D420AD198
:10C3800001990160002915D16168EA690120904096
:10C390008143616062E700982169884208D300699F
:10C3A000A8420198009901D1086103E0486101E0C9
:10C3B00000F0E2F90198002800D14FE720690199C7
:10C3C000814299D30099019A91612969002908D085
:10C3D000814204D3019801610198886101E000F075
:10C3E000CBF96869002800D138E72169884283D3F6
:10C3F000019948610199816130E7029840680140E4
:10C40000032900D02AE7A66002984068B843029941
:10C41000486037436F60AE51A5E16269914207D130
:10C42000A0688019A060656107436F6028509AE199
:10C43000072188433618C00820284BD20299896802
:10C4400000910299C968039101900298039988426A
:10C4500001D100F091F902980099884201D100F0D1
:10C460008BF902984068072188430199C9008842E6
:10C4700001D000F081F90198C00020180099020055
:10C480002832914208D02269914200D2ACE0C968BA
:10C49000029A914200D0A7E00399009A914206D1F6
:10C4A0002168019A01209040814321609EE028305C
:10C4B000814209D008462169884200D294E0806810
:10C4C0000299884200D08FE00398D06000980399C9
:10C4D00088608BE00298806901900298C068029998
:10C4E000884212D0029989680090206981422CD339
:10C4F000C868029A904228D100988068904224D15E
:10C500000098C8600098816021E0029814300168AA
:10C510000091002909D1029810300168009100298A
:10C5200015D002E0080001680091009914310A68F2
:10C53000002AF7D1009910310A68002AF2D1216946
:10C54000884202D30021016001E000F015F9019852
:10C5500000284BD00298C06980002018982149001B
:10C5600040180299026891420BD10099016000299C
:10C5700017D161680298C2690120904081436160CF
:10C5800034E001982169884209D300690299884200
:10C590000098019901D1086103E0486101E000F0D1
:10C5A000EBF80098002821D02069009981421BD324
:10C5B0000199009A916102990969002908D0814284
:10C5C00004D3009801610098886101E000F0D4F87C
:10C5D00002984069002809D02169884204D3009953
:10C5E00048610099816101E000F0C6F80120304304
:10C5F0006860AE516069854208D1A660B3E0B84377
:10C6000002994860012030436860AE51F00820284C
:10C6100025D20090C0002018283001900290102EE2
:10C6200001D200F0A9F8206800990200CA403A40FF
:10C6300003D18F400743276008E001988068216993
:10C64000884201D3029001E000F096F801988560DD
:10C650000298C5600298A8600198E86083E0300AFB
:10C6600001D1002227E03904884201D31F2222E0B1
:10C67000FF21C9434118090C08221140009188404C
:10C680003B494118090C0422114001918840394965
:10C690004118090C022211400E22009BD21A019B64
:10C6A000D21A521A8840C00B10184100C01D320027
:10C6B000C2403A408A18900020189821490040183A
:10C6C0000090EA6100206861286161680B00D34036
:10C6D0003B4007D197400F43676000980560009882
:10C6E000A8611EE0009909681F2A01D1320006E006
:10C6F000192352089B1A32009A4000E039004B6817
:10C700000727BB43B3420FD0D30F9B00CB18103386
:10C7100052001F68002FF1D12069834210D31D60A1
:10C72000A961ED60AD600DE08A682369994207D385
:10C730009A4205D3D5608D60AA60E960A86101E0E6
:10C7400000F01AF8206A401E20620CD1E42040005C
:10C75000205800E080680028FCD10020C0432062FF
:10C7600001E000F009F800BF00BF05B0F0BD000017
:10C7700000F0FFFF00C0FFFF80B5012000F084F84B
:10C7800001BDF8B401684218436859085118009176
:10C790008168DB0701D54B46C918009B9A4202D13C
:10C7A0000C30F2BC70471378521C032403261E4041
:10C7B00002D11678F61C521C1D090F2D07D11578D1
:10C7C0000F35521C03E01778521C0F70491C761E5F
:10C7D000F9D1002DE1D01678521C9B081C40032C87
:10C7E00001D11478521C2302F3185C420B19AD1CC2
:10C7F000D3D01C785B1C0C70491C6D1ECDD0F8E7A3
:10C8000007490868002801D0002070470548072222
:10C810009043086004499143091A0160704700BFC2
:10C82000C03F00208F290020882D0020124207D011
:10C830008B0706D00B78491C0370401C521EF7D89A
:10C840007047830706D00B78491C0370401C521EAA
:10C85000F9D1704770B4103A03D378C9103A78C050
:10C86000FBD2530701D318C918C001D508C908C0A5
:10C87000D20704D30B880380891C801C002A01D5B1
:10C880000B78037070BC704780B500BF00BF024AD0
:10C8900011001820ABBEFBE72600020080B5224A3B
:10C8A000012100BF29A001F097FC204A012100BF0F
:10C8B00027A001F091FC1E4A012100BF25A001F034
:10C8C0008BFC1C4A012100BF23A001F085FC1A4A01
:10C8D000012100BF21A001F07FFC184A012100BF07
:10C8E0001FA001F079FC164A002100BF1DA001F035
:10C8F00073FC144A002100BF1BA001F06DFC124A1A
:10C90000002100BF19A001F067FCB84801F086FEC5
:10C91000012001F0A0FF00BF15A002F05BF800208D
:10C9200001F099FF01BD00001DD10100F1D8010007
:10C9300005D0010031D301005DD5010081D7010090
:10C9400049D20100A9D2010005D30100F03800202E
:10C95000B0390020103900205039002070390020F3
:10C9600090390020283E0020543E0020303900201D
:10C970003E2044657669636520636F6E74726F6CE8
:10C9800020696E69742E0D0A00000000F8B5984CFD
:10C99000607A984980221203012801D10A6002E0DE
:10C9A000002800D14A60944E207901280DD1022040
:10C9B00002F00AF9A062012001F04DFFA16A3000E7
:10C9C00002F008F8002001F046FF207902280DD17E
:10C9D000012002F0F9F8A062012001F03CFFA16AF9
:10C9E000300001F0F7FF002001F035FF0227A07AA8
:10C9F00001281CD1A772606A02F058FFC821484381
:10CA0000FA2189004218530CD203480800218018EB
:10CA10005941FA229200002302F050FF0100002247
:10CA200020006C3001F014FC606A02F00DF97348CC
:10CA300001680026002903D0491E0160012515E088
:10CA400002F04AF8032801D102250FE002F044F871
:10CA5000042801D1032509E002F0A9FF002801D133
:10CA6000042503E0207B012800D00025644F217BB2
:10CA7000E8B288421BD025736249EDB2012D06D081
:10CA800015D3032D0BD006D3042D0BD00FE00322BA
:10CA90003221322009E03A00FA20C00005E03A00D5
:10CAA000C82002E03A00BA49642000F05CFA20781D
:10CAB000B84D627B904223D06073401E0B280ED885
:10CAC00001A1095C8F4400BF103A400C44489EA469
:10CAD000A8ACB0B84CA050E02670A06A00285BD18A
:10CAE00050A000F071FA2889C019288103F0F0FAEB
:10CAF000617BA06A03F00CFF617BA06A04F038FB45
:10CB00004AE000BF4FA038E0A34836E0A34834E035
:10CB1000A34800F059FA617BA06A03F0F9FE617B3B
:10CB2000A06A04F025FB2670A06A002834D028896A
:10CB3000401C2881012001F08EFE00BF48A001F0BA
:10CB400049FF002001F087FE03F0C2FA04F0ADFEB9
:10CB50000200617BA06A04F053FB00281CD1A06A8C
:10CB600003F09CFB18E000BF45A006E04BA004E0EA
:10CB700051A002E0C34800E055A000F025FA0AE009
:10CB8000C14800F021FA617BA06A03F0C1FE617B1D
:10CB9000A06A04F0EDFA2670688E298E884223D0B0
:10CBA00002F005FF00281FD06C8E641CA4B2A020E8
:10CBB000C000844200DB0024012001F04CFE210073
:10CBC00049A001F007FF002001F045FED948406868
:10CBD000E100401802680621406804F011FB0028BB
:10CBE00002D06C8603F074FAF1BD00003C1F0020F7
:10CBF000C438002008050050F4970200A03F002030
:10CC0000FFFF0000B80B000052414D3A53746172AF
:10CC1000744F7574707574556E6272656C6C612EAC
:10CC20006D70330052414D3A4F7574707574556E86
:10CC30006272656C6C61537563636573732E6D709E
:10CC40003300000052414D3A54616B65546865559C
:10CC50006E6272656C6C61536F6F6E2E6D70330017
:10CC60003E20634A534F4E20726570617920756D86
:10CC70006272656C6C61207374617475730D0A0067
:10CC800052414D3A446F4E6F744F63636C757369D4
:10CC90006F6E446F6F722E6D7033000052414D3ACB
:10CCA000496E707574556E6272656C6C61536F6F0E
:10CCB0006E2E6D703300000052414D3A46756C6C1B
:10CCC000556E6272656C6C612E6D703300000000F1
:10CCD00052414D3A526573746172744F7570757438
:10CCE0002E6D7033000000003E205265706F72742C
:10CCF0002048697374726F793A25752E0D0A000009
:10CD000070B5BC4C20002C3001F0CEFA01256572C4
:10CD10000020E083502004F02CFF25711D4800897D
:10CD200000280DD10522FA218900C82000F028F939
:10CD300003202070012001F08EFD00BF19A010E03B
:10CD4000AD4EB068800C05400CD11E2264216420D9
:10CD500000F016F90E202070012001F07CFD00BFCC
:10CD600016A0B5E0012001F076FD00BF1AA001F089
:10CD700031FE002001F06FFD8020C00130600022F4
:10CD8000A421490020002C3001F062FA70BD00009F
:10CD900088130000082500200C9802002498020047
:10CDA000409802003E20426F72726F77416374694F
:10CDB0006F6E20456D7074792E0D0A003E20426F13
:10CDC00072726F77416374696F6E20495220537499
:10CDD00075636B2E0D0A00003E20426F72726F77F2
:10CDE000416374696F6E204E4F5420737475636B8A
:10CDF000210D0A0070B501267E4C267120002C30D2
:10CE000001F052FA66720020E083502004F0B1FE77
:10CE1000B4480925058140890A280BDA0522FA2140
:10CE20008900C82000F0ACF82570012001F013FD46
:10CE300016A010E070488168890C0E400CD11E22AB
:10CE40006421642000F09CF80E202070012001F085
:10CE500002FD00BF13A03BE0052121708021C90124
:10CE60000160012001F0F7FC15A001F0B3FD0020E6
:10CE700001F0F1FC00229C4920008C3001F0E8F91F
:10CE800070BD000060980200809802003E2052654C
:10CE9000706179416374696F6E2046756C6C2E0DFC
:10CEA0000A0000003E205265706179416374696F29
:10CEB0006E20495220537475636B2E0D0A000000DA
:10CEC0003E205265706179416374696F6E0D0A008E
:10CED00001F080FD002001F0BEFC70BD80B5012096
:10CEE00001F0B9FC05A001F075FD002001F0B3FCD4
:10CEF00000227D49C74801F0ABF901BD3E204D6FCE
:10CF0000766520666F727761726420616374696F01
:10CF10006E0D0A0080B5012001F09DFC06A001F015
:10CF200059FD002001F097FC00226F49BA4801F03A
:10CF30008FF901BD3C2500203E204D6F76652062B3
:10CF400061636B20616374696F6E0D0A00000000FD
:10CF500080B58021C901B14A11600021254AD183E1
:10CF600004F0C7FE01BDF8B505000F001600AC4C7B
:10CF700020000C3001F098F95C48802189010BE019
:10CF8000F8B505000F001600A64C20000C3001F08B
:10CF90008BF919488021C90141600022E280227288
:10CFA00025806780A680016001202072E803FA21B5
:10CFB00049004018490004F0D8FE0100002220007A
:10CFC0000C3001F045F9F1BD38B50500094C2000E1
:10CFD0006C3001F069F98020800207490860002068
:10CFE000A07265620022404920006C3001F030F9E7
:10CFF00031BD0000C43800200805005080B504F0A1
:10D0000041FF01BDF8B50127384DA64CE079002855
:10D0100005D138072860C0086860E7712772A868E2
:10D020002100EC310091800938400BD1207A012891
:10D0300008D1022004F05DFE677100222A490098A1
:10D0400001F006F9207C401C0026C0B2642803DBF6
:10D05000A07B401CA07300202074A07B002810D06F
:10D06000A67304F00FFF012001F0F5FB20A001F0F2
:10D07000B1FC002001F0EFFBE07B401CE0730220DC
:10D080002070E07B03282BDB012001F0E4FB00BFD4
:10D090001BA001F09FFC002001F0DDFB780628605A
:10D0A000C0006860267226718000286040086860B1
:10D0B000A868800A384002D1042004F01AFEA8684B
:10D0C000C00907400CD1207A002809D1022004F0C1
:10D0D00010FE20004C3001F0E7F8009801F0E4F871
:10D0E000F1BD000008250020CD0C0000080500500F
:10D0F0003E20C7EBBEA1BFECC8A1C9A10D0A00002C
:10D100003E20B3F6C9A1CAA7B0DCA3ACC3BBD3D041
:10D11000BCB0CAB1C8A1C9A10D0A0000F8B5814DC3
:10D120000127604C6078002804D17807286040000F
:10D1300068606770A868000A384002D1042004F0D3
:10D14000D8FDA078A16A002907D1002810D1F805E0
:10D15000286040086860A7700AE0012808D1A86824
:10D16000000E384004D1012004F0C3FD04202070DB
:10D17000E08B0B281BDBA868400D384017D0052238
:10D18000FA2149004800FFF7FBFE20002C3001F097
:10D190008BF80120FFF7DCFE0D202070012001F04C
:10D1A0005AFB614801F016FC002001F054FB0026F8
:10D1B000E08B652818DBA868000E074014D1A06A30
:10D1C000002811D0E6830120FFF7C2FE2078042852
:10D1D0000AD1FFF783FE012001F03DFB12A001F010
:10D1E000F9FB002001F037FBE08B411CE1834F4944
:10D1F00088420EDBE6830120FFF7AAFE0F20207095
:10D20000012001F028FB9C4801F0E4FB002001F024
:10D2100022FBF1BD10390020703900200C050050B0
:10D220001C3E0020483E00203E20496E204D6F7677
:10D23000655F466F72776172645F416374696F6E98
:10D2400028290D0A00000000F8B500228B4CE08868
:10D250008B49884200D1E280E388A1888B4220D2AA
:10D26000304DFA21890048088026B601277A002F20
:10D2700009D06E6022725B1CE380A2889BB293424D
:10D280000FD2628803E02E60012222722288D2032C
:10D29000101804F06AFD0100002220000C3000F09C
:10D2A000D7FFF1BDC4380020F8B50022754CE088E6
:10D2B0007349884200D1E280E388A1888B4220D262
:10D2C000984DFA21890048088026F601277A002F18
:10D2D00009D06E6022725B1CE380A2889BB29342ED
:10D2E0000FD2628803E02E60012222722288D203CC
:10D2F000101804F03AFD0100002220000C3000F06C
:10D30000A7FFF1BD8848817A0A0002D1012181720C
:10D310007047022905D10021817280208002834953
:10D3200008607047080500509CD401007017000089
:10D33000F8B57D4C2000EC3000F0B6FF20002C301A
:10D3400000F0B2FF03207A490881A06A0125754EDA
:10D35000002808D0A179002905D1A905316049002C
:10D360007160A571E572218C0B290BDBB168090E88
:10D370002940084306D1E07A012803D104F0B9FC22
:10D38000A571E5700027A06A002802D1A571E5709B
:10D3900002E0E078012858D105202070607800284C
:10D3A00004D168073060400070606570B068C005E7
:10D3B00010D4607C00280DD1012001F04CFA00BF90
:10D3C00031A001F007FB002001F045FA042004F031
:10D3D00090FC6574208C0B281CDBB068400D284045
:10D3E00018D00522FA2149004800FFF7C9FD2000A6
:10D3F0002C3000F059FF0120FFF7AAFD0D2020700E
:10D40000012001F028FA00BF24A001F0E3FA002077
:10D4100001F021FA208C332817DBB068000E05409C
:10D4200013D1278420002C3000F03EFF20780528FF
:10D430000BD1012001F00FFA1DA001F0CBFA002062
:10D4400001F009FAFFF766FD6774208C411C218406
:10D45000C34988420EDB27840120FFF779FD0F20A6
:10D460002070012001F0F7F918A001F0B3FA0020B4
:10D4700001F0F1F9F1BD0000CCD401001C3E002008
:10D48000FFFF0000483E00203E20B9D8B1D5BFAA1A
:10D49000B9D8C3C5B5E7BBFA0D0A00003E204D6FF1
:10D4A000746F7220697320537475636B2E0D0A00BC
:10D4B0003E204D6F746F722052756E6E696E6720DC
:10D4C000666F72776172652E0D0A00003E204D6F07
:10D4D000746F722052756E6E696E672054696D6547
:10D4E0006F75742E0D0A000010B50E488021490397
:10D4F0000160090A41600C4C012060720220207119
:10D50000012001F0A8F900BF0AA001F063FA002091
:10D5100001F0A1F9002293492000CC3000F098FEE0
:10D5200010BD000008050050C43800200C05005054
:10D53000082500203E20C7EBBDABC9A1D5DBB5FE59
:10D54000BAC3BAF3C9A1CDB7CFF2C0EFB7C5C8EB24
:10D55000BBB9C9A1BFDA0D0A00000000F0B583B065
:10D56000C74C207D401C2075A07D401CA07501206B
:10D5700001F071F9A17DC34801F02CFA002001F0FF
:10D580006AF9012001F067F9E37CA27C217DBE48A5
:10D5900001F020FA002001F05EF90025207D6428CA
:10D5A00003DBA07C401CA0742575A07C00280ED055
:10D5B000A57404F067FC012001F04DF9B34801F0B7
:10D5C00009FA002001F047F9E07C401CE0742000DB
:10D5D000AC30019020008C3000900127AC4EE07CF4
:10D5E000032821DB012001F036F900BF35A001F04E
:10D5F000F1F9002001F02FF9E574607D002804D1D5
:10D60000B8073060400870606775B068800A3840BD
:10D610000AD1042004F06DFB00F08CF8009800F0B3
:10D6200043FE019800F040FEA06A00280ED0B068CA
:10D63000800C38400AD0A07D192807DB607D0028C7
:10D6400004D1B8073060400870606775B068800C1E
:10D65000074009D0012001F0FEF800BF23A001F02F
:10D66000B9F9002001F0F7F8A06A002808D00120DD
:10D6700001F0F1F822A001F0ADF9002001F0EBF883
:10D68000B06840051DD4607D00281AD0042004F045
:10D6900030FB06202070012001F0DDF81EA001F013
:10D6A00099F9002001F0D7F800F044F82575A57429
:10D6B000E5746575A575009800F0F6FD019800F019
:10D6C000F3FDF7BD3E20BBB9C9A1CAA7B0DCA3AC2E
:10D6D000C3BBD3D0BCB0CAB1BBB9C9A1A3ACB9D884
:10D6E000B1D5B5E7BBFA0D0A000000003E20495253
:10D6F0005F434845434B2829203D3D20310D0A001A
:10D700003E2067735F524649445F52656164203E24
:10D7100020300D0A000000003E20636C6F7365200E
:10D72000616C6C207468652074696D6569640D0AAC
:10D730000000000080B5012001F08DF80AA001F082
:10D7400049F9002001F087F84D480021017141702E
:10D750008171C172C1708170C1710172417201BD6C
:10D7600070170000CD0C00003E20617420746865C5
:10D7700020496E6974466C616728290D0A00000013
:10D78000F8B5434880683E4C8105C90F04D1032099
:10D7900004F0AFFA0120E075207E401C20760120C5
:10D7A00001F059F8217E00BF3AA001F013F90020E2
:10D7B00001F051F8A06A002801D00120E07600278E
:10D7C000207E322818DB012001F045F834A001F05A
:10D7D00001F9002001F03FF8082020702776607ED4
:10D7E000401C6076012001F036F8617E30A001F027
:10D7F000F1F8002001F02FF880256D032E0A607EDD
:10D80000032814DBA07E002811D1012001F023F8A9
:10D810002AA001F0DFF8002001F01DF81C48066086
:10D8200045600C202070A776E776277113E0E07E34
:10D83000002810D0207E14280DDB0120A07601F0F6
:10D840000AF800BF25A001F0C5F8002001F003F898
:10D850000F48066045600E48806800050FD4E07DE3
:10D8600000280CD0032004F044FA0B20207027710C
:10D87000E775A776E7762000CC3000F015FDF1BD06
:10D88000C438002098980200A8980200A0D801008F
:10D89000080500503E2069203D2025640D0A000047
:10D8A0003E20C7EBBEA1BFECBBB9C9A10D0A000069
:10D8B0003E206A203D2025640D0A00003E20CAAEAD
:10D8C000CEE5C3EBB5BDA3ACB9CAD5CFA3ACC3BB42
:10D8D000D3D0BBB9C9A10D0A000000003E20BBB9DE
:10D8E000B9CAD5CFC9A1B3C9B9A60D0A00000000B5
:10D8F00070B51E4C207F401C2077AA4DA9680126D8
:10D90000890C314031D0617901292ED1A16A0029D9
:10D910002BD1C0B2142828DB20004C3000F0C4FC0E
:10D9200020002C3000F0C0FC2670B00728604008B2
:10D930006860A868800A304007D1042004F0D9F953
:10D94000267270062860C0006860A868C00906409A
:10D950000BD1207A012808D1022004F0CAF9FFF780
:10D96000E9FE2000EC3000F09FFC70BDC4380020C0
:10D97000F8B50D1D2C688CA1200004F02DFB0028AB
:10D980000CD1012000F067FF884801F023F8002047
:10D9900000F061FF6868FFF717FBF1BD84492000C4
:10D9A00004F01AFB002804D1012000F054FF814844
:10D9B000B9E08149200004F00FFB002804D10120C8
:10D9C00000F049FF7D48C0E07D49200004F004FBE1
:10D9D000002806D1FFF788FD012000F03CFF7948C0
:10D9E00091E07949200004F0F7FA002808D10120DD
:10D9F00000F031FF75480178754800F0EBFF84E0D6
:10DA00008027FF03674D7E007249200004F0E4FA8E
:10DA1000002806D12E606F60012000F01CFF6E48C8
:10DA200071E06E49200004F0D7FA002806D12F607B
:10DA30006E60012000F00FFF694864E06949200032
:10DA400004F0CAFA002807D1012004F052F901209D
:10DA500000F001FF644856E06449200004F0BCFA7D
:10DA6000002806D104F0E4FC012000F0F4FE604838
:10DA700049E06049200004F0AFFA002806D104F024
:10DA80009FFB012000F0E7FE5B483CE05B49200083
:10DA900004F0A2FA002806D104F0DAFB012000F01D
:10DAA000DAFE57482FE0574D5749200004F094FA0A
:10DAB000002802D104F004FC07E05449200004F0DF
:10DAC0008BFA002806D104F052FC012000F0C3FEBE
:10DAD000280018E04E49200004F07EFA002806D104
:10DAE00004F018FC012000F0B6FE4A480BE04A4959
:10DAF000200004F071FA00280BD104F05FFC012033
:10DB000000F0A9FE454800F065FF002000F0A3FEEC
:10DB1000F1BD4349200004F05FFA00280BD1012039
:10DB200000F099FE3F4800F055FF002000F093FE02
:10DB3000FFF7E6F8F1BD3C49200004F04DFA00285B
:10DB40000BD1012000F087FE384800F043FF002091
:10DB500000F081FEFFF74EF9F1BD3549200004F0D9
:10DB60003BFA00280BD1012000F075FE314800F08F
:10DB700031FF002000F06FFEFFF7B6FCF1BD2E492B
:10DB8000200004F029FA00280AD1012000F063FEE9
:10DB90002A4800F01FFF002000F05DFE04F024FC86
:10DBA000F1BD00000805005074747300C4980200B1
:10DBB000D8980200E0980200FC9802000499020044
:10DBC0001C9902002899020040990200C4380020E4
:10DBD000489902005C990200709902008499020041
:10DBE0008C990200A0990200A8990200B89902003D
:10DBF000C0990200D8990200E8990200FC9902003D
:10DC00000C9A0200349A0200249A0200489A0200F8
:10DC10005C9A0200709A02008C9A0200989A0200A4
:10DC2000A89A0200B89A0200CC9A0200D89A020080
:10DC3000EC9A0200FC9A0200109B02001C9B02005E
:10DC4000002805D40121C006C00E81408D48016026
:10DC50007047002805D40121C006C00E81408A48C3
:10DC600001607047002805D40121C006C00E814024
:10DC700086480160704710B5C20018231340FF2486
:10DC80009C40E2438907090E9940002801D4BB4B10
:10DC900003E0BB4B0007000F08388008800018180D
:10DCA00003681A401143016010BD0000401E00BF10
:10DCB00000BF00BF00BF00BF00BF00BF00BF00BF6C
:10DCC00000BF00BF00BFF1D1704738B5802080028F
:10DCD000AC490860AC488021490201640160AB4C4A
:10DCE000012525602F20FFF7E1FF6560A84C002586
:10DCF00025612F20FFF7DAFFE57031BDF8B5A44E9E
:10DD0000F568002D38D00024C54800683169401AF4
:10DD100007023F0A286887421CD33F1A24182800AC
:10DD2000ED69017C002913D00021017442698169E9
:10DD3000F36918000AD010009847002808D000BFE7
:10DD40000EA2FF21623104F03FFC01E00800904781
:10DD5000002DDFD1B0787178814206D1401CB070BF
:10DD6000C0B2022801D10020B070B0788000301815
:10DD700044611420FFF76DFFF1BD0000443A5C7769
:10DD80006F726B73706163655C41442D31355C412A
:10DD9000442D31355C6669726D776172655C56330E
:10DDA0002E305C6669726D776172655C53444B5CC2
:10DDB0006C69627261726965735C74696D65725CCD
:10DDC0006170705F74696D65722E6300FFB5704A93
:10DDD000D0680390107869460871002069460B7975
:10DDE0005C1E0C710121002B45D093686C46247990
:10DDF000E4001B1900931B7817E02C00ED69002D3F
:10DE000013D0BD42F9D1AC4207D1F669D660002EDD
:10DE100003D1AF4E3160106111712E68ED69E5617B
:10DE2000002D02D02C68A4192C60009D6D78DCB206
:10DE3000AC42D3D0009C6468DBB218255D43641902
:10DE40005B1C009EB678DDB2B54200D10023257878
:10DE5000022D02D0032D07D0E7E764680294D6684C
:10DE600034002500029FCAE7D468002CDDD020745E
:10DE7000E469D460F8E7D268039B9A4200D001209D
:10DE800004B0F0BD00E100E000E200E080E200E06C
:10DE9000FCB53F4AD1680191137800211C00631E34
:10DEA000DBB2002C06D1D068019A904263D00120E9
:10DEB000F6BDD46000282FD19468DD006419257860
:10DEC0006678B542EAD0666818276F43F6196D1C6C
:10DED0002570A778EDB2BD4200D121707468357805
:10DEE000012DE9D1257C002DE6D1B5686560F56886
:10DEF000A5603569E5607569A5611579002D00D0CB
:10DF0000616065681669AE1B3602360ABD4FBE42B7
:10DF100005D2A56875190AE00400E069F1E7166901
:10DF2000751B2D022D0AA668B54202D2751B25600D
:10DF300000E021606160A16001252574E161D6687F
:10DF4000002EB6D037682568AF4203D37D1B3560FD
:10DF5000E661AEE700963768AF4205D2ED1B00964A
:10DF6000F669002E02D0F6E77F1B37602560E66178
:10DF7000009DEC619EE70020F6BD000000E400E09B
:10DF80001CED00E080E100E00813014004100140B6
:10DF90009C3E0020FEB5BF4FF86800283CD00068CA
:10DFA00002901F4C2068009038690190BA4D00988B
:10DFB0000199461A2E40F61CF878002812D1B7486D
:10DFC00080214902016401601120FFF74BFE1120FE
:10DFD000FFF736FE0120B24908602F20FFF766FEEA
:10DFE0000120F8700298864200D20600019880193C
:10DFF0002840E0632168009A801A2840891A0D4061
:10E00000ED1CA8420AD22068E0632F20FFF74EFEE5
:10E010001120FFF71EFEF7BDFFF757FEF7BD00000A
:10E0200004150140F0B585B000249A4D286903908D
:10E03000E96802916A781100AB789A420FD0491CC6
:10E04000C9B2022900D100218A00AA18526901929E
:10E0500080180002000A28610120009001E001946C
:10E0600000946970FFF7B2FE0600E8680099002985
:10E070001FD00199009413E0C91A009EF318009371
:10E08000002313600190D069D368002B08D0039E51
:10E09000009FF6193602360A56609360D461019CDF
:10E0A000002805D0020013689942E5D2591A116080
:10E0B0000126E8602000FFF7EBFE002801D1002ECA
:10E0C00002D00298FFF766FF0020287105B0F0BD6E
:10E0D0000810014010B54278521C8478D3B2A34294
:10E0E00000D100220478D3B2A34201D1002010BD98
:10E0F0000A704168407818225043081810BDF0B5E6
:10E1000083B00C0017001E00C00000907E4D01A9D6
:10E11000A868009A8018FFF7DDFF002801D10420CD
:10E12000FEBD0121017044605E4909688160C760DD
:10E1300006610899416168460079A968D6E080B512
:10E1400072480021016441648164C16401604160DE
:10E15000FFF7D4FD01BD80B5FFF764FF01BDFBB53E
:10E16000150003273D4204D100264A4C002D02D160
:10E17000A6600720FEBDFFF7A8FD0298E0612770AA
:10E18000A56018350020A168C20089180E704E7075
:10E190006A4612798A704D6069460979182251439E
:10E1A0006D18401C0328EEDBE6606670A670142034
:10E1B000FFF758FD03211420FFF75DFD1420FFF742
:10E1C0003FFD384D0098686003211120FFF753FD93
:10E1D000286820610020FEBD4B4B9B68002B09D0B6
:10E1E000130001D0002801D1072070470068037C8C
:10E1F000002B01D008207047037441744261002055
:10E2000070470000FFFF7F0041480068C205D20D43
:10E210001CD0103AD1001820084052B20321002A25
:10E2200001D43C4B03E03C4B1207120F083A920812
:10E2300092009A58C24090090140012902D0032956
:10E2400002D003E000207047012070470220704791
:10E25000F8B504000D0017002B488068002808D08E
:10E26000002C06D0052D01D20720F2BD60690028E0
:10E2700001D10820F2BD607C012801D12E0000E010
:10E280000026FFF7C1FF009733002A002100FFF7A7
:10E2900036FFF2BD9C3E0020FFFFFF00041301404B
:10E2A0000010014004150140F0B583B00400164E83
:10E2B000B768002F04D0002C02D06069002801D17B
:10E2C0000820FEBD00252574FFF79EFFC0000090CA
:10E2D00001A93818FFF7FEFE002801D10420FEBD79
:10E2E00002210170446068460079B168009A89187B
:10E2F00048701420FFF7ADFC0020FEBD07490968F7
:10E3000001600020704700009C3E00200011014089
:10E3100004ED00E000E400E01CED00E00415014025
:10E32000401A0002000A106000207047F4B500286F
:10E330001AD0002918D0002A16D0002B14D000249F
:10E3400001E0641C24B2D51AA5420DDB002501E0D2
:10E350006D1C2DB20619765D4F5DBE42F1D16E1C6B
:10E360009E42F5D10019F2BD0020F2BD010000204F
:10E37000002900D1704780B5080001F097FA02BD6E
:10E3800070B504000026002C0BD004E00A204643A0
:10E39000303D7619641C2578280004F023F9002804
:10E3A000F4D1300070BDF8B505000024002D21D057
:10E3B000287830280AD16878782801D0582805D1E3
:10E3C000AD1C03E0573F2001C4196D1C2E783000AE
:10E3D0000FD0370004F006F9002801D0303FF2E7F3
:10E3E00030004138062801D2373FECE7613E062E67
:10E3F000E8D32000F2BD000070B5002307A409E0B7
:10E40000050200120E7846407000205A684080B223
:10E41000491C5B1C9DB29542F2D370BD00002110D7
:10E42000422063308440A550C660E770088129917E
:10E430004AA16BB18CC1ADD1CEE1EFF13112100226
:10E4400073325222B5529442F772D66239931883CE
:10E450007BB35AA3BDD39CC3FFF3DEE362244334F2
:10E4600020040114E664C774A44485546AA54BB51E
:10E4700028850995EEE5CFF5ACC58DD553367226C6
:10E4800011163006D776F6669556B4465BB77AA76E
:10E4900019973887DFF7FEE79DD7BCC7C448E55812
:10E4A0008668A7784008611802282338CCC9EDD9BE
:10E4B0008EE9AFF9488969990AA92BB9F55AD44A66
:10E4C000B77A966A711A500A333A122AFDDBDCCB0E
:10E4D000BFFB9EEB799B588B3BBB1AABA66C877C32
:10E4E000E44CC55C222C033C600C411CAEED8FFD5E
:10E4F000ECCDCDDD2AAD0BBD688D499D977EB66E06
:10E50000D55EF44E133E322E511E700E9FFFBEEFAD
:10E51000DDDFFCCF1BBF3AAF599F788F8891A9816F
:10E52000CAB1EBA10CD12DC14EF16FE18010A10059
:10E53000C230E3200450254046706760B983989349
:10E54000FBA3DAB33DC31CD37FE35EF3B1029012A9
:10E55000F322D2323542145277625672EAB5CBA515
:10E56000A89589856EF54FE52CD50DC5E234C324F9
:10E57000A01481046674476424540544DBA7FAB7E9
:10E580009987B8975FE77EF71DC73CD7D326F23649
:10E590009106B01657667676154634564CD96DC935
:10E5A0000EF92FE9C899E9898AB9ABA94458654899
:10E5B00006782768C018E1088238A3287DCB5CDB89
:10E5C0003FEB1EFBF98BD89BBBAB9ABB754A545AE9
:10E5D000376A167AF10AD01AB32A923A2EFD0FED55
:10E5E0006CDD4DCDAABD8BADE89DC98D267C076C39
:10E5F000645C454CA23C832CE01CC10C1FEF3EFF29
:10E600005DCF7CDF9BAFBABFD98FF89F176E367E88
:10E61000554E745E932EB23ED10EF01E002200289D
:10E620000ED0016800290BD02E4A1168002902D1B2
:10E63000106004E011008A68002AFBD18860012282
:10E6400010007047F0B593B00700002025490C6812
:10E65000002101AA8300D150401C1028FADB387831
:10E66000010005D003F0C3FF002801D17F1CF6E7AD
:10E67000012501973E0002E0009806606D1C01A88C
:10E68000A900401800903078002816D0102D14DA18
:10E690003078010007D003F0AAFF002803D0761CD1
:10E6A000F6E73070761C3078010003D003F09FFF4E
:10E6B0000028F6D030780028DED1002000990860CC
:10E6C00000E0A468002C0BD0012DFADB2168380093
:10E6D00003F082FC0028F4D101A928006268904769
:10E6E00013B0F0BDB03F002000290BD0002A09D0A4
:10E6F000531E1A4006D10160436000218160C16051
:10E70000012070470020704710B50268C368446854
:10E710001C401155C168491CC16010BD8168026868
:10E7200043680B40D25C491C816010007047C1688F
:10E730008068081A7047C16881607047F8B50400A6
:10E740000F0015000026002F14D0002D12D0FFF767
:10E75000EEFFA84202D20500002D0BD02068A16870
:10E7600062680A40805CB855A068401CA0606D1EBD
:10E77000761CF1E73000F2BDF8B504000F0015007B
:10E780000026002F17D0002D15D0FFF7D0FF6168AD
:10E79000081A401CA84202D20500002D0BD02068A8
:10E7A000E16862680A40B95D8154E068401CE0603D
:10E7B0006D1E761CF1E73000F2BD0268531C036049
:10E7C00011707047F8B507000E0014006A488022E7
:10E7D0009200010018310830FFF786FF674A0021D8
:10E7E0007AA0FFF7F9FC6648002101604161C16130
:10E7F000C163644D6F61EE60E9666C62012062493D
:10E80000086081229200614B1A6088600321022017
:10E8100003F006FF0420286003F0BEFF002801D1AA
:10E8200003F098FF6AA000680090032069464870D2
:10E83000574A0F2003F0BEFF00210F2004F00CF810
:10E84000012000F008F800BF5BA000F0C3F8002032
:10E8500000F001F8F1BD4F49002802D0012804D092
:10E86000704704208860052002E00F208860102097
:10E8700008607047484900220A60484A10600868EA
:10E880000028FCD00120704770B5040000253A4EE6
:10E8900030000830FFF74BFF002805D0300008306B
:10E8A000FFF73CFF20700125280070BD80B53C4873
:10E8B000FFF73DFF80B202BD10B5374A374C0B045D
:10E8C00009D00023136003782360401C491E13689D
:10E8D000002BF4D1FBE7012010BD70B50024284DBA
:10E8E000286800280FD02C60234E30000830FFF736
:10E8F0001EFF2C49884206D22B480168C9B230005D
:10E900000830FFF701FFEC61EC6370BD10B51A4CE5
:10E91000618800290DD10121244A116020700F2047
:10E9200003F0DEFF00222249862080002018FFF736
:10E930008FFC10BD38B51F4D0F4CA088002811D199
:10E940000022E90B862080002018FFF781FC2000C0
:10E950000830FFF7F0FE2078286001200A4908609F
:10E96000A08031BD0020A0800520286000210F205C
:10E9700003F072FF31BD0000B432002035E9010020
:10E9800008210040002500400020004004230040F2
:10E990000DE901000C2500401C2100401C25004011
:10E9A000BC320020FF010000182500400420004078
:10E9B0008F020000142500403E205541525420692A
:10E9C0006E69742E2E2E0D0A00000000CC3400203B
:10E9D000020000000EB400B582B003A900916B469E
:10E9E00002000121034878440A3004F025F8029916
:10E9F00006B0084755B5000052000A43990011437C
:10EA0000009A12020A43019909041143B14A800095
:10EA10001150704700B583B000210191009100238F
:10EA200001220121FFF7E8FF07BD00B583B00022F6
:10EA3000019200920B000021FFF7DEFF07BD0000EE
:10EA400010B5A54C802292002100A018FFF74CFEC3
:10EA5000A24A002109A0FFF7BFFB842080002018F4
:10EA6000FFF7DCFD0120FFF7F6FE00BF04A0FFF773
:10EA7000B1FF0020FFF7EFFE10BD0000AC1F00202B
:10EA80003E204750525320496E69740D0A00000021
:10EA900093480068042800D0704710B5914C208836
:10EAA000401C208000F02CF9FFF700FF8E49C98B35
:10EAB000014301D000F08EFA2088401E208010BD56
:10EAC00089498A7E824206D08876002803D1C86CA4
:10EAD00001220243CA6470478348407E70470000A9
:10EAE000F8B507000C008148844200DB441E7E48D4
:10EAF000007E06283AD10120FFF7ADFE3A00210042
:10EB00001CA0FFF767FF0020FFF7A5FE0026002FDF
:10EB10001ED020001CD0052575480560210000BFCF
:10EB20001CA0FFF757FFFA21890072A000F0FCFC3F
:10EB300000280DD06E48056021003800FFF7BCFEAC
:10EB40006D4900BF17A000F0EFFC002800D02600A0
:10EB50000120FFF780FE3200210000BF13A0FFF765
:10EB600039FF0020FFF777FE30B2F2BD0020C0432E
:10EB7000F2BD00003E20475052535F536F636B65F8
:10EB80007453656E64446174613A252E2A730D0ACC
:10EB90000000000041542B514953454E443D25642B
:10EBA0000D0A000053454E44204F4B003E20544375
:10EBB0005049505F53656E642025752C2072657432
:10EBC0003A25640D0A000000F1B500240027002555
:10EBD00005204749086000BF17A14848FFF7FAFE23
:10EBE000FA21490016A000F09FFC060019D000E0B1
:10EBF000761C3078010003D003F0F4FC0028F7D035
:10EC00003000FFF7BDFB0700761C3078010003D011
:10EC100003F0E8FC0028F7D03000FFF7B1FB040058
:10EC20000125280069460978012901D13800F2BD83
:10EC3000022900D12000F2BD5246494400000000E4
:10EC40002B524649443A00002749497E062900D103
:10EC5000704780B500F048FC01BD0020C043B449B6
:10EC60004A7E062A0CD0032A0AD00020052A07D1A2
:10EC70000A7E062A04D14C22895C490700D401206F
:10EC8000704710B5AA4AD368984202D1148AA142AB
:10EC900007D0D060118207231376D36C04241C4361
:10ECA000D464002804D0002902D00120FFF708FF17
:10ECB00010BD10B50A0001009E48FFF73FFD04009B
:10ECC000000405D1FFF7C9FF012801D00024E44367
:10ECD00020B210BD00070050CC1F0020F1F501004C
:10ECE00014250040B6320020481F00200102000019
:10ECF0000C2500403E000000B80B000070F8010039
:10ED0000F8B58B4CE06C052701260025A18A0B295C
:10ED100004DAE18A0B2901DA304206D0B043E0641C
:10ED2000656100F017FB65760BE0607E002808D077
:10ED3000012839D0022800D197E0042800D1A0E0B2
:10ED400011E0A07E00280ED000F0EAFA02F0ADFD3E
:10ED5000E06566760120FFF77EFD7748FFF73AFE13
:10ED60000020FFF778FD607E052851D1E06C410757
:10ED700000D49BE0217E0426F643082913D0002905
:10ED800011D0C34807606D496D48FFF723FEFA2193
:10ED900089006C4800F0C8FB02F087FDA06500F018
:10EDA0003FFB2076E06C7FE002F07FFDE16D401AD2
:10EDB0000C28D8D302F079FD206500210120FFF74F
:10EDC00034FEB34807600321B2A0FFF775FDB24ED1
:10EDD0006421300000F0A8FBAD4807600321ADA01E
:10EDE000FFF76AFDFA218900300000F09DFB002842
:10EDF00013D000F0A1F900280CD00120FFF72BFD63
:10EE000051A0FFF7E7FD0020FFF725FD0220607607
:10EE10002576F1BD0320607615E00120FFF71BFD8C
:10EE20004EA0FFF7D7FD0020FFF715FD0620607606
:10EE300000210120FFF7F9FD00210020FFF7F5FD7B
:10EE4000607E03288FD10120FFF705FD49A0FFF761
:10EE5000C1FD0020FFF7FFFC00210120FFF7E5FDC9
:10EE600000210020FFF7E1FD7DE700F015FB012800
:10EE700001D1052000E00420607600F0A9FAA0741A
:10EE800071E702F012FD216D401A1E28F8D302F03E
:10EE90000CFD206500F000FB002803D1E08A401C37
:10EEA000E08260E7677661E70640E664207E00283E
:10EEB00008D0042825D00628ABD0082802D009287D
:10EEC0001FD021E002F0F1FC6065E1680029A0D0CC
:10EED000228A10009DD06E48076000BF2DA0FFF76A
:10EEE00079FD8D4D290000BF31A000F01DFB0028E9
:10EEF00003D1290032A000F017FB00F091FA207630
:10EF0000F1BD00F049FA83E702F0CFFC616D401AD1
:10EF10003C2803D300F040FA0820207602F0C5FC1C
:10EF2000A16D401A0328EBD302F0BFFCA065E4E713
:10EF3000481F0020CC210020AC9B0200CC9B02008B
:10EF400070F80100D49B02003E20475052535F4DA1
:10EF50006F64756C65496E69740D0A003E204750F8
:10EF60005253206D6F64756C65206661756C742EEC
:10EF70000D0A00003E2047505253206D6F64756C9F
:10EF800065206E6F2053494D20636172642E0D0A17
:10EF90000000000041542B51494F50454E3D225432
:10EFA0004350222C222573222C25640D0A000000D8
:10EFB000434F4E4E454354204F4B0D0A0000000076
:10EFC000414C524541445920434F4E4E4543540D08
:10EFD0000A000000F0B583B0002501950095A94C0A
:10EFE000E08BA949884250D20527A84E3018FFF778
:10EFF0004BFC002810D01020254908600121E08B2F
:10F000003018FFF759FC22480760E08B401CE08372
:10F0100020006030FFF772F901A8FFF76FF96A4628
:10F02000216E0198FFF77CF9E18B7018042906DB4B
:10F03000811E4A780A2A02D109780D2903D0009945
:10F04000C34A914222D3057014A1300004F065FC3C
:10F05000002805D113A1300004F05FFC002802D085
:10F0600000F0DEF92076D549300004F056FC002887
:10F0700008D000F011FA012800D00427677600F0CC
:10F08000A7F9A074300000F013F8E583F7BD000085
:10F090000C25004041540D0020F50100434C4F5316
:10F0A00045440000434F4E4E454354204F4B000013
:10F0B000F8B5C3A7390004F030FC0400C14E002CA1
:10F0C00027E0E01CFFF75CF985B22078010002D050
:10F0D000641C3A28F9D10120FFF7BDFB290000BFCD
:10F0E0000EA0FFF777FC0020FFF7B5FB1020306083
:10F0F00029002000FFF7E0FB052030602A002100F6
:10F10000C348FFF739FB39006019401C04F005FCC7
:10F110000400D6D1F1BD0000B80B00003E204750DE
:10F12000525320536F636B65742052656365697633
:10F13000653A25640D0D0A00F8B50020694608708F
:10F14000A04C05252560052151A0FFF7B5FBB14E68
:10F150006421300000F0E8F9256005214EA0FFF79A
:10F16000ABFB6421300000F0DFF9C54968A000F076
:10F17000DBF92560C34F00BF49A13800FFF72AFC27
:10F180006421300000F0D0F9256000BF46A13800AE
:10F19000FFF720FC6421300000F0C6F9256000BFB5
:10F1A00043A13800FFF716FC6421300000F0BCF9E1
:10F1B000256000BF40A13800FFF70CFC642130003F
:10F1C00000F0B2F9256000BF3DA13800FFF702FC56
:10F1D0006421300000F0A8F9256000BF3AA1380092
:10F1E000FFF7F8FB6421300000F09EF9256000BFB6
:10F1F00038A13800FFF7EEFB6421300000F094F9ED
:10F20000256000BF35A13800FFF7E4FB6421300022
:10F2100000F08AF9256000BF32A13800FFF7DAFB61
:10F220006421300000F080F9256000BF2FA1380074
:10F23000FFF7D0FB6421300000F076F9256000BFB5
:10F240002DA13800FFF7C6FB6421300000F06CF9F7
:10F25000256000BF2CA13800FFF7BCFBFA21890014
:10F260002BA000F061F9002808D000BF2AA104F00B
:10F2700054FB002802D001206946087068460078D7
:10F28000F2BD0000481F0020FF010000EC34002008
:10F29000415445310D000000415456310D0000002D
:10F2A000435344483D3000005153434C4B3D3000E4
:10F2B0004946433D302C3000434C564C3D313000E4
:10F2C000434D47463D310000435343533D2247538E
:10F2D0004D220000435245473D320000434C495007
:10F2E0003D31000051494D55583D30005149484588
:10F2F00041443D3100000000434E4D493D322C3227
:10F300002C302C302C3000004350494E3F00000080
:10F310002B4350494E3A00005245414459000000E9
:10F3200010B500210120FFF780FB00210020FFF72E
:10F330007CFBC82002F01DFCAF4C012020600020A7
:10F34000FFF768FB022020600120FFF763FB10BD80
:10F35000AD0D000010B500240220A749086001206F
:10F36000FFF758FBA54900BF07A000F0DDF8002813
:10F3700000D0012400210120FFF757FB00210020CD
:10F38000FFF753FB200010BD504F57455220444F0C
:10F39000574E0D0A0000000080B50520094908609D
:10F3A00009A13848FFF716FB954900BF5CA000F0A3
:10F3B000BBF8002800D0012002BD0000E0F40100ED
:10F3C000495044000C25004043474143543D31001F
:10F3D00038B5002405208B4908608BA12948FFF728
:10F3E000F9FAFA21890000BF0BA000F09DF8050092
:10F3F0000CD000E06D1C2878010003D003F0F2F877
:10F400000028F7D02800FEF7BBFF0400E0B232BDB1
:10F41000CC21002020F501002B4353513A0000007D
:10F4200070B5002505207749086000BF16A1154872
:10F43000FFF7D0FA714900BF15A000F075F804007D
:10F440001CD02078010002D0641C3A28F9D1207821
:10F45000202801D1641CFAE76C48EDB2A9004018DD
:10F46000066A3000FEF782FF02003100200004F03F
:10F4700070FA002802D06D1C002EEDD1E8B270BDEC
:10F480008813000070F801005149535441540000A2
:10F4900053544154453A000080B50520594908604D
:10F4A0000DA15B48FFF796FAFA2189000CA000F045
:10F4B0003BF800280ED001780A0002D0401C2C290D
:10F4C000F9D1FEF75DFFC0B2012801D0052801D1B6
:10F4D000012002BD002002BD435245473F0000000D
:10F4E0002B435245473A000080B50521454A11603B
:10F4F000010000BF03A0FFF76DFA404908A000F02B
:10F5000013F801BD41542B51415544504C41593DD4
:10F51000222573222C302C35302C300D0A000000AF
:10F520004F4B0D0A00000000F1B582B00D0000271E
:10F530000026364C277720006430FEF7B5FE009693
:10F54000E803FA2149004018490002F00EFC0100CE
:10F55000002220006430FEF77BFEE78302E0FDF727
:10F560004DFD48DF207F00283AD1E08B29498842B1
:10F57000F5D2A6490818FFF787F90028EFD0102028
:10F58000204908600121A148E28B8018FFF794F917
:10F5900005201C490860E58B6D1CE5839B48ADB2D6
:10F5A0004019042D06DB811E4A780A2A02D1097807
:10F5B0000D2903D0029909783E29D3D1077002980A
:10F5C00000F074F903002A0002999048FEF7AEFE9D
:10F5D000060005D104A18D4804F09FF90028C1D090
:10F5E000E7833000FEBD00004552524F520000003C
:10F5F00001208749087770470C050050B80B0000C0
:10F60000102700000C25004043535100481F0020E4
:10F6100070F80100FF010000F8B50C1D251D2468DD
:10F620007C49200002F0D8FC002816D12C687AA171
:10F63000200002F0D1FC002801D1012005E077A1D3
:10F64000200002F0C9FC002801D1FFF739FA01209F
:10F65000FFF701F929687248C1E07249200002F001
:10F66000BBFC00280CD10120FFF7F5F86848017EAB
:10F67000890041180A6A417E6B48FFF7ABF9C0E088
:10F680006AA1200002F0A8FC00281DD12C6862A10C
:10F69000200002F0A1FC002806D102206449086085
:10F6A0000120FFF7B7F909E05CA1200002F094FC0B
:10F6B000002803D100210120FFF7B7F90120FFF74F
:10F6C000CAF829685B488AE05B49200002F084FCA4
:10F6D000002812D12C0026685849300002F07CFC2A
:10F6E00000280BD10120FFF7B6F85548FFF772F953
:10F6F0000020FFF7B0F8FFF713FEF1BD51493000CD
:10F7000002F06AFC00280BD10120FFF7A4F84E4854
:10F71000FFF760F90020FFF79EF8FFF71BFEF1BD31
:10F720004AA1300002F058FC002808D1FFF750FE33
:10F7300004000120FFF78FF8210045484FE0454FB6
:10F74000052545A1300002F047FC00280BD13D60A3
:10F75000616800BF46A0FFF73DF90120FFF77BF885
:10F7600061683E483BE03E49300002F035FC00282D
:10F7700012D13D606668300000F098F881B2300028
:10F78000FFF79AF83D60022136A0FFF795F80120B7
:10F79000FFF761F8344832E037A1300002F01CFC7A
:10F7A00000281FD166681CA1300002F015FC00285B
:10F7B00006D101201E4908600020FFF72BF908E060
:10F7C00016A1300002F008FC002802D10021FFF74A
:10F7D0002CF90120FFF73FF8616800BF28A0FFF770
:10F7E000F9F80EE021A1300002F0F6FB00280BD161
:10F7F0006068FFF779FE0120FFF72DF826A0FFF7DC
:10F80000E9F80020FFF727F8F1BD0000EC340020F4
:10F81000481F002078F801006F6E00006F666600D8
:10F82000E09B0200F49B0200FC9B02006B657900E8
:10F830000C050050209C0200389C0200409C0200F5
:10F84000489C0200609C02006C9C02006373710083
:10F85000889C02000C25004061740000A09C0200FE
:10F86000BC9C02000D0A0000C49C0200747473006A
:10F8700041542B25730D0A00706F776572000000EC
:10F880003E2047505253207465737420706F776523
:10F89000723A25730D0A00003E205454535F506C99
:10F8A000617920646F6E652E0D0A0000010000E092
:10F8B000491C0A78002AFBD1081A7047124224D04A
:10F8C000994228D970B500251B4202D00C000021B6
:10F8D00009E00024012649186441944200D3A41A87
:10F8E0007641F8D33100012601E0764109D20018B3
:10F8F00064416D41A41A9D41F7D2A4185D41B61927
:10F90000F5D3300022002B0070BD1B42D8D108B5C2
:10F9100004F036F808BD01D19042D3D202000B00AA
:10F92000002100207047FEE73EB5784C952080000E
:10F930002518280004F0AAF8C8200290C430201826
:10F9400001908C204000009023007433704A2900FD
:10F95000200004F0E2F8992080002018FEF75EFEF7
:10F960000120FFF7ADF80120FEF775FF03A0FFF7B8
:10F9700031F80020FEF76FFF37BD00003E204D51EB
:10F98000545420696E6974204F4B2E0D0A000000FC
:10F9900010B5604C2088401C208000F0BDF800218C
:10F9A0005A4804F032FA2088401E208010BD574883
:10F9B000006AC0B27047000070B506000024012044
:10F9C000FEF749FF70688268416800BF0FA0FFF72B
:10F9D00001F80020FEF73FFFC2480C2161434518A3
:10F9E000686800280ED071684A68896803F0B1FF22
:10F9F000002807D1AA68100004D03068C16889B215
:10FA000080689047641C082CE6DB70BD3E20526580
:10FA10006365697665204E6577206D6573736167F0
:10FA200065252E2A733A0D0A0000000070B5050006
:10FA30000C000026F643FFF710F9002808D0B9485B
:10FA40000168491C016021002800FFF749F8060001
:10FA5000300070BD80B5FFF72CF9012803DBB149F8
:10FA60000A68521C0A6002BD7FB506006846017034
:10FA700000244470029203932448016A090615D0B9
:10FA80006A46310004F098FA0500A74901D00C88B5
:10FA9000641C0C800120FEF7DEFE2A00310000BF4E
:10FAA00005A0FEF797FF0020FEF7D5FE681E8041F7
:10FAB000C00F04B070BD00003E204D515454207062
:10FAC00075626C69736820746F703A25732C2072AC
:10FAD000657475726E3A25640D0A000030B5002811
:10FAE00011D013000FD00023BA4C0C255D436419CC
:10FAF0006568002D04D160602170A260012030BDD6
:10FB00005B1C082BF0DB002030BD0000E82100204A
:10FB100088130000B6320020F8B50024AE48006A11
:10FB2000002805D0FFF799F8002801D1AA480462FF
:10FB30007D4EA948007F002800D08BE001F0B5FE83
:10FB400070603088022802DA708802280ADB34806C
:10FB5000A1490C77086A002802D17088002805D0D6
:10FB600000F0C2F89C48006A00280CD19B4FFFF7B8
:10FB700074F8002804D1B98D38000C30FFF781F8F3
:10FB8000FFF76BF8012800D082E0954D0420287221
:10FB90006E2028837A6893A13000083004F0B6FA0A
:10FBA00030000830E86000BF96A02864E8640120B7
:10FBB000A876EC7600F06EF8002866D00120FEF7FB
:10FBC0004AFE3100083100BF90A0FEF703FF00207D
:10FBD000FEF741FE0120FEF73EFEBA8D39000C31E2
:10FBE00090A0FEF7F7FE0020FEF735FE0120FEF79D
:10FBF00032FE372192A0FEF7EDFE0020FEF72BFE2D
:10FC0000002070807449C20089184C62401C08288A
:10FC1000F8DB002733480C2179434418606800283A
:10FC200014D0714B227801466B4804F06BF9050043
:10FC30000120FEF710FE2A00616800BF87A0FEF7D2
:10FC4000C9FE0020FEF707FE002D18D17F1C082FEB
:10FC500018DADFE701F029FE7168401A0F2800D298
:10FC60006FE701F022FE70600120FEF7F4FD00BF97
:10FC70005EA0FEF7AFFE0020FEF7EDFD67E73088DF
:10FC8000401C308001F014FCF1BD7088401C708075
:10FC9000F1BD000038B5504D514C2100280004F052
:10FCA000E5F8002812D02100280004F0DFF8040055
:10FCB0000CD00120FEF7CFFD210000BF70A0FEF7A1
:10FCC00089FE0020FEF7C7FD002032BD0120FEF7AF
:10FCD000C2FD00BF74A0FEF77DFE0020FEF7BBFD55
:10FCE000012032BDE03C002010B53B4804F0C5F9CE
:10FCF00004000BD00120FEF7AEFD21006FA0FEF73F
:10FD000069FE0020FEF7A7FD002010BD0120FEF7D0
:10FD1000A2FD00BF74A0FEF75DFE0020FEF79BFD74
:10FD2000012010BDA03F0020743E002070B50C1DC6
:10FD3000256800BF72A1280002F04EF9002817D1F3
:10FD4000A068FEF71DFB0500E6683000FFF7AEFD7A
:10FD500083B23200E9B26068FFF786FE002837D030
:10FD60000120FEF778FD616867A0FEF733FE2CE006
:10FD70006BA1280002F030F9002809D10120FEF71C
:10FD80006AFD1548027F016A67A0FEF723FE1CE0AA
:10FD90006FA1280002F020F9002807D1FFF7A4FF87
:10FDA0000120FEF758FD00BF6CA00CE072A12800F6
:10FDB00002F012F900280BD1FFF76CFF0120FEF7CB
:10FDC0004AFD00BF6EA0FEF705FE0020FEF743FDD2
:10FDD00070BD0000E03C0020E82100200825002044
:10FDE0005824002025750000B9F901003E204D512E
:10FDF00054542070696E672074696D656F75742E38
:10FE00000D0A000041442D31350000003E204D51C7
:10FE100054542D636C69656E7449643A25730D0AF8
:10FE2000000000003E204D515454207365727665E9
:10FE3000723A25732C20706F72743A25750D0A0082
:10FE40003E204D5154542050696E6720696E76747F
:10FE5000657220256420730D0A0000003E204D517C
:10FE60005454207375627363726962652025732C24
:10FE70002072657475726E3A25640D0A00000000E8
:10FE80003E2052657475726E20636F6465206672E1
:10FE90006F6D204D51545420636F6E6E65637420F6
:10FEA00069732025640D0A003E204D5154542043AF
:10FEB0006F6E6E65637465640D0A00003E205265C6
:10FEC0007475726E20636F64652066726F6D204D6D
:10FED00051545420646973636F6E6E656374206956
:10FEE000732025640D0A00003E204D5154542044D7
:10FEF00069736F6E6E65637465640D0A00000000BF
:10FF00007075626C697368003E204D5154542070C6
:10FF100075626C697368202573204F4B2E0D0A00A3
:10FF200073746174757300003E204D515454206306
:10FF30006C69656E7420636F6E6E6563743A2564D8
:10FF40002C2070696E67206F75743A25640D0A0065
:10FF5000646973636F6E6E65637400003E20746540
:10FF60007374204D51545420646973636F6E6E65D1
:10FF700063742E0D0A000000636F6E6E656374007B
:10FF80003E2074657374204D51545420636F6E6E1F
:10FF90006563742E0D0A0000BFF34F8F9648974992
:10FFA0000860BFF34F8F00BFFDE70000F0B583B0DE
:10FFB00004F0F6FB6C460820A080A020C000E08082
:10FFC0008F4E0096D94D29003431684604F010FC5C
:10FFD0000120FEF740FCA96B1CA0FEF7FBFC0020F3
:10FFE000FEF739FCD24F3868A0800120E0800096EF
:10FFF00029003C31684604F0FBFB0120FEF72BFC96
:020000040002F8
:10000000296C00BF16A0FEF7E5FC0020FEF723FCDC
:100010000120FEF720FC396889B200BF16A0FEF768
:10002000D9FC0020FEF717FC002000F081F8280022
:100030004430FEF7F3FA0120FEF70DFC16A0FEF7A0
:10004000C9FC0020FEF707FCF7BD00003E207073DE
:100050004C6F672069643A2523780D0A0000000080
:100060003E207073576F726B446174612069643A0B
:100070002523780D0A0000003E205053544F524172
:1000800047455F464C4153485F504147455F5349A0
:100090005A453A25640D0A003E20576F726B446141
:1000A000746120496E69742E0D0A000010B59F4CD2
:1000B000342120003C3004F0B2FC08212000343010
:1000C00004F0ADFCC82001F054FDFFF765FF10BD42
:1000D00010B5964C3222A11C0020FEF78DF920802D
:1000E00000233422210020003C3004F007FC0028CB
:1000F0000ED1042000F011F90120FEF7ACFB00BF87
:1001000004A0FEF767FC0020FEF7A5FB012010BD50
:10011000002010BD3E20576F726B20506172616DE0
:1001200020557064617465204F4B2E0D0A0000004D
:1001300070B5002808D00120FEF78DFB31A0FEF736
:1001400049FC0020FEF787FB784C00233422210075
:100150003C31200004F016FC00284BD165880026B5
:10016000774885420AD100250120FEF774FB00BFC5
:100170002CA0FEF72FFC0020FEF76DFB3222A11C05
:100180000020FEF739F9218888420AD00120FEF7C5
:1001900062FB00BF29A0FEF71DFC0020FEF75BFB01
:1001A00006E02800022D03DA012D1BD0002D21D1FD
:1001B000012060806348606026811C2060810F22DE
:1001C00025A120000C30FCF745FB5F48A0853C20B2
:1001D000E0852663FFF77CFF0120FEF73CFB00BFB4
:1001E00021A002E0FEF737FB26A0FEF7F3FB00207C
:1001F000FEF731FB70BD00000400FA050CED00E0D5
:10020000350302003E20576F726B204461746120F9
:10021000466163746F72792052657365742E0D0A9E
:10022000000000003E20576F726B20446174612013
:100230004E6F7420496E69742E0D0A003E20576F70
:10024000726B204461746120435243204661756C97
:10025000742E0D0A000000003132302E32352E325D
:1002600030312E32303100003E20576F726B2076D5
:10027000657273696F6E312064656661756C742E8A
:100280000D0A00003E20576F726B2064617461207C
:100290006C6F6164204F4B2E0D0A0000F0B585B0E5
:1002A0000500002669460E72204F3C8E01F0FDFAD3
:1002B000B54988422DD3641CA4B2A020C00084425A
:1002C00000DB002401F0F1FA0090019503AA21005F
:1002D0003800343004F0E6FA00230822694603A807
:1002E00004F00CFB002814D1042000F016F80120C3
:1002F00069460872FEF7AFFA019B009A210000BF21
:10030000A6A0FEF767FB0020FEF7A5FA3C86FFF7E4
:10031000DFFE6846007A05B0F0BD9C4908609C4845
:1003200048604A688242FCD048687047082500202F
:1003300010000010954803688B4200D1426070475E
:10034000FFFF000000B4C404B326000070B586B0FF
:100350000D1D2E688F4C00BF9CA1300001F03CFEAB
:10036000002829D16868FEF70BF8A16BC0000D18B2
:100370000120FEF770FA6A68296800BF95A0FEF7B1
:1003800029FB0020FEF767FA04A9286801F0A0FA0B
:100390000120FEF760FA04A881780391C1790291E7
:1003A00081790191417900910379C278018800BF78
:1003B00090A0FEF70FFB70E099A1300001F00CFE59
:1003C00000280BD16868FDF7EEFFFFF767FF0120FB
:1003D000FEF741FA95A0FEF7FDFA5EE098A1300025
:1003E00001F0FAFD002807D10120FEF734FA628EF1
:1003F000218E00BF95A04EE09EA1300001F0ECFDE3
:1004000000280DD16868002804D0FDF7B9FF6060AE
:10041000FFF75EFE0120FEF71EFA616898A02AE051
:100420005DA1300001F0D8FD002811D168680028D6
:1004300006D0010020000C3004F03CFBFFF748FE22
:100440000120FEF708FA21000C3100BF91A012E054
:1004500097A1300001F0C0FD00280FD16868002886
:1004600004D0FDF78DFFA085FFF732FE0120FEF7D7
:10047000F2F9A18D90A0FEF7ADFA0EE095A1300043
:1004800001F0AAFD00280CD10120FEF7E4F96289F1
:10049000218900BF91A0FEF79DFA0020FEF7DBF94D
:1004A00029E0002594A1300001F096FD002801D13B
:1004B000258107E092A1300001F08EFD002804D1D3
:1004C0000F202081FFF704FE15E000BF8EA1300051
:1004D00001F082FD002802D1FFF7E8FD0BE000BF2C
:1004E0008CA1300001F078FD002804D16580FFF771
:1004F000EFFDFFF751FD0120FEF7ADF9618800BF68
:1005000086A0FEF767FA0020FEF7A5F90120FEF7A6
:10051000A2F9616885A0FEF75DFA0020FEF79BF95D
:100520000120FEF798F9218984A0FEF753FA0020F4
:10053000FEF791F90120FEF78EF9618984A0FEF79C
:1005400049FA0020FEF787F90120FEF784F9218E91
:1005500083A0FEF73FFA0020FEF77DF90120FEF7A9
:100560007AF9618E83A0FEF735FA0020FEF773F961
:100570000120FEF770F9E18D84A0FEF72BFA002030
:10058000FEF769F906B070BD01A8395A903F002006
:10059000FFFFFF0F08250020697000003E20577202
:1005A0006974655F53746F72654C6F6720696E6420
:1005B00065783A25752C2074696D653A25752C206F
:1005C000726669643A2523782E0D0A0072656164AB
:1005D0006C6F67003E20726561646C6F67207469A0
:1005E0006D653A25752C2072666964A3BA25237857
:1005F0002E0D0A003E2074696D653A202530346462
:100600002D25642D256420253032643A253032644E
:100610003A25303264206461792D2564200D0A006A
:1006200077726974656C6F67000000003E20777216
:100630006974656C6F67204F4B2E0D0A0000000037
:100640006C6F67696E646578000000003E2053742B
:10065000726F65204C6F6F67205265636F72643AEA
:1006600025752C205265706F72743A25752E0D0A0F
:10067000000000006465766963656964000000003D
:100680003E204465766963652049443A25750D0A24
:10069000000000003E204D51545420636F6E6E6583
:1006A0006374207365727665723A25730D0A0000D3
:1006B000706F7274000000003E204D51545420634E
:1006C0006F6E6E65637420706F72743A25750D0AD3
:1006D00000000000636F756E740000003E205374CC
:1006E0006F636B20436F756E743A25752C206D61B6
:1006F000783A25750D0A0000636C65617200000090
:1007000073746F7265000000636C6561726C6F6773
:100710000000000072657365740000003E2076657D
:100720007273696F6E3A25750D0A00003E204465AC
:100730007669636549443A25750D0A003E20537475
:100740006F636B436F756E743A25750D0A00000078
:100750003E2053746F636B4D61783A25750D0A0026
:100760003E2053746F72654C6F675F496E3A257512
:100770000D0A00003E2053746F72654C6F675F5224
:1007800065706F72743A25750D0A00003E204D5158
:1007900054545F50696E67496E76743A25750D0A38
:1007A00000000000B44803210181002141818181C2
:1007B0000100183141607047F8B5AF4C6089010005
:1007C00031A5A289521A33D06268238919401423B3
:1007D000594351180E784F1C401C608101F065F898
:1007E00060610120FEF737F861692800FEF7F2F832
:1007F0000020FEF730F83100380000F0B3F900288F
:100800000AD10120FEF727F825A0FEF7E3F8002023
:10081000FEF721F804F012FB0120FEF71CF801F0AE
:1008200044F86169411A00BF27A0FEF7D3F826E01B
:10083000BB4E3078002802D101F037F86061307883
:1008400000281FD001F031F86169401AFF212E31D4
:10085000884217D301F029F860610120FDF7FBFF02
:1008600061692800FEF7B6F80020FDF7F4FF04F0F8
:10087000E5FA0120FDF7EFFF1EA0FEF7ABF8002020
:10088000FDF7E9FFF1BD00003E20417574684F4B54
:100890005F545320253032752E730D0A000000007E
:1008A0003E20496E76616C696420424C4520666F3B
:1008B000726D61742C20424C4520646973636F6EC5
:1008C0006E6563742E0D0A003E205254435F5265DC
:1008D0006164436F756E742829202D2041757468FA
:1008E0004F4B5F5453203D20253032752E730D0A37
:1008F000000000003E2054696D656F7574206469C6
:1009000073636F6E6E65637465642E0D0A0000007C
:10091000834A1278002A00D1704700B583B0009056
:100920006846012901D155210AE00E2901D1AA21E9
:1009300006E00D2901D1AB2102E00F2901D1AC2144
:100940000171052269463B2000F01CF807BD70B517
:10095000494CA58923896689AE1BB34211DB6668C1
:100960002B4014225343F2181170531C0A0001004B
:100970001800FBF75BFF6D1CA581A5480168491CA9
:10098000016070BDF0B591B006000F0015000120A8
:10099000FDF761FF2A00310038A0FEF71BF80020A8
:1009A000FDF759FF6C4600202070B0000121014383
:1009B00061700120FDF74FFF617800BF36A0FEF7A0
:1009C00009F80020FDF747FF00F096F80422010027
:1009D000A01CFBF72BFF8F4E3088401C3080A0718D
:1009E0000004000EE071002F09D0280007D00D2D63
:1009F00005DA2A00390020000830FBF717FF083518
:100A0000EAB2122A00DB112205AD280010300021C5
:100A1000002300278AC00160521E611C280010308C
:100A2000FBF704FF301D05A9CCC8CCC105A84DDFDC
:100A3000102229002031601CFBF7F8FE0120FDF791
:100A40000AFF21781EA0FDF7C5FF0020FDF703FF78
:100A50000120FDF700FF61781EA0FDF7BBFF00201D
:100A6000FDF7F9FE1121684604F0F0F968480168C5
:100A7000491C016011B0F0BD143C00203E205365BC
:100A80006E645F436D643A2523782C206C656E3A62
:100A900025750D0A000000003E206265666F7265D4
:100AA00020656E6372797074696F6E3A2062756644
:100AB0005B315D203D20305825780D0A0000000094
:100AC0003E206275665B305D203D20307825780DD4
