:020000040001F9
:10B0000088290020A58502006B1A0200C31A0200DD
:10B010000000000000000000000000000000000030
:10B020000000000000000000000000006B2A020089
:10B0300000000000000000006F2A0200C75102005B
:10B04000FF510200B75B02005BE801009F84020031
:10B050007F6B02000000000011830200877A02006B
:10B0600077850200858502005F8602006B860200FC
:10B070009B860200BB860200E5860200E78602008E
:10B0800089180200DFE00100E9860200EB86020079
:10B09000F7E00100ED860200456A0200EF8602003B
:10B0A000F1860200F38602000000000000000000AC
:10B0B0000000000000000000000000000000000090
:10B0C000E022520080180268914203D34368D218EC
:10B0D000914202D380680028F5D170471848016872
:10B0E00000290ED1802149028160090941600021B7
:10B0F000C943C160016104214161124A11601249D2
:10B1000001600120704730B407230C0008341C4252
:10B1100001D1002304E008240D000835641B2340FE
:10B12000C918D21A8161C260012313434B602823DE
:10B1300089184B6002490969C16130BC7047000041
:10B140005C3E0020803800206859883CF0B587B00C
:10B15000040007200D000835054205D008250E0023
:10B160000836AD1B05404919029111000831014212
:10B1700005D0082115000835491B08401218170092
:10B180000298C018039005460298381AC01A019018
:10B190000326334302984360BD4201D301F0ECFA29
:10B1A0003879C00701D401F0E7FA0198102801D2DC
:10B1B00001F0E2FAA069874208D1E06801994018DD
:10B1C000E060A5610121014369606AE1606987422D
:10B1D00009D1A06801994018A0606561012101436F
:10B1E000696028505DE178680640012E00D0B9E022
:10B1F000072188430590C00820283CD2B9680091F7
:10B20000FE680490B74201D101F0B6FA0098874277
:10B2100001D101F0B1FA7868072188430499C90087
:10B22000884201D001F0A8FA0498C00020180099C3
:10B2300002002832914207D02269914200D289E06F
:10B24000C968B94200D085E000998E4206D12068D5
:10B250000121049A9140884320607DE02830864295
:10B2600005D02069864275D3B068B84272D1CE60ED
:10B270000098B06070E0B8690090FE68BE420CD0E3
:10B28000B8682169884225D3C168B94222D1B16822
:10B29000B9421FD1C660B0601EE0380014300668A5
:10B2A000002E07D1380010300668002E14D001E0BF
:10B2B00008000668310014310A68002AF8D131000C
:10B2C00010310A68002AF3D12169884202D3002193
:10B2D000016001E001F050FA009800283CD0F869C4
:10B2E0008000201898214900401801688F4209D138
:10B2F0000660002E14D160680121FA6991408843EC
:10B30000606029E000982169884207D30069B8424B
:10B31000009801D1066103E0466101E001F02CFADA
:10B32000002E19D02069864214D30099B161396981
:10B33000002906D0814202D331618E6101E001F023
:10B340001BFA7869002807D02169884202D370610E
:10B35000866101E001F010FA05983F1801980599FF
:10B360004018019078680121884378600198014372
:10B370006960019828500198C008202822D20090C6
:10B38000C000271828373E000198102801D201F08C
:10B39000F3F9206800990200CA40D10705D40121C1
:10B3A000009A91400143216007E0B8682169884212
:10B3B00001D3060001E001F0DFF9BD60F560AE6089
:10B3C000EF606EE00198000A01D1002225E08021A3
:10B3D0004902884201D31F221FE0FF21C9434118BF
:10B3E000090C082211408840304A8218120C0423AC
:10B3F0001A4090402E4BC3181B0C022633400E26D9
:10B40000711A891AC91A9840C00B08184100019A8C
:10B41000C01DC240D007C00F0A1890002018982104
:10B4200049004118EA6100206861286163681E00D4
:10B43000D640F60705D401209040184360600D60A7
:10B440001BE009681F2A019B05D019265208B21A71
:10B45000934000E011004A680726B243019EB242C1
:10B4600010D0DA0F92008E1810365B003268002A76
:10B47000F0D12069864212D33560A961ED6003984E
:10B48000A8600EE08A682369994208D39A4206D3DD
:10B49000D560039B8B60AA60E960A86101E001F0C0
:10B4A0006BF90298083007B0F0BD000000F0FFFF14
:10B4B00000C0FFFFF2B586B004008F480068002886
:10B4C00001D1FFF70BFE8C488168069840182F3099
:10B4D000491E88430699814200D3DCE1D821490006
:10B4E00061188968002909D0D8225200A258101882
:10B4F000824200D3CFE1814200D2CCE101F080F959
:10B50000002800D1C7E1009007680021C9438842A4
:10B5100000D1C0E1D82040002058C019D8214900EE
:10B52000605061184968814200D20100D820400073
:10B5300020184160A069002839D12069002802D074
:10B540000099814201D2009820610098D8214900D9
:10B5500061180861D8204000201847610026D820D3
:10B5600040002018C6616448006860620020C04343
:10B57000206220002830C0600146816008314161AE
:10B580000161B61C1030202EF5D3C448844203D18B
:10B59000283F3A00009926E0201F006807218843D1
:10B5A000211808390098C019421A283A1BE0E020F7
:10B5B0004000201800E08068002818D00099026838
:10B5C0004368D2189142F6D1017B09070FD4A169D3
:10B5D000026891420BD3D218914208D2D919416026
:10B5E000E068C219A1692000FFF78DFD3FE10098D6
:10B5F0002169884200D22061E02040002018009993
:10B60000C91900E08068002810D002688A42F9D188
:10B61000017B09070AD4009901604168C91941609A
:10B62000069B00992000FFF791FD35E1A06903908A
:10B63000054629002000FFF743FD0168406808180F
:10B64000059027380026410701D1002003E008219A
:10B65000081A4007400F059908182F3829001031A3
:10B66000884201D2019500E00190019818300290C3
:10B6700004963800283800990831490701D1002183
:10B6800005E00821009A0832891A4907490F401A33
:10B69000009A5118A161E060012202434A60282209
:10B6A0000818426014480069E061019808304007BA
:10B6B00001D001F061F81B20019948600198083021
:10B6C000E02149006118102201F0C4F80098D82147
:10B6D000490061180861D820400020184761D8202F
:10B6E00040002018C66101980830D821490061182F
:10B6F0008861059805E000BF5C3E00200299091DA5
:10B7000002910721029A51600499491C04910299FF
:10B7100008318142F2D30498022801DA01F02CF8B2
:10B720000198A84200D1A2E0411B426801239A433C
:10B73000426001220A436A600160C808202821D2C1
:10B740000090C000271828373E00102901D201F0D0
:10B7500013F8206800990200CA40D10705D40121DE
:10B76000009A91400143216007E0B868216988424E
:10B7700001D3060001E000F0FFFFBD60F560AE60A0
:10B78000EF6074E0080A01D1002228E01A04904218
:10B7900001D31F2223E0FF22D2438218120C082378
:10B7A0001A40009290403E4A8218120C04231A401C
:10B7B00090403C4BC3181B0C02273B4001930E23C7
:10B7C000009FDB1B9A1A019BD21A9840C00B1018DD
:10B7D0004200C01D0B00C340D807C00F12189000D4
:10B7E000201898235B00C0180090EA616E612E61FA
:10B7F00060680300D340DB0707D401219140014377
:10B8000061600098056000981DE0009800681F2A9C
:10B8100001D10A0006E0192352089B1A0A009A4037
:10B8200000E0380043680727BB438B4210D0D30F9A
:10B830009B00C318103352001F68002FF1D12169FB
:10B840008B4212D31D60A861ED600398A8600EE0E2
:10B8500081682269904208D3914206D3CD60039A51
:10B860008260A960E860AE6101E000F085FFE068F9
:10B87000069981420FD2401AE060A169069A8A189F
:10B88000A2610123034353600698032202434A60E6
:10B890000800083000E0002007B0F0BDC4360020EA
:10B8A00000F0FFFF00C0FFFFF2B584B004000020ED
:10B8B000009004984542000A25D080214902884220
:10B8C00001D31F201FE0FF21C9434118090C0822A2
:10B8D00011408840B34A8218120C04231A40904049
:10B8E000114BC3181B0C022633400E26711A891AFD
:10B8F000C91A9840C00B08184100049AC01DC240E4
:10B90000D007C00F081881006118982252008B5888
:10B91000002B28D01F28049A03D019214608891B20
:10B920008A40002103E000BF00C0FFFF52005E68B4
:10B930000727BE43049FF61BAE4202D20093350098
:10B940000CD05E69D70FBF00DB191B69002E02D037
:10B950009E4200D03100002BE8D10B00002B3FD1DC
:10B96000009900293ED1012101228240500043422A
:10B97000034362681A4000D178E150421040401EF3
:10B98000020B10231A40D040430908263340D84008
:10B99000860804273E400296F040460802273E40B3
:10B9A0000196F04046083140D218029BD218019B04
:10B9B000D2185218C8401018800020189821490049
:10B9C00043580DE003005868072188430499401A42
:10B9D000A84201D20500009318690028F2D15B69E2
:10B9E000002BF0D10098002800D13FE1A068049915
:10B9F000401A854200D339E1009E2069864200D278
:10BA000032E1681802900098406807218843029943
:10BA1000884201D000F0B0FE009804994718BE4259
:10BA200000D321E1806901900098C66886420DD05C
:10BA300080682169884225D3C168009A914221D14A
:10BA4000B16891421ED1C660B0601DE01430066836
:10BA5000002E07D1009810300668002E14D001E0A7
:10BA600008000668310014310A68002AF8D1310054
:10BA700010310A68002AF3D12169884202D30021DB
:10BA8000016001E000F078FE0198002843D00098A2
:10BA9000C069800020189821490040180099026868
:10BAA00091420AD10660002E16D160680121009AE9
:10BAB000D2699140884360602DE0019821698842F5
:10BAC00008D3006900998842019801D1066103E01A
:10BAD000466101E000F050FE002E1CD02069864235
:10BAE00017D30198B06100980069002807D0216938
:10BAF000884202D33061866101E000F03DFE00988B
:10BB00004069002807D02169884202D370618661AC
:10BB100001E000F031FE03200121102D0AD2029A2B
:10BB20001043009A50600098029A801842681143AE
:10BB3000416096E0049A1043009A50600120284327
:10BB400078607D51E808202819D2C200A61828364E
:10BB5000350022681300C3400B4003D181401143DC
:10BB6000216007E0B0682169884201D3050001E047
:10BB700000F002FEB760EF60BD60FE6071E0280A71
:10BB800001D100222AE00A04904201D31F2225E0BD
:10BB9000FF22D2438218120C08231A4001929040CF
:10BBA000004A01E000F0FFFF8218120C04231A4043
:10BBB0009040304BC3181B0C0226334002930E23D7
:10BBC000019E9B1B9A1A029BD21A9840C00B101818
:10BBD0004200C01D2B00C3400B40D218900020181B
:10BBE00098235B00C018FA6100237B613B616368A6
:10BBF0001E00D6400E4004D1914019436160076099
:10BC00001CE000681F2A01D1290006E01921520812
:10BC10008A1A2900914000E01000426807239A43E5
:10BC2000AA420FD0CA0F92008318103349001A6835
:10BC3000002AF1D121698B4211D31F60B861FF60E6
:10BC4000BF600EE081682269904208D3914206D31A
:10BC5000CF608760B960F8600020B86101E000F053
:10BC60008BFD0098083002E000F086FD002005B052
:10BC7000F0BD000000C0FFFFF2B586B004006168AF
:10BC800048420840401E010B10221140C8404209A2
:10BC900008231A40D040830804252B40D84045088B
:10BCA00002263540E8408607F60F8918C918491959
:10BCB0008919F04008188000201898214900405840
:10BCC0000700416807229143069A8D1A09E008008F
:10BCD000416807229143069A891AA94201D20D00B0
:10BCE000070001690029F2D140690028F0D12069DC
:10BCF000874200D2D3E0A8180190786807218843D2
:10BD00000199884201D000F037FD06983818049058
:10BD1000874200D3C3E0B8690090FE68BE420CD0F1
:10BD2000B8682169884225D3C168B94222D1B16877
:10BD3000B9421FD1C660B0601EE0380014300668FA
:10BD4000002E07D1380010300668002E14D001E014
:10BD500008000668310014310A68002AF8D1310061
:10BD600010310A68002AF3D12169884202D30021E8
:10BD7000016001E000F000FD009800283DD0F86966
:10BD80008000201898214900401801688F4209D18D
:10BD90000660002E14D160680121FA699140884341
:10BDA00060602AE000982169884207D30069B842A0
:10BDB000009801D1066103E0466101E000F0DCFC7F
:10BDC000002E1AD02069864215D30098B0613869D8
:10BDD000002807D02169884202D33061866101E0E2
:10BDE00000F0CAFC7869002807D02169884202D394
:10BDF0007061866101E000F0BFFC0320102D09D2C4
:10BE000001990843786001983818416801220A4373
:10BE1000426041E006990843786001202843049974
:10BE2000486004984551A0680090C608202E01D3B0
:10BE300000F0A2FC009800282BD0606903900196C6
:10BE4000F00020182830029006460098102801D2F1
:10BE500000F092FC206801990200CA40D10705D485
:10BE60000121019A91400143216008E00298806815
:10BE70002169884201D3060001E000F07DFC0398AF
:10BE8000029988600398F06003988660029803998D
:10BE9000C860A560049860613800083002E000F0D6
:10BEA0006BFC002007B0F0BDF0B587B0040000BF08
:10BEB00000BFBA4DF52C00D325E10B2C01D2102484
:10BEC00002E00B3407208443E008009028680099C2
:10BED000C840032738424DD00126012282438818EA
:10BEE0000090C00028182830029084680098C00094
:10BEF00003906068072188430399884201D000F0CD
:10BF00003BFCA06801900298844201D100F034FC0F
:10BF10000198844201D100F02FFC6068072188431A
:10BF20000399884201D000F027FC029801998842C9
:10BF300006D12968009A01209040814329600FE0D2
:10BF400008462969884209D3C068A04206D10198F1
:10BF50000299886002980199C86001E000F00CFC29
:10BF60000398074367600398201841680E434660B2
:10BF7000260007E1A968A14200D3D7E0002800D13C
:10BF8000B7E00126009901228A405100009A9040B2
:10BF90004A420A43024051421140491E080B1022F6
:10BFA0001040C1404A0908231A400092D1408A0833
:10BFB00004231A400192D1404A0802231A400292F7
:10BFC000D1404A083240009BC018019BC018029B18
:10BFD000C0188018D14040180390C000281828309D
:10BFE0000090806804900398C00002900498406814
:10BFF000072188430299884201D000F0BDFB0498D4
:10C000008068019004980099884201D100F0B4FB47
:10C0100004980199884201D100F0AEFB0498406871
:10C02000072188430299884201D000F0A5FB0098BF
:10C030000199884206D12968039A012090408143E2
:10C04000296010E00846296988420AD3C06804992B
:10C05000884206D101980099886000980199C860CB
:10C0600001E000F089FB0298001B0390274304982D
:10C07000476004980019059003983043059948607B
:10C08000039805990850A8680090C408202C01D393
:10C0900000F072FB0098002825D068690290019496
:10C0A000E0002F1828373C000098102801D200F03B
:10C0B00063FB286801990200CA40324003D18E40D8
:10C0C00006432E6007E0B8682969884201D304005E
:10C0D00001E000F051FB0298B8600298E06002981D
:10C0E00084600298C7600398A86005986861049E00
:10C0F00048E06868002836D021002800FFF7BCFD22
:10C10000060013D045E03F20C043844202D3002400
:10C11000E4430BE00B34072084436868002805D013
:10C1200021002800FFF7C0FB060032D1A968A14218
:10C1300019D30A1B686901260327102A08D301199D
:10C140006961AA6016434E608A502743476008E041
:10C150000022AA606A610F43476041184A6816438B
:10C160004E6006000EE0E86884420DD2001BE860D5
:10C17000A9690A19AA6101230343536003202043DC
:10C1800048600E00083604E021002800FFF792F90D
:10C19000060000BF00BF300007B0F0BDC43600206D
:10C1A000002800D17047F0B585B00838050000BF01
:10C1B00000BF474C2069854200D2D2E26B68032160
:10C1C00003221A40012A00D1CBE2DE08F600AA19A8
:10C1D000029201273B4241D12A680B4000D1C2E2C2
:10C1E000B6185342ED18854200D2BAE263699D4207
:10C1F00000D102E1D108202900D380E0A868019095
:10C20000E868009003910098854201D100F0B4FAEB
:10C210000198854201D100F0AFFA68680721884390
:10C220000399C900884201D000F0A6FA0398C00023
:10C230002018019902002832914205D022699142CA
:10C240005AD3C968A94257D10099019A914243D162
:10C250002168039A01209040814321600298854221
:10C2600000D37EE24068384200D17AE2810700D5EF
:10C27000C5E10299A269914200D0CEE0E06881193F
:10C28000E160A5610F436F606069854202D10020C3
:10C290006061A060E069884200D364E20D480068F4
:10C2A000002801D1FEF71AFFA169002900D15AE246
:10C2B000E068292802D32000FEF702FFE069E16868
:10C2C000884200D34FE20020C043E0614BE200BF50
:10C2D000C43600205C3E00202830814206D008464B
:10C2E0002169884208D38068A84205D10098D060AF
:10C2F000019800998860B1E700F03EFAAEE7A969BD
:10C300000091EA68AA420DD0A9680192814228D31F
:10C31000C868A84225D19068A84222D1CA60019875
:10C32000816020E0290014310A680192002A09D1B5
:10C33000290010310A680192002A14D002E011008D
:10C340000A680192019A14321368002BF7D1019AFE
:10C3500010321368002BF2D1814202D30020086012
:10C3600001E000F009FA0098002800D176E7E869BA
:10C370008000201898214900401801688D420AD198
:10C3800001990160002915D16168EA690120904096
:10C390008143616062E700982169884208D300699F
:10C3A000A8420198009901D1086103E0486101E0C9
:10C3B00000F0E2F90198002800D14FE720690199C7
:10C3C000814299D30099019A91612969002908D085
:10C3D000814204D3019801610198886101E000F075
:10C3E000CBF96869002800D138E72169884283D3F6
:10C3F000019948610199816130E7029840680140E4
:10C40000032900D02AE7A66002984068B843029941
:10C41000486037436F60AE51A5E16269914207D130
:10C42000A0688019A060656107436F6028509AE199
:10C43000072188433618C00820284BD20299896802
:10C4400000910299C968039101900298039988426A
:10C4500001D100F091F902980099884201D100F0D1
:10C460008BF902984068072188430199C9008842E6
:10C4700001D000F081F90198C00020180099020055
:10C480002832914208D02269914200D2ACE0C968BA
:10C49000029A914200D0A7E00399009A914206D1F6
:10C4A0002168019A01209040814321609EE028305C
:10C4B000814209D008462169884200D294E0806810
:10C4C0000299884200D08FE00398D06000980399C9
:10C4D00088608BE00298806901900298C068029998
:10C4E000884212D0029989680090206981422CD339
:10C4F000C868029A904228D100988068904224D15E
:10C500000098C8600098816021E0029814300168AA
:10C510000091002909D1029810300168009100298A
:10C5200015D002E0080001680091009914310A68F2
:10C53000002AF7D1009910310A68002AF2D1216946
:10C54000884202D30021016001E000F015F9019852
:10C5500000284BD00298C06980002018982149001B
:10C5600040180299026891420BD10099016000299C
:10C5700017D161680298C2690120904081436160CF
:10C5800034E001982169884209D300690299884200
:10C590000098019901D1086103E0486101E000F0D1
:10C5A000EBF80098002821D02069009981421BD324
:10C5B0000199009A916102990969002908D0814284
:10C5C00004D3009801610098886101E000F0D4F87C
:10C5D00002984069002809D02169884204D3009953
:10C5E00048610099816101E000F0C6F80120304304
:10C5F0006860AE516069854208D1A660B3E0B84377
:10C6000002994860012030436860AE51F00820284C
:10C6100025D20090C0002018283001900290102EE2
:10C6200001D200F0A9F8206800990200CA403A40FF
:10C6300003D18F400743276008E001988068216993
:10C64000884201D3029001E000F096F801988560DD
:10C650000298C5600298A8600198E86083E0300AFB
:10C6600001D1002227E03904884201D31F2222E0B1
:10C67000FF21C9434118090C08221140009188404C
:10C680003B494118090C0422114001918840394965
:10C690004118090C022211400E22009BD21A019B64
:10C6A000D21A521A8840C00B10184100C01D320027
:10C6B000C2403A408A18900020189821490040183A
:10C6C0000090EA6100206861286161680B00D34036
:10C6D0003B4007D197400F43676000980560009882
:10C6E000A8611EE0009909681F2A01D1320006E006
:10C6F000192352089B1A32009A4000E039004B6817
:10C700000727BB43B3420FD0D30F9B00CB18103386
:10C7100052001F68002FF1D12069834210D31D60A1
:10C72000A961ED60AD600DE08A682369994207D385
:10C730009A4205D3D5608D60AA60E960A86101E0E6
:10C7400000F01AF8206A401E20620CD1E42040005C
:10C75000205800E080680028FCD10020C0432062FF
:10C7600001E000F009F800BF00BF05B0F0BD000017
:10C7700000F0FFFF00C0FFFF80B5012000F084F84B
:10C7800001BDF8B401684218436859085118009176
:10C790008168DB0701D54B46C918009B9A4202D13C
:10C7A0000C30F2BC70471378521C032403261E4041
:10C7B00002D11678F61C521C1D090F2D07D11578D1
:10C7C0000F35521C03E01778521C0F70491C761E5F
:10C7D000F9D1002DE1D01678521C9B081C40032C87
:10C7E00001D11478521C2302F3185C420B19AD1CC2
:10C7F000D3D01C785B1C0C70491C6D1ECDD0F8E7A3
:10C8000007490868002801D0002070470548072222
:10C810009043086004499143091A0160704700BFC2
:10C82000D83E00208F290020882D0020124207D0FA
:10C830008B0706D00B78491C0370401C521EF7D89A
:10C840007047830706D00B78491C0370401C521EAA
:10C85000F9D1704770B4103A03D378C9103A78C050
:10C86000FBD2530701D318C918C001D508C908C0A5
:10C87000D20704D30B880380891C801C002A01D5B1
:10C880000B78037070BC704780B500BF00BF024AD0
:10C8900011001820ABBEFBE72600020080B5224A3B
:10C8A000012100BF29A001F067FC204A012100BF3F
:10C8B00027A001F061FC1E4A012100BF25A001F064
:10C8C0005BFC1C4A012100BF23A001F055FC1A4A61
:10C8D000012100BF21A001F04FFC184A012100BF37
:10C8E0001FA001F049FC164A002100BF1DA001F065
:10C8F00043FC144A002100BF1BA001F03DFC124A7A
:10C90000002100BF19A001F037FCB84801F06AFE11
:10C91000002001F062FF00BF15A001F0D3FF01204D
:10C9200001F05BFF01BD000009D10100FDD801004D
:10C93000F1CF010081D30100A5D5010095D70100F9
:10C9400035D2010095D20100F1D20100C838002093
:10C9500088390020E8380020283900204839002094
:10C9600068390020503D00207C3D0020083900201F
:10C970003E2044657669636520636F6E74726F6CE8
:10C9800020696E69742E0D0A00000000F8B5984CFD
:10C99000A07A984980221203012801D10A6002E09E
:10C9A000002800D14A60944E607901280DD1022000
:10C9B00002F082F8A062002001F00FFFA16A3000AF
:10C9C00001F080FF012001F008FF607902280DD1FD
:10C9D000012002F071F8A062002001F0FEFEA16AC1
:10C9E000300001F06FFF012001F0F7FE02276078B0
:10C9F00001281CD16770606A02F0BAFEC821484362
:10CA0000FA2189004218530CD203480800218018EB
:10CA10005941FA229200002302F0B2FE01000022E6
:10CA200020006C3001F0E4FB606A02F085F8734886
:10CA300001680026002903D0491E0160012515E088
:10CA400001F0C2FF032801D102250FE001F0BCFF75
:10CA5000042801D1032509E002F000FF002801D1DC
:10CA6000042503E0E07A012800D00025644FE17A34
:10CA7000E8B288421BD0E5726249EDB2012D06D0C2
:10CA800015D3032D0BD006D3042D0BD00FE00322BA
:10CA90003221322009E03A00FA20C00005E03A00D5
:10CAA000C82002E03A00BA49642000F053FA207826
:10CAB000B84D227B904223D02073401E0B280ED805
:10CAC00001A1095C8F4400BF103A400C44489EA469
:10CAD000A8ACB0B84CA050E02670A06A00285BD18A
:10CAE00050A000F068FA2889C019288103F0FCF8EA
:10CAF000217BA06A03F018FD217BA06A04F06AF88C
:10CB00004AE000BF4FA038E055A036E0A24834E02C
:10CB100059A000F050FA217BA06A03F005FD217BAB
:10CB2000A06A04F057F82670A06A002834D028893B
:10CB3000401C2881002001F050FE00BF56A001F0EB
:10CB4000C1FE012001F049FE03F0CEF804F0DDFB48
:10CB50000200217BA06A04F085F800281CD1A06A9D
:10CB600003F0AAF918E000BF53A006E059A004E0C2
:10CB7000BD4802E0BD4800E05DA000F01CFA0AE0FC
:10CB8000BB4800F018FA217BA06A03F0CDFC217BA2
:10CB9000A06A04F01FF82670688E298E884223D080
:10CBA00002F05CFE00281FD06C8E641CA4B2A02092
:10CBB000C000844200DB0024002001F00EFE2100B2
:10CBC00051A001F07FFE012001F007FEE04840681F
:10CBD000E100401802680621406804F043F800288C
:10CBE00002D06C8603F080F8F1BD00003C1F0020ED
:10CBF0009C38002008050050C07E0200B83E00208E
:10CC0000FFFF0000B80B000052414D3A53746172AF
:10CC1000744F7574707574556E6272656C6C612EAC
:10CC20006D70330052414D3A4F7574707574556E86
:10CC30006272656C6C61537563636573732E6D709E
:10CC40003300000052414D3A54616B65546865559C
:10CC50006E6272656C6C61536F6F6E2E6D70330017
:10CC600052414D3A486176654E6F556E6272656C01
:10CC70006C612E6D7033000052414D3A496E7075F3
:10CC800074556E6272656C6C615375636365737322
:10CC90002E6D7033000000003E20634A534F4E203B
:10CCA000726570617920756D6272656C6C6120735C
:10CCB00074617475730D0A0052414D3A446F4E6FA2
:10CCC000744F63636C7573696F6E446F6F722E6D12
:10CCD0007033000052414D3A496E707574556E6262
:10CCE00072656C6C61536F6F6E2E6D703300000057
:10CCF00052414D3A526573746172744F7570757418
:10CD00002E6D7033000000003E205265706F72740B
:10CD10002048697374726F793A25752E0D0A0000E8
:10CD200070B5AF4C20002C3001F08EFA0125A572B1
:10CD30000020E083502004F04CFC6571032015496D
:10CD40000881A84EB068800C05400BD11E226421DA
:10CD5000642000F00CF90E202070002001F03DFD51
:10CD60000EA0ABE0002001F038FD00BF12A001F0E2
:10CD7000A9FD012001F031FD8020C00130600022BA
:10CD8000A421490020002C3001F032FA70BD0000CF
:10CD90008813000008250020D47E02003E20426F48
:10CDA00072726F775F416374696F6E2049522053CE
:10CDB0007475636B2E0D0A003E20426F72726F779E
:10CDC0005F416374696F6E204E4F542073747563B6
:10CDD0006B210D0A0000000070B50126804C6671C1
:10CDE00020002C3001F030FAA6720020E0835020A1
:10CDF00004F0EFFBB6480925058140890A280BDAC3
:10CE00000522FA218900C82000F0B1F82570002021
:10CE100001F0E3FC17A010E072488168890C0E4015
:10CE20000CD11E226421642000F0A1F80E20207095
:10CE3000002001F0D2FC00BF14A03FE005212170CA
:10CE40008021C9010160002001F0C7FC16A001F09B
:10CE500039FD012001F0C1FC00229E4920008C30E8
:10CE600001F0C6F970BD0000F07E0200087F0200EC
:10CE7000287F02003E2052657061795F41637469CA
:10CE80006F6E2046756C6C2E0D0A00003E205265B8
:10CE90007061795F416374696F6E204952205374E9
:10CEA00075636B2E0D0A00003E2052657061795F3C
:10CEB000416374696F6E0D0A0000000001F002FD0D
:10CEC000012001F08AFC70BD80B5002001F085FCD6
:10CED00005A001F0F7FC012001F07FFC00227D4954
:10CEE000C74801F085F901BD3E204D6F766520668B
:10CEF0006F727761726420616374696F6E0D0A00EE
:10CF000080B5002001F069FC05A001F0DBFC0120E8
:10CF100001F063FC00226F49BA4801F069F901BDD4
:10CF20003E204D6F7665206261636B20616374699A
:10CF30006F6E0D0A0000000080B58021C901B24A61
:10CF400011600021264AD18304F00BFC01BD0000D2
:10CF50003C250020F8B505000F001600AB4C200062
:10CF60000C3001F071F95C48802189010BE0F8B5C3
:10CF700005000F001600A64C20000C3001F064F9EB
:10CF800018488021C90141600022E2802272258078
:10CF90006780A680016001202072E803FA21490021
:10CFA0004018490004F019FC0100002220000C3058
:10CFB00001F01EF9F1BD38B50500094C20006C30B8
:10CFC00001F042F98020800206490860002060706C
:10CFD000656200223F4920006C3001F009F931BD43
:10CFE0009C3800200805005080B504F083FC01BD8A
:10CFF000F8B50127384DA64C207A002805D138070E
:10D000002860C008686027726772A8682100EC3148
:10D010000091800938400BD1607A012808D10220A4
:10D0200004F09FFBA77100222A49009801F0E0F864
:10D03000E07B401C0026C0B2642803DB607B401C00
:10D0400060730020E073607B002810D0667304F0EA
:10D0500051FC002001F0C1FB20A001F033FC0120B5
:10D0600001F0BBFBA07B401CA07302202070A07BC2
:10D0700003282BDB002001F0B0FB00BF1BA001F058
:10D0800021FC012001F0A9FB78062860C00068603F
:10D09000667266718000286040086860A868800A2F
:10D0A000384002D1042004F05CFBA868C0090740A6
:10D0B0000CD1607A002809D1022004F052FB200034
:10D0C0004C3001F0C1F8009801F0BEF8F1BD00004D
:10D0D00008250020CD0C0000080500503E20C7EBBD
:10D0E000BEA1BFECC8A1C9A10D0A00003E20B3F645
:10D0F000C9A1CAA7B0DCA3ACC3BBD3D0BCB0CAB172
:10D10000C8A1C9A10D0A0000F8B50127964D604CD1
:10D11000A078002804D17807286040006860A770D4
:10D12000A868000A384002D1042004F01AFBE07815
:10D13000A16A002907D1002810D1F805286040080D
:10D140006860E7700AE0012808D1A868000E38403E
:10D1500004D1012004F005FB04202070E08B0B2893
:10D160001BDBA868400D384017D00522FA21490082
:10D170004800FFF7FCFE20002C3001F065F801208C
:10D18000FFF7DAFE0D202070002001F026FB774823
:10D1900001F098FB012001F020FB0026E08B6528C0
:10D1A00018DBA868000E074014D1A06A002811D02F
:10D1B000E6830120FFF7C0FE207804280AD1FFF79C
:10D1C00083FE002001F009FB12A001F07BFB01208F
:10D1D00001F003FBE08B411CE183654988420EDBD3
:10D1E000E6830120FFF7A8FE0F202070002001F049
:10D1F000F4FA604801F066FB012001F0EEFAF1BD9F
:10D20000E8380020483900200C050050443D00203B
:10D21000703D00203E20496E204D6F76655F466F61
:10D2200072776172645F416374696F6E28290D0AB9
:10D2300000000000F8B500224F4CE0884F498842BA
:10D2400000D1E280E388A1888B4220D2464DFA21AA
:10D25000890048088026B601277A002F09D06E6021
:10D2600022725B1CE380A2889BB293420FD2628839
:10D2700003E02E60012222722288D203101804F0EB
:10D28000ACFA0100002220000C3000F0B1FFF1BD2B
:10D290009C380020F8B500228B4CE0883749884242
:10D2A00000D1E280E388A1888B4220D22E4DFA2162
:10D2B000890048088026F601277A002F09D06E6081
:10D2C00022725B1CE380A2889BB293420FD26288D9
:10D2D00003E02E60012222722288D203101804F08B
:10D2E0007CFA0100002220000C3000F081FFF1BD2B
:10D2F000764841780A0002D1012141707047022925
:10D3000005D1002141708020800298490860704753
:10D31000F1B588B010001D00052705266C467E2259
:10D3200022701B22627008AA1278A270E170257127
:10D33000002807D0290005D02A000100601DFFF752
:10D3400075FA6E1DF6B23100684601F024F86119D5
:10D350004871874C2760761CF1B2684601F06CFA80
:10D360000F20206009B0F0BD08050050E4D4010092
:10D370007017000014D50100443D0020FFFF00009D
:10D38000F8B5524C2000EC3000F05EFF20002C304D
:10D3900000F05AFF032077490881A06A0125764EE4
:10D3A000002808D0E179002905D1A905316049009C
:10D3B0007160E5712574218C0B290CDBB168090EB5
:10D3C0002940084307D1207C002804D0012004F024
:10D3D000C8F9E57125710027A06A002802D1E5711E
:10D3E000257102E02079012857D105202070A0780E
:10D3F000002804D16807306040007060A570B068F4
:10D40000C0050FD4607C00280CD101F0E6F900BF04
:10D410002FA001F057FA012001F0DFF9042004F0F9
:10D42000A0F96574208C0B281CDBB068400D2840E7
:10D4300018D00522FA2149004800FFF798FD200086
:10D440002C3000F001FF0120FFF776FD0D20207049
:10D45000002001F0C2F900BF22A001F033FA012040
:10D4600001F0BBF9208C332817DBB068000E0540B3
:10D4700013D1278420002C3000F0E6FE2078052808
:10D480000BD1002001F0A9F91BA001F01BFA01202B
:10D4900001F0A3F9FFF734FD6774208C411C21844F
:10D4A000B44988420EDB27840120FFF745FD0F2099
:10D4B0002070002001F091F916A001F003FA01207C
:10D4C00001F08BF9F1BD0000703D00209C38002078
:10D4D0003E20B9D8B1D5BFAAB9D8C3C5B5E7BBFA04
:10D4E0000D0A00003E204D6F746F72206973205347
:10D4F0007475636B2E0D0A003E204D6F746F7220A1
:10D5000052756E6E696E6720666F72776172652EF6
:10D510000D0A00003E204D6F746F722052756E6EC2
:10D52000696E672054696D656F75742E0D0A000071
:10D5300010B51148802149030160090A41608E4CF1
:10D540000120A07202206071002001F046F900BFA6
:10D550000AA001F0B7F9012001F03FF90022CD49FE
:10D560002000CC3000F044FE10BD00000C0500503F
:10D570000C25004008250020080500503E20C7EB80
:10D58000BDABC9A1D5DBB5FEBAC3BAF3C9A1CDB74E
:10D59000CFF2C0EFB7C5C8EBBBB9C9A1BFDA0D0A5E
:10D5A00000000000F0B583B0734C207D401C207556
:10D5B000A07D401CA075002001F00FF9A17D00BFE7
:10D5C00045A001F07FF9012001F007F9002001F0EA
:10D5D00004F9E37CA27C217D43A001F073F90120D2
:10D5E00001F0FBF80025207D642803DBA07C401CB3
:10D5F000A0742575A07C00280ED0A57404F07AF9DB
:10D60000002001F0EAF8A44801F05CF9012001F0E3
:10D61000E4F8E07C401CE0742000AC300190200075
:10D620008C30009001279D4EE07C032820DB0020F9
:10D6300001F0D3F833A001F045F9012001F0CDF855
:10D64000E574607D002804D1B80730604008706040
:10D650006775B068800A38400AD1042004F081F868
:10D6600000F072F8009800F0EFFD019800F0ECFD7A
:10D67000A06A00280ED0B068800C38400AD0A07D87
:10D68000322807DB607D002804D1B80730604008ED
:10D6900070606775B06840051DD4607D00281AD0A1
:10D6A000042004F05EF806202070002001F095F8B8
:10D6B0001EA001F007F9012001F08FF800F044F8F6
:10D6C0002575A574E5746575A575009800F0BCFD19
:10D6D000019800F0B9FDF7BD3E20737465703120EC
:10D6E0003D2025640D0A00003E2073746570203DC6
:10D6F0002025642C69203D2025642C6A203D2025AE
:10D70000640D0A003E20BBB9C9A1CAA7B0DCA3AC16
:10D71000C3BBD3D0BCB0CAB1BBB9C9A1A3ACB9D843
:10D72000B1D5B5E7BBFA0D0A000000003E20636CDE
:10D730006F736520616C6C207468652074696D6519
:10D7400069640D0A0000000080B5002001F045F872
:10D750000AA001F0B7F8012001F03FF806480021C7
:10D7600041718170C1710171C17001724172817228
:10D7700001BD0000701700009C3800203E2061743D
:10D780002074686520496E6974466C616728290DAC
:10D790000A000000F8B541488068774C8105C90F40
:10D7A00004D1032003F0DDFF0120E075207E401C42
:10D7B0002076002001F011F8217E00BF38A001F092
:10D7C00081F8012001F009F8A06A002801D00120A9
:10D7D000E0760027207E322818DB002000F0FDFFD5
:10D7E00032A001F06FF8012000F0F7FF0820207050
:10D7F0002776607E401C6076002000F0EEFF617EA0
:10D800002EA001F05FF8012000F0E7FF80256D03F6
:10D810002E0A607E032814DBA07E002811D100F0C0
:10D82000DCFF00BF28A001F04DF8012000F0D5FF7B
:10D830001A48066045600C202070A776E77667716D
:10D8400013E0E07E002810D0207E14280DDB01209C
:10D85000A076002000F0C1FF23A001F033F80120E2
:10D8600000F0BBFF0D48066045600C48806800056D
:10D870000FD4E07D00280CD0032003F072FF0B20B2
:10D8800020706771E775A776E7762000CC3000F04E
:10D89000DBFCF1BDCD0C0000ACD801000805005048
:10D8A0003E2069203D2025640D0A00003E20C7EB84
:10D8B000BEA1BFECBBB9C9A10D0A00003E206A2081
:10D8C0003D2025640D0A00003E20CAAECEE5C3EB24
:10D8D000B5BDA3ACB9CAD5CFA3ACC3BBD3D0BBB97C
:10D8E000C9A10D0A000000003E20BBB9B9CAD5CFBE
:10D8F000C9A1B3C9B9A60D0A0000000070B51E4C3D
:10D90000207F401C2077954DA9680126890C314065
:10D9100031D0A17901292ED1A16A00292BD1C0B221
:10D92000142828DB20004C3000F08EFC20002C3026
:10D9300000F08AFC2670B007286040086860A8687C
:10D94000800A304007D1042003F00BFF6672700696
:10D950002860C0006860A868C00906400BD1607AE2
:10D96000012808D1022003F0FCFEFFF7EDFE2000A5
:10D97000EC3000F069FC70BD9C380020F8B50C1D3F
:10D98000276877A1380004F05FF800280BD100F079
:10D9900024FF744800F096FF012000F01EFF60682D
:10D9A000FFF709FBF1BD7049380004F04DF800287D
:10D9B0000AD100F012FF6D4800F084FF012000F052
:10D9C0000CFFFFF7ADF9F1BD6949380004F03CF8F0
:10D9D00000280AD100F001FF664800F073FF012023
:10D9E00000F0FBFEFFF7F8F9F1BD6349380004F0E1
:10D9F0002BF800280ED100F0F0FE604800F062FF26
:10DA0000012000F0EAFE0023002202210020FFF79F
:10DA10007FFCF1BD5A49380004F016F8002807D100
:10DA200000F0DBFE57480178574800F04BFF91E0CB
:10DA30008026F603494C75005449380004F004F878
:10DA4000002805D12560666000F0C7FE50487FE0E1
:10DA50005049380003F0F8FF002805D126606560C2
:10DA600000F0BBFE4C4873E04C49380003F0ECFF7B
:10DA7000002807D1012003F074FE002000F0ADFE65
:10DA8000474865E04749380003F0DEFF002806D12B
:10DA9000FFF71AFA002000F0A0FE434858E043497F
:10DAA000380003F0D1FF002806D1FFF729FA002043
:10DAB00000F093FE3E484BE03E49380003F0C4FFBF
:10DAC000002809D1002300220221FFF721FC0020B9
:10DAD00000F083FE38483BE03849380003F0B4FFDB
:10DAE000002806D1FFF778F9002000F076FE3448D0
:10DAF0002EE03449380003F0A7FF002806D1FFF7D5
:10DB00000FF9002000F069FE2F4821E02F4938006E
:10DB100003F09AFF002805D12560666000F05DFEE5
:10DB20002B4815E02B49380003F08EFF002802D166
:10DB30002660656009E02849380003F085FF002869
:10DB40000BD1012003F00DFE002000F046FE23481B
:10DB500000F0B8FE012000F040FEF1BD08050050C5
:10DB600074747300407F0200547F02005C7F0200E7
:10DB7000707F0200787F02008C7F0200947F020099
:10DB8000AC7F02009C380020B47F0200C87F0200F6
:10DB9000D07F0200E47F0200EC7F0200FC7F0200E5
:10DBA00004800200148002002480020038800200F9
:10DBB00044800200588002006480020078800200E5
:10DBC0008C800200A8800200BC800200D480020089
:10DBD000E480020000810200248102000C81020026
:10DBE000002805D40121C006C00E81408D48016087
:10DBF0007047002805D40121C006C00E81408A4824
:10DC000001607047002805D40121C006C00E814084
:10DC100086480160704710B5C20018231340FF24E6
:10DC20009C40E2438907090E9940002801D4BB4B70
:10DC300003E0BB4B0007000F08388008800018186D
:10DC400003681A401143016010BD0000401E00BF70
:10DC500000BF00BF00BF00BF00BF00BF00BF00BFCC
:10DC600000BF00BF00BFF1D1704738B580208002EF
:10DC7000AC490860AC488021490201640160AB4CAA
:10DC8000012525602F20FFF7E1FF6560A84C0025E6
:10DC900025612F20FFF7DAFFE57031BDF8B5A44EFE
:10DCA000F568002D38D00024C54800683169401A55
:10DCB00007023F0A286887421CD33F1A241828000D
:10DCC000ED69017C002913D000210174426981694A
:10DCD000F36918000AD010009847002808D000BF48
:10DCE0000EA2FF21623103F0C1FE01E0080090475F
:10DCF000002DDFD1B0787178814206D1401CB07020
:10DD0000C0B2022801D10020B070B0788000301875
:10DD100044611420FFF76DFFF1BD0000443A5C77C9
:10DD20006F726B73706163655C41442D31355C418A
:10DD3000442D31355C6669726D776172655C56336E
:10DD40002E305C6669726D776172655C53444B5C22
:10DD50006C69627261726965735C74696D65725C2D
:10DD60006170705F74696D65722E6300FFB5704AF3
:10DD7000D0680390107869460871002069460B79D5
:10DD80005C1E0C710121002B45D093686C462479F0
:10DD9000E4001B1900931B7817E02C00ED69002D9F
:10DDA00013D0BD42F9D1AC4207D1F669D660002E3E
:10DDB00003D1AF4E3160106111712E68ED69E561DC
:10DDC000002D02D02C68A4192C60009D6D78DCB267
:10DDD000AC42D3D0009C6468DBB218255D43641963
:10DDE0005B1C009EB678DDB2B54200D100232578D9
:10DDF000022D02D0032D07D0E7E764680294D668AD
:10DE000034002500029FCAE7D468002CDDD02074BE
:10DE1000E469D460F8E7D268039B9A4200D00120FD
:10DE200004B0F0BD00E100E000E200E080E200E0CC
:10DE3000FCB53F4AD1680191137800211C00631E94
:10DE4000DBB2002C06D1D068019A904263D0012049
:10DE5000F6BDD46000282FD19468DD0064192578C0
:10DE60006678B542EAD0666818276F43F6196D1CCC
:10DE70002570A778EDB2BD4200D121707468357865
:10DE8000012DE9D1257C002DE6D1B5686560F568E6
:10DE9000A5603569E5607569A5611579002D00D02B
:10DEA000616065681669AE1B3602360ABD4FBE4218
:10DEB00005D2A56875190AE00400E069F1E7166962
:10DEC000751B2D022D0AA668B54202D2751B25606E
:10DED00000E021606160A16001252574E161D668E0
:10DEE000002EB6D037682568AF4203D37D1B35605E
:10DEF000E661AEE700963768AF4205D2ED1B0096AB
:10DF0000F669002E02D0F6E77F1B37602560E661D8
:10DF1000009DEC619EE70020F6BD000000E400E0FB
:10DF20001CED00E080E100E0081301400410014016
:10DF3000C43D0020FEB5BF4FF86800283CD0006803
:10DF400002901F4C2068009038690190BA4D0098EB
:10DF50000199461A2E40F61CF878002812D1B748CD
:10DF600080214902016401601120FFF74BFE11205E
:10DF7000FFF736FE0120B24908602F20FFF766FE4A
:10DF80000120F8700298864200D20600019880199C
:10DF90002840E0632168009A801A2840891A0D40C1
:10DFA000ED1CA8420AD22068E0632F20FFF74EFE46
:10DFB0001120FFF71EFEF7BDFFF757FEF7BD00006B
:10DFC00004150140F0B585B000249A4D28690390EE
:10DFD000E96802916A781100AB789A420FD0491C27
:10DFE000C9B2022900D100218A00AA1852690192FF
:10DFF00080180002000A28610120009001E00194CD
:10E0000000946970FFF7B2FE0600E86800990029E5
:10E010001FD00199009413E0C91A009EF3180093D1
:10E02000002313600190D069D368002B08D0039EB1
:10E03000009FF6193602360A56609360D461019C3F
:10E04000002805D0020013689942E5D2591A1160E0
:10E050000126E8602000FFF7EBFE002801D1002E2A
:10E0600002D00298FFF766FF0020287105B0F0BDCE
:10E070000810014010B54278521C8478D3B2A342F4
:10E0800000D100220478D3B2A34201D1002010BDF8
:10E090000A704168407818225043081810BDF0B546
:10E0A00083B00C0017001E00C00000907E4D01A937
:10E0B000A868009A8018FFF7DDFF002801D104202E
:10E0C000FEBD0121017044605E4909688160C7603E
:10E0D00006610899416168460079A968D6E080B573
:10E0E00072480021016441648164C164016041603F
:10E0F000FFF7D4FD01BD80B5FFF764FF01BDFBB59F
:10E10000150003273D4204D100264A4C002D02D1C0
:10E11000A6600720FEBDFFF7A8FD0298E06127700A
:10E12000A56018350020A168C20089180E704E70D5
:10E130006A4612798A704D606946097918225143FE
:10E140006D18401C0328EEDBE6606670A670142094
:10E15000FFF758FD03211420FFF75DFD1420FFF7A2
:10E160003FFD384D0098686003211120FFF753FDF3
:10E17000286820610020FEBD4B4B9B68002B09D016
:10E18000130001D0002801D1072070470068037CEC
:10E19000002B01D0082070470374417442610020B5
:10E1A00070470000FFFF7F0041480068C205D20DA4
:10E1B0001CD0103AD1001820084052B20321002A86
:10E1C00001D43C4B03E03C4B1207120F083A920873
:10E1D00092009A58C24090090140012902D00329B7
:10E1E00002D003E0002070470120704702207047F2
:10E1F000F8B504000D0017002B488068002808D0EF
:10E20000002C06D0052D01D20720F2BD6069002840
:10E2100001D10820F2BD607C012801D12E0000E070
:10E220000026FFF7C1FF009733002A002100FFF707
:10E2300036FFF2BDC43D0020FFFFFF000413014084
:10E240000010014004150140F0B583B00400164EE3
:10E25000B768002F04D0002C02D06069002801D1DB
:10E260000820FEBD00252574FFF79EFFC00000902A
:10E2700001A93818FFF7FEFE002801D10420FEBDD9
:10E2800002210170446068460079B168009A8918DB
:10E2900048701420FFF7ADFC0020FEBD0749096857
:10E2A0000160002070470000C43D002000110140C3
:10E2B00004ED00E000E400E01CED00E00415014086
:10E2C000401A0002000A106000207047F4B50028D0
:10E2D0001AD0002918D0002A16D0002B14D0002400
:10E2E00001E0641C24B2D51AA5420DDB002501E033
:10E2F0006D1C2DB20619765D4F5DBE42F1D16E1CCC
:10E300009E42F5D10019F2BD0020F2BD01000020AF
:10E31000002900D1704780B5080001F029FA02BD3C
:10E3200070B504000026002C0BD004E00A20464300
:10E33000303D7619641C2578280003F0A5FB0028E1
:10E34000F4D1300070BDF8B505000024002D21D0B7
:10E35000287830280AD16878782801D0582805D143
:10E36000AD1C03E0573F2001C4196D1C2E7830000E
:10E370000FD0370003F088FB002801D0303FF2E7D0
:10E3800030004138062801D2373FECE7613E062EC7
:10E39000E8D32000F2BD020000230020002A00D1B3
:10E3A000704710B51078521C04E014780019C0B200
:10E3B000521C5B1C9BB24C1EA342F6DB10BD00003E
:10E3C00070B5002307A409E0050200120E7846404C
:10E3D0007000205A684080B2491C5B1C9DB2954277
:10E3E000F2D370BD00002110422063308440A5505C
:10E3F000C660E770088129914AA16BB18CC1ADD18B
:10E40000CEE1EFF13112100273325222B552944232
:10E41000F772D662399318837BB35AA3BDD39CC3DA
:10E42000FFF3DEE36224433420040114E664C7747E
:10E43000A44485546AA54BB528850995EEE5CFF52A
:10E44000ACC58DD55336722611163006D776F666D2
:10E450009556B4465BB77AA719973887DFF7FEE77A
:10E460009DD7BCC7C448E5588668A778400861189E
:10E4700002282338CCC9EDD98EE9AFF948896999CA
:10E480000AA92BB9F55AD44AB77A966A711A500A72
:10E49000333A122AFDDBDCCBBFFB9EEB799B588B1A
:10E4A0003BBB1AABA66C877CE44CC55C222C033CBE
:10E4B000600C411CAEED8FFDECCDCDDD2AAD0BBD6A
:10E4C000688D499D977EB66ED55EF44E133E322E12
:10E4D000511E700E9FFFBEEFDDDFFCCF1BBF3AAFBA
:10E4E000599F788F8891A981CAB1EBA10CD12DC118
:10E4F0004EF16FE18010A100C230E32004502540AE
:10E5000046706760B9839893FBA3DAB33DC31CD30D
:10E510007FE35EF3B1029012F322D23235421452FD
:10E5200077625672EAB5CBA5A89589856EF54FE559
:10E530002CD50DC5E234C324A0148104667447644D
:10E5400024540544DBA7FAB79987B8975FE77EF7AD
:10E550001DC73CD7D326F2369106B016576676769D
:10E56000154634564CD96DC90EF92FE9C899E98979
:10E570008AB9ABA94458654806782768C018E108ED
:10E580008238A3287DCB5CDB3FEB1EFBF98BD89B4D
:10E59000BBAB9ABB754A545A376A167AF10AD01A3D
:10E5A000B32A923A2EFD0FED6CDD4DCDAABD8BAD99
:10E5B000E89DC98D267C076C645C454CA23C832C8D
:10E5C000E01CC10C1FEF3EFF5DCF7CDF9BAFBABFED
:10E5D000D98FF89F176E367E554E745E932EB23EDD
:10E5E000D10EF01E002200280ED0016800290BD0A9
:10E5F0002E4A1168002902D1106004E011008A68D7
:10E60000002AFBD18860012210007047F0B593B05A
:10E610000700002025490C68002101AA8300D15081
:10E62000401C1028FADB3878010005D003F031FADD
:10E63000002801D17F1CF6E7012501973E0002E08A
:10E64000009806606D1C01A8A90040180090307861
:10E65000002816D0102D14DA3078010007D003F00E
:10E6600018FA002803D0761CF6E73070761C307854
:10E67000010003D003F00DFA0028F6D0307800280E
:10E68000DED100200099086000E0A468002C0BD0C7
:10E69000012DFADB2168380003F0D6F90028F4D107
:10E6A00001A928006268904713B0F0BDC83E002061
:10E6B00000290BD0002A09D0531E1A4006D1016050
:10E6C000436000218160C1600120704700207047D5
:10E6D00010B50268C36844681C401155C168491CE4
:10E6E000C16010BD8168026843680B40D25C491C60
:10E6F000816010007047C1688068081A7047F8B5DB
:10E7000004000F0015000026002F14D0002D12D099
:10E71000FFF7F1FFA84202D20500002D0BD02068C0
:10E72000A16862680A40805CB855A068401CA0607F
:10E730006D1E761CF1E73000F2BDF8B504000F0045
:10E7400015000026002F17D0002D15D0FFF7D3FF9E
:10E750006168081A401CA84202D20500002D0BD0A7
:10E760002068E16862680A40B95D8154E068401C35
:10E77000E0606D1E761CF1E73000F2BDF8B50700D1
:10E780000E00140040488022920001001031FFF773
:10E790008FFF3E48002101604161C161C1633C4D72
:10E7A0006F61EE60E9666C623A4801210160812286
:10E7B0009200394B1A6081600321022003F082F934
:10E7C00004202860002000F008F800BF38A000F006
:10E7D00079F8012000F001F8F1BD3049002802D09D
:10E7E000012804D070470F208860102002E0042028
:10E7F0008860052008607047294900220A60294A7C
:10E80000106008680028FCD00120704770B5040033
:10E8100000251D4E3000FFF76EFF002804D03000A9
:10E82000FFF760FF20700125280070BD80B51648F5
:10E83000FFF761FF80B202BD10B5194A194C0B04F5
:10E8400009D00023136003782360401C491E13681D
:10E85000002BF4D1FBE7012010BD70B500240B4D57
:10E86000286800280DD02C60074E3000FFF743FFCA
:10E870000D49884205D20D480168C9B23000FFF742
:10E8800027FFEC61EC6370BDB4320020082100402A
:10E890000025004000200040042300400C250040DB
:10E8A0001C2100401C250040FF01000018250040ED
:10E8B0003E205541525420696E69742E2E2E0D0A49
:10E8C000000000000EB400B582B003A900916B46B1
:10E8D00002000121034878440A3003F023F9029929
:10E8E00006B00847A19D000052000A439900114359
:10E8F000009A12020A43019909041143A54A8000B3
:10E900001150704700B583B00021019100910023A0
:10E9100001220121FFF7E8FF07BD00B583B0002207
:10E92000019200920B000021FFF7DEFF07BD0000FF
:10E9300010B5994C802292002100A018FFF7B8FE74
:10E94000964A002109A0FFF717FC842080002018B8
:10E95000FFF748FE0020FFF740FF00BF04A0FFF7CD
:10E96000B1FF0120FFF739FF10BD0000AC1F0020F0
:10E970003E204750525320496E69740D0A00000032
:10E9800087480068042800D0704710B5854C20885F
:10E99000401C208000F014F9FFF748FF8249C98B22
:10E9A000014301D000F076FA2088401E208010BD7F
:10E9B0007D498A7E824206D08876002803D1C86CC1
:10E9C00001220243CA6470477748407E70470000C6
:10E9D000F8B507000C007548844200DB441E7248FD
:10E9E000007E06283AD10020FFF7F7FE3A0021000A
:10E9F0001CA0FFF767FF0120FFF7EFFE0026002FA6
:10EA00001ED020001CD0052569480560210000BFEC
:10EA10001CA0FFF757FFFA21890066A000F0E6FC72
:10EA200000280DD06248056021003800FFF704FF80
:10EA3000614900BF17A000F0D9FC002800D02600D3
:10EA40000020FFF7CAFE3200210000BF13A0FFF72D
:10EA500039FF0120FFF7C1FE30B2F2BD0020C043F4
:10EA6000F2BD00003E20475052535F536F636B6509
:10EA70007453656E64446174613A252E2A730D0ADD
:10EA80000000000041542B514953454E443D25643C
:10EA90000D0A000053454E44204F4B003E20544386
:10EAA0005049505F53656E642025752C2072657443
:10EAB0003A25640D0A000000F1B500240027002566
:10EAC00005203B49086000BF17A13C48FFF7FAFE4C
:10EAD000FA21490016A000F089FC060019D000E0D8
:10EAE000761C3078010003D002F0CEFF0028F7D06A
:10EAF0003000FFF715FC0700761C3078010003D0CA
:10EB000002F0C2FF0028F7D03000FFF709FC040034
:10EB10000125280069460978012901D13800F2BD94
:10EB2000022900D12000F2BD5246494400000000F5
:10EB30002B524649443A00001B49497E062900D120
:10EB4000704780B500F032FC01BD0020C043A849E9
:10EB50004A7E062A0CD0032A0AD00020052A07D1B3
:10EB60000A7E062A04D14C22895C490700D4012080
:10EB7000704710B50A0001009E48FFF7C0FD040071
:10EB8000000405D1FFF7E1FF012801D00024E44390
:10EB900020B210BD00070050CC1F0020B5F40100CA
:10EBA00014250040423D0020481F002001020000C3
:10EBB0000C2500403E000000B80B000034F70100B7
:10EBC000F8B58B4CE06C052701260025A18A0B299E
:10EBD00004DAE18A0B2901DA304206D0B043E0645E
:10EBE000656100F019FB65760BE0607E002808D0B7
:10EBF000012839D0022800D197E0042800D1A0E0F4
:10EC000011E0A07E00280ED000F0ECFA02F07DFBAF
:10EC1000E06566760020FFF7E0FD7748FFF752FEDB
:10EC20000120FFF7DAFD607E052851D1E06C410735
:10EC300000D49BE0217E0426F643082913D0002946
:10EC400011D0C44807606D496D48FFF73BFEFA21BB
:10EC500089006C4800F0CAFB02F057FBA06500F089
:10EC600041FB2076E06C7FE002F04FFBE16D401A43
:10EC70000C28D8D302F049FB206500211F20FFF7A4
:10EC80004CFEB44807600321B3A0FFF7D5FDB34E97
:10EC90006421300000F0AAFBAE4807600321AEA05B
:10ECA000FFF7CAFDFA218900300000F09FFB002821
:10ECB00013D000F0A3F900280CD00020FFF78DFD41
:10ECC00051A0FFF7FFFD0120FFF787FD02206076CE
:10ECD0002576F1BD0320607615E0FFF77EFD00BFCD
:10ECE0004EA0FFF7EFFD0120FFF777FD06206076CD
:10ECF00000211F20FFF711FE00211F20FFF70DFE4E
:10ED0000607E03288FD10020FFF767FD49A0FFF741
:10ED1000D9FD0120FFF761FD00211F20FFF7FDFD58
:10ED200000211F20FFF7F9FD7DE700F017FB012808
:10ED300001D1052000E00420607600F0ABFAA07459
:10ED400071E702F0E2FA216D401A1E28F8D302F0B2
:10ED5000DCFA206500F002FB002803D1E08A401CA9
:10ED6000E08260E7677661E70640E664207E00287F
:10ED700008D0042825D00628ABD0082802D00928BE
:10ED80001FD021E002F0C1FA6065E1680029A0D03F
:10ED9000228A10009DD06F48076000BF2DA0FFF7AA
:10EDA00091FD8E4D290000BF31A000F01FFB00280F
:10EDB00003D1290032A000F019FB00F093FA20766D
:10EDC000F1BD00F04BFA83E702F09FFA616D401A43
:10EDD0003C2803D300F042FA0820207602F095FA8E
:10EDE000A16D401A0328EBD302F08FFAA065E4E787
:10EDF000481F0020CC210020A8810200C881020009
:10EE000034F70100D08102003E20475052535F4D3D
:10EE10006F64756C65496E69740D0A003E20475039
:10EE20005253206D6F64756C65206661756C742E2D
:10EE30000D0A00003E2047505253206D6F64756CE0
:10EE400065206E6F2053494D20636172642E0D0A58
:10EE50000000000041542B51494F50454E3D225473
:10EE60004350222C222573222C25640D0A00000019
:10EE7000434F4E4E454354204F4B0D0A00000000B7
:10EE8000414C524541445920434F4E4E4543540D49
:10EE90000A000000F0B583B0002501950095AA4C4A
:10EEA000E08BAA49884252D2A94E3018FFF7AEFC37
:10EEB000002810D0274F102038600121E08B301837
:10EEC000FFF7BAFC0F203860E08B401CE083200085
:10EED0006030FFF7E3F901A8FFF7E0F96A46216E19
:10EEE0000198FFF7EDF9E18B7018042906DB811E0C
:10EEF0004A780A2A02D109780D2903D00099C54A17
:10EF0000914225D3057000BF15A1300003F07BFDB1
:10EF1000002805D114A1300003F075FD002802D0AF
:10EF200000F0E0F92076D649300003F06CFD0028AF
:10EF30000AD000F013FA012801D1052000E00420D6
:10EF4000607600F0A7F9A074300000F013F8E583B4
:10EF5000F7BD00000C25004041540D00E4F3010012
:10EF6000434C4F5345440000434F4E4E45435420BD
:10EF70004F4B0000F8B5C3A7390003F044FD04006F
:10EF8000C14E002C27E0E01CFFF7CAF985B22078BB
:10EF9000010002D0641C3A28F9D10020FFF71DFCC3
:10EFA000290000BF0EA0FFF78DFC0120FFF715FC24
:10EFB0001020306029002000FFF73EFC0F20306059
:10EFC0002A002100C348FFF7B8FB39006019401C34
:10EFD00003F019FD0400D6D1F1BD0000B80B00000C
:10EFE0003E204750525320536F636B657420526527
:10EFF00063656976653A25640D0D0A00F8B5002051
:10F0000069460870A04C05252560052151A0FFF731
:10F0100013FCB14E6421300000F0E8F925600521B1
:10F020004EA0FFF709FC6421300000F0DFF9C5496C
:10F0300068A000F0DBF92560C34F00BF49A138008C
:10F04000FFF740FC6421300000F0D0F9256000BFDC
:10F0500046A13800FFF736FC6421300000F0C6F905
:10F06000256000BF43A13800FFF72CFC642130006D
:10F0700000F0BCF9256000BF40A13800FFF722FC7A
:10F080006421300000F0B2F9256000BF3DA13800D6
:10F09000FFF718FC6421300000F0A8F9256000BFDC
:10F0A0003AA13800FFF70EFC6421300000F09EF911
:10F0B000256000BF38A13800FFF704FC6421300050
:10F0C00000F094F9256000BF35A13800FFF7FAFB86
:10F0D0006421300000F08AF9256000BF32A13800B9
:10F0E000FFF7F0FB6421300000F080F9256000BFDD
:10F0F0002FA13800FFF7E6FB6421300000F076F91D
:10F10000256000BF2DA13800FFF7DCFB6421300033
:10F1100000F06CF9256000BF2CA13800FFF7D2FB8E
:10F12000FA2189002BA000F061F9002808D000BF67
:10F130002AA103F068FC002802D00120694608706B
:10F1400068460078F2BD0000481F0020FF01000063
:10F15000C4340020415445310D0000004154563163
:10F160000D000000435344483D3000005153434CD0
:10F170004B3D30004946433D302C3000434C564C0B
:10F180003D313000434D47463D310000435343532A
:10F190003D2247534D220000435245473D32000077
:10F1A000434C49503D31000051494D55583D3000C8
:10F1B0005149484541443D3100000000434E4D490E
:10F1C0003D322C322C302C302C3000004350494E34
:10F1D0003F0000002B4350494E3A00005245414445
:10F1E0005900000038B500211F20FFF796FB0021D1
:10F1F0001F20FFF792FBC82002F0EBF9AF4C8025EF
:10F200002D0625601F20FFF77DFB25601F20FFF7DF
:10F2100079FB31BDAD0D000010B500248020000643
:10F22000A64908601F20FFF76DFBA54907A000F065
:10F23000DDF8002800D0012400211F20FFF76DFB1E
:10F2400000211F20FFF769FB200010BD504F5745DC
:10F250005220444F574E0D0A0000000080B5052093
:10F260000949086009A13848FFF72CFB954900BF00
:10F270005CA000F0BBF8002800D0012002BD000017
:10F28000A4F30100495044000C250040434741438A
:10F29000543D310038B5002405208B4908608BA10E
:10F2A0002948FFF70FFBFA21890000BF0BA000F0EF
:10F2B0009DF805000CD000E06D1C2878010003D0FB
:10F2C00002F0E2FB0028F7D02800FFF729F804003D
:10F2D000E0B232BDCC210020E4F301002B435351B6
:10F2E0003A00000070B5002505207749086000BF8E
:10F2F00016A11548FFF7E6FA714900BF15A000F006
:10F3000075F804001CD02078010002D0641C3A2853
:10F31000F9D12078202801D1641CFAE76C48EDB2BD
:10F32000A9004018066A3000FEF7F0FF0200310025
:10F33000200003F084FB002802D06D1C002EEDD1CC
:10F34000E8B270BD8813000034F7010051495354EE
:10F350004154000053544154453A000080B5052003
:10F36000594908600DA15B48FFF7ACFAFA21890002
:10F370000CA000F03BF800280ED001780A0002D063
:10F38000401C2C29F9D1FEF7CBFFC0B2012801D0D7
:10F39000052801D1012002BD002002BD435245478E
:10F3A0003F0000002B435245473A000080B505213D
:10F3B000454A1160010000BF03A0FFF783FA4049EE
:10F3C00008A000F013F801BD41542B5141554450A1
:10F3D0004C41593D222573222C302C35302C300DD8
:10F3E0000A0000004F4B0D0A00000000F1B582B08A
:10F3F0000D0000270026364C277720006430FEF7EA
:10F4000023FF0096E803FA2149004018490002F062
:10F41000E4F90100002220006430FEF7E9FEE783F2
:10F4200002E0FDF7E1FD48DF207F00283AD1E08BC4
:10F4300029498842F5D2A6490818FFF7E7F90028BC
:10F44000EFD01020204908600121A148E28B8018EC
:10F45000FFF7F2F90F201C490860E58B6D1CE5836E
:10F460009B48ADB24019042D06DB811E4A780A2A5A
:10F4700002D109780D2903D0029909783E29D3D108
:10F480000770029800F074F903002A00029990486E
:10F49000FEF71CFF060005D104A18D4803F0B3FA66
:10F4A0000028C1D0E7833000FEBD00004552524F16
:10F4B0005200000001208749087770470C05005072
:10F4C000B80B0000102700000C25004043535100EA
:10F4D000481F002034F70100FF010000F8B50C1DA3
:10F4E000251D24687C49200002F0AEFA002816D1C0
:10F4F0002C687AA1200002F0A7FA002801D101208F
:10F5000005E077A1200002F09FFA002801D1FFF763
:10F510004FFA0020FFF761F929687248C1E072498B
:10F52000200002F091FA00280BD1FFF756F9694844
:10F53000017E890041180A6A417E6C48FFF7C2F9D2
:10F54000C1E0802636066AA1200002F07DFA00287C
:10F550001CD12C6861A1200002F076FA002805D1A8
:10F56000644806601F20FFF7CDF909E05CA1200088
:10F5700002F06AFA002803D100211F20FFF7CDF91D
:10F580000020FFF72AF929685B488AE05B492000E0
:10F5900002F05AFA002811D12C0027685849380087
:10F5A00002F052FA00280AD1FFF717F95548FFF781
:10F5B00089F90120FFF711F9FFF714FEF1BD524957
:10F5C000380002F041FA00280AD1FFF706F94F4847
:10F5D000FFF778F90120FFF700F9FFF71DFEF1BDF5
:10F5E0004BA1380002F030FA002808D1FFF752FE94
:10F5F00004000020FFF7F1F82100464851E00525FE
:10F6000045A1380002F020FA00280CD143480560DB
:10F61000616800BF47A0FFF755F90020FFF7DDF84C
:10F6200061683F483DE03F49380002F00DFA00288C
:10F6300014D13A4805606768380000F099F881B243
:10F640003800FFF7F9F835480560022136A0FFF7CA
:10F65000F3F80020FFF7C1F8344832E037A1380052
:10F6600002F0F2F900281FD167681CA1380002F0EF
:10F67000EBF9002805D11F4806601F20FFF742F96B
:10F6800009E017A1380002F0DFF9002803D10021BA
:10F690001F20FFF742F90020FFF79FF8616800BFC5
:10F6A00028A0FFF70FF90EE021A1380002F0CCF9F5
:10F6B00000280BD16068FFF779FE0020FFF78DF876
:10F6C00026A0FFF7FFF80120FFF787F8F1BD000043
:10F6D000C4340020481F00203CF701006F6E00007A
:10F6E0006F666600DC810200F0810200F881020092
:10F6F0006B6579000C0500501C8202003482020008
:10F700003C820200448202005C82020068820200A5
:10F710006373710084820200617400000C25004054
:10F720009C820200B88202000D0A0000C082020022
:10F730007474730041542B25730D0A00706F776544
:10F74000720000003E2047505253207465737420AD
:10F75000706F7765723A25730D0A00003E2054548D
:10F76000535F506C617920646F6E652E0D0A000046
:10F77000010000E0491C0A78002AFBD1081A7047F2
:10F78000124224D0994228D970B500251B4202D0DC
:10F790000C00002109E0002401264918644194422C
:10F7A00000D3A41A7641F8D33100012601E0764156
:10F7B00009D2001864416D41A41A9D41F7D2A418E2
:10F7C0005D41B619F5D3300022002B0070BD1B42FD
:10F7D000D8D108B503F04AF908BD01D19042D3D27F
:10F7E00002000B000021002070470268531C0360D8
:10F7F000117070473EB5544C9520800025182800A4
:10F8000003F0BAF9C8200290C430201801908C206F
:10F8100040000090230074334C4A2900200003F07C
:10F82000F2F9992080002018FEF7DCFE0120FFF796
:10F83000BFF80020FEF7D1FF03A0FFF743F8012037
:10F84000FEF7CBFF37BD00003E204D5154542069D8
:10F850006E6974204F4B2E0D0A0000003A48006A72
:10F86000C0B27047000070B505000C000026F643DA
:10F87000FFF76BF9002808D058480168491C01605F
:10F8800021002800FFF7A4F80600300070BD80B505
:10F89000FFF76FF9012803DB50490A68521C0A6020
:10F8A00002BD00007FB50600684601700024447068
:10F8B000029203932448016A090615D06A46310072
:10F8C00003F07AFB0500464901D00C88641C0C80CB
:10F8D0000020FEF782FF2A00310000BF05A0FEF7DE
:10F8E000F1FF0120FEF779FF681E8041C00F04B0D0
:10F8F00070BD00003E204D515454207075626C69FB
:10F90000736820746F703A25732C20726574757259
:10F910006E3A25640D0A000030B5002811D013009E
:10F920000FD00023594C0C255D4364196568002DE8
:10F9300004D160602170A260012030BD5B1C082BE7
:10F94000F0DB002030BD0000E8210020881300001B
:10F9500038B54F4D4F4C2100280003F0E1FA002844
:10F9600012D02100280003F0DBFA04000CD00020A4
:10F97000FEF733FF210000BF47A0FEF7A3FF0120E1
:10F98000FEF72BFF002032BD0020FEF726FF00BF50
:10F990004BA0FEF797FF0120FEF71FFF012032BDAD
:10F9A00010B53B4803F069FB04000BD00020FEF7C4
:10F9B00014FF210047A0FEF785FF0120FEF70DFF91
:10F9C000002010BD0020FEF708FF00BF4CA0FEF78E
:10F9D00079FF0120FEF701FF012010BDB83E002095
:10F9E0009C3D002070B50C1D256800BF4AA1280071
:10F9F00002F02AF8002817D1A068FEF791FC050054
:10FA0000E6683000FFF7B4FE83B23200E9B2606806
:10FA1000FFF748FF002837D00020FEF7DEFE6168C0
:10FA20003FA0FEF74FFF2CE043A1280002F00CF8A6
:10FA3000002809D1FEF7D1FE1548027F016A00BFF8
:10FA40003FA0FEF73FFF1CE047A1280001F0FCFFAC
:10FA5000002807D1FFF7A4FF0020FEF7BEFE00BF7D
:10FA600044A00CE04AA1280001F0EEFF00280BD1D1
:10FA7000FFF76EFF0020FEF7B0FE00BF46A0FEF7C6
:10FA800021FF0120FEF7A9FE70BD0000083C002008
:10FA9000E8210020582400203E2052657475726EC3
:10FAA00020636F64652066726F6D204D5154542041
:10FAB000636F6E6E6563742069732025640D0A00A0
:10FAC0003E204D51545420436F6E6E6563746564DF
:10FAD0000D0A00003E2052657475726E20636F64DB
:10FAE000652066726F6D204D5154542064697363B4
:10FAF0006F6E6E6563742069732025640D0A0000C3
:10FB00003E204D515454204469736F6E6E6563748A
:10FB100065640D0A000000007075626C697368000E
:10FB20003E204D515454207075626C6973682025D5
:10FB300073204F4B2E0D0A007374617475730000AF
:10FB40003E204D51545420636C69656E7420636F80
:10FB50006E6E6563743A25642C2070696E67206F41
:10FB600075743A25640D0A00646973636F6E6E657F
:10FB7000637400003E2074657374204D515454200A
:10FB8000646973636F6E6E6563742E0D0A00000006
:10FB9000636F6E6E656374003E2074657374204DF0
:10FBA00051545420636F6E6E6563742E0D0A00000D
:10FBB000BFF34F8F974898490860BFF34F8F00BF3E
:10FBC000FDE70000F0B583B003F0CEFD6C460820E1
:10FBD000A080A020C000E080904E0096D64D290065
:10FBE0003431684603F0E8FD0020FEF7F6FDA96B0E
:10FBF0001CA0FEF767FE0120FEF7EFFDD44F38682A
:10FC0000A0800120E080009629003C31684603F086
:10FC1000D3FD0020FEF7E1FD296C00BF16A0FEF722
:10FC200051FE0120FEF7D9FD0020FEF7D6FD396810
:10FC300089B200BF16A0FEF745FE0120FEF7CDFDFC
:10FC4000002000F081F828004430FEF7CBFC0020B3
:10FC5000FEF7C3FD16A0FEF735FE0120FEF7BDFD41
:10FC6000F7BD00003E2070734C6F672069643A2531
:10FC700023780D0A000000003E207073576F726BEE
:10FC8000446174612069643A2523780D0A000000FC
:10FC90003E205053544F524147455F464C415348D4
:10FCA0005F504147455F53495A453A25640D0A0064
:10FCB0003E20576F726B4461746120496E69742EE7
:10FCC0000D0A000010B59C4C342120003C3003F09C
:10FCD0008AFE08212000343003F085FEC82001F0A0
:10FCE00078FCFFF765FF10BD10B5934C3222A11CC4
:10FCF0000020FEF765FB2080002334222100200035
:10FD00003C3003F0DFFD00280ED1042000F016F98E
:10FD10000020FEF762FD00BF04A0FEF7D3FD012026
:10FD2000FEF75BFD012010BD002010BD3E20576F87
:10FD3000726B20506172616D205570646174652032
:10FD40004F4B2E0D0A00000070B5002808D000208F
:10FD5000FEF743FD32A0FEF7B5FD0120FEF73DFDA5
:10FD6000754C0023342221003C31200003F0EEFDCD
:10FD700000284DD165880026794885420AD10025A2
:10FD80000020FEF72AFD00BF2DA0FEF79BFD0120FD
:10FD9000FEF723FD3222A11C0020FEF711FB218873
:10FDA00088420AD00020FEF718FD00BF2AA0FEF707
:10FDB00089FD0120FEF711FD05E0022D03DA012D7A
:10FDC0001CD0002D24D1012060806648606026810F
:10FDD0001C2060810F2200BF26A120000C30FCF700
:10FDE00039FD6148A0853C20E0852663FFF77CFF54
:10FDF0000020FEF7F2FC00BF22A004E00020FEF786
:10FE0000ECFC00BF26A0FEF75DFD0120FEF7E5FC3F
:10FE100070BD00000400FA050CED00E055FF010084
:10FE20003E20576F726B2044617461204661637499
:10FE30006F72792052657365742E0D0A0000000000
:10FE40003E20576F726B2044617461204E6F7420A6
:10FE5000496E69742E0D0A003E20576F726B204464
:10FE600061746120435243204661756C742E0D0A03
:10FE7000000000003132302E32352E3230312E3239
:10FE8000303100003E20576F726B207665727369C7
:10FE90006F6E312064656661756C742E0D0A00000A
:10FEA0003E20576F726B2064617461206C6F6164D7
:10FEB000204F4B2E0D0A0000F0B585B0050000263E
:10FEC00069460E721C4F3C8E01F01FFAB4498842FD
:10FED0002DD3641CA4B2A020C000844200DB002407
:10FEE00001F013FA0090019503AA21003800343084
:10FEF00003F0BCFC00230822694603A803F0E2FCDF
:10FF0000002814D1042000F019F801206946087275
:10FF10000020FEF762FC019B009A2100A5A0FEF7DD
:10FF2000D1FC0120FEF759FC3C86FFF7DDFE684658
:10FF3000007A05B0F0BD000008250020994908604E
:10FF4000994848604A688242FCD04868704700007F
:10FF500010000010934803688B4200D14260704744
:10FF6000FFFF000000B4C404B326000070B586B0E3
:10FF70000D1D2E688D4C00BF9AA1300001F064FD6C
:10FF8000002829D16868FEF7CBF9A16BC0000D18D5
:10FF90000020FEF722FC6A68296800BF93A0FEF7E4
:10FFA00091FC0120FEF719FC04A9286801F0C0F9B2
:10FFB0000020FEF712FC04A881780391C179029118
:10FFC00081790191417900910379C278018800BF5C
:10FFD0008EA0FEF777FC6CE097A1300001F034FDB5
:10FFE00000280BD16868FEF7AEF9FFF765FF002027
:10FFF000FEF7F3FB93A0FEF765FC5AE096A13000F4
:020000040002F8
:1000000001F022FD002805D1FEF7E7FB628E218E6C
:1000100094A04CE09DA1300001F016FD00280DD108
:100020006868002804D0FEF77BF96060FFF75CFE8B
:100030000020FEF7D2FB616897A02AE05CA13000A7
:1000400001F002FD002811D16868002806D00100E7
:1000500020000C3003F012FDFFF746FE0020FEF7F3
:10006000BCFB21000C3100BF90A012E096A1300033
:1000700001F0EAFC00280FD16868002804D0FEF7E0
:100080004FF9A085FFF730FE0020FEF7A6FBA18DFB
:100090008FA0FEF717FC0CE094A1300001F0D4FC17
:1000A00000280AD1FEF799FB6289218991A0FEF709
:1000B00009FC0120FEF791FB29E0002594A1300006
:1000C00001F0C2FC002801D1258107E092A1300097
:1000D00001F0BAFC002804D10F202081FFF704FEB4
:1000E00015E000BF8EA1300001F0AEFC002802D167
:1000F000FFF7E8FD0BE000BF8CA1300001F0A4FC8D
:10010000002804D16580FFF7EFFDFFF751FD0020C7
:10011000FEF763FB618800BF86A0FEF7D3FB0120DA
:10012000FEF75BFB0020FEF758FB616885A0FEF739
:10013000C9FB0120FEF751FB0020FEF74EFB218991
:1001400084A0FEF7BFFB0120FEF747FB0020FEF76F
:1001500044FB618984A0FEF7B5FB0120FEF73DFB5F
:100160000020FEF73AFB218E83A0FEF7ABFB0120B7
:10017000FEF733FB0020FEF730FB618E83A0FEF715
:10018000A1FB0120FEF729FB0020FEF726FBE18DF5
:1001900084A0FEF797FB0120FEF71FFB06B070BDA1
:1001A00001A8395AB03E0020FFFFFF0F08250020AC
:1001B000697000003E2057726974655F53746F72F6
:1001C000654C6F6720696E6465783A25752C2074DC
:1001D000696D653A25752C20726669643A25237825
:1001E0002E0D0A00726561646C6F67003E207265B7
:1001F00061646C6F672074696D653A25752C207297
:10020000666964A3BA2523782E0D0A003E2074691E
:100210006D653A20253034642D25642D2564202514
:100220003032643A253032643A25303264206461D9
:10023000792D2564200D0A0077726974656C6F67EB
:10024000000000003E2077726974656C6F67204F74
:100250004B2E0D0A000000006C6F67696E646578B4
:10026000000000003E205374726F65204C6F6F6772
:10027000205265636F72643A25752C205265706F49
:1002800072743A25752E0D0A0000000064657669C7
:1002900063656964000000003E204465766963651B
:1002A0002049443A25750D0A000000003E204D51BA
:1002B000545420636F6E6E65637420736572766547
:1002C000723A25730D0A0000706F7274000000000E
:1002D0003E204D51545420636F6E6E6563742070E0
:1002E0006F72743A25750D0A00000000636F756E19
:1002F000740000003E2053746F636B20436F756E73
:10030000743A25752C206D61783A25750D0A000028
:10031000636C65617200000073746F7265000000A9
:10032000636C6561726C6F670000000072657365D5
:10033000740000003E2076657273696F6E3A257511
:100340000D0A00003E2044657669636549443A25FC
:10035000750D0A003E2053746F636B436F756E74A6
:100360003A25750D0A0000003E2053746F636B4DF3
:1003700061783A25750D0A003E2053746F72654C02
:100380006F675F496E3A25750D0A00003E20537471
:100390006F72654C6F675F5265706F72743A257546
:1003A0000D0A00003E204D5154545F50696E67495C
:1003B0006E76743A25750D0A00000000B6480321D8
:1003C0000181002141818181010018314160704724
:1003D000F8B5B14C6089010031A5A289521A33D019
:1003E0006268238919401423594351180E784F1C11
:1003F000401C608100F089FF60610020FEF7EDF98C
:1004000061692800FEF75EFA0120FEF7E6F9310087
:10041000380000F049F900280AD1FEF7DEF900BFE4
:1004200025A0FEF74FFA0120FEF7D7F903F0D2FC22
:100430000020FEF7D2F900F068FF6169411A00BFA1
:1004400027A0FEF73FFA26E0944E3078002802D12C
:1004500000F05BFF6061307800281FD000F055FF8E
:100460006169401AFF212E31884217D300F04DFFF9
:1004700060610020FEF7B1F961692800FEF722FAF9
:100480000120FEF7AAF903F0A5FC0020FEF7A5F96C
:100490001EA0FEF717FA0120FEF79FF9F1BD00003C
:1004A0003E20417574684F4B5F54532025303275A0
:1004B0002E730D0A000000003E20496E76616C69C3
:1004C0006420424C4520666F726D61742C20424C52
:1004D0004520646973636F6E6E6563742E0D0A0048
:1004E0003E205254435F52656164436F756E7428B9
:1004F00029202D20417574684F4B5F5453203D20B7
:10050000253032752E730D0A000000003E2054691C
:100510006D656F757420646973636F6E6E65637467
:1005200065642E0D0A0000005C4A1278002A00D192
:10053000704700B583B000906846012901D155216C
:100540000AE00E2901D1AA2106E00D2901D1AB2133
:1005500002E00F2901D1AC210171052269463B203F
:1005600000F01CF807BD70B54B4CA589238966893E
:10057000AE1BB34211DB66682B4014225343F218C2
:100580001170531C0A0001001800FCF74FF96D1C94
:10059000A58143480168491C016070BDF0B591B068
:1005A00006000F0015000020FEF717F92A003100A1
:1005B00028A0FEF787F90120FEF70FF96C4600200E
:1005C0002070B00001210143617000F051F8042255
:1005D0000100A01CFCF72AF9324E3088401C308004
:1005E000A0710004000EE071002F09D0280007D090
:1005F0000D2D05DA2A00390020000830FCF716F925
:100600000835EAB2122A00DB112205AD28001030AD
:100610000021002300278AC00160521E611C2800AF
:100620001030FCF703F9301D05A9CCC8CCC105A8D2
:100630004DDF102229002031601CFCF7F7F8112152
:10064000684603F0D3FB16480168491C016011B0ED
:10065000F0BD00003E2053656E645F436D643A2533
:1006600023782C206C656E3A25750D0A0000000079
:1006700010B582B0002069460870684603F080FC1F
:10068000684600780828F8DB944C0421200003F029
:1006900079FC200016BD00003C3B00200025002016
:1006A000B83E0020D0240020F8B504000E00002041
:1006B000FEF793F88DA0FEF705F90120FEF78DF8FF
:1006C0000020FEF78AF800BF8EA0FEF7FBF801209D
:1006D000FEF783F800250CE00020FEF77EF82DB22F
:1006E000615D00BF8DA0FEF7EDF80120FEF775F803
:1006F0006D1C28B2B042EFDB207800282DD1641C9D
:10070000761EFEF76AF800BF87A0FEF7DBF801202F
:10071000FEF763F8002500BF88A70BE00020FEF776
:100720005CF82DB2615D3800FEF7CCF80120FEF7D1
:1007300054F86D1CF1B228B28842EFDB0020FEF7BE
:100740004CF8617885A0FEF7BDF80120FEF745F86A
:10075000F1B2200000F004F8F2BD0020F2BD00006C
:10076000F0B583B004000020FEF737F883A0FEF751
:10077000A9F80120FEF731F8594E20788007800F44
:1007800001280BD000203070FEF727F881A0FEF77B
:1007900099F80120FEF721F80020FEBD0020FEF7A9
:1007A0001CF800BF82A0FEF78DF80120FEF715F8B7
:1007B000A079050260790543607801900020FEF77A
:1007C0000CF8019981A0FEF77DF80120FEF705F8ED
:1007D000444F01981A2845D01C286ED0352802D0E5
:1007E000A1285ED076E00422E11D6846FCF71EF8E1
:1007F0000020FDF7F2FF00997BA0FEF763F80120CF
:10080000FDF7EBFF0020FDF7E8FF00BF7DA0FEF73E
:1008100059F80120FDF7E1FF042221000B31684661
:10082000FCF704F8009800F073FD2F4801890A00D6
:1008300001D103223A7001226B461A705A70408926
:100840009870D97000F061FD70610422694619202A
:10085000FFF7A4FE0020FDF7C0FF2A00318A00BF89
:100860006DA018E00020FDF7B8FF00BF76A0FEF7EE
:1008700029F80120FDF7B1FF0422E11D6846FBF7CE
:10088000D5FFFCF74DFA042038700020FDF7A5FFD6
:100890002A00318A72A0FEF715F80120FDF79DFFAE
:1008A00018E00020FDF799FF7AA0FEF70BF8012071
:1008B000FDF793FF052038700CE00020FDF78DFF59
:1008C0007AA0FDF7FFFF0120FDF787FF0A203870AF
:1008D000FCF72EFE35820120FEBD0000A83E002060
:1008E0003C3B00209C380020082500203E20686109
:1008F0006E646C652074686520646174613A0D0AE9
:10090000000000003E2050726F746F636F6C5F4197
:100910006E616C7973653A0D0A0000003E203078F4
:10092000253032582E0D0A003E20414553204465A3
:1009300063727970743A0D0A000000003E20BDE237
:10094000C3DCBAF3B5C4CAFDBEDDB0FCA3BA0A204D
:100950003078253032582E0D0A0000003E206865A0
:1009600072652069732074686520636D64203D2082
:100970003078253032580D0A000000003E205072B9
:100980006F746F636F6C5F436D645F416E616C7910
:100990003A0D0A003E20436F6D6D616E64207479DC
:1009A000706520696E76616C69642E0D0A00000026
:1009B0003E20436F6D6D616E6420747970652076A2
:1009C000616C6964A3A10D0A000000003E2052651D
:1009D000636569766520636F6D6D616E6420307844
:1009E00025582E0D0A0000003E202A2875696E74D5
:1009F00033325F742A2974656D70203D2025640DA3
:100A00000A0000003E2074696D696E67202E2E2E4C
:100A10002E2E0D0A000000003E2052756E6E696E8B
:100A20006720696E6465782074696D696E672C2033
:100A300073746F72653A25752C20726563656976EB
:100A4000653A25750D0A00003E20426F72726F777D
:100A50005F416374696F6E202E2E2E2E2E0D0A00BC
:100A60003E2052756E6E696E6720696E64657820EF
:100A7000626F72726F77696E67202C2073746F7269
:100A8000653A25752C20726563656976653A25752A
:100A90000D0A00003E205265706179496E41637411
:100AA000696F6E2E2E2E0D0A000000003E2042724D
:100AB00065616B446F776E416374696F6E2E2E2E85
:100AC0000D0A000010B5874C874842680BA1200032
