:020000040001F9
:10B0000088290020898D0200A3F80100F71B0200A7
:10B010000000000000000000000000000000000030
:10B02000000000000000000000000000B721020046
:10B030000000000000000000173502001B35020070
:10B040009F5C0200D75C020087E80100478C020089
:10B05000D36A020000000000BD240200077A02004B
:10B060001F8D02002D8D020063830200438E0200BB
:10B070004F8E02007F8E02009F8E0200C98E02005A
:10B08000151A0200EBE00100CB8E0200CD8E02000B
:10B0900003E10100CF8E020009790200D18E020087
:10B0A000D38E0200D58E02000000000000000000D8
:10B0B0000000000000000000000000000000000090
:10B0C000E022520080180268914203D34368D218EC
:10B0D000914202D380680028F5D170471848016872
:10B0E00000290ED1802149028160090941600021B7
:10B0F000C943C160016104214161124A11601249D2
:10B1000001600120704730B407230C0008341C4252
:10B1100001D1002304E008240D000835641B2340FE
:10B12000C918D21A8161C260012313434B602823DE
:10B1300089184B6002490969C16130BC7047000041
:10B14000843E0020A83800206859883CF0B587B0BC
:10B15000040007200D000835054205D008250E0023
:10B160000836AD1B05404919029111000831014212
:10B1700005D0082115000835491B08401218170092
:10B180000298C018039005460298381AC01A019018
:10B190000326334302984360BD4201D301F0ECFA29
:10B1A0003879C00701D401F0E7FA0198102801D2DC
:10B1B00001F0E2FAA069874208D1E06801994018DD
:10B1C000E060A5610121014369606AE1606987422D
:10B1D00009D1A06801994018A0606561012101436F
:10B1E000696028505DE178680640012E00D0B9E022
:10B1F000072188430590C00820283CD2B9680091F7
:10B20000FE680490B74201D101F0B6FA0098874277
:10B2100001D101F0B1FA7868072188430499C90087
:10B22000884201D001F0A8FA0498C00020180099C3
:10B2300002002832914207D02269914200D289E06F
:10B24000C968B94200D085E000998E4206D12068D5
:10B250000121049A9140884320607DE02830864295
:10B2600005D02069864275D3B068B84272D1CE60ED
:10B270000098B06070E0B8690090FE68BE420CD0E3
:10B28000B8682169884225D3C168B94222D1B16822
:10B29000B9421FD1C660B0601EE0380014300668A5
:10B2A000002E07D1380010300668002E14D001E0BF
:10B2B00008000668310014310A68002AF8D131000C
:10B2C00010310A68002AF3D12169884202D3002193
:10B2D000016001E001F050FA009800283CD0F869C4
:10B2E0008000201898214900401801688F4209D138
:10B2F0000660002E14D160680121FA6991408843EC
:10B30000606029E000982169884207D30069B8424B
:10B31000009801D1066103E0466101E001F02CFADA
:10B32000002E19D02069864214D30099B161396981
:10B33000002906D0814202D331618E6101E001F023
:10B340001BFA7869002807D02169884202D370610E
:10B35000866101E001F010FA05983F1801980599FF
:10B360004018019078680121884378600198014372
:10B370006960019828500198C008202822D20090C6
:10B38000C000271828373E000198102801D201F08C
:10B39000F3F9206800990200CA40D10705D40121C1
:10B3A000009A91400143216007E0B8682169884212
:10B3B00001D3060001E001F0DFF9BD60F560AE6089
:10B3C000EF606EE00198000A01D1002225E08021A3
:10B3D0004902884201D31F221FE0FF21C9434118BF
:10B3E000090C082211408840304A8218120C0423AC
:10B3F0001A4090402E4BC3181B0C022633400E26D9
:10B40000711A891AC91A9840C00B08184100019A8C
:10B41000C01DC240D007C00F0A1890002018982104
:10B4200049004118EA6100206861286163681E00D4
:10B43000D640F60705D401209040184360600D60A7
:10B440001BE009681F2A019B05D019265208B21A71
:10B45000934000E011004A680726B243019EB242C1
:10B4600010D0DA0F92008E1810365B003268002A76
:10B47000F0D12069864212D33560A961ED6003984E
:10B48000A8600EE08A682369994208D39A4206D3DD
:10B49000D560039B8B60AA60E960A86101E001F0C0
:10B4A0006BF90298083007B0F0BD000000F0FFFF14
:10B4B00000C0FFFFF2B586B004008F480068002886
:10B4C00001D1FFF70BFE8C488168069840182F3099
:10B4D000491E88430699814200D3DCE1D821490006
:10B4E00061188968002909D0D8225200A258101882
:10B4F000824200D3CFE1814200D2CCE101F080F959
:10B50000002800D1C7E1009007680021C9438842A4
:10B5100000D1C0E1D82040002058C019D8214900EE
:10B52000605061184968814200D20100D820400073
:10B5300020184160A069002839D12069002802D074
:10B540000099814201D2009820610098D8214900D9
:10B5500061180861D8204000201847610026D820D3
:10B5600040002018C6616448006860620020C04343
:10B57000206220002830C0600146816008314161AE
:10B580000161B61C1030202EF5D3C448844203D18B
:10B59000283F3A00009926E0201F006807218843D1
:10B5A000211808390098C019421A283A1BE0E020F7
:10B5B0004000201800E08068002818D00099026838
:10B5C0004368D2189142F6D1017B09070FD4A169D3
:10B5D000026891420BD3D218914208D2D919416026
:10B5E000E068C219A1692000FFF78DFD3FE10098D6
:10B5F0002169884200D22061E02040002018009993
:10B60000C91900E08068002810D002688A42F9D188
:10B61000017B09070AD4009901604168C91941609A
:10B62000069B00992000FFF791FD35E1A06903908A
:10B63000054629002000FFF743FD0168406808180F
:10B64000059027380026410701D1002003E008219A
:10B65000081A4007400F059908182F3829001031A3
:10B66000884201D2019500E00190019818300290C3
:10B6700004963800283800990831490701D1002183
:10B6800005E00821009A0832891A4907490F401A33
:10B69000009A5118A161E060012202434A60282209
:10B6A0000818426014480069E061019808304007BA
:10B6B00001D001F061F81B20019948600198083021
:10B6C000E02149006118102201F0C4F80098D82147
:10B6D000490061180861D820400020184761D8202F
:10B6E00040002018C66101980830D821490061182F
:10B6F0008861059805E000BF843E00200299091D7D
:10B7000002910721029A51600499491C04910299FF
:10B7100008318142F2D30498022801DA01F02CF8B2
:10B720000198A84200D1A2E0411B426801239A433C
:10B73000426001220A436A600160C808202821D2C1
:10B740000090C000271828373E00102901D201F0D0
:10B7500013F8206800990200CA40D10705D40121DE
:10B76000009A91400143216007E0B868216988424E
:10B7700001D3060001E000F0FFFFBD60F560AE60A0
:10B78000EF6074E0080A01D1002228E01A04904218
:10B7900001D31F2223E0FF22D2438218120C082378
:10B7A0001A40009290403E4A8218120C04231A401C
:10B7B00090403C4BC3181B0C02273B4001930E23C7
:10B7C000009FDB1B9A1A019BD21A9840C00B1018DD
:10B7D0004200C01D0B00C340D807C00F12189000D4
:10B7E000201898235B00C0180090EA616E612E61FA
:10B7F00060680300D340DB0707D401219140014377
:10B8000061600098056000981DE0009800681F2A9C
:10B8100001D10A0006E0192352089B1A0A009A4037
:10B8200000E0380043680727BB438B4210D0D30F9A
:10B830009B00C318103352001F68002FF1D12169FB
:10B840008B4212D31D60A861ED600398A8600EE0E2
:10B8500081682269904208D3914206D3CD60039A51
:10B860008260A960E860AE6101E000F085FFE068F9
:10B87000069981420FD2401AE060A169069A8A189F
:10B88000A2610123034353600698032202434A60E6
:10B890000800083000E0002007B0F0BDEC360020C2
:10B8A00000F0FFFF00C0FFFFF2B584B004000020ED
:10B8B000009004984542000A25D080214902884220
:10B8C00001D31F201FE0FF21C9434118090C0822A2
:10B8D00011408840B34A8218120C04231A40904049
:10B8E000114BC3181B0C022633400E26711A891AFD
:10B8F000C91A9840C00B08184100049AC01DC240E4
:10B90000D007C00F081881006118982252008B5888
:10B91000002B28D01F28049A03D019214608891B20
:10B920008A40002103E000BF00C0FFFF52005E68B4
:10B930000727BE43049FF61BAE4202D20093350098
:10B940000CD05E69D70FBF00DB191B69002E02D037
:10B950009E4200D03100002BE8D10B00002B3FD1DC
:10B96000009900293ED1012101228240500043422A
:10B97000034362681A4000D178E150421040401EF3
:10B98000020B10231A40D040430908263340D84008
:10B99000860804273E400296F040460802273E40B3
:10B9A0000196F04046083140D218029BD218019B04
:10B9B000D2185218C8401018800020189821490049
:10B9C00043580DE003005868072188430499401A42
:10B9D000A84201D20500009318690028F2D15B69E2
:10B9E000002BF0D10098002800D13FE1A068049915
:10B9F000401A854200D339E1009E2069864200D278
:10BA000032E1681802900098406807218843029943
:10BA1000884201D000F0B0FE009804994718BE4259
:10BA200000D321E1806901900098C66886420DD05C
:10BA300080682169884225D3C168009A914221D14A
:10BA4000B16891421ED1C660B0601DE01430066836
:10BA5000002E07D1009810300668002E14D001E0A7
:10BA600008000668310014310A68002AF8D1310054
:10BA700010310A68002AF3D12169884202D30021DB
:10BA8000016001E000F078FE0198002843D00098A2
:10BA9000C069800020189821490040180099026868
:10BAA00091420AD10660002E16D160680121009AE9
:10BAB000D2699140884360602DE0019821698842F5
:10BAC00008D3006900998842019801D1066103E01A
:10BAD000466101E000F050FE002E1CD02069864235
:10BAE00017D30198B06100980069002807D0216938
:10BAF000884202D33061866101E000F03DFE00988B
:10BB00004069002807D02169884202D370618661AC
:10BB100001E000F031FE03200121102D0AD2029A2B
:10BB20001043009A50600098029A801842681143AE
:10BB3000416096E0049A1043009A50600120284327
:10BB400078607D51E808202819D2C200A61828364E
:10BB5000350022681300C3400B4003D181401143DC
:10BB6000216007E0B0682169884201D3050001E047
:10BB700000F002FEB760EF60BD60FE6071E0280A71
:10BB800001D100222AE00A04904201D31F2225E0BD
:10BB9000FF22D2438218120C08231A4001929040CF
:10BBA000004A01E000F0FFFF8218120C04231A4043
:10BBB0009040304BC3181B0C0226334002930E23D7
:10BBC000019E9B1B9A1A029BD21A9840C00B101818
:10BBD0004200C01D2B00C3400B40D218900020181B
:10BBE00098235B00C018FA6100237B613B616368A6
:10BBF0001E00D6400E4004D1914019436160076099
:10BC00001CE000681F2A01D1290006E01921520812
:10BC10008A1A2900914000E01000426807239A43E5
:10BC2000AA420FD0CA0F92008318103349001A6835
:10BC3000002AF1D121698B4211D31F60B861FF60E6
:10BC4000BF600EE081682269904208D3914206D31A
:10BC5000CF608760B960F8600020B86101E000F053
:10BC60008BFD0098083002E000F086FD002005B052
:10BC7000F0BD000000C0FFFFF2B586B004006168AF
:10BC800048420840401E010B10221140C8404209A2
:10BC900008231A40D040830804252B40D84045088B
:10BCA00002263540E8408607F60F8918C918491959
:10BCB0008919F04008188000201898214900405840
:10BCC0000700416807229143069A8D1A09E008008F
:10BCD000416807229143069A891AA94201D20D00B0
:10BCE000070001690029F2D140690028F0D12069DC
:10BCF000874200D2D3E0A8180190786807218843D2
:10BD00000199884201D000F037FD06983818049058
:10BD1000874200D3C3E0B8690090FE68BE420CD0F1
:10BD2000B8682169884225D3C168B94222D1B16877
:10BD3000B9421FD1C660B0601EE0380014300668FA
:10BD4000002E07D1380010300668002E14D001E014
:10BD500008000668310014310A68002AF8D1310061
:10BD600010310A68002AF3D12169884202D30021E8
:10BD7000016001E000F000FD009800283DD0F86966
:10BD80008000201898214900401801688F4209D18D
:10BD90000660002E14D160680121FA699140884341
:10BDA00060602AE000982169884207D30069B842A0
:10BDB000009801D1066103E0466101E000F0DCFC7F
:10BDC000002E1AD02069864215D30098B0613869D8
:10BDD000002807D02169884202D33061866101E0E2
:10BDE00000F0CAFC7869002807D02169884202D394
:10BDF0007061866101E000F0BFFC0320102D09D2C4
:10BE000001990843786001983818416801220A4373
:10BE1000426041E006990843786001202843049974
:10BE2000486004984551A0680090C608202E01D3B0
:10BE300000F0A2FC009800282BD0606903900196C6
:10BE4000F00020182830029006460098102801D2F1
:10BE500000F092FC206801990200CA40D10705D485
:10BE60000121019A91400143216008E00298806815
:10BE70002169884201D3060001E000F07DFC0398AF
:10BE8000029988600398F06003988660029803998D
:10BE9000C860A560049860613800083002E000F0D6
:10BEA0006BFC002007B0F0BDF0B587B0040000BF08
:10BEB00000BFBA4DF52C00D325E10B2C01D2102484
:10BEC00002E00B3407208443E008009028680099C2
:10BED000C840032738424DD00126012282438818EA
:10BEE0000090C00028182830029084680098C00094
:10BEF00003906068072188430399884201D000F0CD
:10BF00003BFCA06801900298844201D100F034FC0F
:10BF10000198844201D100F02FFC6068072188431A
:10BF20000399884201D000F027FC029801998842C9
:10BF300006D12968009A01209040814329600FE0D2
:10BF400008462969884209D3C068A04206D10198F1
:10BF50000299886002980199C86001E000F00CFC29
:10BF60000398074367600398201841680E434660B2
:10BF7000260007E1A968A14200D3D7E0002800D13C
:10BF8000B7E00126009901228A405100009A9040B2
:10BF90004A420A43024051421140491E080B1022F6
:10BFA0001040C1404A0908231A400092D1408A0833
:10BFB00004231A400192D1404A0802231A400292F7
:10BFC000D1404A083240009BC018019BC018029B18
:10BFD000C0188018D14040180390C000281828309D
:10BFE0000090806804900398C00002900498406814
:10BFF000072188430299884201D000F0BDFB0498D4
:10C000008068019004980099884201D100F0B4FB47
:10C0100004980199884201D100F0AEFB0498406871
:10C02000072188430299884201D000F0A5FB0098BF
:10C030000199884206D12968039A012090408143E2
:10C04000296010E00846296988420AD3C06804992B
:10C05000884206D101980099886000980199C860CB
:10C0600001E000F089FB0298001B0390274304982D
:10C07000476004980019059003983043059948607B
:10C08000039805990850A8680090C408202C01D393
:10C0900000F072FB0098002825D068690290019496
:10C0A000E0002F1828373C000098102801D200F03B
:10C0B00063FB286801990200CA40324003D18E40D8
:10C0C00006432E6007E0B8682969884201D304005E
:10C0D00001E000F051FB0298B8600298E06002981D
:10C0E00084600298C7600398A86005986861049E00
:10C0F00048E06868002836D021002800FFF7BCFD22
:10C10000060013D045E03F20C043844202D3002400
:10C11000E4430BE00B34072084436868002805D013
:10C1200021002800FFF7C0FB060032D1A968A14218
:10C1300019D30A1B686901260327102A08D301199D
:10C140006961AA6016434E608A502743476008E041
:10C150000022AA606A610F43476041184A6816438B
:10C160004E6006000EE0E86884420DD2001BE860D5
:10C17000A9690A19AA6101230343536003202043DC
:10C1800048600E00083604E021002800FFF792F90D
:10C19000060000BF00BF300007B0F0BDEC36002045
:10C1A000002800D17047F0B585B00838050000BF01
:10C1B00000BF474C2069854200D2D2E26B68032160
:10C1C00003221A40012A00D1CBE2DE08F600AA19A8
:10C1D000029201273B4241D12A680B4000D1C2E2C2
:10C1E000B6185342ED18854200D2BAE263699D4207
:10C1F00000D102E1D108202900D380E0A868019095
:10C20000E868009003910098854201D100F0B4FAEB
:10C210000198854201D100F0AFFA68680721884390
:10C220000399C900884201D000F0A6FA0398C00023
:10C230002018019902002832914205D022699142CA
:10C240005AD3C968A94257D10099019A914243D162
:10C250002168039A01209040814321600298854221
:10C2600000D37EE24068384200D17AE2810700D5EF
:10C27000C5E10299A269914200D0CEE0E06881193F
:10C28000E160A5610F436F606069854202D10020C3
:10C290006061A060E069884200D364E20D480068F4
:10C2A000002801D1FEF71AFFA169002900D15AE246
:10C2B000E068292802D32000FEF702FFE069E16868
:10C2C000884200D34FE20020C043E0614BE200BF50
:10C2D000EC360020843E00202830814206D00846FB
:10C2E0002169884208D38068A84205D10098D060AF
:10C2F000019800998860B1E700F03EFAAEE7A969BD
:10C300000091EA68AA420DD0A9680192814228D31F
:10C31000C868A84225D19068A84222D1CA60019875
:10C32000816020E0290014310A680192002A09D1B5
:10C33000290010310A680192002A14D002E011008D
:10C340000A680192019A14321368002BF7D1019AFE
:10C3500010321368002BF2D1814202D30020086012
:10C3600001E000F009FA0098002800D176E7E869BA
:10C370008000201898214900401801688D420AD198
:10C3800001990160002915D16168EA690120904096
:10C390008143616062E700982169884208D300699F
:10C3A000A8420198009901D1086103E0486101E0C9
:10C3B00000F0E2F90198002800D14FE720690199C7
:10C3C000814299D30099019A91612969002908D085
:10C3D000814204D3019801610198886101E000F075
:10C3E000CBF96869002800D138E72169884283D3F6
:10C3F000019948610199816130E7029840680140E4
:10C40000032900D02AE7A66002984068B843029941
:10C41000486037436F60AE51A5E16269914207D130
:10C42000A0688019A060656107436F6028509AE199
:10C43000072188433618C00820284BD20299896802
:10C4400000910299C968039101900298039988426A
:10C4500001D100F091F902980099884201D100F0D1
:10C460008BF902984068072188430199C9008842E6
:10C4700001D000F081F90198C00020180099020055
:10C480002832914208D02269914200D2ACE0C968BA
:10C49000029A914200D0A7E00399009A914206D1F6
:10C4A0002168019A01209040814321609EE028305C
:10C4B000814209D008462169884200D294E0806810
:10C4C0000299884200D08FE00398D06000980399C9
:10C4D00088608BE00298806901900298C068029998
:10C4E000884212D0029989680090206981422CD339
:10C4F000C868029A904228D100988068904224D15E
:10C500000098C8600098816021E0029814300168AA
:10C510000091002909D1029810300168009100298A
:10C5200015D002E0080001680091009914310A68F2
:10C53000002AF7D1009910310A68002AF2D1216946
:10C54000884202D30021016001E000F015F9019852
:10C5500000284BD00298C06980002018982149001B
:10C5600040180299026891420BD10099016000299C
:10C5700017D161680298C2690120904081436160CF
:10C5800034E001982169884209D300690299884200
:10C590000098019901D1086103E0486101E000F0D1
:10C5A000EBF80098002821D02069009981421BD324
:10C5B0000199009A916102990969002908D0814284
:10C5C00004D3009801610098886101E000F0D4F87C
:10C5D00002984069002809D02169884204D3009953
:10C5E00048610099816101E000F0C6F80120304304
:10C5F0006860AE516069854208D1A660B3E0B84377
:10C6000002994860012030436860AE51F00820284C
:10C6100025D20090C0002018283001900290102EE2
:10C6200001D200F0A9F8206800990200CA403A40FF
:10C6300003D18F400743276008E001988068216993
:10C64000884201D3029001E000F096F801988560DD
:10C650000298C5600298A8600198E86083E0300AFB
:10C6600001D1002227E03904884201D31F2222E0B1
:10C67000FF21C9434118090C08221140009188404C
:10C680003B494118090C0422114001918840394965
:10C690004118090C022211400E22009BD21A019B64
:10C6A000D21A521A8840C00B10184100C01D320027
:10C6B000C2403A408A18900020189821490040183A
:10C6C0000090EA6100206861286161680B00D34036
:10C6D0003B4007D197400F43676000980560009882
:10C6E000A8611EE0009909681F2A01D1320006E006
:10C6F000192352089B1A32009A4000E039004B6817
:10C700000727BB43B3420FD0D30F9B00CB18103386
:10C7100052001F68002FF1D12069834210D31D60A1
:10C72000A961ED60AD600DE08A682369994207D385
:10C730009A4205D3D5608D60AA60E960A86101E0E6
:10C7400000F01AF8206A401E20620CD1E42040005C
:10C75000205800E080680028FCD10020C0432062FF
:10C7600001E000F009F800BF00BF05B0F0BD000017
:10C7700000F0FFFF00C0FFFF80B5012000F084F84B
:10C7800001BDF8B401684218436859085118009176
:10C790008168DB0701D54B46C918009B9A4202D13C
:10C7A0000C30F2BC70471378521C032403261E4041
:10C7B00002D11678F61C521C1D090F2D07D11578D1
:10C7C0000F35521C03E01778521C0F70491C761E5F
:10C7D000F9D1002DE1D01678521C9B081C40032C87
:10C7E00001D11478521C2302F3185C420B19AD1CC2
:10C7F000D3D01C785B1C0C70491C6D1ECDD0F8E7A3
:10C8000007490868002801D0002070470548072222
:10C810009043086004499143091A0160704700BFC2
:10C82000083F00208F290020882D0020124207D0C9
:10C830008B0706D00B78491C0370401C521EF7D89A
:10C840007047830706D00B78491C0370401C521EAA
:10C85000F9D1704770B4103A03D378C9103A78C050
:10C86000FBD2530701D318C918C001D508C908C0A5
:10C87000D20704D30B880380891C801C002A01D5B1
:10C880000B78037070BC704780B500BF00BF024AD0
:10C8900011001820ABBEFBE72600020080B5224A3B
:10C8A000012100BF29A001F06DFC204A012100BF39
:10C8B00027A001F067FC1E4A012100BF25A001F05E
:10C8C00061FC1C4A012100BF23A001F05BFC1A4A55
:10C8D000012100BF21A001F055FC184A012100BF31
:10C8E0001FA001F04FFC164A002100BF1DA001F05F
:10C8F00049FC144A002100BF1BA001F043FC124A6E
:10C90000002100BF19A001F03DFCB84801F05CFE19
:10C91000012001F076FF00BF15A002F031F80020E1
:10C9200001F06FFF01BD000045D1010031D90100C8
:10C930002DD0010059D3010085D50100C5D70100D4
:10C9400071D20100D1D201002DD30100F0380020B6
:10C95000B0390020103900205039002070390020F3
:10C9600090390020783D0020A43D0020303900207F
:10C970003E2044657669636520636F6E74726F6CE8
:10C9800020696E69742E0D0A00000000F8B5984CFD
:10C99000607A984980221203012801D10A6002E0DE
:10C9A000002800D14A60944E207901280DD1022040
:10C9B00002F0E0F8A062012001F023FFA16A30003C
:10C9C00001F0DEFF002001F01CFF207902280DD1CC
:10C9D000012002F0CFF8A062012001F012FFA16A4D
:10C9E000300001F0CDFF002001F00BFF0227A07AFC
:10C9F00001281CD1A772606A02F016FFC8214843C3
:10CA0000FA2189004218530CD203480800218018EB
:10CA10005941FA229200002302F00EFF0100002289
:10CA200020006C3001F0EAFB606A02F0E3F8734822
:10CA300001680026002903D0491E0160012515E088
:10CA400002F020F8032801D102250FE002F01AF8C5
:10CA5000042801D1032509E002F058FF002801D184
:10CA6000042503E0207B012800D00025644F217BB2
:10CA7000E8B288421BD025736249EDB2012D06D081
:10CA800015D3032D0BD006D3042D0BD00FE00322BA
:10CA90003221322009E03A00FA20C00005E03A00D5
:10CAA000C82002E03A00C249642000F070FA207801
:10CAB000C04D627B904223D06073401E0B280ED87D
:10CAC00001A1095C8F4400BF103A400C44489EA469
:10CAD000A8ACB0B84CA050E02670A06A00285BD18A
:10CAE00050A000F085FA2889C019288103F054F974
:10CAF000617BA06A03F0F6FD617BA06A04F036F961
:10CB00004AE000BF4FA038E055A036E0AA4834E024
:10CB100059A000F06DFA617BA06A03F0E3FD617B30
:10CB2000A06A04F023F92670A06A002834D028896E
:10CB3000401C2881012001F064FE00BF56A001F0D6
:10CB40001FFF002001F05DFE03F026F904F0ABFCAE
:10CB50000200617BA06A04F051F900281CD1A06A90
:10CB600003F000FA18E000BF53A006E059A004E06B
:10CB7000CC4802E0CC4800E05DA000F039FA0AE0C1
:10CB8000CA4800F035FA617BA06A03F0ABFD617B17
:10CB9000A06A04F0EBF82670688E298E884223D0B4
:10CBA00002F0B4FE00281FD06C8E641CA4B2A0203A
:10CBB000C000844200DB0024012001F022FE21009D
:10CBC00051A001F0DDFE002001F01BFED5484068B9
:10CBD000E100401802680621406804F00FF90028BF
:10CBE00002D06C8603F0D8F8F1BD00003C1F002095
:10CBF000C4380020080500509C870200E83E002051
:10CC0000FFFF0000B80B000052414D3A53746172AF
:10CC1000744F7574707574556E6272656C6C612EAC
:10CC20006D70330052414D3A4F7574707574556E86
:10CC30006272656C6C61537563636573732E6D709E
:10CC40003300000052414D3A54616B65546865559C
:10CC50006E6272656C6C61536F6F6E2E6D70330017
:10CC600052414D3A486176654E6F556E6272656C01
:10CC70006C612E6D7033000052414D3A496E7075F3
:10CC800074556E6272656C6C615375636365737322
:10CC90002E6D7033000000003E20634A534F4E203B
:10CCA000726570617920756D6272656C6C6120735C
:10CCB00074617475730D0A0052414D3A446F4E6FA2
:10CCC000744F63636C7573696F6E446F6F722E6D12
:10CCD0007033000052414D3A496E707574556E6262
:10CCE00072656C6C61536F6F6E2E6D703300000057
:10CCF00052414D3A526573746172744F7570757418
:10CD00002E6D7033000000003E205265706F72740B
:10CD10002048697374726F793A25752E0D0A0000E8
:10CD200070B5BE4C20002C3001F094FA01256572DC
:10CD30000020E083502004F01AFD25711D48008971
:10CD400000280DD10522FA218900C82000F02CF915
:10CD500003202070012001F054FD00BF17A010E057
:10CD6000AF4EB068800C05400CD11E2264216420B7
:10CD700000F01AF90E202070012001F042FD00BFE2
:10CD800015A0B9E0012001F03CFD00BF19A001F0A1
:10CD9000F7FD002001F035FD8020C0013060002249
:10CDA000A421490020002C3001F028FA70BD0000B9
:10CDB0008813000008250020B48702003E20426F3F
:10CDC00072726F775F416374696F6E20456D707426
:10CDD000792E0D0A000000003E20426F72726F77BC
:10CDE0005F416374696F6E20495220537475636BA1
:10CDF0002E0D0A003E20426F72726F775F4163749E
:10CE0000696F6E204E4F5420737475636B210D0A49
:10CE10000000000070B50126804C267120002C30E7
:10CE200001F018FA66720020E083502004F09FFCA5
:10CE3000B6480925058140890A280BDA0522FA211E
:10CE40008900C82000F0B0F82570012001F0D9FC5D
:10CE500017A010E072488168890C0E400CD11E2288
:10CE60006421642000F0A0F80E202070012001F061
:10CE7000C8FC00BF14A03FE0052121708021C9013A
:10CE80000160012001F0BDFC16A001F079FD002039
:10CE900001F0B7FC00229E4920008C3001F0AEF971
:10CEA00070BD0000D0870200E887020008880200F9
:10CEB0003E2052657061795F416374696F6E2046F0
:10CEC000756C6C2E0D0A00003E2052657061795F12
:10CED000416374696F6E20495220537475636B2EE1
:10CEE0000D0A00003E2052657061795F41637469EC
:10CEF0006F6E0D0A0000000001F042FD002001F0FD
:10CF000080FC70BD80B5012001F07BFC06A001F023
:10CF100037FD002001F075FC00227D49C74801F073
:10CF20006DF901BD3C2500203E204D6F76652066E1
:10CF30006F727761726420616374696F6E0D0A00AD
:10CF400080B5012001F05DFC05A001F019FD002075
:10CF500001F057FC00226E49B94801F04FF901BDBC
:10CF60003E204D6F7665206261636B20616374695A
:10CF70006F6E0D0A0000000080B58021C901B14A22
:10CF800011600021254AD18304F0B1FC01BDF8B540
:10CF900005000F001600AC4C20000C3001F05AF9CF
:10CFA0005C48802189010BE0F8B505000F001600F0
:10CFB000A64C20000C3001F04DF919488021C90120
:10CFC00041600022E280227225806780A680016095
:10CFD00001202072E803FA2149004018490004F0BA
:10CFE000C2FC0100002220000C3001F007F9F1BD65
:10CFF00038B50500094C20006C3001F02BF9802079
:10D000008002074908600020A07265620022404942
:10D0100020006C3001F0F2F831BD0000C43800206F
:10D020000805005080B504F02BFD01BDF8B50127BF
:10D03000384DA64CE079002805D138072860C00893
:10D040006860E7712772A8682100EC3100918009BF
:10D0500038400BD1207A012808D1022004F047FC87
:10D06000677100222A49009801F0C8F8207C401C12
:10D070000026C0B2642803DBA07B401CA073002004
:10D080002074A07B002810D0A67304F0F9FC0120C6
:10D0900001F0B7FB20A001F073FC002001F0B1FB10
:10D0A000E07B401CE07302202070E07B03282BDB38
:10D0B000012001F0A6FB00BF1BA001F061FC0020D5
:10D0C00001F09FFB78062860C00068602672267118
:10D0D0008000286040086860A868800A384002D153
:10D0E000042004F004FCA868C00907400CD1207A91
:10D0F000002809D1022004F0FAFB20004C3001F096
:10D10000A9F8009801F0A6F8F1BD0000082500205C
:10D11000CD0C0000080500503E20C7EBBEA1BFECBF
:10D12000C8A1C9A10D0A00003E20B3F6C9A1CAA733
:10D13000B0DCA3ACC3BBD3D0BCB0CAB1C8A1C9A139
:10D140000D0A0000F8B5814D0127604C6078002879
:10D1500004D178072860400068606770A868000AFA
:10D16000384002D1042004F0C2FBA078A16A002953
:10D1700007D1002810D1F805286040086860A77022
:10D180000AE0012808D1A868000E384004D1012027
:10D1900004F0ADFB04202070E08B0B281BDBA8689B
:10D1A000400D384017D00522FA2149004800FFF70A
:10D1B000FBFE20002C3001F04DF80120FFF7DCFED3
:10D1C0000D202070012001F01CFB614801F0D8FB0C
:10D1D000002001F016FB0026E08B652818DBA8680C
:10D1E000000E074014D1A06A002811D0E683012068
:10D1F000FFF7C2FE207804280AD1FFF783FE012042
:10D2000001F0FFFA12A001F0BBFB002001F0F9FAD7
:10D21000E08B411CE1834F4988420EDBE68301200D
:10D22000FFF7AAFE0F202070012001F0EAFA9C48C7
:10D2300001F0A6FB002001F0E4FAF1BD1039002056
:10D24000703900200C0500506C3D0020983D0020F6
:10D250003E20496E204D6F76655F466F7277617232
:10D26000645F416374696F6E28290D0A0000000035
:10D27000F8B500228B4CE0888B49884200D1E280CF
:10D28000E388A1888B4220D2304DFA2189004808DA
:10D290008026B601277A002F09D06E6022725B1CAF
:10D2A000E380A2889BB293420FD2628803E02E6093
:10D2B000012222722288D203101804F054FB0100CC
:10D2C000002220000C3000F099FFF1BDC43800208E
:10D2D000F8B50022754CE0887349884200D1E2809D
:10D2E000E388A1888B4220D2984DFA218900480812
:10D2F0008026F601277A002F09D06E6022725B1C0F
:10D30000E380A2889BB293420FD2628803E02E6032
:10D31000012222722288D203101804F024FB01009B
:10D32000002220000C3000F069FFF1BD8848817AAE
:10D330000A0002D1012181727047022905D1002122
:10D340008172802080028349086070470805005080
:10D35000C4D4010070170000F8B57D4C2000EC30FB
:10D3600000F078FF20002C3000F074FF03207A4991
:10D370000881A06A0125754E002808D0A1790029EE
:10D3800005D1A905316049007160A571E572218C54
:10D390000B290BDBB168090E2940084306D1E07A5E
:10D3A000012803D104F0A3FAA571E5700027A06A53
:10D3B000002802D1A571E57002E0E078012858D17B
:10D3C000052020706078002804D168073060400094
:10D3D00070606570B068C00510D4607C00280DD105
:10D3E000012001F00EFA00BF31A001F0C9FA0020BF
:10D3F00001F007FA042004F07AFA6574208C0B28F7
:10D400001CDBB068400D284018D00522FA214900E5
:10D410004800FFF7C9FD20002C3000F01BFF012061
:10D42000FFF7AAFD0D202070012001F0EAF900BFEE
:10D4300024A001F0A5FA002001F0E3F9208C3328A4
:10D4400017DBB068000E054013D1278420002C3074
:10D4500000F000FF207805280BD1012001F0D1F960
:10D460001DA001F08DFA002001F0CBF9FFF768FD57
:10D470006774208C411C2184CA4988420EDB2784B2
:10D480000120FFF779FD0F202070012001F0B9F98C
:10D4900018A001F075FA002001F0B3F9F1BD000009
:10D4A000F4D401006C3D0020FFFF0000983D0020F7
:10D4B0003E20B9D8B1D5BFAAB9D8C3C5B5E7BBFA24
:10D4C0000D0A00003E204D6F746F72206973205367
:10D4D0007475636B2E0D0A003E204D6F746F7220C1
:10D4E00052756E6E696E6720666F72776172652E17
:10D4F0000D0A00003E204D6F746F722052756E6EE3
:10D50000696E672054696D656F75742E0D0A000091
:10D5100010B50E48802149030160090A41600C4C96
:10D520000120607202202071012001F06AF900BF21
:10D530000AA001F025FA002001F063F900229A49BF
:10D540002000CC3000F05AFE10BD0000080500504D
:10D55000C43800200C050050082500203E20C7EBF1
:10D56000BDABC9A1D5DBB5FEBAC3BAF3C9A1CDB76E
:10D57000CFF2C0EFB7C5C8EBBBB9C9A1BFDA0D0A7E
:10D5800000000000F0B583B0CE4C207D401C20751B
:10D59000A07D401CA075012001F033F9A17DCA488F
:10D5A00001F0EEF9002001F02CF9012001F029F939
:10D5B000E37CA27C217D00BF4CA001F0E1F90020BA
:10D5C00001F01FF90025207D642803DBA07C401CAE
:10D5D000A0742575A07C00280ED0A57404F050FA24
:10D5E000012001F00EF9B94801F0CAF9002001F05C
:10D5F00008F9E07C401CE0742000AC300190200071
:10D600008C3000900127B24EE07C032820DB012003
:10D6100001F0F7F83CA001F0B3F9002001F0F1F8B7
:10D62000E574607D002804D1B80730604008706060
:10D630006775B068800A38400AD1042004F057F9B1
:10D6400000F09AF8009800F005FE019800F002FE44
:10D65000A06A00280ED0B068800C38400AD0A07DA7
:10D66000192807DB607D002804D1B8073060400826
:10D6700070606775B068800C074009D0012001F028
:10D68000C0F800BF2AA001F07BF9002001F0B9F832
:10D69000A06A002808D0012001F0B3F829A001F009
:10D6A0006FF9002001F0ADF8B06840051DD4607D31
:10D6B00000281AD0042004F01AF906202070012056
:10D6C00001F09FF825A001F05BF9002001F099F826
:10D6D00000F052F82575A574E5746575A575009878
:10D6E00000F0B8FD019800F0B5FDF7BD3E20737461
:10D6F0006570203D2025642C69203D2025642C6A1E
:10D70000203D2025640D0A003E20BBB9C9A1CAA74F
:10D71000B0DCA3ACC3BBD3D0BCB0CAB1BBB9C9A148
:10D72000A3ACB9D8B1D5B5E7BBFA0D0A000000002B
:10D730003E2049525F434845434B2829203D3D2028
:10D74000310D0A003E2067735F524649445F5265BF
:10D750006164203E20300D0A000000003E20636C12
:10D760006F736520616C6C207468652074696D65E9
:10D7700069640D0A0000000080B5012001F041F845
:10D780000AA001F0FDF8002001F03BF84D4800210F
:10D79000017141708171C172C1708170C17101727A
:10D7A000417201BD70170000CD0C00003E20617475
:10D7B0002074686520496E6974466C616728290D7C
:10D7C0000A000000F8B5424880683E4C8105C90F48
:10D7D00004D1032004F08BF80120E075207E401C6A
:10D7E0002076012001F00DF8217E00BF39A001F064
:10D7F000C7F8002001F005F8A06A002801D0012038
:10D80000E0760027207E322818DB012000F0F9FFA7
:10D8100033A001F0B5F8002000F0F3FF08202070DD
:10D820002776607E401C6076012000F0EAFF617E72
:10D830002FA001F0A5F8002000F0E3FF80256D0384
:10D840002E0A607E032814DBA07E002811D101205F
:10D8500000F0D7FF29A001F093F8002000F0D1FFDD
:10D860001B48066045600C202070A776E77627717C
:10D8700013E0E07E002810D0207E14280DDB01206C
:10D88000A07600F0BEFF00BF24A001F079F80020D0
:10D8900000F0B7FF0E48066045600D48806800053F
:10D8A0000FD4E07D00280CD0032004F020F80B20DA
:10D8B00020702771E775A776E7762000CC3000F05E
:10D8C000C9FCF1BDC438002020880200E0D8010066
:10D8D000080500503E2069203D2025640D0A000007
:10D8E0003E20C7EBBEA1BFECBBB9C9A10D0A000029
:10D8F0003E206A203D2025640D0A00003E20CAAE6D
:10D90000CEE5C3EBB5BDA3ACB9CAD5CFA3ACC3BB01
:10D91000D3D0BBB9C9A10D0A000000003E20BBB99D
:10D92000B9CAD5CFC9A1B3C9B9A60D0A0000000074
:10D9300070B51E4C207F401C20778D4DA9680126B4
:10D94000890C314031D0617901292ED1A16A002999
:10D950002BD1C0B2142828DB20004C3000F07AFC18
:10D9600020002C3000F076FC2670B00728604008BC
:10D970006860A868800A304007D1042003F0B7FF30
:10D98000267270062860C0006860A868C00906405A
:10D990000BD1207A012808D1022003F0A8FFFFF75D
:10D9A000EBFE2000EC3000F055FC70BDC4380020C8
:10D9B000F8B50D1D2C686FA1200004F00BF90028AC
:10D9C0000CD1012000F01DFF6B4800F0D9FF0020B2
:10D9D00000F017FF6868FFF70BFBF1BD67492000F7
:10D9E00004F0F8F800280BD1012000F00AFF644889
:10D9F00000F0C6FF002000F004FFFFF791F9F1BD31
:10DA00006049200004F0E6F800280BD1012000F066
:10DA1000F8FE5D4800F0B4FF002000F0F2FEFFF7D2
:10DA2000F9F9F1BD5949200004F0D4F8002806D1D5
:10DA3000FFF76EFD012000F0E4FE554891E05549E6
:10DA4000200004F0C7F8002808D1012000F0D9FE1A
:10DA500051480178514800F093FF84E08027FF038C
:10DA6000434D7E004E49200004F0B4F8002806D152
:10DA70002E606F60012000F0C4FE4A4871E04A4900
:10DA8000200004F0A7F8002806D12F606E60012066
:10DA900000F0B7FE454864E04549200004F09AF8DC
:10DAA000002807D1012003F022FF012000F0A9FE89
:10DAB000404856E04049200004F08CF8002806D188
:10DAC00004F090FA012000F09CFE3C4849E03C49FB
:10DAD000200004F07FF8002806D104F06BF9012043
:10DAE00000F08FFE37483CE03749200004F072F820
:10DAF000002806D104F0A6F9012000F082FE334888
:10DB00002FE0334D3349200004F064F8002802D19F
:10DB100004F0D3F907E03049200004F05BF8002856
:10DB200006D104F020FA012000F06BFE280018E076
:10DB30002A49200004F04EF8002806D104F0E6F946
:10DB4000012000F05EFE26480BE02649200004F08C
:10DB500041F800280AD104F02FFA012000F051FE0C
:10DB6000214800F00DFF002000F04BFEF1BD000049
:10DB70000805005074747300308802004488020065
:10DB80004C88020068880200708802008C880200BD
:10DB900098880200B0880200C4380020B8880200CB
:10DBA000CC880200E0880200F4880200FC880200B1
:10DBB00010890200188902002889020030890200B9
:10DBC00048890200588902006C8902007C890200A1
:10DBD000A489020094890200B8890200CC8902005D
:10DBE000E0890200FC890200088A0200002805D4AE
:10DBF0000121C006C00E81408D4801607047002899
:10DC000005D40121C006C00E81408A4801607047DA
:10DC1000002805D40121C006C00E8140864801605D
:10DC2000704710B5C20018231340FF249C40E24304
:10DC30008907090E9940002801D4BB4B03E0BB4B78
:10DC40000007000F083880088000181803681A4081
:10DC50001143016010BD0000401E00BF00BF00BFA7
:10DC600000BF00BF00BF00BF00BF00BF00BF00BFBC
:10DC700000BFF1D1704738B580208002AC49086000
:10DC8000AC488021490201640160AB4C012525604C
:10DC90002F20FFF7E1FF6560A84C002525612F20AC
:10DCA000FFF7DAFFE57031BDF8B5A44EF568002D39
:10DCB00038D00024C54800683169401A07023F0A7D
:10DCC000286887421CD33F1A24182800ED69017C7C
:10DCD000002913D00021017442698169F369180099
:10DCE0000AD010009847002808D000BF0EA2FF21DC
:10DCF000623104F035FA01E008009047002DDFD1D1
:10DD0000B0787178814206D1401CB070C0B2022850
:10DD100001D10020B070B078800030184461142028
:10DD2000FFF76DFFF1BD0000443A5C776F726B73D3
:10DD3000706163655C41442D31355C41442D313562
:10DD40005C6669726D776172655C56332E305C6615
:10DD500069726D776172655C53444B5C6C69627289
:10DD600061726965735C74696D65725C6170705F26
:10DD700074696D65722E6300FFB5704AD0680390B8
:10DD8000107869460871002069460B795C1E0C7199
:10DD90000121002B45D093686C462479E4001B19BF
:10DDA00000931B7817E02C00ED69002D13D0BD42C5
:10DDB000F9D1AC4207D1F669D660002E03D1AF4E3F
:10DDC0003160106111712E68ED69E561002D02D09E
:10DDD0002C68A4192C60009D6D78DCB2AC42D3D0C5
:10DDE000009C6468DBB218255D4364195B1C009ECF
:10DDF000B678DDB2B54200D100232578022D02D0DD
:10DE0000032D07D0E7E764680294D6683400250044
:10DE1000029FCAE7D468002CDDD02074E469D46086
:10DE2000F8E7D268039B9A4200D0012004B0F0BD0D
:10DE300000E100E000E200E080E200E0FCB53F4AE3
:10DE4000D1680191137800211C00631EDBB2002C05
:10DE500006D1D068019A904263D00120F6BDD4600B
:10DE600000282FD19468DD00641925786678B542C2
:10DE7000EAD0666818276F43F6196D1C2570A778DD
:10DE8000EDB2BD4200D1217074683578012DE9D121
:10DE9000257C002DE6D1B5686560F568A56035691B
:10DEA000E5607569A5611579002D00D06160656830
:10DEB0001669AE1B3602360ABD4FBE4205D2A568B2
:10DEC00075190AE00400E069F1E71669751B2D0277
:10DED0002D0AA668B54202D2751B256000E02160BC
:10DEE0006160A16001252574E161D668002EB6D07D
:10DEF00037682568AF4203D37D1B3560E661AEE726
:10DF000000963768AF4205D2ED1B0096F669002EE9
:10DF100002D0F6E77F1B37602560E661009DEC616B
:10DF20009EE70020F6BD000000E400E01CED00E0EC
:10DF300080E100E00813014004100140EC3D0020A6
:10DF4000FEB5BF4FF86800283CD0006802901F4C17
:10DF50002068009038690190BA4D00980199461ADE
:10DF60002E40F61CF878002812D1B74880214902CB
:10DF7000016401601120FFF74BFE1120FFF736FE10
:10DF80000120B24908602F20FFF766FE0120F870DB
:10DF90000298864200D20600019880192840E0636A
:10DFA0002168009A801A2840891A0D40ED1CA84269
:10DFB0000AD22068E0632F20FFF74EFE1120FFF702
:10DFC0001EFEF7BDFFF757FEF7BD00000415014028
:10DFD000F0B585B000249A4D28690390E968029154
:10DFE0006A781100AB789A420FD0491CC9B2022955
:10DFF00000D100218A00AA185269019280180002FB
:10E00000000A28610120009001E0019400946970E9
:10E01000FFF7B2FE0600E868009900291FD00199B9
:10E02000009413E0C91A009EF318009300231360B4
:10E030000190D069D368002B08D0039E009FF61989
:10E040003602360A56609360D461019C002805D0E0
:10E05000020013689942E5D2591A11600126E8605E
:10E060002000FFF7EBFE002801D1002E02D002981D
:10E07000FFF766FF0020287105B0F0BD08100140D1
:10E0800010B54278521C8478D3B2A34200D100224A
:10E090000478D3B2A34201D1002010BD0A704168B8
:10E0A000407818225043081810BDF0B583B00C001A
:10E0B00017001E00C00000907E4D01A9A868009ABC
:10E0C0008018FFF7DDFF002801D10420FEBD0121EB
:10E0D000017044605E4909688160C7600661089903
:10E0E000416168460079A968D6E080B57248002190
:10E0F000016441648164C16401604160FFF7D4FD43
:10E1000001BD80B5FFF764FF01BDFBB51500032716
:10E110003D4204D100264A4C002D02D1A6600720C2
:10E12000FEBDFFF7A8FD0298E0612770A5601835D5
:10E130000020A168C20089180E704E706A461279DC
:10E140008A704D6069460979182251436D18401C48
:10E150000328EEDBE6606670A6701420FFF758FD1A
:10E1600003211420FFF75DFD1420FFF73FFD384D1C
:10E170000098686003211120FFF753FD2868206193
:10E180000020FEBD4B4B9B68002B09D0130001D033
:10E19000002801D1072070470068037C002B01D0C4
:10E1A00008207047037441744261002070470000EA
:10E1B000FFFF7F0041480068C205D20D1CD0103A15
:10E1C000D1001820084052B20321002A01D43C4B50
:10E1D00003E03C4B1207120F083A920892009A583B
:10E1E000C24090090140012902D0032902D003E076
:10E1F000002070470120704702207047F8B50400E6
:10E200000D0017002B488068002808D0002C06D08D
:10E21000052D01D20720F2BD6069002801D1082038
:10E22000F2BD607C012801D12E0000E00026FFF73E
:10E23000C1FF009733002A002100FFF736FFF2BD2F
:10E24000EC3D0020FFFFFF000413014000100140DF
:10E2500004150140F0B583B00400164EB768002FD6
:10E2600004D0002C02D06069002801D10820FEBD36
:10E2700000252574FFF79EFFC000009001A9381803
:10E28000FFF7FEFE002801D10420FEBD022101702F
:10E29000446068460079B168009A89184870142073
:10E2A000FFF7ADFC0020FEBD0749096801600020B2
:10E2B00070470000EC3D00200011014004ED00E03B
:10E2C00000E400E01CED00E004150140401A0002EB
:10E2D000000A106000207047F4B500281AD0002909
:10E2E00018D0002A16D0002B14D0002401E0641CA2
:10E2F00024B2D51AA5420DDB002501E06D1C2DB21C
:10E300000619765D4F5DBE42F1D16E1C9E42F5D17D
:10E310000019F2BD0020F2BD01000020002900D14B
:10E32000704780B5080001F07FFA02BD70B50400A7
:10E330000026002C0BD004E00A204643303D76191D
:10E34000641C2578280003F019FF0028F4D1300060
:10E3500070BDF8B505000024002D21D028783028A4
:10E360000AD16878782801D0582805D1AD1C03E07F
:10E37000573F2001C4196D1C2E7830000FD0370094
:10E3800003F0FCFE002801D0303FF2E730004138B6
:10E39000062801D2373FECE7613E062EE8D3200085
:10E3A000F2BD000070B5002307A409E005020012C9
:10E3B0000E7846407000205A684080B2491C5B1CB1
:10E3C0009DB29542F2D370BD00002110422063300F
:10E3D0008440A550C660E770088129914AA16BB1BD
:10E3E0008CC1ADD1CEE1EFF1311210027332522265
:10E3F000B5529442F772D662399318837BB35AA30D
:10E40000BDD39CC3FFF3DEE3622443342004011434
:10E41000E664C774A44485546AA54BB5288509955C
:10E42000EEE5CFF5ACC58DD5533672261116300604
:10E43000D776F6669556B4465BB77AA719973887AC
:10E44000DFF7FEE79DD7BCC7C448E5588668A778C4
:10E450004008611802282338CCC9EDD98EE9AFF9FC
:10E46000488969990AA92BB9F55AD44AB77A966AA4
:10E47000711A500A333A122AFDDBDCCBBFFB9EEB4C
:10E48000799B588B3BBB1AABA66C877CE44CC55C74
:10E49000222C033C600C411CAEED8FFDECCDCDDD9C
:10E4A0002AAD0BBD688D499D977EB66ED55EF44E44
:10E4B000133E322E511E700E9FFFBEEFDDDFFCCFEC
:10E4C0001BBF3AAF599F788F8891A981CAB1EBA140
:10E4D0000CD12DC14EF16FE18010A100C230E320BC
:10E4E0000450254046706760B9839893FBA3DAB364
:10E4F0003DC31CD37FE35EF3B1029012F322D2320C
:10E500003542145277625672EAB5CBA5A895898533
:10E510006EF54FE52CD50DC5E234C324A01481045B
:10E520006674476424540544DBA7FAB79987B89703
:10E530005FE77EF71DC73CD7D326F2369106B016AB
:10E5400057667676154634564CD96DC90EF92FE9C3
:10E55000C899E9898AB9ABA94458654806782768FB
:10E56000C018E1088238A3287DCB5CDB3FEB1EFBA3
:10E57000F98BD89BBBAB9ABB754A545A376A167A4B
:10E58000F10AD01AB32A923A2EFD0FED6CDD4DCD73
:10E59000AABD8BADE89DC98D267C076C645C454C9B
:10E5A000A23C832CE01CC10C1FEF3EFF5DCF7CDF43
:10E5B0009BAFBABFD98FF89F176E367E554E745EEB
:10E5C000932EB23ED10EF01E002200280ED001681C
:10E5D00000290BD02E4A1168002902D1106004E0F6
:10E5E00011008A68002AFBD1886001221000704760
:10E5F000F0B593B00700002025490C68002101AA5E
:10E600008300D150401C1028FADB3878010005D077
:10E6100003F0B9FD002801D17F1CF6E70125019721
:10E620003E0002E0009806606D1C01A8A900401899
:10E6300000903078002816D0102D14DA30780100C0
:10E6400007D003F0A0FD002803D0761CF6E7307059
:10E65000761C3078010003D003F095FD0028F6D039
:10E6600030780028DED100200099086000E0A4681E
:10E67000002C0BD0012DFADB2168380003F0AAFA38
:10E680000028F4D101A928006268904713B0F0BDBA
:10E69000F83E002000290BD0002A09D0531E1A4052
:10E6A00006D10160436000218160C1600120704794
:10E6B0000020704710B50268C36844681C401155BB
:10E6C000C168491CC16010BD8168026843680B4085
:10E6D000D25C491C816010007047C1688068081ACC
:10E6E0007047C16881607047F8B504000F001500DD
:10E6F0000026002F14D0002D12D0FFF7EEFFA84205
:10E7000002D20500002D0BD02068A16862680A4083
:10E71000805CB855A068401CA0606D1E761CF1E7B7
:10E720003000F2BDF8B504000F0015000026002FE0
:10E7300017D0002D15D0FFF7D0FF6168081A401CD4
:10E74000A84202D20500002D0BD02068E168626863
:10E750000A40B95D8154E068401CE0606D1E761C83
:10E76000F1E73000F2BD0268531C0360117070477E
:10E77000F8B507000E0014006A48802292000100DC
:10E7800018310830FFF786FF674A00217AA0FFF7AB
:10E79000F9FC6648002101604161C161C163644DBB
:10E7A0006F61EE60E9666C62012062490860812257
:10E7B0009200614B1A6088600321022003F0FCFC88
:10E7C0000420286003F0B4FD002801D103F08EFD81
:10E7D0006AA000680090032069464870574A0F20DD
:10E7E00003F0B4FD00210F2003F002FE012000F031
:10E7F00008F800BF5BA000F0C3F8002000F001F8AB
:10E80000F1BD4F49002802D0012804D070470520EF
:10E810008860042002E00F208860102008607047A4
:10E82000484900220A60484A106008680028FCD065
:10E830000120704770B5040000253A4E30000830C2
:10E84000FFF74BFF002805D030000830FFF73CFFF2
:10E8500020700125280070BD80B53C48FFF73DFFC2
:10E8600080B202BD10B5374A374C0B0409D00023E3
:10E87000136003782360401C491E1368002BF4D1F9
:10E88000FBE7012010BD70B50024284D2868002842
:10E890000FD02C60234E30000830FFF71EFF2C49AC
:10E8A000884206D22B480168C9B230000830FFF711
:10E8B00001FFEC61EC6370BD10B51A4C6188002952
:10E8C0000DD10121244A116020700F2003F0D4FDE6
:10E8D00000222249862080002018FFF78FFC10BDFF
:10E8E00038B51F4D0F4CA088002811D10022E90B2C
:10E8F000862080002018FFF781FC20000830FFF7F9
:10E90000F0FE2078286001200A490860A08031BD0F
:10E910000020A0800520286000210F2003F068FD62
:10E9200031BD0000B4320020E1E8010008210040C0
:10E93000002500400020004004230040B9E8010009
:10E940000C2500401C2100401C250040BC3200204A
:10E95000FF01000018250040042000408F02000045
:10E96000142500403E205541525420696E69742E92
:10E970002E2E0D0A00000000CC3400200200000002
:10E980000EB400B582B003A900916B4602000121CC
:10E99000034878440A3003F01BFE029906B008478A
:10E9A000C9A4000052000A4399001143009A1202C0
:10E9B0000A43019909041143A54A80001150704788
:10E9C00000B583B0002101910091002301220121B3
:10E9D000FFF7E8FF07BD00B583B000220192009267
:10E9E0000B000021FFF7DEFF07BD000010B5994CBA
:10E9F000802292002100A018FFF74CFE964A0021C9
:10EA000009A0FFF7BFFB842080002018FFF7DCFD82
:10EA10000120FFF7F6FE00BF04A0FFF7B1FF0020C2
:10EA2000FFF7EFFE10BD0000AC1F00203E20475056
:10EA3000525320496E69740D0A000000874800682F
:10EA4000042800D0704710B5854C2088401C2080D9
:10EA500000F014F9FFF700FF8249C98B014301D090
:10EA600000F076FA2088401E208010BD7D498A7E05
:10EA7000824206D08876002803D1C86C0122024366
:10EA8000CA6470477748407E70470000F8B50700B9
:10EA90000C007548844200DB441E7248007E062844
:10EAA0003AD10120FFF7ADFE3A0021001CA0FFF78C
:10EAB00067FF0020FFF7A5FE0026002F1ED02000D4
:10EAC0001CD0052569480560210000BF1CA0FFF788
:10EAD00057FFFA21890066A000F0E4FC00280DD061
:10EAE0006248056021003800FFF7BCFE614900BFA5
:10EAF00017A000F0D7FC002800D026000120FFF767
:10EB000080FE3200210000BF13A0FFF739FF002074
:10EB1000FFF777FE30B2F2BD0020C043F2BD000027
:10EB20003E20475052535F536F636B657453656E5D
:10EB300064446174613A252E2A730D0A00000000B6
:10EB400041542B514953454E443D25640D0A000064
:10EB500053454E44204F4B003E2054435049505F94
:10EB600053656E642025752C207265743A25640DFA
:10EB70000A000000F1B500240027002505203B49CC
:10EB8000086000BF17A13C48FFF7FAFEFA214900D0
:10EB900016A000F087FC060019D000E0761C307843
:10EBA000010003D003F0EAFA0028F7D03000FFF7A5
:10EBB000BDFB0700761C3078010003D003F0DEFABD
:10EBC0000028F7D03000FFF7B1FB04000125280032
:10EBD00069460978012901D13800F2BD022900D126
:10EBE0002000F2BD52464944000000002B52464925
:10EBF000443A00001B49497E062900D1704780B580
:10EC000000F030FC01BD0020C043A8494A7E062A1E
:10EC10000CD0032A0AD00020052A07D10A7E062A32
:10EC200004D14C22895C490700D40120704710B5FB
:10EC30000A0001009E48FFF757FD0400000405D1BB
:10EC4000FFF7E1FF012801D00024E44320B210BD0A
:10EC500000070050CC1F00206DF501001425004076
:10EC6000B6320020481F0020010200000C250040A1
:10EC70003E000000B80B0000ECF70100F8B58B4C2B
:10EC8000E06C052701260025A18A0B2904DAE18A18
:10EC90000B2901DA304206D0B043E064656100F030
:10ECA00017FB65760BE0607E002808D0012839D07C
:10ECB000022800D197E0042800D1A0E011E0A07E56
:10ECC00000280ED000F0EAFA02F0EDFBE06566766F
:10ECD0000120FFF796FD7748FFF752FE0020FFF76F
:10ECE00090FD607E052851D1E06C410700D49BE087
:10ECF000217E0426F643082913D0002911D0C348E9
:10ED000007606D496D48FFF73BFEFA2189006C48AA
:10ED100000F0C8FB02F0C7FBA06500F03FFB2076C7
:10ED2000E06C7FE002F0BFFBE16D401A0C28D8D305
:10ED300002F0B9FB206500210120FFF74CFEB3482B
:10ED400007600321B2A0FFF78DFDB24E64213000B1
:10ED500000F0A8FBAD4807600321ADA0FFF782FDDE
:10ED6000FA218900300000F09DFB002813D000F04C
:10ED7000A1F900280CD00120FFF743FD51A0FFF7B7
:10ED8000FFFD0020FFF73DFD022060762576F1BDF6
:10ED90000320607615E00120FFF733FD4EA0FFF75A
:10EDA000EFFD0020FFF72DFD0620607600210120F9
:10EDB000FFF711FE00210020FFF70DFE607E032803
:10EDC0008FD10120FFF71DFD49A0FFF7D9FD0020DD
:10EDD000FFF717FD00210120FFF7FDFD00210020B6
:10EDE000FFF7F9FD7DE700F015FB012801D10520B3
:10EDF00000E00420607600F0A9FAA07471E702F048
:10EE000052FB216D401A1E28F8D302F04CFB2065FE
:10EE100000F000FB002803D1E08A401CE08260E79C
:10EE2000677661E70640E664207E002808D0042863
:10EE300025D00628ABD0082802D009281FD021E011
:10EE400002F031FB6065E1680029A0D0228A100041
:10EE50009DD06E48076000BF2DA0FFF791FD8D4D3E
:10EE6000290000BF31A000F01DFB002803D12900BC
:10EE700032A000F017FB00F091FA2076F1BD00F00F
:10EE800049FA83E702F00FFB616D401A3C2803D377
:10EE900000F040FA0820207602F005FBA16D401A30
:10EEA0000328EBD302F0FFFAA065E4E7481F002037
:10EEB000CC210020908A0200B08A0200ECF7010009
:10EEC000B88A02003E20475052535F4D6F64756C04
:10EED00065496E69740D0A003E2047505253206DFB
:10EEE0006F64756C65206661756C742E0D0A000088
:10EEF0003E2047505253206D6F64756C65206E6FD5
:10EF00002053494D20636172642E0D0A00000000F9
:10EF100041542B51494F50454E3D22544350222CD1
:10EF2000222573222C25640D0A000000434F4E4E0B
:10EF3000454354204F4B0D0A00000000414C524500
:10EF400041445920434F4E4E4543540D0A000000A2
:10EF5000F0B583B0002501950095A94CE08BA94937
:10EF6000884250D20527A84E3018FFF763FC0028CE
:10EF700010D01020254908600121E08B3018FFF7E0
:10EF800071FC22480760E08B401CE0832000603069
:10EF9000FFF78AF901A8FFF787F96A46216E019801
:10EFA000FFF794F9E18B7018042906DB811E4A787B
:10EFB0000A2A02D109780D2903D00099C34A914247
:10EFC00022D3057014A1300004F073FA002805D193
:10EFD00013A1300004F06DFA002802D000F0DEF931
:10EFE0002076D549300004F064FA002808D000F0FB
:10EFF00011FA012800D00427677600F0A7F9A07461
:10F00000300000F013F8E583F7BD00000C25004048
:10F0100041540D009CF40100434C4F534544000003
:10F02000434F4E4E454354204F4B0000F8B5C3A705
:10F03000390004F03EFA0400C14E002C27E0E01C29
:10F04000FFF774F985B22078010002D0641C3A28D9
:10F05000F9D10120FFF7D5FB290000BF0EA0FFF773
:10F060008FFC0020FFF7CDFB10203060290020002E
:10F07000FFF7F8FB052030602A002100C348FFF7A6
:10F0800051FB39006019401C04F013FA0400D6D17A
:10F09000F1BD0000B80B00003E20475052532053F2
:10F0A0006F636B657420526563656976653A2564A4
:10F0B0000D0D0A00F8B5002069460870A04C052522
:10F0C0002560052151A0FFF7CDFBB14E6421300032
:10F0D00000F0E8F9256005214EA0FFF7C3FB64218D
:10F0E000300000F0DFF9C54968A000F0DBF92560C9
:10F0F000C34F00BF49A13800FFF742FC6421300034
:10F1000000F0D0F9256000BF46A13800FFF738FCB9
:10F110006421300000F0C6F9256000BF43A138002B
:10F12000FFF72EFC6421300000F0BCF9256000BF21
:10F1300040A13800FFF724FC6421300000F0B2F950
:10F14000256000BF3DA13800FFF71AFC64213000A4
:10F1500000F0A8F9256000BF3AA13800FFF710FCC5
:10F160006421300000F09EF9256000BF38A138000E
:10F17000FFF706FC6421300000F094F9256000BF21
:10F1800035A13800FFF7FCFB6421300000F08AF95C
:10F19000256000BF32A13800FFF7F2FB6421300088
:10F1A00000F080F9256000BF2FA13800FFF7E8FBD1
:10F1B0006421300000F076F9256000BF2DA13800F1
:10F1C000FFF7DEFB6421300000F06CF9256000BF22
:10F1D0002CA13800FFF7D4FBFA2189002BA000F006
:10F1E00061F9002808D000BF2AA104F062F90028C4
:10F1F00002D001206946087068460078F2BD000020
:10F20000481F0020FF010000EC340020415445312C
:10F210000D000000415456310D0000004353444896
:10F220003D3000005153434C4B3D30004946433D77
:10F23000302C3000434C564C3D313000434D474656
:10F240003D310000435343533D2247534D220000BC
:10F25000435245473D320000434C49503D31000088
:10F2600051494D55583D30005149484541443D3183
:10F2700000000000434E4D493D322C322C302C30E2
:10F280002C3000004350494E3F0000002B435049B2
:10F290004E3A0000524541445900000010B500218B
:10F2A0000120FFF798FB00210020FFF794FBC82006
:10F2B00002F05DFAAF4C012020600020FFF780FBD8
:10F2C000022020600120FFF77BFB10BDAD0D000088
:10F2D00010B500240220A74908600120FFF770FB49
:10F2E000A54900BF07A000F0DDF8002800D00124E8
:10F2F00000210120FFF76FFB00210020FFF76BFBCF
:10F30000200010BD504F57455220444F574E0D0A14
:10F310000000000080B505200949086009A13848AF
:10F32000FFF72EFB954900BF5CA000F0BBF800285A
:10F3300000D0012002BD00005CF4010049504400EF
:10F340000C25004043474143543D310038B500246B
:10F3500005208B4908608BA12948FFF711FBFA2192
:10F36000890000BF0BA000F09DF805000CD000E064
:10F370006D1C2878010003D002F000FF0028F7D0B0
:10F380002800FEF7D3FF0400E0B232BDCC210020FC
:10F390009CF401002B4353513A00000070B5002546
:10F3A00005207749086000BF16A11548FFF7E8FA65
:10F3B000714900BF15A000F075F804001CD020783A
:10F3C000010002D0641C3A28F9D12078202801D10C
:10F3D000641CFAE76C48EDB2A9004018066A3000D8
:10F3E000FEF79AFF02003100200004F07EF80028AA
:10F3F00002D06D1C002EEDD1E8B270BD8813000064
:10F40000ECF7010051495354415400005354415406
:10F41000453A000080B50520594908600DA15B48B8
:10F42000FFF7AEFAFA2189000CA000F03BF80028A3
:10F430000ED001780A0002D0401C2C29F9D1FEF729
:10F4400075FFC0B2012801D0052801D1012002BDFD
:10F45000002002BD435245473F0000002B43524568
:10F46000473A000080B50521454A1160010000BF00
:10F4700003A0FFF785FA404908A000F013F801BD8A
:10F4800041542B51415544504C41593D2225732242
:10F490002C302C35302C300D0A0000004F4B0D0A5B
:10F4A00000000000F1B582B00D0000270026364CA8
:10F4B000277720006430FEF7CDFE0096E803FA219E
:10F4C00049004018490002F04EFA010000222000D5
:10F4D0006430FEF793FEE78302E0FDF7A3FD48DF0B
:10F4E000207F00283AD1E08B29498842F5D2A649ED
:10F4F0000818FFF79FF90028EFD010202049086076
:10F500000121A148E28B8018FFF7ACF905201C49C6
:10F510000860E58B6D1CE5839B48ADB24019042D56
:10F5200006DB811E4A780A2A02D109780D2903D008
:10F53000029909783E29D3D10770029800F074F936
:10F5400003002A0002999048FEF7C6FE060005D186
:10F5500004A18D4803F0ADFF0028C1D0E78330003F
:10F56000FEBD00004552524F520000000120874965
:10F57000087770470C050050B80B000010270000FA
:10F580000C25004043535100481F0020ECF70100B8
:10F59000FF010000F8B50C1D251D24687C492000E2
:10F5A00002F018FB002816D12C687AA1200002F086
:10F5B00011FB002801D1012005E077A1200002F015
:10F5C00009FB002801D1FFF751FA0120FFF719F9D3
:10F5D00029687248C1E07249200002F0FBFA002855
:10F5E0000CD10120FFF70DF96848017E8900411810
:10F5F0000A6A417E6B48FFF7C3F9C0E06AA12000A8
:10F6000002F0E8FA00281DD12C6862A1200002F067
:10F61000E1FA002806D10220644908600120FFF7C2
:10F62000CFF909E05CA1200002F0D4FA002803D150
:10F6300000210120FFF7CFF90120FFF7E2F8296848
:10F640005B488AE05B49200002F0C4FA002812D12E
:10F650002C0026685849300002F0BCFA00280BD173
:10F660000120FFF7CEF85548FFF78AF90020FFF791
:10F67000C8F8FFF713FEF1BD5149300002F0AAFAB5
:10F6800000280BD10120FFF7BCF84E48FFF778F9AE
:10F690000020FFF7B6F8FFF71BFEF1BD4AA13000CE
:10F6A00002F098FA002808D1FFF750FE040001206C
:10F6B000FFF7A7F8210045484FE0454F052545A134
:10F6C000300002F087FA00280BD13D60616800BF6E
:10F6D00046A0FFF755F90120FFF793F861683E480F
:10F6E0003BE03E49300002F075FA002812D13D603F
:10F6F0006668300000F098F881B23000FFF7B2F889
:10F700003D60022136A0FFF7ADF80120FFF779F840
:10F71000344832E037A1300002F05CFA00281FD1F3
:10F7200066681CA1300002F055FA002806D10120BD
:10F730001E4908600020FFF743F908E016A13000D9
:10F7400002F048FA002802D10021FFF744F9012015
:10F75000FFF757F8616800BF28A0FFF711F90EE026
:10F7600021A1300002F036FA00280BD16068FFF7C3
:10F7700079FE0120FFF745F826A0FFF701F90020E8
:10F78000FFF73FF8F1BD0000EC340020481F0020D7
:10F79000F4F701006F6E00006F666600C48A020015
:10F7A000D88A0200E08A02006B6579000C050050DF
:10F7B000048B02001C8B0200248B02002C8B0200A5
:10F7C000448B0200508B0200637371006C8B02004B
:10F7D0000C25004061740000848B0200A08B0200A5
:10F7E0000D0A0000A88B02007474730041542B258D
:10F7F000730D0A00706F7765720000003E2047505D
:10F800005253207465737420706F7765723A257354
:10F810000D0A00003E205454535F506C61792064FF
:10F820006F6E652E0D0A0000010000E0491C0A7889
:10F83000002AFBD1081A7047124224D0994228D9D5
:10F8400070B500251B4202D00C00002109E0002405
:10F85000012649186441944200D3A41A7641F8D392
:10F860003100012601E0764109D2001864416D4162
:10F87000A41A9D41F7D2A4185D41B619F5D3300002
:10F8800022002B0070BD1B42D8D108B503F044FE06
:10F8900008BD01D19042D3D202000B00002100200C
:10F8A0007047FEE73EB5544C95208000251828008F
:10F8B00003F0B8FEC8200290C430201801908C20BC
:10F8C00040000090230074334C4A2900200003F0CC
:10F8D000F0FE992080002018FEF776FE0120FFF749
:10F8E000C5F80120FEF78DFF03A0FFF749F80020BF
:10F8F000FEF787FF37BD00003E204D51545420696C
:10F900006E6974204F4B2E0D0A0000003A48006AC1
:10F91000C0B27047000070B505000C000026F64329
:10F92000FFF771F9002808D058480168491C0160A8
:10F9300021002800FFF7AAF80600300070BD80B54E
:10F94000FFF775F9012803DB50490A68521C0A6069
:10F9500002BD00007FB506006846017000244470B7
:10F96000029203932448016A090615D06A463100C1
:10F9700004F078F80500464901D00C88641C0C801E
:10F980000120FEF73EFF2A00310000BF05A0FEF770
:10F99000F7FF0020FEF735FF681E8041C00F04B05E
:10F9A00070BD00003E204D515454207075626C694A
:10F9B000736820746F703A25732C207265747572A9
:10F9C0006E3A25640D0A000030B5002811D01300EE
:10F9D0000FD00023594C0C255D4364196568002D38
:10F9E00004D160602170A260012030BD5B1C082B37
:10F9F000F0DB002030BD0000E8210020881300006B
:10FA000038B54F4D4F4C2100280003F0DFFF002890
:10FA100012D02100280003F0D9FF04000CD00120EF
:10FA2000FEF7EFFE210000BF47A0FEF7A9FF002070
:10FA3000FEF7E7FE002032BD0120FEF7E2FE00BF28
:10FA40004BA0FEF79DFF0020FEF7DBFE012032BD3C
:10FA500010B53B4804F067F804000BD00120FEF716
:10FA6000D0FE210047A0FEF78BFF0020FEF7C9FE65
:10FA7000002010BD0120FEF7C4FE00BF4CA0FEF721
:10FA80007FFF0020FEF7BDFE012010BDE83E0020F4
:10FA9000C43D002070B50C1D256800BF4AA1280098
:10FAA00002F098F8002817D1A068FEF73FFC050087
:10FAB000E6683000FFF7B8FE83B23200E9B2606852
:10FAC000FFF748FF002837D00120FEF79AFE616853
:10FAD0003FA0FEF755FF2CE043A1280002F07AF882
:10FAE000002809D10120FEF78CFE1548027F016A2B
:10FAF0003FA0FEF745FF1CE047A1280002F06AF88E
:10FB0000002807D1FFF7A4FF0120FEF77AFE00BF0F
:10FB100044A00CE04AA1280002F05CF800280BD1B8
:10FB2000FFF76EFF0120FEF76CFE00BF46A0FEF758
:10FB300027FF0020FEF765FE70BD0000303C00206E
:10FB4000E8210020582400203E2052657475726E12
:10FB500020636F64652066726F6D204D5154542090
:10FB6000636F6E6E6563742069732025640D0A00EF
:10FB70003E204D51545420436F6E6E65637465642E
:10FB80000D0A00003E2052657475726E20636F642A
:10FB9000652066726F6D204D515454206469736303
:10FBA0006F6E6E6563742069732025640D0A000012
:10FBB0003E204D515454204469736F6E6E656374DA
:10FBC00065640D0A000000007075626C697368005E
:10FBD0003E204D515454207075626C697368202525
:10FBE00073204F4B2E0D0A007374617475730000FF
:10FBF0003E204D51545420636C69656E7420636FD0
:10FC00006E6E6563743A25642C2070696E67206F90
:10FC100075743A25640D0A00646973636F6E6E65CE
:10FC2000637400003E2074657374204D5154542059
:10FC3000646973636F6E6E6563742E0D0A00000055
:10FC4000636F6E6E656374003E2074657374204D3F
:10FC500051545420636F6E6E6563742E0D0A00005C
:10FC6000BFF34F8F964897490860BFF34F8F00BF8F
:10FC7000FDE70000F0B583B004F0CCFA6C46082034
:10FC8000A080A020C000E0808F4E0096D94D2900B2
:10FC90003431684604F0E6FA0120FEF7B2FDA96BA4
:10FCA0001CA0FEF76DFE0020FEF7ABFDD24F3868BA
:10FCB000A0800120E080009629003C31684604F0D5
:10FCC000D1FA0120FEF79DFD296C00BF16A0FEF7BA
:10FCD00057FE0020FEF795FD0120FEF792FD3968E2
:10FCE00089B200BF16A0FEF74BFE0020FEF789FD8B
:10FCF000002000F081F828004430FEF765FC012068
:10FD0000FEF77FFD16A0FEF73BFE0020FEF779FD13
:10FD1000F7BD00003E2070734C6F672069643A2580
:10FD200023780D0A000000003E207073576F726B3D
:10FD3000446174612069643A2523780D0A0000004B
:10FD40003E205053544F524147455F464C41534823
:10FD50005F504147455F53495A453A25640D0A00B3
:10FD60003E20576F726B4461746120496E69742E36
:10FD70000D0A000010B59F4C342120003C3004F0E7
:10FD800088FB08212000343004F083FBC82001F0F8
:10FD9000EEFCFFF765FF10BD10B5964C3222A11C9A
:10FDA0000020FEF7FFFA20800023342221002000EB
:10FDB0003C3004F0DDFA00280ED1042000F011F9E7
:10FDC0000120FEF71EFD00BF04A0FEF7D9FD0020B4
:10FDD000FEF717FD012010BD002010BD3E20576F1B
:10FDE000726B20506172616D205570646174652082
:10FDF0004F4B2E0D0A00000070B5002808D00120DE
:10FE0000FEF7FFFC31A0FEF7BBFD0020FEF7F9FC7A
:10FE1000784C0023342221003C31200004F0ECFA1D
:10FE200000284BD165880026774885420AD10025F5
:10FE30000120FEF7E6FC00BF2CA0FEF7A1FD00208C
:10FE4000FEF7DFFC3222A11C0020FEF7ABFA21886E
:10FE500088420AD00120FEF7D4FC00BF29A0FEF79B
:10FE60008FFD0020FEF7CDFC06E02800022D03DA0E
:10FE7000012D1BD0002D21D10120608063486060DE
:10FE800026811C2060810F2225A120000C30FCF768
:10FE9000E1FC5F48A0853C20E0852663FFF77CFFFE
:10FEA0000120FEF7AEFC00BF21A002E0FEF7A9FC96
:10FEB00026A0FEF765FD0020FEF7A3FC70BD000044
:10FEC0000400FA050CED00E0FDFF01003E20576F35
:10FED000726B204461746120466163746F72792093
:10FEE00052657365742E0D0A000000003E20576FA6
:10FEF000726B2044617461204E6F7420496E697486
:10FF00002E0D0A003E20576F726B204461746120F1
:10FF1000435243204661756C742E0D0A00000000A8
:10FF20003132302E32352E3230312E323031000027
:10FF30003E20576F726B2076657273696F6E312049
:10FF400064656661756C742E0D0A00003E20576F63
:10FF5000726B2064617461206C6F6164204F4B2E62
:10FF60000D0A0000F0B585B00500002669460E7246
:10FF7000204F3C8E01F097FAB54988422DD3641C7E
:10FF8000A4B2A020C000844200DB002401F08BFA60
:10FF90000090019503AA21003800343004F0BCF928
:10FFA00000230822694603A804F0E2F9002814D1CE
:10FFB000042000F016F8012069460872FEF721FCC3
:10FFC000019B009A210000BFA6A0FEF7D9FC0020EB
:10FFD000FEF717FC3C86FFF7DFFE6846007A05B0A7
:10FFE000F0BD9C4908609C4848604A688242FCD049
:10FFF00048687047082500201000001095480368E5
:020000040002F8
:100000008B4200D142607047FFFF000000B4C4047F
:10001000B326000070B586B00D1D2E688F4C00BF52
:100020009CA1300001F0D6FD002829D16868FEF7B8
:100030007DF9A16BC0000D180120FEF7E2FB6A6894
:10004000296800BF95A0FEF79BFC0020FEF7D9FBB6
:1000500004A9286801F03AFA0120FEF7D2FB04A8AF
:1000600081780391C179029181790191417900915F
:100070000379C278018800BF90A0FEF781FC70E090
:1000800099A1300001F0A6FD00280BD16868FEF7A9
:1000900060F9FFF767FF0120FEF7B3FB95A0FEF7BD
:1000A0006FFC5EE098A1300001F094FD002807D1BC
:1000B0000120FEF7A6FB628E218E00BF95A04EE0C8
:1000C0009EA1300001F086FD00280DD1686800284F
:1000D00004D0FEF72BF96060FFF75EFE0120FEF70B
:1000E00090FB616898A02AE05DA1300001F072FDEC
:1000F000002811D16868002806D0010020000C30CB
:1001000004F012FAFFF748FE0120FEF77AFB210007
:100110000C3100BF91A012E097A1300001F05AFD10
:1001200000280FD16868002804D0FEF7FFF8A085EA
:10013000FFF732FE0120FEF764FBA18D90A0FEF7D1
:100140001FFC0EE095A1300001F044FD00280CD109
:100150000120FEF756FB6289218900BF91A0FEF7BE
:100160000FFC0020FEF74DFB29E0002594A1300094
:1001700001F030FD002801D1258107E092A1300077
:1001800001F028FD002804D10F202081FFF704FE94
:1001900015E000BF8EA1300001F01CFD002802D147
:1001A000FFF7E8FD0BE000BF8CA1300001F012FD6D
:1001B000002804D16580FFF7EFFDFFF751FD012016
:1001C000FEF71FFB618800BF86A0FEF7D9FB002069
:1001D000FEF717FB0120FEF714FB616885A0FEF710
:1001E000CFFB0020FEF70DFB0120FEF70AFB218963
:1001F00084A0FEF7C5FB0020FEF703FB0120FEF7FD
:1002000000FB618984A0FEF7BBFB0020FEF7F9FA32
:100210000120FEF7F6FA218E83A0FEF7B1FB002045
:10022000FEF7EFFA0120FEF7ECFA618E83A0FEF7ED
:10023000A7FB0020FEF7E5FA0120FEF7E2FAE18DC8
:1002400084A0FEF79DFB0020FEF7DBFA06B070BD30
:1002500001A8395AD83E0020FFFFFF0F08250020D3
:10026000697000003E2057726974655F53746F7245
:10027000654C6F6720696E6465783A25752C20742B
:10028000696D653A25752C20726669643A25237874
:100290002E0D0A00726561646C6F67003E20726506
:1002A00061646C6F672074696D653A25752C2072E6
:1002B000666964A3BA2523782E0D0A003E2074696E
:1002C0006D653A20253034642D25642D2564202564
:1002D0003032643A253032643A2530326420646129
:1002E000792D2564200D0A0077726974656C6F673B
:1002F000000000003E2077726974656C6F67204FC4
:100300004B2E0D0A000000006C6F67696E64657803
:10031000000000003E205374726F65204C6F6F67C1
:10032000205265636F72643A25752C205265706F98
:1003300072743A25752E0D0A000000006465766916
:1003400063656964000000003E204465766963656A
:100350002049443A25750D0A000000003E204D5109
:10036000545420636F6E6E65637420736572766596
:10037000723A25730D0A0000706F7274000000005D
:100380003E204D51545420636F6E6E65637420702F
:100390006F72743A25750D0A00000000636F756E68
:1003A000740000003E2053746F636B20436F756EC2
:1003B000743A25752C206D61783A25750D0A000078
:1003C000636C65617200000073746F7265000000F9
:1003D000636C6561726C6F67000000007265736525
:1003E000740000003E2076657273696F6E3A257561
:1003F0000D0A00003E2044657669636549443A254C
:10040000750D0A003E2053746F636B436F756E74F5
:100410003A25750D0A0000003E2053746F636B4D42
:1004200061783A25750D0A003E2053746F72654C51
:100430006F675F496E3A25750D0A00003E205374C0
:100440006F72654C6F675F5265706F72743A257595
:100450000D0A00003E204D5154545F50696E6749AB
:100460006E76743A25750D0A00000000BA48032123
:100470000181002141818181010018314160704773
:100480007CB5B54C6089010058A5A289521A00D1EB
:1004900080E06268238919401423594351180E786B
:1004A000491C0091401C608100F0FDFF606101204B
:1004B000FEF7A7F961692800FEF762FA0020FEF74F
:1004C000A0F90120FEF79DF94EA0FEF759FA002091
:1004D000FEF797F90120FEF794F900BF4FA0FEF751
:1004E0004FFA0020FEF78DF900250CE00120FEF701
:1004F00088F900982DB2415D4EA0FEF741FA002028
:10050000FEF77FF96D1C28B2B042EFDB009800784F
:10051000002828D1701E694608710120FEF771F984
:1005200047A0FEF72DFA0020FEF76BF9002500BF6B
:1005300048A60DE00120FEF764F900982DB240199D
:1005400041783000FEF71CFA0020FEF75AF96D1CC6
:100550006946097928B28842ECDB0098401C00F01B
:10056000B3F900280AD10120FEF74BF941A0FEF7AC
:1005700007FA0020FEF745F904F09AF90120FEF78A
:1005800040F900F090FF6169411A00BF43A0FEF7F7
:10059000F7F926E0C94E3078002802D100F083FF39
:1005A0006061307800281FD000F07DFF6169401A3B
:1005B000FF212E31884217D300F075FF60610120C2
:1005C000FEF71FF961692800FEF7DAF90020FEF74F
:1005D00018F904F06DF90120FEF713F93AA0FEF7BF
:1005E000CFF90020FEF70DF973BD00003E204175E4
:1005F00074684F4B5F545320253032752E730D0AAB
:10060000000000003E2068616E646C6520746865BF
:1006100020646174613A0D0A000000003E205072AF
:100620006F746F636F6C5F416E616C7973653A0DC7
:100630000A0000003E203078253032582E0D0A0086
:100640003E2041455320446563727970743A0D0A27
:10065000000000003E20BDE2C3DCBAF3B5C4CAFD11
:10066000BEDDB0FCA3BA0A203078253032582E0DFA
:100670000A0000003E20496E76616C696420424C9D
:100680004520666F726D61742C20424C4520646970
:1006900073636F6E6E6563742E0D0A003E205254B4
:1006A000435F52656164436F756E742829202D2065
:1006B000417574684F4B5F5453203D20253032758F
:1006C0002E730D0A000000003E2054696D656F75A1
:1006D0007420646973636F6E6E65637465642E0D58
:1006E0000A000000754A1278002A00D1704700B550
:1006F00083B000906846012901D155210AE00E29F6
:1007000001D1AA2106E00D2901D1AB2102E00F2978
:1007100001D1AC210171052269463B2000F01EF891
:1007200007BD70B50C4CA58923896689AE1BB34201
:1007300011DB66682B4014225343F2181170531CCE
:100740000A0001001800FCF771F86D1CA5815C48D7
:100750000168491C016070BD643B0020F0B591B098
:1007600006000F0015000120FEF74BF82A003100AB
:1007700037A0FEF705F90020FEF743F86C4600208D
:100780002070B0000121014361700120FEF739F8AB
:10079000617800BF35A0FEF7F3F80020FEF731F8CE
:1007A00000F078F804220100A01CFCF73FF8454E49
:1007B0003088401C3080A0710004000EE071002FD2
:1007C00009D0280007D00D2D05DA2A0039002000B5
:1007D0000830FCF72BF80835EAB2122A00DB1122A8
:1007E00005AD280010300021002300278AC00160D9
:1007F000521E611C28001030FCF718F8301D05A9A6
:10080000CCC8CCC105A84DDF102229002031601CC6
:10081000FCF70CF80120FDF7F4FF2178A2A0FEF709
:10082000AFF80020FDF7EDFF0120FDF7EAFF61784A
:10083000A2A0FEF7A5F80020FDF7E3FF112168460E
:1008400004F03EF81E480168491C016011B0F0BD7B
:100850003E2053656E645F436D643A2523782C20F7
:100860006C656E3A25750D0A000000003E20626539
:10087000666F726520656E6372797074696F6E3A27
:10088000206275665B315D203D20305825780D0A69
:100890000000000010B582B000206946087068466C
:1008A00004F0D8F8684600780828F8DB7A4C042170
:1008B000200004F0D1F8200016BD00000025002023
:1008C000E83E0020D0240020F8B504000120FDF708
:1008D00098FF00BF82A0FEF753F80020FDF791FFBC
:1008E000002520788007800F01280DD06B48057007
:1008F0000120FDF786FF00BF7FA0FEF741F8002032
:10090000FDF77FFF0020F2BDFDF77BFF81A0FEF722
:1009100037F80020FDF775FF607820700120FDF7A3
:1009200070FF617882A0FEF72BF80020FDF769FFC9
:10093000A07907026079074326780120FDF761FF5F
:10094000310000BF82A0FEF71BF80020FDF759FF21
:100950001A2E5DD01C2E00D18AE0352E03D0A12E98
:1009600000D176E093E00422E11D6846FBF75EFFCC
:100970006E460120FDF745FF725D29007BA0FDF763
:10098000FFFF0020FDF73DFF6D1C042DF1DB012072
:10099000FDF737FF009900BF79A0FDF7F1FF0020B8
:1009A000FDF72FFF01253E484560009801286ED1D4
:1009B000FDF727FF79A0FDF7E3FF0020FDF721FFFA
:1009C000042221000B316846FBF730FF009800F04D
:1009D0006DFD33480089010002D10321314A1170B5
:1009E000357075702E494989B170F07000F05BFD6B
:1009F0002A494861042269461920FFF7AFFE012009
:100A0000FDF7FFFE3A002548018A00BF68A01AE002
:100A10000120FDF7F6FE00BF71A0FDF7B1FF002039
:100A2000FDF7EFFE0422E11D6846FBF7FFFEFCF731
:100A300077F904201B4908700120FDF7E2FE3A0017
:100A40001648018A6CA0FDF79BFF0020FDF7D9FE38
:100A50001DE00120FDF7D5FE74A0FDF791FF0020F9
:100A6000FDF7CFFE05200F490870FCF7D3F90EE023
:100A70000120FDF7C6FE00BF72A0FDF781FF002038
:100A8000FDF7BFFE0A2007490870FCF741FD034847
:100A900007820120F2BD0000D03E0020643B002010
:100AA00008250020C43800203E206275665B305D5A
:100AB000203D20307825780D0A0000003E20616638
:100AC00074657220656E6372797074696F6E3A2016
