:020000040001F9
:10B0000088290020019A020023F90100072002008C
:10B010000000000000000000000000000000000030
:10B020000000000000000000000000005F2002009F
:10B030000000000000000000BF330200C333020024
:10B04000AF650200E7650200E3E80100FB9802003B
:10B050000B7002000000000065230200C7800200A0
:10B06000D3990200E1990200DB8F0200BB9A020033
:10B07000C79A0200F79A0200179B0200419B020048
:10B08000251E02001FE10100439B0200459B0200B8
:10B0900037E10100479B02008D7F0200499B0200BF
:10B0A0004B9B02004D9B02000000000000000000CE
:10B0B0000000000000000000000000000000000090
:10B0C000E022520080180268914203D34368D218EC
:10B0D000914202D380680028F5D170471848016872
:10B0E00000290ED1802149028160090941600021B7
:10B0F000C943C160016104214161124A11601249D2
:10B1000001600120704730B407230C0008341C4252
:10B1100001D1002304E008240D000835641B2340FE
:10B12000C918D21A8161C260012313434B602823DE
:10B1300089184B6002490969C16130BC7047000041
:10B14000343F0020A83800206859883CF0B587B00B
:10B15000040007200D000835054205D008250E0023
:10B160000836AD1B05404919029111000831014212
:10B1700005D0082115000835491B08401218170092
:10B180000298C018039005460298381AC01A019018
:10B190000326334302984360BD4201D301F0ECFA29
:10B1A0003879C00701D401F0E7FA0198102801D2DC
:10B1B00001F0E2FAA069874208D1E06801994018DD
:10B1C000E060A5610121014369606AE1606987422D
:10B1D00009D1A06801994018A0606561012101436F
:10B1E000696028505DE178680640012E00D0B9E022
:10B1F000072188430590C00820283CD2B9680091F7
:10B20000FE680490B74201D101F0B6FA0098874277
:10B2100001D101F0B1FA7868072188430499C90087
:10B22000884201D001F0A8FA0498C00020180099C3
:10B2300002002832914207D02269914200D289E06F
:10B24000C968B94200D085E000998E4206D12068D5
:10B250000121049A9140884320607DE02830864295
:10B2600005D02069864275D3B068B84272D1CE60ED
:10B270000098B06070E0B8690090FE68BE420CD0E3
:10B28000B8682169884225D3C168B94222D1B16822
:10B29000B9421FD1C660B0601EE0380014300668A5
:10B2A000002E07D1380010300668002E14D001E0BF
:10B2B00008000668310014310A68002AF8D131000C
:10B2C00010310A68002AF3D12169884202D3002193
:10B2D000016001E001F050FA009800283CD0F869C4
:10B2E0008000201898214900401801688F4209D138
:10B2F0000660002E14D160680121FA6991408843EC
:10B30000606029E000982169884207D30069B8424B
:10B31000009801D1066103E0466101E001F02CFADA
:10B32000002E19D02069864214D30099B161396981
:10B33000002906D0814202D331618E6101E001F023
:10B340001BFA7869002807D02169884202D370610E
:10B35000866101E001F010FA05983F1801980599FF
:10B360004018019078680121884378600198014372
:10B370006960019828500198C008202822D20090C6
:10B38000C000271828373E000198102801D201F08C
:10B39000F3F9206800990200CA40D10705D40121C1
:10B3A000009A91400143216007E0B8682169884212
:10B3B00001D3060001E001F0DFF9BD60F560AE6089
:10B3C000EF606EE00198000A01D1002225E08021A3
:10B3D0004902884201D31F221FE0FF21C9434118BF
:10B3E000090C082211408840304A8218120C0423AC
:10B3F0001A4090402E4BC3181B0C022633400E26D9
:10B40000711A891AC91A9840C00B08184100019A8C
:10B41000C01DC240D007C00F0A1890002018982104
:10B4200049004118EA6100206861286163681E00D4
:10B43000D640F60705D401209040184360600D60A7
:10B440001BE009681F2A019B05D019265208B21A71
:10B45000934000E011004A680726B243019EB242C1
:10B4600010D0DA0F92008E1810365B003268002A76
:10B47000F0D12069864212D33560A961ED6003984E
:10B48000A8600EE08A682369994208D39A4206D3DD
:10B49000D560039B8B60AA60E960A86101E001F0C0
:10B4A0006BF90298083007B0F0BD000000F0FFFF14
:10B4B00000C0FFFFF2B586B004008F480068002886
:10B4C00001D1FFF70BFE8C488168069840182F3099
:10B4D000491E88430699814200D3DCE1D821490006
:10B4E00061188968002909D0D8225200A258101882
:10B4F000824200D3CFE1814200D2CCE101F080F959
:10B50000002800D1C7E1009007680021C9438842A4
:10B5100000D1C0E1D82040002058C019D8214900EE
:10B52000605061184968814200D20100D820400073
:10B5300020184160A069002839D12069002802D074
:10B540000099814201D2009820610098D8214900D9
:10B5500061180861D8204000201847610026D820D3
:10B5600040002018C6616448006860620020C04343
:10B57000206220002830C0600146816008314161AE
:10B580000161B61C1030202EF5D3C448844203D18B
:10B59000283F3A00009926E0201F006807218843D1
:10B5A000211808390098C019421A283A1BE0E020F7
:10B5B0004000201800E08068002818D00099026838
:10B5C0004368D2189142F6D1017B09070FD4A169D3
:10B5D000026891420BD3D218914208D2D919416026
:10B5E000E068C219A1692000FFF78DFD3FE10098D6
:10B5F0002169884200D22061E02040002018009993
:10B60000C91900E08068002810D002688A42F9D188
:10B61000017B09070AD4009901604168C91941609A
:10B62000069B00992000FFF791FD35E1A06903908A
:10B63000054629002000FFF743FD0168406808180F
:10B64000059027380026410701D1002003E008219A
:10B65000081A4007400F059908182F3829001031A3
:10B66000884201D2019500E00190019818300290C3
:10B6700004963800283800990831490701D1002183
:10B6800005E00821009A0832891A4907490F401A33
:10B69000009A5118A161E060012202434A60282209
:10B6A0000818426014480069E061019808304007BA
:10B6B00001D001F061F81B20019948600198083021
:10B6C000E02149006118102201F0C4F80098D82147
:10B6D000490061180861D820400020184761D8202F
:10B6E00040002018C66101980830D821490061182F
:10B6F0008861059805E000BF343F00200299091DCC
:10B7000002910721029A51600499491C04910299FF
:10B7100008318142F2D30498022801DA01F02CF8B2
:10B720000198A84200D1A2E0411B426801239A433C
:10B73000426001220A436A600160C808202821D2C1
:10B740000090C000271828373E00102901D201F0D0
:10B7500013F8206800990200CA40D10705D40121DE
:10B76000009A91400143216007E0B868216988424E
:10B7700001D3060001E000F0FFFFBD60F560AE60A0
:10B78000EF6074E0080A01D1002228E01A04904218
:10B7900001D31F2223E0FF22D2438218120C082378
:10B7A0001A40009290403E4A8218120C04231A401C
:10B7B00090403C4BC3181B0C02273B4001930E23C7
:10B7C000009FDB1B9A1A019BD21A9840C00B1018DD
:10B7D0004200C01D0B00C340D807C00F12189000D4
:10B7E000201898235B00C0180090EA616E612E61FA
:10B7F00060680300D340DB0707D401219140014377
:10B8000061600098056000981DE0009800681F2A9C
:10B8100001D10A0006E0192352089B1A0A009A4037
:10B8200000E0380043680727BB438B4210D0D30F9A
:10B830009B00C318103352001F68002FF1D12169FB
:10B840008B4212D31D60A861ED600398A8600EE0E2
:10B8500081682269904208D3914206D3CD60039A51
:10B860008260A960E860AE6101E000F085FFE068F9
:10B87000069981420FD2401AE060A169069A8A189F
:10B88000A2610123034353600698032202434A60E6
:10B890000800083000E0002007B0F0BDEC360020C2
:10B8A00000F0FFFF00C0FFFFF2B584B004000020ED
:10B8B000009004984542000A25D080214902884220
:10B8C00001D31F201FE0FF21C9434118090C0822A2
:10B8D00011408840B34A8218120C04231A40904049
:10B8E000114BC3181B0C022633400E26711A891AFD
:10B8F000C91A9840C00B08184100049AC01DC240E4
:10B90000D007C00F081881006118982252008B5888
:10B91000002B28D01F28049A03D019214608891B20
:10B920008A40002103E000BF00C0FFFF52005E68B4
:10B930000727BE43049FF61BAE4202D20093350098
:10B940000CD05E69D70FBF00DB191B69002E02D037
:10B950009E4200D03100002BE8D10B00002B3FD1DC
:10B96000009900293ED1012101228240500043422A
:10B97000034362681A4000D178E150421040401EF3
:10B98000020B10231A40D040430908263340D84008
:10B99000860804273E400296F040460802273E40B3
:10B9A0000196F04046083140D218029BD218019B04
:10B9B000D2185218C8401018800020189821490049
:10B9C00043580DE003005868072188430499401A42
:10B9D000A84201D20500009318690028F2D15B69E2
:10B9E000002BF0D10098002800D13FE1A068049915
:10B9F000401A854200D339E1009E2069864200D278
:10BA000032E1681802900098406807218843029943
:10BA1000884201D000F0B0FE009804994718BE4259
:10BA200000D321E1806901900098C66886420DD05C
:10BA300080682169884225D3C168009A914221D14A
:10BA4000B16891421ED1C660B0601DE01430066836
:10BA5000002E07D1009810300668002E14D001E0A7
:10BA600008000668310014310A68002AF8D1310054
:10BA700010310A68002AF3D12169884202D30021DB
:10BA8000016001E000F078FE0198002843D00098A2
:10BA9000C069800020189821490040180099026868
:10BAA00091420AD10660002E16D160680121009AE9
:10BAB000D2699140884360602DE0019821698842F5
:10BAC00008D3006900998842019801D1066103E01A
:10BAD000466101E000F050FE002E1CD02069864235
:10BAE00017D30198B06100980069002807D0216938
:10BAF000884202D33061866101E000F03DFE00988B
:10BB00004069002807D02169884202D370618661AC
:10BB100001E000F031FE03200121102D0AD2029A2B
:10BB20001043009A50600098029A801842681143AE
:10BB3000416096E0049A1043009A50600120284327
:10BB400078607D51E808202819D2C200A61828364E
:10BB5000350022681300C3400B4003D181401143DC
:10BB6000216007E0B0682169884201D3050001E047
:10BB700000F002FEB760EF60BD60FE6071E0280A71
:10BB800001D100222AE00A04904201D31F2225E0BD
:10BB9000FF22D2438218120C08231A4001929040CF
:10BBA000004A01E000F0FFFF8218120C04231A4043
:10BBB0009040304BC3181B0C0226334002930E23D7
:10BBC000019E9B1B9A1A029BD21A9840C00B101818
:10BBD0004200C01D2B00C3400B40D218900020181B
:10BBE00098235B00C018FA6100237B613B616368A6
:10BBF0001E00D6400E4004D1914019436160076099
:10BC00001CE000681F2A01D1290006E01921520812
:10BC10008A1A2900914000E01000426807239A43E5
:10BC2000AA420FD0CA0F92008318103349001A6835
:10BC3000002AF1D121698B4211D31F60B861FF60E6
:10BC4000BF600EE081682269904208D3914206D31A
:10BC5000CF608760B960F8600020B86101E000F053
:10BC60008BFD0098083002E000F086FD002005B052
:10BC7000F0BD000000C0FFFFF2B586B004006168AF
:10BC800048420840401E010B10221140C8404209A2
:10BC900008231A40D040830804252B40D84045088B
:10BCA00002263540E8408607F60F8918C918491959
:10BCB0008919F04008188000201898214900405840
:10BCC0000700416807229143069A8D1A09E008008F
:10BCD000416807229143069A891AA94201D20D00B0
:10BCE000070001690029F2D140690028F0D12069DC
:10BCF000874200D2D3E0A8180190786807218843D2
:10BD00000199884201D000F037FD06983818049058
:10BD1000874200D3C3E0B8690090FE68BE420CD0F1
:10BD2000B8682169884225D3C168B94222D1B16877
:10BD3000B9421FD1C660B0601EE0380014300668FA
:10BD4000002E07D1380010300668002E14D001E014
:10BD500008000668310014310A68002AF8D1310061
:10BD600010310A68002AF3D12169884202D30021E8
:10BD7000016001E000F000FD009800283DD0F86966
:10BD80008000201898214900401801688F4209D18D
:10BD90000660002E14D160680121FA699140884341
:10BDA00060602AE000982169884207D30069B842A0
:10BDB000009801D1066103E0466101E000F0DCFC7F
:10BDC000002E1AD02069864215D30098B0613869D8
:10BDD000002807D02169884202D33061866101E0E2
:10BDE00000F0CAFC7869002807D02169884202D394
:10BDF0007061866101E000F0BFFC0320102D09D2C4
:10BE000001990843786001983818416801220A4373
:10BE1000426041E006990843786001202843049974
:10BE2000486004984551A0680090C608202E01D3B0
:10BE300000F0A2FC009800282BD0606903900196C6
:10BE4000F00020182830029006460098102801D2F1
:10BE500000F092FC206801990200CA40D10705D485
:10BE60000121019A91400143216008E00298806815
:10BE70002169884201D3060001E000F07DFC0398AF
:10BE8000029988600398F06003988660029803998D
:10BE9000C860A560049860613800083002E000F0D6
:10BEA0006BFC002007B0F0BDF0B587B0040000BF08
:10BEB00000BFBA4DF52C00D325E10B2C01D2102484
:10BEC00002E00B3407208443E008009028680099C2
:10BED000C840032738424DD00126012282438818EA
:10BEE0000090C00028182830029084680098C00094
:10BEF00003906068072188430399884201D000F0CD
:10BF00003BFCA06801900298844201D100F034FC0F
:10BF10000198844201D100F02FFC6068072188431A
:10BF20000399884201D000F027FC029801998842C9
:10BF300006D12968009A01209040814329600FE0D2
:10BF400008462969884209D3C068A04206D10198F1
:10BF50000299886002980199C86001E000F00CFC29
:10BF60000398074367600398201841680E434660B2
:10BF7000260007E1A968A14200D3D7E0002800D13C
:10BF8000B7E00126009901228A405100009A9040B2
:10BF90004A420A43024051421140491E080B1022F6
:10BFA0001040C1404A0908231A400092D1408A0833
:10BFB00004231A400192D1404A0802231A400292F7
:10BFC000D1404A083240009BC018019BC018029B18
:10BFD000C0188018D14040180390C000281828309D
:10BFE0000090806804900398C00002900498406814
:10BFF000072188430299884201D000F0BDFB0498D4
:10C000008068019004980099884201D100F0B4FB47
:10C0100004980199884201D100F0AEFB0498406871
:10C02000072188430299884201D000F0A5FB0098BF
:10C030000199884206D12968039A012090408143E2
:10C04000296010E00846296988420AD3C06804992B
:10C05000884206D101980099886000980199C860CB
:10C0600001E000F089FB0298001B0390274304982D
:10C07000476004980019059003983043059948607B
:10C08000039805990850A8680090C408202C01D393
:10C0900000F072FB0098002825D068690290019496
:10C0A000E0002F1828373C000098102801D200F03B
:10C0B00063FB286801990200CA40324003D18E40D8
:10C0C00006432E6007E0B8682969884201D304005E
:10C0D00001E000F051FB0298B8600298E06002981D
:10C0E00084600298C7600398A86005986861049E00
:10C0F00048E06868002836D021002800FFF7BCFD22
:10C10000060013D045E03F20C043844202D3002400
:10C11000E4430BE00B34072084436868002805D013
:10C1200021002800FFF7C0FB060032D1A968A14218
:10C1300019D30A1B686901260327102A08D301199D
:10C140006961AA6016434E608A502743476008E041
:10C150000022AA606A610F43476041184A6816438B
:10C160004E6006000EE0E86884420DD2001BE860D5
:10C17000A9690A19AA6101230343536003202043DC
:10C1800048600E00083604E021002800FFF792F90D
:10C19000060000BF00BF300007B0F0BDEC36002045
:10C1A000002800D17047F0B585B00838050000BF01
:10C1B00000BF474C2069854200D2D2E26B68032160
:10C1C00003221A40012A00D1CBE2DE08F600AA19A8
:10C1D000029201273B4241D12A680B4000D1C2E2C2
:10C1E000B6185342ED18854200D2BAE263699D4207
:10C1F00000D102E1D108202900D380E0A868019095
:10C20000E868009003910098854201D100F0B4FAEB
:10C210000198854201D100F0AFFA68680721884390
:10C220000399C900884201D000F0A6FA0398C00023
:10C230002018019902002832914205D022699142CA
:10C240005AD3C968A94257D10099019A914243D162
:10C250002168039A01209040814321600298854221
:10C2600000D37EE24068384200D17AE2810700D5EF
:10C27000C5E10299A269914200D0CEE0E06881193F
:10C28000E160A5610F436F606069854202D10020C3
:10C290006061A060E069884200D364E20D480068F4
:10C2A000002801D1FEF71AFFA169002900D15AE246
:10C2B000E068292802D32000FEF702FFE069E16868
:10C2C000884200D34FE20020C043E0614BE200BF50
:10C2D000EC360020343F00202830814206D008464A
:10C2E0002169884208D38068A84205D10098D060AF
:10C2F000019800998860B1E700F03EFAAEE7A969BD
:10C300000091EA68AA420DD0A9680192814228D31F
:10C31000C868A84225D19068A84222D1CA60019875
:10C32000816020E0290014310A680192002A09D1B5
:10C33000290010310A680192002A14D002E011008D
:10C340000A680192019A14321368002BF7D1019AFE
:10C3500010321368002BF2D1814202D30020086012
:10C3600001E000F009FA0098002800D176E7E869BA
:10C370008000201898214900401801688D420AD198
:10C3800001990160002915D16168EA690120904096
:10C390008143616062E700982169884208D300699F
:10C3A000A8420198009901D1086103E0486101E0C9
:10C3B00000F0E2F90198002800D14FE720690199C7
:10C3C000814299D30099019A91612969002908D085
:10C3D000814204D3019801610198886101E000F075
:10C3E000CBF96869002800D138E72169884283D3F6
:10C3F000019948610199816130E7029840680140E4
:10C40000032900D02AE7A66002984068B843029941
:10C41000486037436F60AE51A5E16269914207D130
:10C42000A0688019A060656107436F6028509AE199
:10C43000072188433618C00820284BD20299896802
:10C4400000910299C968039101900298039988426A
:10C4500001D100F091F902980099884201D100F0D1
:10C460008BF902984068072188430199C9008842E6
:10C4700001D000F081F90198C00020180099020055
:10C480002832914208D02269914200D2ACE0C968BA
:10C49000029A914200D0A7E00399009A914206D1F6
:10C4A0002168019A01209040814321609EE028305C
:10C4B000814209D008462169884200D294E0806810
:10C4C0000299884200D08FE00398D06000980399C9
:10C4D00088608BE00298806901900298C068029998
:10C4E000884212D0029989680090206981422CD339
:10C4F000C868029A904228D100988068904224D15E
:10C500000098C8600098816021E0029814300168AA
:10C510000091002909D1029810300168009100298A
:10C5200015D002E0080001680091009914310A68F2
:10C53000002AF7D1009910310A68002AF2D1216946
:10C54000884202D30021016001E000F015F9019852
:10C5500000284BD00298C06980002018982149001B
:10C5600040180299026891420BD10099016000299C
:10C5700017D161680298C2690120904081436160CF
:10C5800034E001982169884209D300690299884200
:10C590000098019901D1086103E0486101E000F0D1
:10C5A000EBF80098002821D02069009981421BD324
:10C5B0000199009A916102990969002908D0814284
:10C5C00004D3009801610098886101E000F0D4F87C
:10C5D00002984069002809D02169884204D3009953
:10C5E00048610099816101E000F0C6F80120304304
:10C5F0006860AE516069854208D1A660B3E0B84377
:10C6000002994860012030436860AE51F00820284C
:10C6100025D20090C0002018283001900290102EE2
:10C6200001D200F0A9F8206800990200CA403A40FF
:10C6300003D18F400743276008E001988068216993
:10C64000884201D3029001E000F096F801988560DD
:10C650000298C5600298A8600198E86083E0300AFB
:10C6600001D1002227E03904884201D31F2222E0B1
:10C67000FF21C9434118090C08221140009188404C
:10C680003B494118090C0422114001918840394965
:10C690004118090C022211400E22009BD21A019B64
:10C6A000D21A521A8840C00B10184100C01D320027
:10C6B000C2403A408A18900020189821490040183A
:10C6C0000090EA6100206861286161680B00D34036
:10C6D0003B4007D197400F43676000980560009882
:10C6E000A8611EE0009909681F2A01D1320006E006
:10C6F000192352089B1A32009A4000E039004B6817
:10C700000727BB43B3420FD0D30F9B00CB18103386
:10C7100052001F68002FF1D12069834210D31D60A1
:10C72000A961ED60AD600DE08A682369994207D385
:10C730009A4205D3D5608D60AA60E960A86101E0E6
:10C7400000F01AF8206A401E20620CD1E42040005C
:10C75000205800E080680028FCD10020C0432062FF
:10C7600001E000F009F800BF00BF05B0F0BD000017
:10C7700000F0FFFF00C0FFFF80B5012000F084F84B
:10C7800001BDF8B401684218436859085118009176
:10C790008168DB0701D54B46C918009B9A4202D13C
:10C7A0000C30F2BC70471378521C032403261E4041
:10C7B00002D11678F61C521C1D090F2D07D11578D1
:10C7C0000F35521C03E01778521C0F70491C761E5F
:10C7D000F9D1002DE1D01678521C9B081C40032C87
:10C7E00001D11478521C2302F3185C420B19AD1CC2
:10C7F000D3D01C785B1C0C70491C6D1ECDD0F8E7A3
:10C8000007490868002801D0002070470548072222
:10C810009043086004499143091A0160704700BFC2
:10C82000B83F00208F290020882D0020124207D019
:10C830008B0706D00B78491C0370401C521EF7D89A
:10C840007047830706D00B78491C0370401C521EAA
:10C85000F9D1704770B4103A03D378C9103A78C050
:10C86000FBD2530701D318C918C001D508C908C0A5
:10C87000D20704D30B880380891C801C002A01D5B1
:10C880000B78037070BC704780B500BF00BF024AD0
:10C8900011001820ABBEFBE72600020080B5224A3B
:10C8A000012100BF29A001F087FC204A012100BF1F
:10C8B00027A001F081FC1E4A012100BF25A001F044
:10C8C0007BFC1C4A012100BF23A001F075FC1A4A21
:10C8D000012100BF21A001F06FFC184A012100BF17
:10C8E0001FA001F069FC164A002100BF1DA001F045
:10C8F00063FC144A002100BF1BA001F05DFC124A3A
:10C90000002100BF19A001F057FCB84801F08AFED1
:10C91000012001F0A4FF00BF15A002F05FF8002085
:10C9200001F09DFF01BD000001D101002DD90100E2
:10C93000E9CF010079D301009DD50100C1D70100E5
:10C940002DD201008DD20100E9D20100F038002083
:10C95000B0390020103900205039002070390020F3
:10C9600090390020283E0020543E0020303900201D
:10C970003E2044657669636520636F6E74726F6CE8
:10C9800020696E69742E0D0A00000000F8B5984CFD
:10C99000A07A984980221203012801D10A6002E09E
:10C9A000002800D14A60944E607901280DD1022000
:10C9B00002F00EF9A062012001F051FFA16A3000DF
:10C9C00002F00CF8002001F04AFF607902280DD136
:10C9D000012002F0FDF8A062012001F040FFA16AF1
:10C9E000300001F0FBFF002001F039FF02276078E2
:10C9F00001281CD16770606A02F056FFC8214843C5
:10CA0000FA2189004218530CD203480800218018EB
:10CA10005941FA229200002302F04EFF0100002249
:10CA200020006C3001F004FC606A02F011F97348D8
:10CA300001680026002903D0491E0160012515E088
:10CA400002F04EF8032801D102250FE002F048F869
:10CA5000042801D1032509E002F0A7FF002801D135
:10CA6000042503E0E07A012800D00025644FE17A34
:10CA7000E8B288421BD0E5726249EDB2012D06D0C2
:10CA800015D3032D0BD006D3042D0BD00FE00322BA
:10CA90003221322009E03A00FA20C00005E03A00D5
:10CAA000C82002E03A00B849642000F04FFA20782C
:10CAB000B64D227B904223D02073401E0B280ED807
:10CAC00001A1095C8F4400BF103A400C44489EA469
:10CAD000A8ACB0B84CA050E02670A06A00285BD18A
:10CAE00050A000F064FA2889C019288103F0EEFAFA
:10CAF000217BA06A03F00AFF217BA06A04F036FBC9
:10CB00004AE000BF4FA038E055A036E0A04834E02E
:10CB1000A04800F04CFA217BA06A03F0F7FE217BCD
:10CB2000A06A04F023FB2670A06A002834D028896C
:10CB3000401C2881012001F092FE00BF4EA001F0B0
:10CB40004DFF002001F08BFE03F0C0FA04F0ABFEB5
:10CB50000200217BA06A04F051FB00281CD1A06ACE
:10CB600003F09AFB18E000BF4BA006E051A004E0E0
:10CB700057A002E0BB4800E05BA000F018FA0AE012
:10CB8000B94800F014FA217BA06A03F0BFFE217BB4
:10CB9000A06A04F0EBFA2670688E298E884223D0B2
:10CBA00002F003FF00281FD06C8E641CA4B2A020EA
:10CBB000C000844200DB0024012001F050FE21006F
:10CBC0004FA001F00BFF002001F049FEDE48406855
:10CBD000E100401802680621406804F00FFB0028BD
:10CBE00002D06C8603F072FAF1BD00003C1F0020F9
:10CBF000C43800200805005014940200983F00201B
:10CC0000FFFF0000B80B000052414D3A53746172AF
:10CC1000744F7574707574556E6272656C6C612EAC
:10CC20006D70330052414D3A4F7574707574556E86
:10CC30006272656C6C61537563636573732E6D709E
:10CC40003300000052414D3A54616B65546865559C
:10CC50006E6272656C6C61536F6F6E2E6D70330017
:10CC600052414D3A486176654E6F556E6272656C01
:10CC70006C612E6D703300003E20634A534F4E208E
:10CC8000726570617920756D6272656C6C6120737C
:10CC900074617475730D0A0052414D3A446F4E6FC2
:10CCA000744F63636C7573696F6E446F6F722E6D32
:10CCB0007033000052414D3A496E707574556E6282
:10CCC00072656C6C61536F6F6E2E6D703300000077
:10CCD00052414D3A46756C6C556E6272656C6C6172
:10CCE0002E6D70330000000052414D3A526573744E
:10CCF0006172744F757075742E6D70330000000092
:10CD00003E205265706F72742048697374726F7937
:10CD10003A25752E0D0A000070B5AF4C20002C305E
:10CD200001F0B2FA0125A5720020E083502004F042
:10CD30001EFF6571032015490881A84EB068800C5C
:10CD400005400BD11E226421642000F00CF90E2056
:10CD50002070012001F083FD0FA0ABE0012001F065
:10CD60007EFD00BF13A001F039FE002001F077FD29
:10CD70008020C00130600022A421490020002C3016
:10CD800001F056FA70BD000088130000082500204D
:10CD900028940200449402003E20426F72726F7722
:10CDA0005F416374696F6E20495220537475636BE1
:10CDB0002E0D0A003E20426F72726F775F416374DE
:10CDC000696F6E204E4F5420737475636B210D0A8A
:10CDD0000000000070B501267F4C667120002C30E9
:10CDE00001F052FAA6720020E083502004F0BFFE4A
:10CDF000B5480925058140890A280BDA0522FA2160
:10CE00008900C82000F0AFF82570012001F027FD4F
:10CE100016A010E071488168890C0E400CD11E22CA
:10CE20006421642000F09FF80E202070012001F0A2
:10CE300016FD00BF13A03DE0052121708021C9012E
:10CE40000160012001F00BFD15A001F0C7FD0020DD
:10CE500001F005FD00229D4920008C3001F0E8F929
:10CE600070BD000064940200849402003E2052656C
:10CE70007061795F416374696F6E2046756C6C2ECA
:10CE80000D0A00003E2052657061795F416374694C
:10CE90006F6E20495220537475636B2E0D0A00008B
:10CEA0003E2052657061795F416374696F6E0D0A4F
:10CEB0000000000001F092FD002001F0D0FC70BDE8
:10CEC00080B5012001F0CBFC05A001F087FD00201A
:10CED00001F0C5FC00227D49C74801F0A9F901BD58
:10CEE0003E204D6F766520666F72776172642061B7
:10CEF0006374696F6E0D0A0080B5012001F0AFFC0C
:10CF000005A001F06BFD002001F0A9FC00226F4993
:10CF1000BA4801F08DF901BD3E204D6F7665206263
:10CF200061636B20616374696F6E0D0A000000001D
:10CF300080B58021C901B24A11600021264AD183FF
:10CF400004F0DDFE01BD00003C250020F8B5050021
:10CF50000F001600AB4C20000C3001F095F95C4836
:10CF6000802189010BE0F8B505000F001600A64CE2
:10CF700020000C3001F088F918488021C901416077
:10CF80000022E280227225806780A6800160012055
:10CF90002072E803FA2149004018490004F0EBFE32
:10CFA0000100002220000C3001F042F9F1BD38B53B
:10CFB0000500094C20006C3001F066F980208002E9
:10CFC0000649086000206070656200223F49200029
:10CFD0006C3001F02DF931BDC43800200805005037
:10CFE00080B504F055FF01BDF8B50127384DA64CBA
:10CFF000207A002805D138072860C00868602772A9
:10D000006772A8682100EC310091800938400BD18B
:10D01000607A012808D1022004F071FEA771002275
:10D020002A49009801F004F9E07B401C0026C0B2B8
:10D03000642803DB607B401C60730020E073607B2E
:10D04000002810D0667304F023FF012001F007FCD4
:10D0500020A001F0C3FC002001F001FCA07B401CDB
:10D06000A07302202070A07B03282BDB012001F09D
:10D07000F6FB00BF1BA001F0B1FC002001F0EFFBAC
:10D0800078062860C000686066726671800028605B
:10D0900040086860A868800A384002D1042004F083
:10D0A0002EFEA868C00907400CD1607A002809D17B
:10D0B000022004F024FE20004C3001F0E5F8009836
:10D0C00001F0E2F8F1BD000008250020CD0C0000C1
:10D0D000080500503E20C7EBBEA1BFECC8A1C9A106
:10D0E0000D0A00003E20B3F6C9A1CAA7B0DCA3AC6C
:10D0F000C3BBD3D0BCB0CAB1C8A1C9A10D0A00003E
:10D10000F8B50127964D604CA078002804D1780727
:10D11000286040006860A770A868000A384002D103
:10D12000042004F0ECFDE078A16A002907D1002872
:10D1300010D1F805286040086860E7700AE001280F
:10D1400008D1A868000E384004D1012004F0D7FDB2
:10D1500004202070E08B0B281BDBA868400D3840B2
:10D1600017D00522FA2149004800FFF7FCFE2000F5
:10D170002C3001F089F80120FFF7DAFE0D20207035
:10D18000012001F06CFB774801F028FC002001F041
:10D1900066FB0026E08B652818DBA868000E0740B8
:10D1A00014D1A06A002811D0E6830120FFF7C0FE49
:10D1B000207804280AD1FFF783FE012001F04FFBFD
:10D1C00012A001F00BFC002001F049FBE08B411C98
:10D1D000E183654988420EDBE6830120FFF7A8FE64
:10D1E0000F202070012001F03AFB604801F0F6FBAF
:10D1F000002001F034FBF1BD10390020703900200F
:10D200000C0500501C3E0020483E00203E20496E88
:10D21000204D6F76655F466F72776172645F416320
:10D2200074696F6E28290D0A00000000F8B500220D
:10D230004F4CE0884F49884200D1E280E388A188C2
:10D240008B4220D2464DFA21890048088026B6013B
:10D25000277A002F09D06E6022725B1CE380A288BF
:10D260009BB293420FD2628803E02E6001222272A9
:10D270002288D203101804F07EFD01000022200055
:10D280000C3000F0D5FFF1BDC4380020F8B5002205
:10D290008B4CE0883749884200D1E280E388A1883E
:10D2A0008B4220D22E4DFA21890048088026F601B3
:10D2B000277A002F09D06E6022725B1CE380A2885F
:10D2C0009BB293420FD2628803E02E600122227249
:10D2D0002288D203101804F04EFD01000022200025
:10D2E0000C3000F0A5FFF1BD764841780A0002D16C
:10D2F000012141707047022905D100214170802031
:10D300008002984908607047F1B588B010001D0090
:10D31000052705266C467E2222701B22627008AA11
:10D320001278A270E1702571002807D0290005D07D
:10D330002A000100601DFFF779FA6E1DF6B2310078
:10D34000684601F048F861194871874C2760761CDF
:10D35000F1B2684601F0B4FA276009B0F0BD0000F0
:10D3600008050050DCD40100701700000CD5010046
:10D370001C3E0020FFFF0000F8B5524C2000EC30AE
:10D3800000F082FF20002C3000F07EFF0320774960
:10D390000881A06A0125764E002808D0E17900298D
:10D3A00005D1A905316049007160E5712574218CB2
:10D3B0000B290CDBB168090E2940084307D1207CFA
:10D3C000002804D0012004F09AFCE57125710027A3
:10D3D000A06A002802D1E571257102E020790128B8
:10D3E00057D105202070A078002804D1680730604C
:10D3F00040007060A570B068C0050FD4607C002844
:10D400000CD1012001F02BFA2FA001F0E7FA002047
:10D4100001F025FA042004F072FC6574208C0B28BE
:10D420001CDBB068400D284018D00522FA214900C5
:10D430004800FFF798FD20002C3000F025FF012068
:10D44000FFF776FD0D202070012001F008FA00BFE3
:10D4500022A001F0C3FA002001F001FA208C332849
:10D4600017DBB068000E054013D1278420002C3054
:10D4700000F00AFF207805280BD1012001F0EFF918
:10D480001BA001F0ABFA002001F0E9F9FFF734FD31
:10D490006774208C411C2184C04988420EDB27849C
:10D4A0000120FFF745FD0F202070012001F0D7F982
:10D4B00016A001F093FA002001F0D1F9F1BD0000AF
:10D4C000483E0020C43800203E20B9D8B1D5BFAABC
:10D4D000B9D8C3C5B5E7BBFA0D0A00003E204D6FB1
:10D4E000746F7220697320537475636B2E0D0A007C
:10D4F0003E204D6F746F722052756E6E696E67209C
:10D50000666F72776172652E0D0A00003E204D6FC6
:10D51000746F722052756E6E696E672054696D6506
:10D520006F75742E0D0A000010B511488021490353
:10D530000160090A41609A4C0120A07202206071CA
:10D54000012001F08CF900BF0AA001F047FA002089
:10D5500001F085F9002293492000CC3000F068FEEC
:10D5600010BD00000C0500500C25004008250020CF
:10D57000080500503E20C7EBBDABC9A1D5DBB5FE09
:10D58000BAC3BAF3C9A1CDB7CFF2C0EFB7C5C8EBE4
:10D59000BBB9C9A1BFDA0D0A00000000F0B583B025
:10D5A0007F4C207D401C2075A07D401CA075012073
:10D5B00001F055F9A17DC24801F010FA002001F0F8
:10D5C0004EF9012001F04BF9E37CA27C217DBD489E
:10D5D00001F004FA002001F042F90025207D6428C2
:10D5E00003DBA07C401CA0742575A07C00280ED015
:10D5F000A57404F04DFC012001F031F9B24801F0AE
:10D60000EDF9002001F02BF9E07C401CE0742000D3
:10D61000AC30019020008C3000900127AB4EE07CB4
:10D62000032821DB012001F01AF900BF35A001F029
:10D63000D5F9002001F013F9E574607D002804D1CC
:10D64000B8073060400870606775B068800A38407D
:10D650000AD1042004F053FB00F08AF8009800F08F
:10D6600013FE019800F010FEA06A00280ED0B068EA
:10D67000800C38400AD0A07D192807DB607D002887
:10D6800004D1B8073060400870606775B068800CDE
:10D69000074009D0012001F0E2F800BF23A001F00B
:10D6A0009DF9002001F0DBF8A06A002808D00120D5
:10D6B00001F0D5F822A001F091F9002001F0CFF897
:10D6C000B06840051DD4607D00281AD0042004F005
:10D6D00016FB06202070012001F0C1F81DA001F00A
:10D6E0007DF9002001F0BBF800F042F82575A57423
:10D6F000E5746575A575009800F0C6FD019800F009
:10D70000C3FDF7BD3E20BBB9C9A1CAA7B0DCA3AC1D
:10D71000C3BBD3D0BCB0CAB1BBB9C9A1A3ACB9D843
:10D72000B1D5B5E7BBFA0D0A000000003E20495212
:10D730005F434845434B2829203D3D20310D0A00D9
:10D740003E20524649445F52656164203E20300DC0
:10D750000A0000003E20636C6F736520616C6C20D2
:10D760007468652074696D6569640D0A00000000C5
:10D7700080B5012001F073F80BA001F02FF9002013
:10D7800001F06DF80648002141718170C17101718D
:10D79000C17001724172817201BD000070170000FA
:10D7A000C4380020CD0C00003E20617420746865F0
:10D7B00020496E6974466C616728290D0A000000D3
:10D7C000F8B542488068784C8105C90F04D1032020
:10D7D00004F095FA0120E075207E401C207601209F
:10D7E00001F03DF8217E00BF39A001F0F7F80020DC
:10D7F00001F035F8A06A002801D00120E07600276A
:10D80000207E322818DB012001F029F833A001F036
:10D81000E5F8002001F023F8082020702776607ECC
:10D82000401C6076012001F01AF8617E2FA001F003
:10D83000D5F8002001F013F880256D032E0A607ED4
:10D84000032814DBA07E002811D1012001F007F885
:10D8500029A001F0C3F8002001F001F81B48066080
:10D8600045600C202070A776E776677113E0E07EB4
:10D87000002810D0207E14280DDB0120A07600F0B7
:10D88000EEFF00BF24A001F0A9F8002000F0E7FFA0
:10D890000E48066045600D48806800050FD4E07DA5
:10D8A00000280CD0032004F02AFA0B2020706771A6
:10D8B000E775A776E7762000CC3000F0E5FCF1BDF7
:10D8C0009C940200AC940200DCD8010008050050D2
:10D8D0003E2069203D2025640D0A00003E20C7EB54
:10D8E000BEA1BFECBBB9C9A10D0A00003E206A2051
:10D8F0003D2025640D0A00003E20CAAECEE5C3EBF4
:10D90000B5BDA3ACB9CAD5CFA3ACC3BBD3D0BBB94B
:10D91000C9A10D0A000000003E20BBB9B9CAD5CF8D
:10D92000C9A1B3C9B9A60D0A0000000070B51E4C0C
:10D93000207F401C2077994DA9680126890C314031
:10D9400031D0A17901292ED1A16A00292BD1C0B2F1
:10D95000142828DB20004C3000F096FC20002C30EE
:10D9600000F092FC2670B007286040086860A86844
:10D97000800A304007D1042004F0C1F966727006B5
:10D980002860C0006860A868C00906400BD1607AB2
:10D99000012808D1022004F0B2F9FFF7E9FE2000C7
:10D9A000EC3000F071FC70BDC4380020F8B50C1DDF
:10D9B00027687BA1380004F015FB00280CD101205A
:10D9C00000F04DFF774801F009F8002000F047FF14
:10D9D0006068FFF7ECFAF1BD7349380004F002FB10
:10D9E00000280BD1012000F03AFF704800F0F6FF4C
:10D9F000002000F034FFFFF78FF9F1BD6C493800CB
:10DA000004F0F0FA00280BD1012000F028FF69484B
:10DA100000F0E4FF002000F022FFFFF7DBF9F1BD8A
:10DA20006549380004F0DEFA00280FD1012000F02B
:10DA300016FF624800F0D2FF002000F010FF002324
:10DA4000002202210020FFF75FFCF1BD5C49380095
:10DA500004F0C8FA002808D1012000F000FF59485E
:10DA60000178594800F0BAFF94E08026F6034B4C49
:10DA700075005649380004F0B5FA002806D1256033
:10DA80006660012000F0EBFE514881E0514938000A
:10DA900004F0A8FA002806D126606560012000F095
:10DAA000DEFE4D4874E04D49380004F09BFA002832
:10DAB00007D1012004F023F9012000F0D0FE4848EE
:10DAC00066E04849380004F08DFA002806D1FFF7D7
:10DAD000F7F9012000F0C3FE434859E043493800FC
:10DAE00004F080FA002806D1FFF706FA012000F0C2
:10DAF000B6FE3F484CE03F49380004F073FA002876
:10DB000009D1002300220221FFF7FEFB012000F0D3
:10DB1000A6FE39483CE03949380004F063FA002891
:10DB200006D1FFF757F9012000F099FE34482FE0A5
:10DB30003449380004F056FA002806D1FFF7ECF813
:10DB4000012000F08CFE304822E03049380004F01B
:10DB500049FA002806D125606660012000F07FFEAA
:10DB60002B4815E02B49380004F03CFA002802D17C
:10DB70002660656008E02849380004F033FA002880
:10DB80000BD1012004F0BBF8012000F068FE23480F
:10DB900000F024FF002000F062FEF1BD08050050F7
:10DBA00074747300C8940200DC940200E4940200D0
:10DBB000F894020000950200149502001C950200E2
:10DBC00034950200C43800203C95020050950200B4
:10DBD000589502006C95020074950200849502002D
:10DBE0008C9502009C950200AC950200C095020045
:10DBF000CC950200E0950200EC9502000096020030
:10DC00001496020030960200449602005C960200D0
:10DC10006C96020088960200AC9602009496020070
:10DC2000002805D40121C006C00E81408D48016046
:10DC30007047002805D40121C006C00E81408A48E3
:10DC400001607047002805D40121C006C00E814044
:10DC500086480160704710B5C20018231340FF24A6
:10DC60009C40E2438907090E9940002801D4BB4B30
:10DC700003E0BB4B0007000F08388008800018182D
:10DC800003681A401143016010BD0000401E00BF30
:10DC900000BF00BF00BF00BF00BF00BF00BF00BF8C
:10DCA00000BF00BF00BFF1D1704738B580208002AF
:10DCB000AC490860AC488021490201640160AB4C6A
:10DCC000012525602F20FFF7E1FF6560A84C0025A6
:10DCD00025612F20FFF7DAFFE57031BDF8B5A44EBE
:10DCE000F568002D38D00024C54800683169401A15
:10DCF00007023F0A286887421CD33F1A24182800CD
:10DD0000ED69017C002913D0002101744269816909
:10DD1000F36918000AD010009847002808D000BF07
:10DD20000EA2FF21623104F06FF901E00800904774
:10DD3000002DDFD1B0787178814206D1401CB070DF
:10DD4000C0B2022801D10020B070B0788000301835
:10DD500044611420FFF76DFFF1BD0000443A5C7789
:10DD60006F726B73706163655C41442D31355C414A
:10DD7000442D31355C6669726D776172655C56332E
:10DD80002E305C6669726D776172655C53444B5CE2
:10DD90006C69627261726965735C74696D65725CED
:10DDA0006170705F74696D65722E6300FFB5704AB3
:10DDB000D0680390107869460871002069460B7995
:10DDC0005C1E0C710121002B45D093686C462479B0
:10DDD000E4001B1900931B7817E02C00ED69002D5F
:10DDE00013D0BD42F9D1AC4207D1F669D660002EFE
:10DDF00003D1AF4E3160106111712E68ED69E5619C
:10DE0000002D02D02C68A4192C60009D6D78DCB226
:10DE1000AC42D3D0009C6468DBB218255D43641922
:10DE20005B1C009EB678DDB2B54200D10023257898
:10DE3000022D02D0032D07D0E7E764680294D6686C
:10DE400034002500029FCAE7D468002CDDD020747E
:10DE5000E469D460F8E7D268039B9A4200D00120BD
:10DE600004B0F0BD00E100E000E200E080E200E08C
:10DE7000FCB53F4AD1680191137800211C00631E54
:10DE8000DBB2002C06D1D068019A904263D0012009
:10DE9000F6BDD46000282FD19468DD006419257880
:10DEA0006678B542EAD0666818276F43F6196D1C8C
:10DEB0002570A778EDB2BD4200D121707468357825
:10DEC000012DE9D1257C002DE6D1B5686560F568A6
:10DED000A5603569E5607569A5611579002D00D0EB
:10DEE000616065681669AE1B3602360ABD4FBE42D8
:10DEF00005D2A56875190AE00400E069F1E7166922
:10DF0000751B2D022D0AA668B54202D2751B25602D
:10DF100000E021606160A16001252574E161D6689F
:10DF2000002EB6D037682568AF4203D37D1B35601D
:10DF3000E661AEE700963768AF4205D2ED1B00966A
:10DF4000F669002E02D0F6E77F1B37602560E66198
:10DF5000009DEC619EE70020F6BD000000E400E0BB
:10DF60001CED00E080E100E00813014004100140D6
:10DF70009C3E0020FEB5BF4FF86800283CD00068EA
:10DF800002901F4C2068009038690190BA4D0098AB
:10DF90000199461A2E40F61CF878002812D1B7488D
:10DFA00080214902016401601120FFF74BFE11201E
:10DFB000FFF736FE0120B24908602F20FFF766FE0A
:10DFC0000120F8700298864200D20600019880195C
:10DFD0002840E0632168009A801A2840891A0D4081
:10DFE000ED1CA8420AD22068E0632F20FFF74EFE06
:10DFF0001120FFF71EFEF7BDFFF757FEF7BD00002B
:10E0000004150140F0B585B000249A4D28690390AD
:10E01000E96802916A781100AB789A420FD0491CE6
:10E02000C9B2022900D100218A00AA1852690192BE
:10E0300080180002000A28610120009001E001948C
:10E0400000946970FFF7B2FE0600E86800990029A5
:10E050001FD00199009413E0C91A009EF318009391
:10E06000002313600190D069D368002B08D0039E71
:10E07000009FF6193602360A56609360D461019CFF
:10E08000002805D0020013689942E5D2591A1160A0
:10E090000126E8602000FFF7EBFE002801D1002EEA
:10E0A00002D00298FFF766FF0020287105B0F0BD8E
:10E0B0000810014010B54278521C8478D3B2A342B4
:10E0C00000D100220478D3B2A34201D1002010BDB8
:10E0D0000A704168407818225043081810BDF0B506
:10E0E00083B00C0017001E00C00000907E4D01A9F7
:10E0F000A868009A8018FFF7DDFF002801D10420EE
:10E10000FEBD0121017044605E4909688160C760FD
:10E1100006610899416168460079A968D6E080B532
:10E1200072480021016441648164C16401604160FE
:10E13000FFF7D4FD01BD80B5FFF764FF01BDFBB55E
:10E14000150003273D4204D100264A4C002D02D180
:10E15000A6600720FEBDFFF7A8FD0298E0612770CA
:10E16000A56018350020A168C20089180E704E7095
:10E170006A4612798A704D606946097918225143BE
:10E180006D18401C0328EEDBE6606670A670142054
:10E19000FFF758FD03211420FFF75DFD1420FFF762
:10E1A0003FFD384D0098686003211120FFF753FDB3
:10E1B000286820610020FEBD4B4B9B68002B09D0D6
:10E1C000130001D0002801D1072070470068037CAC
:10E1D000002B01D008207047037441744261002075
:10E1E00070470000FFFF7F0041480068C205D20D64
:10E1F0001CD0103AD1001820084052B20321002A46
:10E2000001D43C4B03E03C4B1207120F083A920832
:10E2100092009A58C24090090140012902D0032976
:10E2200002D003E0002070470120704702207047B1
:10E23000F8B504000D0017002B488068002808D0AE
:10E24000002C06D0052D01D20720F2BD6069002800
:10E2500001D10820F2BD607C012801D12E0000E030
:10E260000026FFF7C1FF009733002A002100FFF7C7
:10E2700036FFF2BD9C3E0020FFFFFF00041301406B
:10E280000010014004150140F0B583B00400164EA3
:10E29000B768002F04D0002C02D06069002801D19B
:10E2A0000820FEBD00252574FFF79EFFC0000090EA
:10E2B00001A93818FFF7FEFE002801D10420FEBD99
:10E2C00002210170446068460079B168009A89189B
:10E2D00048701420FFF7ADFC0020FEBD0749096817
:10E2E00001600020704700009C3E002000110140AA
:10E2F00004ED00E000E400E01CED00E00415014046
:10E30000401A0002000A106000207047F4B500288F
:10E310001AD0002918D0002A16D0002B14D00024BF
:10E3200001E0641C24B2D51AA5420DDB002501E0F2
:10E330006D1C2DB20619765D4F5DBE42F1D16E1C8B
:10E340009E42F5D10019F2BD0020F2BD010000206F
:10E35000002900D1704780B5080001F0A5FA02BD80
:10E3600070B504000026002C0BD004E00A204643C0
:10E37000303D7619641C2578280003F053FE0028F0
:10E38000F4D1300070BDF8B505000024002D21D077
:10E39000287830280AD16878782801D0582805D103
:10E3A000AD1C03E0573F2001C4196D1C2E783000CE
:10E3B0000FD0370003F036FE002801D0303FF2E7DF
:10E3C00030004138062801D2373FECE7613E062E87
:10E3D000E8D32000F2BD020000230020002A00D173
:10E3E000704710B51078521C04E014780019C0B2C0
:10E3F000521C5B1C9BB24C1EA342F6DB10BD0000FE
:10E4000070B5002307A409E0050200120E7846400B
:10E410007000205A684080B2491C5B1C9DB2954236
:10E42000F2D370BD00002110422063308440A5501B
:10E43000C660E770088129914AA16BB18CC1ADD14A
:10E44000CEE1EFF13112100273325222B5529442F2
:10E45000F772D662399318837BB35AA3BDD39CC39A
:10E46000FFF3DEE36224433420040114E664C7743E
:10E47000A44485546AA54BB528850995EEE5CFF5EA
:10E48000ACC58DD55336722611163006D776F66692
:10E490009556B4465BB77AA719973887DFF7FEE73A
:10E4A0009DD7BCC7C448E5588668A778400861185E
:10E4B00002282338CCC9EDD98EE9AFF9488969998A
:10E4C0000AA92BB9F55AD44AB77A966A711A500A32
:10E4D000333A122AFDDBDCCBBFFB9EEB799B588BDA
:10E4E0003BBB1AABA66C877CE44CC55C222C033C7E
:10E4F000600C411CAEED8FFDECCDCDDD2AAD0BBD2A
:10E50000688D499D977EB66ED55EF44E133E322ED1
:10E51000511E700E9FFFBEEFDDDFFCCF1BBF3AAF79
:10E52000599F788F8891A981CAB1EBA10CD12DC1D7
:10E530004EF16FE18010A100C230E320045025406D
:10E5400046706760B9839893FBA3DAB33DC31CD3CD
:10E550007FE35EF3B1029012F322D23235421452BD
:10E5600077625672EAB5CBA5A89589856EF54FE519
:10E570002CD50DC5E234C324A0148104667447640D
:10E5800024540544DBA7FAB79987B8975FE77EF76D
:10E590001DC73CD7D326F2369106B016576676765D
:10E5A000154634564CD96DC90EF92FE9C899E98939
:10E5B0008AB9ABA94458654806782768C018E108AD
:10E5C0008238A3287DCB5CDB3FEB1EFBF98BD89B0D
:10E5D000BBAB9ABB754A545A376A167AF10AD01AFD
:10E5E000B32A923A2EFD0FED6CDD4DCDAABD8BAD59
:10E5F000E89DC98D267C076C645C454CA23C832C4D
:10E60000E01CC10C1FEF3EFF5DCF7CDF9BAFBABFAC
:10E61000D98FF89F176E367E554E745E932EB23E9C
:10E62000D10EF01E002200280ED0016800290BD068
:10E630002E4A1168002902D1106004E011008A6896
:10E64000002AFBD18860012210007047F0B593B01A
:10E650000700002025490C68002101AA8300D15041
:10E66000401C1028FADB3878010005D003F0DFFCED
:10E67000002801D17F1CF6E7012501973E0002E04A
:10E68000009806606D1C01A8A90040180090307821
:10E69000002816D0102D14DA3078010007D003F0CE
:10E6A000C6FC002803D0761CF6E73070761C307864
:10E6B000010003D003F0BBFC0028F6D0307800281E
:10E6C000DED100200099086000E0A468002C0BD087
:10E6D000012DFADB2168380003F084FC0028F4D116
:10E6E00001A928006268904713B0F0BDA83F002040
:10E6F00000290BD0002A09D0531E1A4006D1016010
:10E70000436000218160C160012070470020704794
:10E7100010B50268C36844681C401155C168491CA3
:10E72000C16010BD8168026843680B40D25C491C1F
:10E73000816010007047C1688068081A7047C1681E
:10E7400081607047F8B504000F0015000026002F07
:10E7500014D0002D12D0FFF7EEFFA84202D2050020
:10E76000002D0BD02068A16862680A40805CB85513
:10E77000A068401CA0606D1E761CF1E73000F2BD61
:10E78000F8B504000F0015000026002F17D0002D4B
:10E7900015D0FFF7D0FF6168081A401CA84202D2CA
:10E7A0000500002D0BD02068E16862680A40B95D61
:10E7B0008154E068401CE0606D1E761CF1E730007B
:10E7C000F2BD0268531C036011707047F8B5070072
:10E7D0000E0014006A4880229200010018310830AF
:10E7E000FFF786FF674A00217AA0FFF7E5FC66483D
:10E7F000002101604161C161C163644D6F61EE60E0
:10E80000E9666C6201206249086081229200614BD6
:10E810001A6088600321022003F022FC0420286093
:10E8200003F0DAFC002801D103F0B4FC6AA0006810
:10E830000090032069464870574A0F2003F0DAFC25
:10E8400000210F2003F028FD012000F008F800BF90
:10E850005BA000F0C3F8002000F001F8F1BD4F49C3
:10E86000002802D0012804D07047052088600420C9
:10E8700002E00F208860102008607047484900229D
:10E880000A60484A106008680028FCD001207047E0
:10E8900070B5040000253A4E30000830FFF74BFFFA
:10E8A000002805D030000830FFF73CFF207001251C
:10E8B000280070BD80B53C48FFF73DFF80B202BD27
:10E8C00010B5374A374C0B0409D000231360037886
:10E8D0002360401C491E1368002BF4D1FBE7012084
:10E8E00010BD70B50024284D286800280FD02C607A
:10E8F000234E30000830FFF71EFF2C49884206D215
:10E900002B480168C9B230000830FFF701FFEC6105
:10E91000EC6370BD10B51A4C618800290DD101213E
:10E92000244A116020700F2003F0FAFC00222249D3
:10E93000862080002018FFF77BFC10BD38B51F4DE6
:10E940000F4CA088002811D10022E90B86208000FE
:10E950002018FFF76DFC20000830FFF7F0FE20784C
:10E96000286001200A490860A08031BD0020A080F5
:10E970000520286000210F2003F08EFC31BD00002F
:10E98000B43200203DE9010008210040002500408C
:10E99000002000400423004015E901000C25004040
:10E9A0001C2100401C250040BC320020FF0100005B
:10E9B00018250040042000408F020000142500406C
:10E9C0003E205541525420696E69742E2E2E0D0A38
:10E9D00000000000CC340020020000000EB400B59E
:10E9E00082B003A900916B460200012103487844DC
:10E9F0000A3003F041FD029906B00847E5B0000077
:10EA000052000A4399001143009A12020A430199E5
:10EA100009041143B14A80001150704700B583B01A
:10EA2000002101910091002301220121FFF7E8FF5D
:10EA300007BD00B583B00022019200920B000021B7
:10EA4000FFF7DEFF07BD000010B5A54C8022920045
:10EA50002100A018FFF74CFEA24A002109A0FFF7F1
:10EA6000ABFB842080002018FFF7DCFD0120FFF7BE
:10EA7000F6FE00BF04A0FFF7B1FF0020FFF7EFFE96
:10EA800010BD0000AC1F00203E20475052532049CB
:10EA90006E69740D0A00000093480068042800D0D5
:10EAA000704710B5914C2088401C208000F02CF954
:10EAB000FFF700FF8E49C98B014301D000F082FAB5
:10EAC0002088401E208010BD89498A7E824206D05F
:10EAD0008876002803D1C86C01220243CA647047BB
:10EAE0008348407E70470000F8B507000C0081485D
:10EAF000844200DB441E7E48007E06283AD1012075
:10EB0000FFF7ADFE3A0021001CA0FFF767FF0020D1
:10EB1000FFF7A5FE0026002F1ED020001CD00525E3
:10EB200075480560210000BF1CA0FFF757FFFA21C0
:10EB3000890072A000F0F4FC00280DD06E4805603A
:10EB400021003800FFF7BCFE6D4900BF17A000F0A0
:10EB5000E7FC002800D026000120FFF780FE3200ED
:10EB6000210000BF13A0FFF739FF0020FFF777FE59
:10EB700030B2F2BD0020C043F2BD00003E2047503D
:10EB800052535F536F636B657453656E6444617475
:10EB9000613A252E2A730D0A0000000041542B51C2
:10EBA0004953454E443D25640D0A000053454E44EB
:10EBB000204F4B003E2054435049505F53656E64D4
:10EBC0002025752C207265743A25640D0A0000001A
:10EBD000F1B500240027002505204749086000BF43
:10EBE00017A14848FFF7FAFEFA21490016A000F0E5
:10EBF00097FC060019D000E0761C3078010003D0A5
:10EC000003F010FA0028F7D03000FFF7A9FB070047
:10EC1000761C3078010003D003F004FA0028F7D006
:10EC20003000FFF79DFB04000125280069460978A4
:10EC3000012901D13800F2BD022900D12000F2BD26
:10EC400052464944000000002B524649443A000015
:10EC50002749497E062900D1704780B500F040FC65
:10EC600001BD0020C043B4494A7E062A0CD0032AC5
:10EC70000AD00020052A07D10A7E062A04D14C2298
:10EC8000895C490700D40120704710B5AA4AD368AF
:10EC9000984202D1148AA14207D0D0601182072382
:10ECA0001376D36C04241C43D464002804D00029B8
:10ECB00002D00120FFF708FF10BD10B50A000100C7
:10ECC0009E48FFF73FFD0400000405D1FFF7C9FF90
:10ECD000012801D00024E44320B210BD00070050F9
:10ECE000CC1F0020E9F5010014250040B6320020B9
:10ECF000481F0020010200000C2500403E000000DB
:10ED0000B80B00006CF80100F8B58B4CE06C0527DF
:10ED100001260025A18A0B2904DAE18A0B2901DAF0
:10ED2000304206D0B043E064656100F00FFB6576C9
:10ED30000BE0607E002808D0012839D0022800D1DD
:10ED400097E0042800D1A0E011E0A07E00280ED0BA
:10ED500000F0E2FA02F0A7FDE06566760120FFF719
:10ED60007EFD7748FFF73AFE0020FFF778FD607ED2
:10ED7000052851D1E06C410700D49BE0217E042698
:10ED8000F643082913D0002911D0BD4807606D490A
:10ED90006D48FFF723FEFA218900BA4800F0C0FB56
:10EDA00002F081FDA06500F037FB2076E06C7FE08B
:10EDB00002F079FDE16D401A0C28D8D302F073FD02
:10EDC000206500211F20FFF734FEAD4807600321B6
:10EDD000ADA0FFF775FDAD4E6421300000F0A0FB43
:10EDE000A74807600321A8A0FFF76AFDFA21890060
:10EDF000300000F095FB002813D000F099F90028AE
:10EE00000CD00120FFF72BFDA148FFF7E7FD002004
:10EE1000FFF725FD022060762576F1BD03206076A0
:10EE200015E00120FFF71BFD48A0FFF7D7FD0020EC
:10EE3000FFF715FD0620607600211F20FFF7F9FD82
:10EE400000211F20FFF7F5FD607E03288FD10120F0
:10EE5000FFF705FD43A0FFF7C1FD0020FFF7FFFC12
:10EE600000211F20FFF7E5FD00211F20FFF7E1FD36
:10EE70007DE700F00DFB012801D1052000E0042012
:10EE8000607600F0A1FAA07471E702F00CFD216D2C
:10EE9000401A1E28F8D302F006FD206500F0F8FAAB
:10EEA000002803D1E08A401CE08260E7677661E7D2
:10EEB0000640E664207E002808D0042825D00628D5
:10EEC000ABD0082802D009281FD021E002F0EBFCCB
:10EED0006065E1680029A0D0228A10009DD06848B2
:10EEE000076000BF27A0FFF779FD894D290000BF0B
:10EEF0002BA000F015FB002803D129002CA000F066
:10EF00000FFB00F089FA2076F1BD00F043FA83E7A9
:10EF100002F0C9FC616D401A3C2803D300F03AFAB4
:10EF20000820207602F0BFFCA16D401A0328EBD325
:10EF300002F0B9FCA065E4E7481F0020CC210020C6
:10EF400030970200649702006CF801003E204750A1
:10EF50005253206D6F64756C65206661756C742EFC
:10EF60000D0A00003E2047505253206D6F64756CAF
:10EF700065206E6F2053494D20636172642E0D0A27
:10EF80000000000041542B51494F50454E3D225442
:10EF90004350222C222573222C25640D0A000000E8
:10EFA000434F4E4E454354204F4B0D0A0000000086
:10EFB000414C524541445920434F4E4E4543540D18
:10EFC0000A000000F0B583B0002501950095AB4C18
:10EFD000E08BAB49884250D20527AA4E3018FFF784
:10EFE00057FC002810D01020254908600121E08B33
:10EFF0003018FFF765FC22480760E08B401CE08377
:10F0000020006030FFF76AF901A8FFF767F96A4648
:10F01000216E0198FFF774F9E18B7018042906DB63
:10F02000811E4A780A2A02D109780D2903D0009955
:10F03000C54A914222D3057016A1300004F08DF923
:10F04000002805D115A1300004F087F9002802D06E
:10F0500000F0E2F92076CA49300004F07EF9002879
:10F0600008D000F015FA012800D00427677600F0D8
:10F07000ABF9A074300000F017F8E583F7BD00008D
:10F080000C2500406C97020041540D0018F501005A
:10F0900050970200434C4F5345440000434F4E4E9F
:10F0A000454354204F4B0000F8B5C3A7390004F086
:10F0B00054F90400C14E002C27E0E01CFFF750F982
:10F0C00085B22078010002D0641C3A28F9D10120D1
:10F0D000FFF7C5FB290000BF0EA0FFF77FFC002053
:10F0E000FFF7BDFB1020306029002000FFF7E8FB90
:10F0F000052030602A002100C348FFF741FB39009A
:10F100006019401C04F029F90400D6D1F1BD0000BB
:10F11000B80B00003E204750525320536F636B657D
:10F120007420526563656976653A25640D0D0A00A1
:10F13000F8B5002069460870A04C0525256005211A
:10F1400051A0FFF7BDFBB14E6421300000F0E8F99B
:10F15000256005214EA0FFF7B3FB6421300000F0CD
:10F16000DFF9C54968A000F0DBF92560C34F00BF97
:10F1700049A13800FFF732FC6421300000F0D0F9DB
:10F18000256000BF46A13800FFF728FC642130004D
:10F1900000F0C6F9256000BF43A13800FFF71EFC50
:10F1A0006421300000F0BCF9256000BF40A13800A8
:10F1B000FFF714FC6421300000F0B2F9256000BFB5
:10F1C0003DA13800FFF70AFC6421300000F0A8F9E7
:10F1D000256000BF3AA13800FFF700FC6421300031
:10F1E00000F09EF9256000BF38A13800FFF7F6FB5C
:10F1F0006421300000F094F9256000BF35A138008B
:10F20000FFF7ECFB6421300000F08AF9256000BFB5
:10F2100032A13800FFF7E2FB6421300000F080F9F2
:10F22000256000BF2FA13800FFF7D8FB6421300014
:10F2300000F076F9256000BF2DA13800FFF7CEFB66
:10F240006421300000F06CF9256000BF2CA138006B
:10F25000FFF7C4FBFA2189002BA000F061F9002818
:10F2600008D000BF2AA104F078F8002802D00120BD
:10F270006946087068460078F2BD0000481F00200B
:10F28000FF010000EC340020415445310D00000026
:10F29000415456310D000000435344483D300000B6
:10F2A0005153434C4B3D30004946433D302C3000D8
:10F2B000434C564C3D313000434D47463D310000F4
:10F2C000435343533D2247534D2200004352454789
:10F2D0003D320000434C49503D31000051494D55ED
:10F2E000583D30005149484541443D31000000003F
:10F2F000434E4D493D322C322C302C302C30000006
:10F300004350494E3F0000002B4350494E3A000005
:10F31000524541445900000038B500211F20FFF735
:10F3200088FB00211F20FFF784FBC82002F01FFC90
:10F33000AF4C80252D0625601F20FFF76FFB256051
:10F340001F20FFF76BFB31BDAD0D000010B5002491
:10F3500080200006A64908601F20FFF75FFBA54933
:10F3600008A000F0DDF8002800D0012400211F20B3
:10F37000FFF75FFB00211F20FFF75BFB200010BDA4
:10F38000D8F40100504F57455220444F574E0D0AB4
:10F390000000000080B505200849086008A1374832
:10F3A000FFF71CFB944900BF5BA000F0B9F80028F0
:10F3B00000D0012002BD0000495044000C2500404F
:10F3C00043474143543D310038B5002405208B4963
:10F3D00008608BA12948FFF701FBFA21890000BFD3
:10F3E0000BA000F09DF805000CD000E06D1C287803
:10F3F000010003D002F016FE0028F7D02800FEF727
:10F40000AFFF0400E0B232BDCC21002018F50100AE
:10F410002B4353513A00000070B500250520774971
:10F42000086000BF16A11548FFF7D8FA714900BF60
:10F4300015A000F075F804001CD02078010002D05F
:10F44000641C3A28F9D12078202801D1641CFAE7FD
:10F450006C48EDB2A9004018066A3000FEF776FF4E
:10F4600002003100200003F094FF002802D06D1C40
:10F47000002EEDD1E8B270BD881300006CF80100D9
:10F48000514953544154000053544154453A0000EB
:10F4900080B50520594908600DA15B48FFF79EFA29
:10F4A000FA2189000CA000F03BF800280ED001786A
:10F4B0000A0002D0401C2C29F9D1FEF751FFC0B23E
:10F4C000012801D0052801D1012002BD002002BD84
:10F4D000435245473F0000002B435245473A000046
:10F4E00080B50521454A1160010000BF03A0FFF768
:10F4F00075FA404908A000F013F801BD41542B51A2
:10F50000415544504C41593D222573222C302C3515
:10F51000302C300D0A0000004F4B0D0A0000000097
:10F52000F1B582B00D0000270026364C2777200069
:10F530006430FEF7A9FE0096E803FA21490040185E
:10F54000490002F018FC0100002220006430FEF7A0
:10F550006FFEE78302E0FDF743FD48DF207F0028D0
:10F560003AD1E08B29498842F5D2A7490818FFF71C
:10F570008FF90028EFD01020204908600121A2480F
:10F58000E28B8018FFF79CF905201C490860E58B89
:10F590006D1CE5839C48ADB24019042D06DB811E2D
:10F5A0004A780A2A02D109780D2903D002990978EC
:10F5B0003E29D3D10770029800F076F903002A00A3
:10F5C00002999148FEF7A2FE060005D104A18E48DB
:10F5D00003F0C3FE0028C1D0E7833000FEBD000069
:10F5E0004552524F52000000012088490877704769
:10F5F0000C050050B80B0000102700000C2500403F
:10F6000043535100481F00206CF80100FF01000027
:10F61000F8B50C1D251D24687D49200002F0E2FC90
:10F62000002816D12C687BA1200002F0DBFC00280A
:10F6300001D1012005E078A1200002F0D3FC0028D0
:10F6400001D1FFF741FA0120FFF709F92968734852
:10F65000C3E07349200002F0C5FC00280CD1012052
:10F66000FFF7FDF86948017E890041180A6A417E6A
:10F670006C48FFF7B3F9C2E0802636066AA1200085
:10F6800002F0B0FC00281CD12C6862A1200002F01E
:10F69000A9FC002805D1654806601F20FFF7BEF9C8
:10F6A00009E05DA1200002F09DFC002803D10021AB
:10F6B0001F20FFF7BEF90120FFF7D1F829685C4849
:10F6C0008BE05C49200002F08DFC002812D12C0058
:10F6D00027685949380002F085FC00280BD1012029
:10F6E000FFF7BDF85548FFF779F90020FFF7B7F8A5
:10F6F000FFF712FEF1BD5249380002F073FC0028FA
:10F700000BD10120FFF7ABF84E48FFF767F9002057
:10F71000FFF7A5F8FFF71AFEF1BD4BA1380002F084
:10F7200061FC002808D1FFF74FFE04000120FFF71D
:10F7300096F82100454850E0052545A1380002F023
:10F7400051FC00280BD143480560616847A0FFF7D2
:10F7500045F90120FFF783F861683F483DE03F49E4
:10F76000380002F03FFC002814D13A480560676871
:10F77000380000F099F881B23800FFF7A1F8354859
:10F780000560022136A0FFF79BF80120FFF767F81C
:10F79000344832E037A1380002F024FC00281FD1A1
:10F7A00067681CA1380002F01DFC002805D11F4825
:10F7B00006601F20FFF732F909E017A1380002F0B8
:10F7C00011FC002803D100211F20FFF732F901208E
:10F7D000FFF745F8616800BF28A0FFF7FFF80EE0CB
:10F7E00021A1380002F0FEFB00280BD16068FFF772
:10F7F00077FE0120FFF733F826A0FFF7EFF800208F
:10F80000FFF72DF8F1BD0000EC340020481F002068
:10F8100074F801006F6E00006F6666007897020052
:10F820008C970200949702006B6579000C050050DC
:10F83000B8970200D0970200D8970200E097020024
:10F84000F897020004980200637371002098020088
:10F85000617400000C2500403898020054980200A2
:10F860000D0A00005C9802007474730041542B254B
:10F87000730D0A00706F7765720000003E204750DC
:10F880005253207465737420706F7765723A2573D4
:10F890000D0A00003E205454535F506C617920647F
:10F8A0006F6E652E0D0A0000010000E0491C0A7809
:10F8B000002AFBD1081A7047124224D0994228D955
:10F8C00070B500251B4202D00C00002109E0002485
:10F8D000012649186441944200D3A41A7641F8D312
:10F8E0003100012601E0764109D2001864416D41E2
:10F8F000A41A9D41F7D2A4185D41B619F5D3300082
:10F9000022002B0070BD1B42D8D108B503F058FD72
:10F9100008BD01D19042D3D202000B00002100208B
:10F920007047FEE73EB5784C9520800025182800EA
:10F9300003F0CCFDC8200290C430201801908C2028
:10F940004000009023007433704A2900200003F027
:10F9500004FE992080002018FEF764FE0120FFF7C6
:10F96000B3F80120FEF77BFF03A0FFF737F8002074
:10F97000FEF775FF37BD00003E204D5154542069FD
:10F980006E6974204F4B2E0D0A00000010B5604CBC
:10F990002088401C208000F0BDF800215A4803F068
:10F9A00054FF2088401E208010BD5748006AC0B216
:10F9B0007047000070B5060000240120FEF74FFFDD
:10F9C00070688268416800BF0FA0FFF707F8002049
:10F9D000FEF745FFC2480C216143451868680028BE
:10F9E0000ED071684A68896803F0D3FC002807D1FB
:10F9F000AA68100004D03068C16889B28068904756
:10FA0000641C082CE6DB70BD3E2052656365697698
:10FA100065204E6577206D657373616765252E2AB5
:10FA2000733A0D0A0000000070B505000C000026B6
:10FA3000F643FFF716F9002808D0B9480168491CB9
:10FA4000016021002800FFF74FF80600300070BD6C
:10FA500080B5FFF732F9012803DBB1490A68521C6F
:10FA60000A6002BD7FB5060068460170002444703C
:10FA7000029203932448016A090615D06A463100B0
:10FA800003F0BAFF0500A74901D00C88641C0C8064
:10FA90000120FEF7E4FE2A00310000BF05A0FEF7BA
:10FAA0009DFF0020FEF7DBFE681E8041C00F04B002
:10FAB00070BD00003E204D515454207075626C6939
:10FAC000736820746F703A25732C20726574757298
:10FAD0006E3A25640D0A000030B5002811D01300DD
:10FAE0000FD00023BA4C0C255D4364196568002DC6
:10FAF00004D160602170A260012030BD5B1C082B26
:10FB0000F0DB002030BD0000E82100208813000059
:10FB1000B6320020F8B50024AE48006A002805D0AF
:10FB2000FFF79FF8002801D1AA4804627D4EA9483A
:10FB3000007F002800D08BE001F0B5FE70603088B7
:10FB4000022802DA708802280ADB3480A1490C7787
:10FB5000086A002802D17088002805D000F0C2F899
:10FB60009C48006A00280CD19B4FFFF77AF80028C8
:10FB700004D1B98D38000C30FFF787F8FFF771F822
:10FB8000012800D082E0954D042028726E20288341
:10FB90007A6893A13000083003F0D8FF30000830B5
:10FBA000E86000BF96A02864E8640120A876EC769F
:10FBB00000F06EF8002866D00120FEF750FE3100FC
:10FBC000083100BF90A0FEF709FF0020FEF747FEB6
:10FBD0000120FEF744FEBA8D39000C3190A0FEF7EB
:10FBE000FDFE0020FEF73BFE0120FEF738FE372128
:10FBF00092A0FEF7F3FE0020FEF731FE0020708099
:10FC00007449C20089184C62401C0828F8DB0027A0
:10FC100033480C21794344186068002814D0714B94
:10FC2000227801466B4803F08DFE05000120FEF7A7
:10FC300016FE2A00616800BF87A0FEF7CFFE0020F5
:10FC4000FEF70DFE002D18D17F1C082F18DADFE714
:10FC500001F029FE7168401A0F2800D26FE701F009
:10FC600022FE70600120FEF7FAFD00BF5EA0FEF7E5
:10FC7000B5FE0020FEF7F3FD67E73088401C3080BA
:10FC800001F014FCF1BD7088401C7080F1BD0000D3
:10FC900038B5504D514C2100280003F007FE0028D4
:10FCA00012D02100280003F001FE04000CD0012036
:10FCB000FEF7D5FD210000BF70A0FEF78FFE0020EB
:10FCC000FEF7CDFD002032BD0120FEF7C8FD00BFCC
:10FCD00074A0FEF783FE0020FEF7C1FD012032BDB7
:10FCE000E03C002010B53B4803F0E7FE04000BD0D9
:10FCF0000120FEF7B4FD21006FA0FEF76FFE00208B
:10FD0000FEF7ADFD002010BD0120FEF7A8FD00BFED
:10FD100074A0FEF763FE0020FEF7A1FD012010BDD8
:10FD2000983F0020743E002070B50C1D256800BF70
:10FD300072A1280002F056F9002817D1A068FEF73A
:10FD40000FFB0500E6683000FFF7AEFD83B232001E
:10FD5000E9B26068FFF786FE002837D00120FEF781
:10FD60007EFD616867A0FEF739FE2CE06BA12800DC
:10FD700002F038F9002809D10120FEF770FD15487E
:10FD8000027F016A67A0FEF729FE1CE06FA1280030
:10FD900002F028F9002807D1FFF7A4FF0120FEF7A1
:10FDA0005EFD00BF6CA00CE072A1280002F01AF901
:10FDB00000280BD1FFF76CFF0120FEF750FD00BFBC
:10FDC0006EA0FEF70BFE0020FEF749FD70BD00009F
:10FDD000E03C0020E82100200825002058240020D5
:10FDE00025750000B5F901003E204D515454207096
:10FDF000696E672074696D656F75742E0D0A000059
:10FE000041442D31350000003E204D5154542D63A6
:10FE10006C69656E7449643A25730D0A0000000030
:10FE20003E204D515454207365727665723A2573A5
:10FE30002C20706F72743A25750D0A003E204D51CA
:10FE400054542050696E6720696E7674657220255F
:10FE50006420730D0A0000003E204D51545420735D
:10FE600075627363726962652025732C20726574F4
:10FE700075726E3A25640D0A000000003E2052653E
:10FE80007475726E20636F64652066726F6D204DAD
:10FE900051545420636F6E6E65637420697320251E
:10FEA000640D0A003E204D51545420436F6E6E6520
:10FEB000637465640D0A00003E2052657475726EAD
:10FEC00020636F64652066726F6D204D515454201D
:10FED000646973636F6E6E65637420697320256453
:10FEE0000D0A00003E204D515454204469736F6E3A
:10FEF0006E65637465640D0A000000007075626CC5
:10FF0000697368003E204D515454207075626C69CD
:10FF10007368202573204F4B2E0D0A007374617493
:10FF2000757300003E204D51545420636C69656E1A
:10FF30007420636F6E6E6563743A25642C2070695B
:10FF40006E67206F75743A25640D0A0064697363E7
:10FF50006F6E6E65637400003E2074657374204D8F
:10FF600051545420646973636F6E6E6563742E0D13
:10FF70000A000000636F6E6E656374003E20746556
:10FF80007374204D51545420636F6E6E6563742EEC
:10FF90000D0A0000BFF34F8F964897490860BFF3E2
:10FFA0004F8F00BFFDE70000F0B583B004F018F9F3
:10FFB0006C460820A080A020C000E0808F4E0096F4
:10FFC000D94D29003431684604F032F90120FEF79A
:10FFD00046FCA96B1CA0FEF701FD0020FEF73FFCCC
:10FFE000D24F3868A0800120E080009629003C3183
:10FFF000684604F01DF90120FEF731FC296C00BFB2
:020000040002F8
:1000000016A0FEF7EBFC0020FEF729FC0120FEF70E
:1000100026FC396889B200BF16A0FEF7DFFC00207D
:10002000FEF71DFC002000F081F828004430FEF7A8
:10003000F9FA0120FEF713FC16A0FEF7CFFC002012
:10004000FEF70DFCF7BD00003E2070734C6F67207B
:1000500069643A2523780D0A000000003E20707381
:10006000576F726B446174612069643A2523780D7F
:100070000A0000003E205053544F524147455F460E
:100080004C4153485F504147455F53495A453A25D3
:10009000640D0A003E20576F726B44617461204901
:1000A0006E69742E0D0A000010B59F4C342120009B
:1000B0003C3004F0D4F908212000343004F0CFF9AA
:1000C000C82001F054FDFFF765FF10BD10B5964C38
:1000D0003222A11C0020FEF793F920800023342255
:1000E000210020003C3004F029F900280ED1042022
:1000F00000F011F90120FEF7B2FB00BF04A0FEF7EB
:100100006DFC0020FEF7ABFB012010BD002010BDF0
:100110003E20576F726B20506172616D2055706484
:10012000617465204F4B2E0D0A00000070B5002849
:1001300008D00120FEF793FB31A0FEF74FFC002012
:10014000FEF78DFB784C0023342221003C31200047
:1001500004F038F900284BD165880026774885429D
:100160000AD100250120FEF77AFB00BF2CA0FEF784
:1001700035FC0020FEF773FB3222A11C0020FEF7A5
:100180003FF9218888420AD00120FEF768FB00BFB2
:1001900029A0FEF723FC0020FEF761FB06E0280003
:1001A000022D03DA012D1BD0002D21D1012060800A
:1001B0006348606026811C2060810F2225A12000F9
:1001C0000C30FCF747FB5F48A0853C20E0852663A8
:1001D000FFF77CFF0120FEF742FB00BF21A002E0F9
:1001E000FEF73DFB26A0FEF7F9FB0020FEF737FBEC
:1001F00070BD00000400FA050CED00E031030200C0
:100200003E20576F726B20446174612046616374B5
:100210006F72792052657365742E0D0A000000001C
:100220003E20576F726B2044617461204E6F7420C2
:10023000496E69742E0D0A003E20576F726B204480
:1002400061746120435243204661756C742E0D0A1F
:10025000000000003132302E32352E3230312E3255
:10026000303100003E20576F726B207665727369E3
:100270006F6E312064656661756C742E0D0A000026
:100280003E20576F726B2064617461206C6F6164F3
:10029000204F4B2E0D0A0000F0B585B0050000265A
:1002A00069460E72204F3C8E01F0FDFAB549884236
:1002B0002DD3641CA4B2A020C000844200DB002423
:1002C00001F0F1FA0090019503AA210038003430C2
:1002D00004F008F800230822694603A804F02EF869
:1002E000002814D1042000F016F801206946087295
:1002F000FEF7B5FA019B009A210000BFA6A0FEF709
:100300006DFB0020FEF7ABFA3C86FFF7DFFE684688
:10031000007A05B0F0BD9C4908609C4848604A6876
:100320008242FCD048687047082500201000001069
:10033000954803688B4200D142607047FFFF000080
:1003400000B4C404B326000070B586B00D1D2E683D
:100350008F4C00BF9CA1300001F044FE002829D141
:100360006868FDF7FDFFA16BC0000D180120FEF7C6
:1003700076FA6A68296800BF95A0FEF72FFB002077
:10038000FEF76DFA04A9286801F0A0FA0120FEF733
:1003900066FA04A881780391C1790291817901916B
:1003A000417900910379C278018800BF90A0FEF7DF
:1003B00015FB70E099A1300001F014FE00280BD16C
:1003C0006868FDF7E0FFFFF767FF0120FEF747FAD7
:1003D00095A0FEF703FB5EE098A1300001F002FE5D
:1003E000002807D10120FEF73AFA628E218E00BF65
:1003F00095A04EE09EA1300001F0F4FD00280DD143
:100400006868002804D0FDF7ABFF6060FFF75EFE70
:100410000120FEF724FA616898A02AE05DA130006F
:1004200001F0E0FD002811D16868002806D0010025
:1004300020000C3004F05EF8FFF748FE0120FEF7C4
:100440000EFA21000C3100BF91A012E097A13000FC
:1004500001F0C8FD00280FD16868002804D0FDF71E
:100460007FFFA085FFF732FE0120FEF7F8F9A18D8E
:1004700090A0FEF7B3FA0EE095A1300001F0B2FDB6
:1004800000280CD10120FEF7EAF96289218900BF1A
:1004900091A0FEF7A3FA0020FEF7E1F929E000257C
:1004A00094A1300001F09EFD002801D1258107E0D4
:1004B00092A1300001F096FD002804D10F20208188
:1004C000FFF704FE15E000BF8EA1300001F08AFDA9
:1004D000002802D1FFF7E8FD0BE000BF8CA130003F
:1004E00001F080FD002804D16580FFF7EFFDFFF7E4
:1004F00051FD0120FEF7B3F9618800BF86A0FEF729
:100500006DFA0020FEF7ABF90120FEF7A8F961684B
:1005100085A0FEF763FA0020FEF7A1F90120FEF79F
:100520009EF9218984A0FEF759FA0020FEF797F979
:100530000120FEF794F9618984A0FEF74FFA0020AC
:10054000FEF78DF90120FEF78AF9218E83A0FEF7D0
:1005500045FA0020FEF783F90120FEF780F9618E4D
:1005600083A0FEF73BFA0020FEF779F90120FEF7A1
:1005700076F9E18D84A0FEF731FA0020FEF76FF9DD
:1005800006B070BD01A8395A903F0020FFFFFF0F51
:1005900008250020697000003E2057726974655F6D
:1005A00053746F72654C6F6720696E6465783A2585
:1005B000752C2074696D653A25752C207266696406
:1005C0003A2523782E0D0A00726561646C6F67000E
:1005D0003E20726561646C6F672074696D653A25B1
:1005E000752C2072666964A3BA2523782E0D0A0043
:1005F0003E2074696D653A20253034642D25642DC4
:10060000256420253032643A253032643A25303270
:1006100064206461792D2564200D0A007772697465
:10062000656C6F67000000003E2077726974656C2E
:100630006F67204F4B2E0D0A000000006C6F67693A
:100640006E646578000000003E205374726F652070
:100650004C6F6F67205265636F72643A25752C206A
:100660005265706F72743A25752E0D0A00000000F5
:100670006465766963656964000000003E20446536
:10068000766963652049443A25750D0A000000002B
:100690003E204D51545420636F6E6E656374207319
:1006A00065727665723A25730D0A0000706F727478
:1006B000000000003E204D51545420636F6E6E6563
:1006C000637420706F72743A25750D0A0000000083
:1006D000636F756E740000003E2053746F636B206F
:1006E000436F756E743A25752C206D61783A2575C7
:1006F0000D0A0000636C65617200000073746F7214
:1007000065000000636C6561726C6F67000000003B
:1007100072657365740000003E2076657273696FC0
:100720006E3A25750D0A00003E20446576696365C2
:1007300049443A25750D0A003E2053746F636B439C
:100740006F756E743A25750D0A0000003E205374D3
:100750006F636B4D61783A25750D0A003E20537426
:100760006F72654C6F675F496E3A25750D0A000020
:100770003E2053746F72654C6F675F5265706F7285
:10078000743A25750D0A00003E204D5154545F50B7
:10079000696E67496E76743A25750D0A000000008F
:1007A000B448032101810021418181810100183178
:1007B00041607047F8B5AF4C6089010031A5A2894E
:1007C000521A33D0626823891940142359435118AF
:1007D0000E784F1C401C608101F065F860610120BB
:1007E000FEF73DF861692800FEF7F8F80020FEF7F3
:1007F00036F83100380000F0B3F900280AD10120A2
:10080000FEF72DF825A0FEF7E9F80020FEF727F8FF
:1008100004F034F80120FEF722F801F044F8616991
:10082000411A00BF27A0FEF7D9F826E0BB4E30786A
:10083000002802D101F037F86061307800281FD01D
:1008400001F031F86169401AFF212E31884217D337
:1008500001F029F860610120FEF701F861692800C4
:10086000FEF7BCF80020FDF7FAFF04F007F80120BE
:10087000FDF7F5FF1EA0FEF7B1F80020FDF7EFFF32
:10088000F1BD00003E20417574684F4B5F5453200A
:10089000253032752E730D0A000000003E20496E8F
:1008A00076616C696420424C4520666F726D61749C
:1008B0002C20424C4520646973636F6E6E656374CF
:1008C0002E0D0A003E205254435F52656164436F0F
:1008D000756E742829202D20417574684F4B5F5424
:1008E00053203D20253032752E730D0A0000000084
:1008F0003E2054696D656F757420646973636F6E13
:100900006E65637465642E0D0A000000834A1278D8
:10091000002A00D1704700B583B0009068460129D5
:1009200001D155210AE00E2901D1AA2106E00D29A5
:1009300001D1AB2102E00F2901D1AC2101710522C7
:1009400069463B2000F01CF807BD70B5494CA589ED
:1009500023896689AE1BB34211DB66682B401422E3
:100960005343F2181170531C0A0001001800FBF7E2
:100970005DFF6D1CA581A5480168491C016070BD23
:10098000F0B591B006000F0015000120FDF767FFDC
:100990002A00310038A0FEF721F80020FDF75FFFA4
:1009A0006C4600202070B0000121014361700120DD
:1009B000FDF755FF617800BF36A0FEF70FF8002065
:1009C000FDF74DFF00F096F804220100A01CFBF794
:1009D0002DFF8F4E3088401C3080A0710004000E27
:1009E000E071002F09D0280007D00D2D05DA2A006C
:1009F000390020000830FBF719FF0835EAB2122A47
:100A000000DB112205AD2800103000210023002753
:100A10008AC00160521E611C28001030FBF706FFDF
:100A2000301D05A9CCC8CCC105A84DDF1022290076
:100A30002031601CFBF7FAFE0120FDF710FF217842
:100A40001EA0FDF7CBFF0020FDF709FF0120FDF7F9
:100A500006FF61781EA0FDF7C1FF0020FDF7FFFE35
:100A60001121684603F012FF68480168491C0160C3
:100A700011B0F0BD143C00203E2053656E645F430E
:100A80006D643A2523782C206C656E3A25750D0A25
:100A9000000000003E206265666F726520656E632F
:100AA00072797074696F6E3A206275665B315D2091
:100AB0003D20305825780D0A000000003E20627568
:100AC000665B305D203D20307825780D0A000000FF
