:020000040001F9
:10B00000F03A0020650C0200D7C7010063C80100B8
:10B010000000000000000000000000000000000030
:10B0200000000000000000000000000043E60100F6
:10B03000000000000000000047F30100FB0A0200CE
:10B040000B0D0200170D02000D020200950B02000D
:10B05000BF080200000000000D090200ED0402001C
:10B06000470D0200730D02003D050200750D020040
:10B07000770D0200790D02007B0D02007D0D0200AC
:10B080001502020007EB01007F0D0200810D020096
:10B090001FEB0100830D02006DF80100850D020019
:10B0A000870D0200890D0200000000000000000072
:10B0B0000000000000000000000000000000000090
:10B0C000F1B5A2B014001F00029100200B900AE01D
:10B0D0000298229A90470290002800D1CAE20B9869
:10B0E000401C0B90641C2178002901D10B98C3E20D
:10B0F0002529EDD100200590069007900890099031
:10B100000A9002E0010001200843641C21782029F4
:10B11000F8D023290ED02B2904D02D2907D030298F
:10B120000BD00DE001000220084380B2EDE70100E2
:10B130000420F9E701000820F6E701001020F3E7FA
:10B140002A290FD1396839600A68091D39600D92C2
:10B15000002A05D551420D9101000420084380B218
:10B16000641C12E000210D910AE00D9A754B9A4281
:10B1700005D093009A185200511830390D91641C73
:10B1800021780A00303A0A2AEFD321782E2903D0F9
:10B190000021C9430C911EE0641C21782A2907D1A3
:10B1A000396839600A68091D39600C92641C12E024
:10B1B00000210C910AE00C9A624B9A4205D0930050
:10B1C0009A185200511830390C91641C21780A00E9
:10B1D000303A0A2AEFD3694608872578290058486B
:10B1E0007844FF305D3000F0E4FE002801D0641C9C
:10B1F00000E0002568463A30057068463A3000782D
:10B20000682804D12178682901D1622005E06C28E2
:10B2100007D120786C2804D1712069463A31087032
:10B22000641C12A804902578641C280025382AD0B4
:10B230001C3800D1CFE0001F022800D8CBE0133823
:10B2400000D1EEE0093800D1C5E0801E00D157E101
:10B25000401E00D12FE1401E022800D8BBE0001F95
:10B2600000D128E1401F00D186E0401E00D1D8E087
:10B27000401E26D0C01E0BD0801E00D1D1E0C01EC3
:10B2800000D1CEE046E1252012A9087001204BE153
:10B29000386838600568001D386003950C9E002EE4
:10B2A00003D5280000F08FFE09E0320000212800BD
:10B2B00000F091FE002801D0401B00E03000069015
:10B2C00033E1386838600268001D38600020C043F0
:10B2D000002110406A4603C212A80390049B3C253B
:10B2E000684603C8002904D1002802D10C9A002A1C
:10B2F00014D06D1E11950207120F3032D2B23A2AC5
:10B3000000DB27325A5500090A071043090901D109
:10B31000002803D0039A5E19B242EAD33C20401BB6
:10B320000690591903910C9988420FDA081A08906F
:10B330006846008F0449014068460187F5E000BF78
:10B34000D8590000FFFFFF7FEFFF0000002900D465
:10B35000EBE069463831097814220A40102A00D0FF
:10B36000E3E00D99059A891A089A891A0D1A012D98
:10B3700000DADAE00895D8E068463A3000786228CA
:10B3800019D0682806D06A280CD06C281BD07128E8
:10B3900008D018E0386838600168001D38600B98E4
:10B3A0000880C2E0386838600268001D38600B9879
:10B3B000C11703C2B9E0386838600168001D386001
:10B3C0000B980870B1E0386838600168001D38607B
:10B3D0000B980860A9E03A68D21D072082433A60C2
:10B3E00003CA3A606A4603C2002902D505982D2196
:10B3F0000AE06846008F810702D505982B2103E0FB
:10B40000C00705D50598202112AA1154401C0590AB
:10B4100012A80599401803902900684600F0FCF92D
:10B4200083E068463A3000786C280BD0712801D050
:10B430006A2807D13A68D21D072082433A6003CABE
:10B440003A6005E0396839600868091D39600021F3
:10B450006A4603C268463A300078682803D16846D5
:10B4600003C880B20BE0622803D1684603C8C0B2AB
:10B4700005E0742801D07A2804D1684603C8002169
:10B480006A4603C268463830007800072FD5684600
:10B4900003C8002901D1002829D02020284378287A
:10B4A00025D10598302112AA1154401C411C059148
:10B4B00012A90D541BE0390068463A30007800F0BC
:10B4C000DDF86A4603C26846002902DA05982D2194
:10B4D00009E0008F810702D505982B2103E0C00702
:10B4E00005D50598202112AA1154401C059012A8D8
:10B4F0000599401803902900684600F0F3F814E01D
:10B5000001200590386838600168001D386012A875
:10B5100001700AE0252012A9087001200590002D75
:10B5200003D012A84570022005900D980599401A85
:10B530000899401A0699401A0999401A0799401A21
:10B540000A99401A1190684638300078400711D4A3
:10B55000202010A90870002509E0012310AA6946DF
:10B56000229800F00EFD002800D083E06D1C119899
:10B570008542F2DB059E12AD0BE029780298229AF3
:10B5800090470290002875D00B98401C0B906D1CC2
:10B59000761E002EF1D1302010A90870089E0025DB
:10B5A00008E0012310AA6946229800F0EAFC00286E
:10B5B00060D16D1CB542F4DB069E039D0BE029783B
:10B5C0000298229A90470290002853D00B98401C72
:10B5D0000B906D1C761E002EF1D1302010A9087042
:10B5E000099E002508E0012310AA6946229800F070
:10B5F000C8FC00283ED16D1CB542F4DB079E0398C1
:10B60000069945180BE029780298229A90470290F3
:10B6100000282FD00B98401C0B906D1C761E002E1E
:10B62000F1D1302010A908700A9E002508E00123FE
:10B6300010AA6946229800F0A4FC00281AD16D1CBB
:10B64000B542F4DB684638300078400700D44AE55C
:10B65000202010A90870002500E06D1C119885427B
:10B6600000DB40E5012310AA6946229800F089FC1E
:10B670000028F2D00020C04323B0F0BD0A006228A9
:10B6800022D0682819D06A2808D06C2823D07128C5
:10B6900004D074281FD07A2808D01CE01368DB1D62
:10B6A00007208343136003CB136070471168116058
:10B6B0000868091D11600021704711681160086851
:10B6C000091D116000B20BE0116811600868091DC6
:10B6D000116040B204E0116811600868091D116032
:10B6E000C1177047F3B583B0006900906846027CCB
:10B6F0006F2A01D1082406E020211143782901D0C6
:10B700000A2400E010243C25039803C806000F001B
:10B71000642A01D0692A07D1002905DA0020002116
:10B72000801BB94106000F00002F12D1002E10D14E
:10B730000398006B00280CD1082C3CD103983830BA
:10B740000078000737D53B25302000993B31087041
:10B7500031E06D1E0195300039002200E31700F042
:10B7600046FC3032D2B23A2A03DB6846007C5138BC
:10B77000121800984255300039002200E31700F0FB
:10B7800036FC06000F0001D1002E05D00398C068DA
:10B79000009949198842DCD3082C0CD10398383021
:10B7A0000078000707D50098405D302803D06D1E53
:10B7B0003020009948553C20401B0399886100992E
:10B7C0004919039AD1600399096B884209DA081A6A
:10B7D000039908620398008F0E490140039801877E
:10B7E00015E0002913D503993831097814220A404D
:10B7F000102A0CD10399496B039A5269891A039A4A
:10B80000126A891A0D1A012D01DB0398056205B031
:10B81000F0BD0000EFFF0000F3B591B006AD03C826
:10B8200002AA03C212A800782021014300916129D5
:10B830000BD01198006B002801D5062003E004D13D
:10B84000672902D1012011990863119841684800C5
:10B85000400DAA4A904225D1080310D111980068E2
:10B8600000280CD103201199886112A80078613852
:10B870001A2842D3234878448A3000900BE00320F2
:10B880001199886112A8007861381A2831D31E48AE
:10B89000784474300090032200991198C06800F039
:10B8A000DBFBF7E1012817DA119800F003FC01280F
:10B8B00012DB002700260098612832D11198C06859
:10B8C00030210170401C411C119AD16012A90978E5
:10B8D00061291FD178211EE011994968884A0A40E0
:10B8E00088491143119A51608749461A0027FF433E
:10B8F000E1E7064878441430CCE705487844103036
:10B90000BBE700BF285400001C5400001454000082
:10B91000185400005821017011984069801C119939
:10B920004861002F03D1002468468780A8E1009871
:10B93000612800D09FE01198046B002C01D52124D0
:10B9400000E0641C24B2601C0090119803C804AA93
:10B9500003C202A803C80022002300F0CDFB04A804
:10B9600003C802D280221206514002AA03C2301F2D
:10B970006946888000270F7606AE761C00E0F61D2B
:10B980000098012830DB02A803C80022002300F041
:10B99000CCFB29D21C2102A800F0E0FB02A803C8BE
:10B9A00000F06AFC05000098C01F009001280ADB27
:10B9B000280000F08FFC02000B0002A803C800F072
:10B9C00000FD02AA03C2F61D072004E0761E290727
:10B9D000090F31702D11012D01DB401EF6D5401EDF
:10B9E000CDD4761E3770FAE706A8401C311A06AD92
:10B9F0006D1CA14200DA0C0024B2200032D488422F
:10BA000005DA06A909184978082900DB0F2706A9D5
:10BA1000091801E0641E491E401E0A78BA42F9D096
:10BA20000F2F04D106A909184A78521C4A70002821
:10BA300006D506AD641C019800B2001D69468880D9
:10BA400024B2601E0ED429180A783032D2B23A2AB3
:10BA500003DB12AB1B783A3BD2180A70401E491E1A
:10BA60000028F1D51198006B002800D408E1601E71
:10BA70001199086304E102A803C80022002300F022
:10BA80003BFB06D202A803C880221206514002AA3C
:10BA900003C236B280487043804900F01FFD6946FA
:10BAA00088800720019909B2421A00207C49012AA6
:10BAB00020DB049202AA30CA00260F000498C007B7
:10BAC00007D532003B002000290000F061FD040092
:10BAD0000D000498401004903000390032003B0003
:10BAE00000F056FD06000F0004980028E6D102A8D9
:10BAF00030C028E0544200266A4F18E0FF070000DB
:10BB0000FFFF0F800000E03FFE030000E00707D5C5
:10BB100004A803C832003B0000F03AFD06000F0005
:10BB2000641004A803C804AA0CCA00F031FD04AADA
:10BB300003C2002CEAD102A803C832003B0000F087
:10BB4000E9FD02AA03C20098662803D1019800B259
:10BB50000A3000E006201199096B08180490142897
:10BB600001DB1320049030206946087606AC641C83
:10BB70000498012840DB02A803C800F08FFB0500F1
:10BB800008340594042428000A2100F0AAFC0F00C0
:10BB900028000A2100F0A5FC050030370598401E5A
:10BBA000077028000A2100F09CFC0F0028000A21E1
:10BBB00000F097FC05000598801E0590303707704F
:10BBC000641EE0D1059C08340498083804900128CC
:10BBD000CEDB02A803C800F061FB00F085FB020089
:10BBE0000B0002A803C800F0ECFB00222E4B00F073
:10BBF000CFFC02AA03C2BEE706A8401C201A06AD6D
:10BC00006D1C6A4605E0401E019909B2491E9180EB
:10BC10006D1C29783029F6D00099662903D1019945
:10BC200009B2491C04E0652901D1012100E000218D
:10BC3000119A126B541824B2A04200DA040024B204
:10BC400021001DD4814204DA685C352801DB3920EB
:10BC500000E030206A1800E0641E521E491E13786E
:10BC60008342F9D0392802D1685C401C685400290D
:10BC700006D56D1E641C019800B2401C6946888080
:10BC8000019800B2009023B22A0012A801781198FE
:10BC900000F00CF813B0F0BD97750000A08601000D
:10BCA000000024400000F03F84D79741F3B589B0ED
:10BCB00015001C0000F0A9FD0190406A007869465B
:10BCC00008720998076B012C01DA0124ACA50AA8B7
:10BCD000017820200843109E662801D1761C18E0C8
:10BCE000672800D09FE036B20321C9438E4200DAB4
:10BCF0009DE0BE4200DB9AE0761C0998383000785F
:10BD0000000702D4BC4200DA270036B2BF1B00D5C0
:10BD100000270998C068009009988069009909185F
:10BD2000019136B2012E2CDA401C3021019A11709B
:10BD3000012F04DA099938310978090704D56946D1
:10BD4000097A009A1154401C09998861704287420F
:10BD500000DA7E4236B2704209994862BF19A742A2
:10BD600000DA3C0024B20998C4612200290000983E
:10BD7000099B9B69C01800F06FF9381B099988620C
:10BD8000E0E0B44220DA22002900019800F064F9D2
:10BD9000099989690919099A9161301B099A5062B8
:10BDA000012F04DA099838300078000709D5684671
:10BDB000007A099AD26850540998C069401C0999C0
:10BDC000C86109988762BDE032002900019800F03F
:10BDD00043F9099880698019A41B012F04DA099995
:10BDE00038310978090705D56946097A099AD26870
:10BDF0001154401C0999886124B2A74200DA3C0022
:10BE000024B22200A9190998C068099B9B69C0182F
:10BE100000F022F909988069001909998861381B96
:10BE2000099948628EE0612914D1702015E0BC4266
:10BE300005DA099938310978090700D427007F1EEF
:10BE400000D500270AA80078672801D1652004E002
:10BE5000452002E0412902D150200AA90870099822
:10BE60008169481C099AD26800922A78009B5A542A
:10BE7000691C012F07DA099A38321278120702D4A6
:10BE8000099988611BE06A46127A009B1A54401C8B
:10BE9000099A9061012F12DB641E24B2A74200DAD6
:10BEA0003C0024B22200009B181800F0D5F8099835
:10BEB0008069001909998861381B099948620998B5
:10BEC000C0680999896945180AA80078287036B2AF
:10BED000300003D42B206870AD1C03E02D21697065
:10BEE000AD1C4642002405AF08E00A2203A800F07A
:10BEF000A7FC04983870039E641C7F1C31B2012992
:10BF0000F3DA022C08DA0AA8007820210143652917
:10BF100002D1302028706D1C002C09D130202870EF
:10BF20006D1C07E0641E05A8005D303028706D1C94
:10BF3000012CF7DA0998C068099989694018281A0C
:10BF40000999C861099838300078142101401029F6
:10BF500014D1099840690999896940180999496A71
:10BF600040180999C96940180999896A40180999BE
:10BF7000496B884202DA081A099908620BB0F0BDD1
:10BF8000300079B50E0014001D00002005E0F06AB5
:10BF9000401CF0620020641C6D1E002D08D021782A
:10BFA000B068009A9047B0600028F0D10020C043EC
:10BFB00076BDC9B200E0401C02788A4202D0002A55
:10BFC000F9D100207047010000E0491C0A78002ADE
:10BFD000FBD1081A7047C9B201E0401C521E002A6A
:10BFE00003D003788B42F8D170470020704712428B
:10BFF00024D0994228D970B500251B4202D00C00EC
:10C00000002109E00024012649186441944200D32C
:10C01000A41A7641F8D33100012601E0764109D215
:10C02000001864416D41A41A9D41F7D2A4185D41E6
:10C03000B619F5D3300022002B0070BD1B42D8D1B9
:10C0400008B500F00DFC08BD01D19042D3D202002A
:10C050000B00002100207047124207D08B0706D04A
:10C060000B78491C0370401C521EF7D87047830799
:10C0700006D00B78491C0370401C521EF9D1704742
:10C0800070B4103A03D378C9103A78C0FBD2530782
:10C0900001D318C918C001D508C908C0D20704D3F4
:10C0A0000B880380891C801C002A01D50B78037043
:10C0B00070BC704730B401004B68802212061A40F1
:10C0C00001201B031B0B4B600BD10B68002B08D10D
:10C0D0000DE00B686400DD0F25434D605B000B60D5
:10C0E000401E4C68E302F4D523031B0B4B604B68E6
:10C0F0001A434A6030BC704730B4012464054D00D7
:10C10000EC420BD85D00EC4208D80C001C436400E4
:10C110000443144304D2994200D1904230BC70478A
:10C12000FCD08B42FAD18242F8E730B40124640596
:10C130004D00EC420BD85D00EC4208D80C001C43CB
:10C1400064000443144304D28B4200D1824230BCC9
:10C150007047FCD09942FAD19042F8E770B50400DC
:10C160000D0060684000400D3F4EB04207D160684E
:10C17000000302D12068002816D0022070BD0028DC
:10C1800004D12000FFF796FF01286BDA012D0DDBAB
:10C19000311A8D420AD36068002802D50020334945
:10C1A00001E00020310503C4012070BD4142A942D5
:10C1B000616806DA2E4A0A402818000510436060BC
:10C1C00047E080221206114062681203120B80239E
:10C1D0005B0313436360401E2D1800202A00353294
:10C1E000352A02D36160206070BD00221E23DB432C
:10C1F0009D4204DA203522686368236060606842EB
:10C2000011D0521E9241D243D20F20231B1A25680F
:10C210009D402A432568C54066689E402E4326609F
:10C220006368C3406360606808436060114882428D
:10C2300006D28020000682420ED12078C0070BD59E
:10C240002068401C20602068002805D16068401CE0
:10C2500060600020C04370BD60688842F9D12068EA
:10C260000028F6D1002070BDFF0700000000F0FF9D
:10C27000FFFF0F8001000080F4464A1805D200F04D
:10C280000FF801D580174008604700F009F8012138
:10C29000C907884200D90800404260474A1812D2B4
:10C2A000400DC90208430121C9070843520D40212E
:10C2B0000901521A521C06D452421F3201D4D040F6
:10C2C0007047C0177047002070470268531C036016
:10C2D00011707047010009D5F446404200F006F89D
:10C2E0000122D20711436047010000BF4222120120
:10C2F000D21E004207D002D4521E0018FCD5C10A3B
:10C3000040051205891870478B4200D1824205D939
:10C310008446100062468C4619006346DF184C18AC
:10C32000640D7F0D3AD0661C760537D0E61B352E9E
:10C3300034DCDB022B43DB0A0C0DC9022943C91292
:10C34000202E0DDB1700203E06D01F00F741F340E2
:10C350005F400026012A7741C01871410DD217E0D5
:10C360001700F741F2405740F3415A40B340F340C1
:10C370005A400026801859410AD3A21C52050FD0FA
:10C38000C207012F724117004008CB071843490824
:10C39000641C24054208AF4170416141F0BC704704
:10C3A000641C21050020F9E76B4010E06B40ABE70F
:10C3B000F742F3D1E943F1E72442EFD10020002115
:10C3C000ECE7F0B40125ED070F005F40EED40C0060
:10C3D000871A9C4105D2C01BA141D2196341694013
:10C3E0006B40AE0ADF184C18F442E1D2640D7F0DA9
:10C3F000E2D0E61B362ED1DCDB022B43DB0AA4465F
:10C400000C0DC9022943C90A012E28DC04D1D60724
:10C410005208DF073A435B08EF0A764290419941A0
:10C4200014D039423BD1B61940414941761C3942BA
:10C4300004D1761C001849413942FAD0B943674605
:10C44000B74208D9A41B24052143A7E70042EAD13B
:10C450003642E8D1A2E7E40AE10700209EE7202E59
:10C460000BDD203E1F00F340F7415F40012A002210
:10C4700057417E42984191410BE01700F741F2404D
:10C480005740F3415A40B340F3405A407E429041F6
:10C4900099410A0303D2641EB6194041494100275D
:10C4A000641E24054208AE4178416141F0BC7047EA
:10C4B000F446002804D4494200F013F84042604793
:10C4C0004042002905D45FD000F00BF840424942B9
:10C4D0006047494200F005F84942604703460B4374
:10C4E000E6D40022030A8B420BD203098B4219D2F5
:10C4F00043088B422ED2411A00D2014652411046C7
:10C500007047FF2209023FD012068B4205D3121258
:10C5100009028B4201D31212090203098B4219D37B
:10C5200000E0090AC3098B4201D3CB01C01A524172
:10C5300083098B4201D38B01C01A524143098B42BC
:10C5400001D34B01C01A524103098B4201D30B01A5
:10C55000C01A5241C3088B4201D3CB00C01A5241CA
:10C5600083088B4201D38B00C01A524143088B428F
:10C5700001D34B00C01A5241884200D3401A5241A5
:10C58000CFD201461046704708B500F06BF908BDE0
:10C59000F0B50E005E400125ED072E40B446AE0A10
:10C5A000DF184C18F44208D2F7420ED2640D01D0C5
:10C5B0007F0D12D100206146F0BD05D1F74201D8B0
:10C5C0007F0D05D10020C143F0BDFBD1640DF9D032
:10C5D0000020C143490549088FE0E419C902DB0284
:10C5E00029432B43DB0A460DC00231438E4630B44B
:10C5F00087B295B27D432E0CADB2140C7C43A419C6
:10C60000260C240425439CB27C43A419190C7943BD
:10C61000270CC919A4B20F043C43090C000C97B2B3
:10C6200047432E0CBE193543ADB2170C4743360CA9
:10C63000BF19A6B2BF193E043543240C3E0C36196F
:10C640009FB24743BF19BCB23E0C89191F0C474328
:10C650007F183E043443390C704680B297B247438A
:10C660002E0CBE193543ADB2170C4743360CBF191B
:10C67000A6B2BF193E043543240C3E0C36199FB2B6
:10C680004743BF19BCB23E0C89191F0C47437F18A2
:10C690003E043443390C77463F0C90B278432E0C5D
:10C6A00080190604ADB22E43050CA0B22D18120C51
:10C6B0007A435019020C80B2240CA4189AB27A431F
:10C6C000121914042043120C89181B0C7B43C9183F
:10C6D00030BCEF0A394203D1B61940414941641ECA
:10C6E0006F12BF0DE41B0BDBFF19BC4211DA2405EE
:10C6F00000274208AE417841614166463143F0BDB2
:10C70000641C05D1401C6141CF0201D34908F4E704
:10C7100050E75DE7F0B40E005E400125ED072E40C6
:10C72000B446AE0ADF184C18F4423BD2F74241D26D
:10C73000640D43D07F0D38D0E41BC902DB022943CE
:10C740002B43CF0ADB0A0600B61A9F4104D2641EAF
:10C75000B6197F41B6185F416812800D2418001881
:10C76000844222DAE80C0021B6197F41B61A9F41B3
:10C7700002D2B6185F413F1C40414941F4D3241C0A
:10C7800021DD2405B6197F41B61A9F4105D33743F1
:10C79000C60737430026012F704161416646314389
:10C7A000F0BC7047FCD1F74205D20020C1434905D7
:10C7B0004908F3E704D00020C143F1E77F0DFAD028
:10C7C00000206146ECE72442FAD1401C61410F038E
:10C7D000F6D30020E2E7FEE780B5124800F043F808
:10C7E00011A1016041608160C160016141618161AD
:10C7F0000EA242628162C162016341630CA2826344
:10C800000DA2C2630164416401BD10B5054800F08A
:10C810002AF804002068002801D1FFF7DDFF20007E
:10C8200010BD0000901F0020000000002E0000003E
:10C8300066616C736500000074727565000000002D
:10C840007CB504000E00150030002900FFF746FEFD
:10C8500000904543701B0190684603C803C476BD31
:10C860007047FEE770477047F8B50026B74DB848E7
:10C87000B200A91843689A1813780B7053784B705C
:10C8800093788B70D278CA70761C042EF0D32C2E3D
:10C8900038D2B0002C180422211F6846FFF7DCFBB9
:10C8A0006846B10719D103784178017081784170E9
:10C8B000C2788270C37000BF60A30778DF5D077025
:10C8C000595C4170995C8170C178595CC170017884
:10C8D0000DA2B308D25C4A400270210010390A78D8
:10C8E000037853402370641C4A7843785340237084
:10C8F0008A78837853406370C978C0784840A070C4
:10C90000761CC4E7F1BD00008D0102040810204030
:10C91000801B366CD8AB4D9A2F5EBC63C697356AC8
:10C92000D4B37DFAEFC5913972E4D3BD61C29F25BE
:10C930004A943366CC831D3A74E8CB8D0102040817
:10C94000102040801B366CD8AB4D9A2F5EBC63C65E
:10C9500097356AD4B37DFAEFC5913972E4D3BD61DE
:10C96000C29F254A943366CC831D3A74E8CB8D016F
:10C97000020408102040801B366CD8AB4D9A2F5E05
:10C98000BC63C697356AD4B37DFAEFC5913972E4BA
:10C99000D3BD61C29F254A943366CC831D3A74E8A7
:10C9A000CB8D01020408102040801B366CD8AB4DA3
:10C9B0009A2F5EBC63C697356AD4B37DFAEFC591F2
:10C9C0003972E4D3BD61C29F254A943366CC831D7E
:10C9D0003A74E8CB8D01020408102040801B366CAD
:10C9E000D8AB4D9A2F5EBC63C697356AD4B37DFA37
:10C9F000EFC5913972E4D3BD61C29F254A94336675
:10CA0000CC831D3A74E8CB00F1B500214F4A0023D6
:10CA10008C004F4D2D682D19ED182E786F463F78FC
:10CA20003F013F19FF18D75D77402F705B1C042B27
:10CA3000EFDB491C0429EADBF1BD0000637C777B56
:10CA4000F26B6FC53001672BFED7AB76CA82C97D0A
:10CA5000FA5947F0ADD4A2AF9CA472C0B7FD93269B
:10CA6000363FF7CC34A5E5F171D8311504C723C39F
:10CA70001896059A071280E2EB27B27509832C1AE3
:10CA80001B6E5AA0523BD6B329E32F8453D100ED3D
:10CA900020FCB15B6ACBBE394A4C58CFD0EFAAFB21
:10CAA000434D338545F9027F503C9FA851A3408FE9
:10CAB000929D38F5BCB6DA2110FFF3D2CD0C13EC01
:10CAC0005F974417C4A77E3D645D197360814FDC96
:10CAD000222A908846EEB814DE5E0BDBE0323A0A7A
:10CAE0004906245CC2D3AC629195E479E7C8376DFE
:10CAF0008DD54EA96C56F4EA657AAE08BA78252E23
:10CB00001CA6B4C6E8DD741F4BBD8B8A703EB566AB
:10CB10004803F60E613557B986C11D9EE1F898119C
:10CB200069D98E949B1E87E9CE5528DF8CA1890D8B
:10CB3000BFE6426841992D0FB054BB164100C009B1
:10CB40001B2250434840C0B270470000C833002049
:10CB5000BC360020F0B585B000200390004801E00D
:10CB6000BC360020006803998900401802900078C4
:10CB70006946C87068460299497881700299897837
:10CB800041700299C9780170C078FFF7D7FF07009C
:10CB90006846C078FFF7D2FFFFF7D0FF69460871FB
:10CBA0006846C078FFF7CAFFFFF7C8FFFFF7C6FF68
:10CBB000694648716846C078FFF7C0FFFFF7BEFFBF
:10CBC000FFF7BCFFFFF7BAFF68468078FFF7B6FFB4
:10CBD0006946887168468078FFF7B0FFFFF7AEFFBF
:10CBE00068468078FFF7AAFFFFF7A8FFFFF7A6FFC8
:10CBF0006946C87168468078FFF7A0FFFFF79EFF7F
:10CC0000FFF79CFFFFF79AFF68464078FFF796FF13
:10CC100068464078FFF792FFFFF790FF04006846F0
:10CC20004078FFF78BFFFFF789FFFFF787FF0500CD
:10CC300068464078FFF782FFFFF780FFFFF77EFF2F
:10CC4000FFF77CFF68460078FFF778FF68460078BA
:10CC5000FFF774FFFFF772FF68460078FFF76EFF7B
:10CC6000FFF76CFFFFF76AFF060068460078FFF7E2
:10CC700065FFFFF763FFFFF761FFFFF75FFF6846A0
:10CC80000079784069464979414068468078484053
:10CC90006946897941406846C07948406946497883
:10CCA00041404C40654068460078684046400298E4
:10CCB00006706846C078FFF741FF6846C078FFF706
:10CCC0003DFFFFF73BFF6846C078FFF737FFFFF7F0
:10CCD00035FFFFF733FF07006846C078FFF72EFFE8
:10CCE000FFF72CFFFFF72AFFFFF728FF6846807841
:10CCF000FFF724FF6946C87168468078FFF71EFF7A
:10CD0000FFF71CFF6946887168468078FFF716FFB9
:10CD1000FFF714FFFFF712FF6946487168468078F5
:10CD2000FFF70CFFFFF70AFFFFF708FFFFF706FF0B
:10CD300068464078FFF702FF694608716846407808
:10CD4000FFF7FCFEFFF7FAFE68464078FFF7F6FEB5
:10CD5000FFF7F4FEFFF7F2FE040068464078FFF7A5
:10CD6000EDFEFFF7EBFEFFF7E9FEFFF7E7FE684693
:10CD70000078FFF7E3FE68460078FFF7DFFEFFF775
:10CD8000DDFE050068460078FFF7D8FEFFF7D6FE07
:10CD9000FFF7D4FE060068460078FFF7CFFEFFF7E6
:10CDA000CDFEFFF7CBFEFFF7C9FE6846C0784740CF
:10CDB0006846C0797840694689794140684640793B
:10CDC00048406946497841406846007948404440B7
:10CDD00068460078604045406E400298467068465C
:10CDE000C078FFF7ABFE6846C078FFF7A7FEFFF7F5
:10CDF000A5FE07006846C078FFF7A0FEFFF79EFE7D
:10CE0000FFF79CFE694608716846C078FFF796FEFA
:10CE1000FFF794FEFFF792FEFFF790FE68468078DA
:10CE2000FFF78CFE68468078FFF788FEFFF786FEE6
:10CE300068468078FFF782FEFFF780FEFFF77EFEF0
:10CE40006946487168468078FFF778FEFFF776FEFE
:10CE5000FFF774FEFFF772FE68464078FFF76EFE3C
:10CE60006946887168464078FFF768FEFFF766FEFE
:10CE70006946C87168464078FFF760FEFFF75EFEBE
:10CE8000FFF75CFE040068464078FFF757FEFFF7A7
:10CE900055FEFFF753FEFFF751FE68460078FFF797
:10CEA0004DFE050068460078FFF748FEFFF746FE96
:10CEB00068460078FFF742FEFFF740FEFFF73EFEB0
:10CEC000060068460078FFF739FEFFF737FEFFF7E8
:10CED00035FEFFF733FE6846C07847406846007964
:10CEE00078406946897841406846407948406946BB
:10CEF000897941406846C079484044406846007896
:10CF0000604045406E40029886706846C078FFF7E2
:10CF100015FE6946C8716846C078FFF70FFEFFF737
:10CF20000DFE6846C078FFF709FEFFF707FEFFF722
:10CF300005FE694688716846C078FFF7FFFDFFF778
:10CF4000FDFDFFF7FBFDFFF7F9FD68468078FFF771
:10CF5000F5FD68468078FFF7F1FDFFF7EFFD6946C4
:10CF6000487168468078FFF7E9FDFFF7E7FDFFF7B6
:10CF7000E5FD6946087168468078FFF7DFFDFFF739
:10CF8000DDFDFFF7DBFDFFF7D9FD68464078FFF7D1
:10CF9000D5FD68464078FFF7D1FDFFF7CFFD684625
:10CFA0004078FFF7CBFDFFF7C9FDFFF7C7FD07008E
:10CFB00068464078FFF7C2FDFFF7C0FDFFF7BEFDF2
:10CFC000FFF7BCFD68460078FFF7B8FD040068462F
:10CFD0000078FFF7B3FDFFF7B1FD05006846007864
:10CFE000FFF7ACFDFFF7AAFDFFF7A8FD06006846B6
:10CFF0000078FFF7A3FDFFF7A1FDFFF79FFDFFF707
:10D000009DFD6846C0786946C97941406846807987
:10D0100048406946897841406846407948406946B9
:10D020000979414068464078484047407C40654027
:10D030006E400298C6700398401C0390042800DAE2
:10D040008CE505B0F0BD000030B500212CA2002316
:10D050002A4C246864189D0064192578555D257054
:10D060005B1C042BF4DB491C0429F0DB30BD234896
:10D070000068417B427A427342794272427842713F
:10D0800041708178827A827081728179827B82712B
:10D090008173C178C279C270C27AC271C27BC27216
:10D0A000C173704700228B5C8354521C102AFADB38
:10D0B000704738B50C00150001002800FFF7F2FF9B
:10D0C0000E4805604460FFF7CFFB0A20FFF79CFC89
:10D0D0000924FFF7CCFFFFF7B7FF2000FFF794FC10
:10D0E000FFF738FD641EE4B2002CF2D1FFF7BFFF5A
:10D0F000FFF7AAFF0020FFF787FC31BDBC360020F8
:10D1000052096AD53036A538BF40A39E81F3D7FBBC
:10D110007CE339829B2FFF87348E4344C4DEE9CB06
:10D12000547B9432A6C2233DEE4C950B42FAC34E7B
:10D13000082EA16628D924B2765BA2496D8BD12531
:10D1400072F8F66486689816D4A45CCC5D65B692D5
:10D150006C704850FDEDB9DA5E154657A78D9D8479
:10D1600090D8AB008CBCD30AF7E45805B8B3450699
:10D17000D02C1E8FCA3F0F02C1AFBD0301138A6BB3
:10D180003A9111414F67DCEA97F2CFCEF0B4E673E3
:10D1900096AC7422E7AD3585E2F937E81C75DF6E91
:10D1A00047F11A711D29C5896FB7620EAA18BE1BF7
:10D1B000FC563E4BC6D279209ADBC0FE78CD5AF49D
:10D1C0001FDDA8338807C731B11210592780EC5FE3
:10D1D00060517FA919B54A0D2DE57A9F93C99CEF3F
:10D1E000A0E03B4DAE2AF5B0C8EBBB3C8353996140
:10D1F000172B047EBA77D626E169146355210C7D7E
:10D20000A4480F210183002141838183A249411851
:10D2100041617047F8B5002569460D709D4C608BE3
:10D220000100A28B521A32D06269238B1940142359
:10D23000594357183E787F1C401C6083207C00288F
:10D2400004D13100380000F04BF915E03878800740
:10D25000800F032804D03100380000F0CDF908E039
:10D2600010222100380000F01BF93100380000F0D6
:10D2700001FA00F077FBE062207C002807D1608C87
:10D28000002804D116A000F005FC00F03CFD834E00
:10D29000307800280DD000F065FBE16A401A1F28A5
:10D2A00004D300F05FFBE06200F02DFD3078002831
:10D2B00005D1258200F056FBE062A574F1BD207C0B
:10D2C00000280BD0A07C002808D1212069460870D6
:10D2D0000122112000F02AF80120A074F1BD000005
:10D2E0003E204E6F74206175746820646973636FAB
:10D2F0006E6E6563742E0D0A0000000038B5654C33
:10D30000A38B228B658B5D1BAA420EDB65691A40DD
:10D3100014235A43AB1819705B1C0A000100180053
:10D32000FEF79AFEA08B401CA08331BDF0B591B0F2
:10D3300004000F001500210038A000F0ABFB684688
:10D34000A10001220A430270002F08D0002D06D050
:10D35000142D04DA2A003900401CFEF77DFE6D1CF6
:10D360004C4C00F0FFFAE062EDB2112D00DB10250D
:10D3700005AE3000103000210022002300278EC0AF
:10D380002A00694630001030FEF77AFE05A82ECC40
:10D390002EC005A84DDF10212036300039E00000F6
:10D3A000F0B591B004000F00150021001BA000F0A3
:10D3B00071FB6846A10001220A430270002F08D0C9
:10D3C000002D06D0142D04DA2A003900401CFEF787
:10D3D00043FE6D1C00F0C6FA2E49C862EDB2112D55
:10D3E00000DB102505AC20001030002100220023B6
:10D3F00000264EC02A00694620001030FEF740FE8D
:10D4000079A005A96CC86CC105A84DDF1021203496
:10D41000200000F081FC11B0F0BD00003E205365FB
:10D420006E645F436D643A2523782C206C656E3AF8
:10D4300025750D0A0000000030B5010000221548D6
:10D440008B4B8C5C6406640E1C5D84548C5CCD78C4
:10D450006419A5116D0E2D19ED11ED01641B1C5DF4
:10D4600085182C72521C082AEBDB30BD10B582B037
:10D47000002069460870684600F00AFD684600789A
:10D480000828F8DBCB4C0821200000F003FD200029
:10D4900016BD00005C20002038080000181F002086
:10D4A000F0B585B004000E00002C16D0002E14D06C
:10D4B0001700102F11DB10070FD100250BE06A4673
:10D4C00031002000FFF7F5FD102269462000FEF72D
:10D4D000C3FD10341035BD42F1DB05B0F0BD0000D6
:10D4E000F0B585B0050000206A46908010291DD156
:10D4F000B14C608C002803D1102200BF3AA101E09A
:10D50000102221002800FFF7CBFF287880085FD188
:10D5100000F028FAE0626878618C83221201A21878
:10D520000292012703AE01282BD1002959D10A35D7
:10D5300001A82978017069784170228C6846818839
:10D54000881A401E042815D267843770FFF78EFFB3
:10D5500008220100701CFEF77FFD092203A90020AC
:10D56000FFF71EFF0298FFF767FF00BF98A000F0CB
:10D5700091FA02E09DA000F08DFA68468088208430
:10D580002FE002282DD101292BD108220299A81CB5
:10D5900000F082FC00280FD1277411203070032086
:10D5A00070700020B070032203A9FFF7BFFE00BF18
:10D5B00099A000F06FFA08E0029800900823AA1CD6
:10D5C000082100BF99A000F065FA0020608408E0FF
:10D5D000608C002805D00020608400BFA0A000F06F
:10D5E00059FA05B0F0BD0000AF01020304050607BB
:10D5F00008091A1B1C1D1E1F30B583B00500012031
:10D6000069460871287880086D1C11282ED168465B
:10D610002978017069784170684C00882060042284
:10D62000A91C6846FEF718FD009860600422A91D39
:10D630006846FEF711FD0098A06003466268216805
:10D640008DA000F027FA606800F0C4FC3120694624
:10D650000871012201A91120FFF768FE00F06DFC9E
:10D6600055481121417400214162018537BD0000F8
:10D670000CE0030070B584B00278920843789D01F5
:10D680001543801C8E1E4C4CA18C8D4200D080E036
:10D69000491CA184E38C80210901F6B2891B9942BF
:10D6A00008DB32000100E0183030FEF7D5FCE08CDA
:10D6B0008019E084607C11286AD1E28C3F4D696852
:10D6C000238DC91A914240D13D498A423DDA210059
:10D6D00020003030FFF7E4FEE18C3034200000F011
:10D6E00099FC00F051FC0400210000BF6EA000F086
:10D6F000D1F96A6884218902002000F0F9FCAA6847
:10D70000010000BF72A000F0C5F9412C17D14120E3
:10D710006946087001221120FFF708FE322000F050
:10D7200006FF00F0F0FA0A2000F001FFBFF34F8F70
:10D73000244825490860BFF34F8F00BFFDE7402014
:10D74000694608700122112030E08025ED00AA42D0
:10D750002EDB01211DA000F0FAFE2A00210020008E
:10D760003030FFF79DFE29002000303000F052FCE1
:10D77000208D40192085E08C421BE28492B2002A61
:10D7800016D08620C00021183034200000F046FF5B
:10D790007FBD2A0056A000F07DF901A8602101702C
:10D7A0004570290A8170032201A9607CFFF7BEFD44
:10D7B0007FBD00008C2800205C20002084360020E3
:10D7C000010400000400FA050CED00E03E0000003A
:10D7D0003E204465766963652061757468206861E0
:10D7E0006E647368616B652E0D0A00003E206175E2
:10D7F000746820696E6465782066616C75742C208D
:10D8000072656365766976653A25752C2073746F49
:10D8100072653A25750D0A003E2044657669636598
:10D820002061757468204F4B2E0D0A003E206175F3
:10D8300074682072616E646F6D2066616C75742C03
:10D840002072656365766976653A252E2A732C20E9
:10D8500073746F72653A252E2A730D0A000000005A
:10D860003E2048616E647368616B65204661696C37
:10D8700065642E0D0A0000003E2044465520737456
:10D880006172742C2076657273696F6E3A25752CFF
:10D890002073697A653A25752C206372633A2523D3
:10D8A000782C200D0A0000003E2044465520726569
:10D8B0006365697665204F4B2C20766572696679C1
:10D8C000207374617475733A2523780D0A00000083
:10D8D0003E20496D616765206372633A2523782C89
:10D8E00020444655206372633A2523780D0A0000D0
:10D8F0003E204D756C74695061636B657420696E70
:10D90000646578206661756C742C206D756C746923
:10D91000496E6465783A25752C20726563696E647A
:10D9200065783A25750D0A0000B583B0494A012192
:10D9300054A001F035F9002280210902464801F087
:10D940006FF96846454901800121C1701E210171AE
:10D950000C2141710021C18000F007F845A000F0C2
:10D9600099F807BD3E480068704780B500F004F89C
:10D970003B49086001BD0000F1B582B000886946EE
:10D980000880394D68460088A84201DA0020FEBDB3
:10D99000684600883549441835484443314E0AE00A
:10D9A000002907D12800C8214900FEF79AFD002967
:10D9B00000D1A4196D1C64210327684600888542A4
:10D9C00007D22800FEF78DFD2F40E9D10029F0D1C4
:10D9D000E8E7002568460088FEF780FD01910BE02E
:10D9E000002808D168460088C8214900FEF776FD66
:10D9F000002900D1A4196D1C0298C078401E8542F0
:10DA00000ED200BF20A0405D70432418012DF2D13A
:10DA10006846008838420198E2D10028EAD1E1E75F
:10DA200002980079401E7043201802994979E1223A
:10DA3000120151434018029989793C225143401800
:10DA40000299C9794018FEBD05480168491C01606A
:10DA50007047000049DA010048360020E107000065
:10DA6000EC36002080510100B20700004EF8FFFFA5
:10DA70008033E1013E2052544320496E69742E0DDB
:10DA80000A000000483600201F1C1F1E1F1E1F1FFB
:10DA90001E1F1E1F0EB400B582B003A900916B4675
:10DAA00002000121034878440A30FDF709FB02997E
:10DAB00006B008477D32000030B59DB038210EA871
:10DAC00001F018F90EA802210170002585700521CA
:10DAD000C1703821684601F00DF9012069460882BD
:10DAE0009E4C2000383005900EA801F0F8FB00286D
:10DAF00004D000BFA3A2882101F026FC1821200039
:10DB000001F0F8F8257065602572FA20C0002082C7
:10DB1000B42060821DB030BDF8B504008F4D2100E7
:10DB200028001C3001F0A2FC688B00BF95A70026DE
:10DB3000218810292ED011291FD0132912D019297C
:10DB40001FD01A2902D0522903D0F1BDA0796876DE
:10DB5000F1BD002300220021A9DF002826D03A00D1
:10DB6000CE2107E00023002285217FDF00281DD081
:10DB70003A00C92101F0E8FBF1BD00BF9EA0FFF70C
:10DB800089FF2E7676486883A1A0FFF783FF2800DF
:10DB900073DFF1BD734806700120287691A0FFF76E
:10DBA00079FFA08868830322042184DFF1BD80B55A
:10DBB00001F02FFD01BD80B50800D1B2FFF79EFB3B
:10DBC00001BD000070B58AB0644C002348222100DA
:10DBD0004831082001F025FE6AA5002803D02A005C
:10DBE0005D2101F0B1FB05AA0121002001F04FFEEB
:10DBF000002803D02A00632101F0A6FB5A4801F057
:10DC00005DFE002803D02A00662101F09DFB05A8D7
:10DC100001F05BFE002803D02A006A2101F094FB8A
:10DC2000524801F012FE002803D02A006E2101F0B4
:10DC30008BFB4F4801F011FE002803D02A0072210F
:10DC400001F082FB11206946087005224BA12000DB
:10DC50003C30FEF715FA03A871DF002803D02A0034
:10DC6000302101F071FB20003C3000E0401C0178C5
:10DC70000029FBD1F823FE2252A101F06BFE200007
:10DC80003C30FEF7A0F982B221003C3168467CDFCF
:10DC9000060021003C3100BF4DA0FFF7FBFE002E27
:10DCA00004D02A003A21300001F04EFB01A80021E7
:10DCB000002206C001A818210180502141800121C5
:10DCC0008180C8214900C1807ADF002803D02A0062
:10DCD000442101F039FB684600210160254800908D
:10DCE00069461C34200001F0EDFB002803D02A0017
:10DCF000522101F029FBFFF7DFFE00BF4BA0FFF729
:10DD0000C9FE0AB070BD13211448408B76DF7047FE
:10DD1000124873DF7047000070B506000D00152D26
:10DD20001BDA0E4C2A00310020001C3001F0FCFBF5
:10DD30001149884208D1C82000F0F9FB2A003100BF
:10DD40001C34200001F0F0FB082806D0002804D085
:10DD5000010000BF3AA0FFF79DFE70BD001F00202C
:10DD6000FFFF00006C200020001E002019DB0100D6
:10DD7000AFDB0100B7DB0100043000004144454C3B
:10DD800000000000443A5C576F726B466F6C64652C
:10DD9000725C70726F6A6563745C41442D30395FE8
:10DDA000D6C7C4DCCBF85C6669726D776172655C5E
:10DDB0004150505C7372635C757365725F626C6531
:10DDC0002E63000025303258253032580000000004
:10DDD0003E20446576696365204E616D653A257322
:10DDE0000D0A00003E20424C4520436F6E6E656375
:10DDF0007465642E0D0A00003E20424C45204469A3
:10DE0000736F6E6E65637465642E0D0A000000000A
:10DE10003E20424C45206164766572746973696E78
:10DE20006720626567696E2E0D0A00003E20424C35
:10DE3000452053746172742E2E2E0D0A00000000CE
:10DE40003E20424C452073656E64206661696C65B6
:10DE5000642C206572726F7220636F64653A30784B
:10DE600025580D0A0000000080B5084908780028F0
:10DE70000AD1684612DF6A461278002A02D00122CF
:10DE80000A7002BD022002BD082002BDE03600205B
:10DE900039DF70473ADF704710B402E0401C491C7C
:10DEA000521E002A09D00B7804789C42F6D002D288
:10DEB0000020C04302E0012000E0002010BC7047B9
:10DEC00001218140724802680B0093434360114076
:10DED000816070471CB500BF83A003C86A4603C2B7
:10DEE00001F00FFC6B4C84208002206121000C317A
:10DEF000684601F01EFC68480EC80EC413BD000041
:10DF0000F0B5842189020D6885F3088848680024EB
:10DF1000E443EFF30585002D01D1A64600472546D1
:10DF2000064621273FBAF0B400240025002600272A
:10DF3000F0B40620C0430047F0BD70B5574D8026B1
:10DF4000F6003200F82189022800FEF785F8514CCE
:10DF50000C22210028000C30FEF77EF8F820800209
:10DF60002061310020000C3001F00DFC032000F096
:10DF700084F80023320029000C34200001F0F2FB69
:10DF8000012000F07AF870BD10B50020C043842154
:10DF900089020A68824201D1002010BD3D4C6268AE
:10DFA000002A06D0824204D0A068002801D0FF28B1
:10DFB00001D1012010BD3A48824201D3022010BD98
:10DFC000002000F095F8A168884201D0402010BDE3
:10DFD000412010BD38B5040002D03148844201D33D
:10DFE00098246402210000BF30A0FFF753FD294DA3
:10DFF000842080022861A1B228000C3001F0C3FB0C
:10E00000032000F03AF800BF30A0FFF743FD0020E6
:10E01000686131BDF8B506000800002E26D0002842
:10E0200024D005002F008907890F07D00422511A38
:10E03000C9B27F18FF22301800F034FE154C84203E
:10E040008002206163699BB2BAB2310020000C30BB
:10E0500001F088FB012000F010F860694019606150
:10E060001320FFF72DFF1C20FFF72AFFF1BD0D48FD
:10E0700003688B4200D1426070470A4908600A4831
:10E0800048604A688242FCD048687047000000003F
:10E0900004050050843600200CE003008C20002092
:10E0A00001300100C4360020FFFFFF0F3E20444630
:10E0B000552065726173652073746172742C2073CE
:10E0C000697A653A25752E0D0A0000003E20444607
:10E0D0005520657261736520636F6D706C6974653E
:10E0E000642E0D0A000000006FE001000000000037
:10E0F00030B5002306A408E00D7845402D06AD0D8F
:10E100006559000A6840491C5B1C9342F4D330BD3A
:10E1100000000000963007772C610EEEBA51099985
:10E1200019C46D078FF46A7035A563E9A395649EE1
:10E130003288DB0EA4B8DC791EE9D5E088D9D29705
:10E140002B4CB609BD7CB17E072DB8E7911DBF9061
:10E150006410B71DF220B06A4871B9F3DE41BE8485
:10E160007DD4DA1AEBE4DD6D51B5D4F4C785D383E1
:10E1700056986C13C0A86B647AF962FDECC9658A85
:10E180004F5C0114D96C0663633D0FFAF50D088DE1
:10E19000C8206E3B5E10694CE44160D5727167A285
:10E1A000D1E4033C47D4044BFD850DD26BB50AA5E1
:10E1B000FAA8B5356C98B242D6C9BBDB40F9BCAC05
:10E1C000E36CD832755CDF45CF0DD6DC593DD1AB61
:10E1D000AC30D9263A00DE518051D7C81661D0BF85
:10E1E000B5F4B42123C4B3569995BACF0FA5BDB8E1
:10E1F0009EB802280888055FB2D90CC624E90BB185
:10E20000877C6F2F114C6858AB1D61C13D2D66B6E0
:10E210009041DC760671DB01BC20D2982A10D5EF44
:10E220008985B1711FB5B606A5E4BF9F33D4B8E8A0
:10E23000A2C9077834F9000F8EA8099618980EE144
:10E24000BB0D6A7F2D3D6D08976C6491015C63E6A0
:10E25000F4516B6B62616C1CD83065854E0062F2C4
:10E26000ED95066C7BA5011BC1F4088257C40FF520
:10E27000C6D9B06550E9B712EAB8BE8B7C88B9FC44
:10E28000DF1DDD62492DDA15F37CD38C654CD4FBA0
:10E290005861B24DCE51B53A7400BCA3E230BBD444
:10E2A00041A5DF4AD795D83D6DC4D1A4FBF4D6D3A0
:10E2B0006AE96943FCD96E34468867ADD0B860DA44
:10E2C000732D0444E51D03335F4C0AAAC97C0DDDA0
:10E2D0003C710550AA41022710100BBE86200CC9C4
:10E2E00025B56857B3856F2009D466B99FE461CE20
:10E2F0000EF9DE5E98C9D9292298D0B0B4A8D7C744
:10E30000173DB359810DB42E3B5CBDB7AD6CBAC09F
:10E310002083B8EDB6B3BF9A0CE2B6039AD2B174BB
:10E320003947D5EAAF77D29D1526DB048316DC7317
:10E33000120B63E3843B64943E6A6D0DA85A6A7ABB
:10E340000BCF0EE49DFF099327AE000AB19E077D17
:10E3500044930FF0D2A3088768F2011EFEC206693B
:10E360005D5762F7CB67658071366C19E7066B6E97
:10E37000761BD4FEE02BD3895A7ADA10CC4ADD67BB
:10E380006FDFB9F9F9EFBE8E43BEB717D58EB06017
:10E39000E8A3D6D67E93D1A1C4C2D83852F2DF4FBB
:10E3A000F167BBD16757BCA6DD06B53F4B36B24817
:10E3B000DA2B0DD84C1B0AAFF64A0336607A0441BB
:10E3C000C3EF60DF55DF67A8EF8E6E3179BE694617
:10E3D0008CB361CB1A8366BCA0D26F2536E268523B
:10E3E00095770CCC03470BBBB91602222F26055597
:10E3F000BE3BBAC5280BBDB2925AB42B046AB35CBB
:10E40000A7FFD7C231CFD0B58B9ED92C1DAEDE5B16
:10E41000B0C2649B26F263EC9CA36A750A936D02FA
:10E42000A906099C3F360EEB856707721357000556
:10E43000824ABF95147AB8E2AE2BB17B381BB60C7A
:10E440009B8ED2920DBED5E5B7EFDC7C21DFDB0BD6
:10E45000D4D2D38642E2D4F1F8B3DD686E83DA1FFA
:10E46000CD16BE815B26B9F6E177B06F7747B71856
:10E47000E65A0888706A0FFFCA3B06665C0B0111FA
:10E48000FF9E658F69AE62F8D3FF6B6145CF6C1656
:10E4900078E20AA0EED20DD75483044EC2B30339FA
:10E4A000612667A7F71660D04D476949DB776E3E56
:10E4B0004A6AD1AEDC5AD6D9660BDF40F03BD8377A
:10E4C00053AEBCA9C59EBBDE7FCFB247E9FFB530D6
:10E4D0001CF2BDBD8AC2BACA3093B353A6A3B424FA
:10E4E0000536D0BA9306D7CD2957DE54BF67D92356
:10E4F0002E7A66B3B84A61C4021B685D942B6F2AFA
:10E5000037BE0BB4A18E0CC31BDF055A8DEF022D55
:10E51000401E00BF00BF00BF00BF00BF00BF00BF64
:10E5200000BF00BF00BF00BF00BFF1D1704701B501
:10E5300005E00098401E00900348FFF7E9FF0098AF
:10E540000028F6D101BD0000E7030000704738B590
:10E5500005000C0003E0287801F0ADFA6D1C2000E6
:10E56000441E0004F7D131BD10B588B004A800BF27
:10E5700012A11CC91CC00E48009080218900019185
:10E5800040180290039103230A4A694604A801F047
:10E590004BFA0C21084A1160002803D00AA23E2140
:10E5A00000F0D2FE18A0FFF775FA08B010BD000009
:10E5B000002F00204DE501005C07005017160000F9
:10E5C0000000000000F0EB00443A5C576F726B46AD
:10E5D0006F6C6465725C70726F6A6563745C4144F1
:10E5E0002D30395FD6C7C4DCCBF85C6669726D77B5
:10E5F0006172655C4150505C7372635C75736572E7
:10E600005F756172742E63003E205541525420693B
:10E610006E69742E2E2E0D0A0000000012420FD0DB
:10E62000814202D25318984203D310B5FDF714FD6E
:10E6300008BD80185B1E1978401E0170521EF9D16A
:10E640007047FEE710B58207D30EFF249C40E243DB
:10E650008907090E9940030004D57B481B071B0F4F
:10E66000083B00E0B8489B089B00C01803681A40AC
:10E670001143016010BD0000401E00BF00BF00BF7D
:10E6800000BF00BF00BF00BF00BF00BF00BF00BF92
:10E6900000BFF1D1704738B580208002AB490860D7
:10E6A000AB488021490201640160AA4C0125256024
:10E6B0002F20FFF7E1FF6560A74C002525612F2083
:10E6C000FFF7DAFFE57031BDF8B5A34EF568002D10
:10E6D00039D00024A14800683169401A07023F0A76
:10E6E000286887421CD33F1A24182800ED69017C52
:10E6F000002913D00021017442698169F36918006F
:10E700000AD010009847002808D000BF0EA2FF21B1
:10E71000623100F019FE01E008009047002DDFD1C2
:10E72000B0787178814206D1401CB070C0B2022826
:10E7300001D10020B070B078800030184461802092
:10E740004003AA490860F1BD443A5C576F726B46BA
:10E750006F6C6465725C70726F6A6563745C41446F
:10E760002D30395FD6C7C4DCCBF85C6669726D7733
:10E770006172655C53444B5C6C696272617269657D
:10E78000735C74696D65725C6170705F74696D65EE
:10E79000722E6300FFB5704AD06803901078694606
:10E7A0000871002069460B795C1E0C710121002B59
:10E7B00043D093686C462479E4001B1900931B78BE
:10E7C00017E02C00ED69002D13D0BD42F9D1AC4209
:10E7D00007D1F669D660002E03D1B04E31601061CA
:10E7E00011712E68ED69E561002D02D02C68A41925
:10E7F0002C60009C6478A342D4D0009C64681825E7
:10E800005D4364195B1C009DAD78DBB2AB4200D167
:10E8100000232578022D02D0032D07D0E9E7646894
:10E820000294D66834002500029FCCE7D468002CFF
:10E83000DFD02074E469D460F8E7D268039B9A4281
:10E8400000D0012004B0F0BD1CED00E0FEB5424A4E
:10E85000D168029111786B46197100216B461B79C2
:10E860005C1E6D462C71002B65D093686C46247934
:10E87000E4001B1900E0D46000282DD11C785D78DD
:10E88000AC42EBD05D6818266643AD19641C9E78D7
:10E89000E4B2B44200D100241C706C682E78012EC2
:10E8A000ECD1267C002EE9D1AE686660EE68A660E9
:10E8B0002E69E6606D69A5611579002D00D0616053
:10E8C000156966680096761B3602360ABF4FBE424F
:10E8D00005D2A56875190CE00400E069F0E7009E18
:10E8E000AD1B2D022D0AA668B54201D2751B00E0B2
:10E8F000002525606160A16001252574E161D6686D
:10E90000002EB8D037682568AF4203D37D1B356031
:10E91000E661B0E700963768AF4205D2ED1B00967E
:10E92000F669002E02D0F6E77F1B37602560E661AE
:10E93000009DEC61A0E7D068029A904201D00120CE
:10E94000FEBD0020FEBD000000E400E080E100E02C
:10E95000081301400410014008360020041501404E
:10E96000FEB5C048C06800283DD000680290AA4C9F
:10E9700020680090BB4800690190A84D009801995B
:10E98000461A2E40F61C8027BF02B648C0780028E1
:10E9900010D1B548790801640160B4480760B448F3
:10E9A00007600120B34908602F20FFF765FE0120B2
:10E9B000AC49C8700298864200D2060001988019BE
:10E9C0002840E0632168009A801A2840891A0D4087
:10E9D000ED1CA84209D22068E0632F20FFF74CFE0F
:10E9E00002480760F7BDFFF756FEF7BD00E200E002
:10E9F000F0B585B000249B4D28690390E968029129
:10EA00006A781100AB789A420FD0491CC9B202292A
:10EA100000D100218A00AA185269019280180002D0
:10EA2000000A28610120009001E0019400946970BF
:10EA3000FFF7B0FE0600E868009900291FD0019991
:10EA4000009413E0C91A009EF3180093002313608A
:10EA50000190D069D368002B08D0039E009FF6195F
:10EA60003602360A56609360D461019C002805D0B6
:10EA7000020013689942E5D2591A11600126E86034
:10EA80002000FFF7E3FE002801D1002E02D00298FB
:10EA9000FFF766FF0020287105B0F0BD08100140A7
:10EAA0004278521C8378D2B29A4200D10022037875
:10EAB0009A4201D1002070470A70416840781822BC
:10EAC000504308187047F0B583B00C0017001E00C3
:10EAD000C00000906D4D01A9A868009A8018FFF74A
:10EAE000DFFF002801D10420FEBD01210170446038
:10EAF000494909688160C7600661089941616846B3
:10EB00000079A968B8E080B56148002101644164DA
:10EB10008164C16401604160FFF7D6FD01BD80B52D
:10EB2000FFF766FF01BDFBB5150003273D4204D189
:10EB300000264C4C002D02D1A6600720FEBDFFF739
:10EB4000AAFD0298E0612770A56018350020A16831
:10EB5000C20089180E704E706A4612798A704D6034
:10EB600069460979182251436D18401C0328EEDBD1
:10EB7000E6606670A67080256D033C480560032141
:10EB80001420FFF75FFD3A480560234D0098686048
:10EB900003211120FFF756FD286820610020FEBDEB
:10EBA0003A4B9B68002B09D0130001D0002801D1FB
:10EBB000072070470068037C002B01D008207047B5
:10EBC000037441744261002070470000FFFF7F0022
:10EBD00030480068C205D20D1CD0103A0320032132
:10EBE0001140C90053B2002B04D52B4A1B071B0F41
:10EBF000083B00E0294A9B089B00D258CA40910973
:10EC00000840012802D0032802D003E0002070470A
:10EC1000012070470220704704150140FFFFFF00EC
:10EC2000F8B504000D00170018488068002808D0C7
:10EC3000002C06D0052D01D20720F2BD6069002806
:10EC400001D10820F2BD607C012801D12E0000E036
:10EC50000026FFF7BDFF009733002A002100FFF7D1
:10EC600032FFF2BD083600200413014080E200E0CC
:10EC700000E100E000100140009A891848708020EF
:10EC80004003074908600020FEBD00000836002050
:10EC90000011014004ED00E01CED00E000E400E0A4
:10ECA00000E200E01206130A1A43130C1A4300BFD5
:10ECB000094205D0830705D00270401C491EF9D1D6
:10ECC00070470000130030B414001500103902D34F
:10ECD00010393CC0FCD2490700D30CC000D504C099
:10ECE000890002D30280801C002900D5027030BC4C
:10ECF000704700000022E5E70870000A4870022013
:10ED000070477CB504000D0028880930824201D28A
:10ED10000C2076BD684671DF00281FD108202988A5
:10ED200060542888401C28801B2180B221542888E8
:10ED3000401C28806E460622711C80B22018FDF708
:10ED40008BF92888801D28803278002A00D0012283
:10ED500080B222542888401C2880002076BD39B516
:10ED600081B00C000178012904D14078002801D13C
:10ED700007203EBD1588A81C834222D3012905D156
:10ED8000019840782818801C83421AD3581B831E90
:10ED900068460380694610882018801C7DDF0028A3
:10EDA0002ED101980178082002290ED169460988E0
:10EDB0009BB28B4207D269460B8069460988FF29BE
:10EDC0000CD30C203EBD0920F7E70129F3D10199AE
:10EDD00049789BB28B42EED90B00ECE76946098873
:10EDE000491C1388E1541188491C118089B2605470
:10EDF0001088401C10806946098840181080002047
:10EE00003EBDF7B584B000240C9D288802900026F2
:10EE100004E02888097840182880761C0498008827
:10EE2000864234DA01A804994968B20089180A8830
:10EE300002804A8842800022694665DF002833D17B
:10EE400068460078097E8842E7D1002C01D0002076
:10EE500000E0022029886A46928E6F463F78CF19DB
:10EE6000381882421CDB002C09D1491C29806846D5
:10EE7000007D89B258542888401C288001242888A5
:10EE80001A18694601A865DF0028C2D00CE0002CE2
:10EE900009D028880299401A401E80B2FF2801DD5F
:10EEA0000C2001E05854002007B0F0BDFEB506006C
:10EEB0001700089D099C019400950222FFF7A1FF0D
:10EEC000002807D101940095029B102239003000E0
:10EED000FFF797FFFEBD7CB582B005000C001188DE
:10EEE000881D834201D20C2014E028886A461080D5
:10EEF00068460288062A0CDB1D4B1E4EB24201DB1F
:10EF00009A4206D16888062803DBB04204DB9842A7
:10EF100008D0072004B070BD9A4203D06A46128818
:10EF20009042F6D30520605402980088401C029954
:10EF30000880122180B2215402980088401C029956
:10EF4000088080B221182888FFF7D6FE0299098828
:10EF500008180299088080B221186888FFF7CCFE53
:10EF6000029909880818029908800020D2E7000059
:10EF7000FFFF0000810C000070B504000E001500BA
:10EF8000A088801C29880A18921C934201D3FF286C
:10EF900001D30C2070BD401C70542888401C288070
:10EFA000FF2180B231542888401C288080B231185B
:10EFB0002088FFF7A1FE298808182880A288002A47
:10EFC0000CD0A168002901D1072070BD80B2301893
:10EFD000FDF742F82888A18840182880002070BDDD
:10EFE000F2B507001600B86A002838D0002409E0FE
:10EFF000009B80B21818FDF72FF83088A9884018B8
:10F000003080641C380028300079E4B2844228D271
:10F01000B86A0C2161434518A888801CFF2801D3D9
:10F020000C20F2BD401C0099328888543088401C66
:10F0300030801621009A80B211543088401C3080F4
:10F04000009980B209182888FFF756FE3188081801
:10F050003080AA88002AD4D0A9680029C8D1072006
:10F06000F2BD0020F2BDFEB505000E001400002028
:10F0700021886A461181208029002C31896811225B
:10F08000002915D009786B461B89032B01D20C206F
:10F09000FEBD0223337023885B1C23809BB2F25495
:10F0A00023885B1C23809BB2F1542188491C21805A
:10F0B00029002C31496800291DD000912388694618
:10F0C0000F89190012318F42E1D3F2542188491C73
:10F0D0002180102289B272542188491C21800F217D
:10F0E000009A525C2388F254491E2288521C2280C6
:10F0F00049B20029F4D529002C318978002925D07E
:10F10000228868460389D01C8342C0D30220B054B1
:10F110002088401C20801C2280B232542088401C51
:10F12000208001290BD02CD3032904D005D3042936
:10F1300027D1032104E0022102E0012100E00021A7
:10F1400080B231542088401C2080002029002C31BE
:10F150004978002907D06846028921003000FFF76E
:10F16000D0FD00280CD1A978002922D0684600895A
:10F170002188091D88428AD3684679DF002802D099
:10F18000FEBD0720FEBD0320218870542088401C4E
:10F190002080192180B231542088401C208080B208
:10F1A000311868460088FFF7A7FD218808182080DD
:10F1B0000020E978002916D0228868460389D01CEF
:10F1C0008342D8D30220B0542088401C20800122E2
:10F1D00080B232542088401C208080B23154208874
:10F1E000401C208000206968002918D000200956A2
:10F1F000228868460389D01C8342BCD30220B054C5
:10F200002088401C20800A2280B232542088401C72
:10F21000208080B231542088401C20800020298921
:10F2200000290CD068460089019000943300062222
:10F23000022128000830FFF739FE00284ED1298A24
:10F2400000290CD068460089019000943300072201
:10F25000032128001030FFF729FE00283ED1298B1A
:10F2600000290CD0684600890190009433001522D3
:10F27000142128001830FFF719FE00282ED12F6A1C
:10F28000002F08D068460389220031003800FFF7BC
:10F2900022FE002822D16F6A002F08D06846038919
:10F2A000220031003800FFF767FE002816D12C211C
:10F2B000695C002908D068460389220031002800D3
:10F2C000FFF78EFE002809D12978002906D068466C
:10F2D0000389220031002800FFF741FDFEBD70B513
:10F2E00092B00D001F216A46518011800024002831
:10F2F0000CD0C178490701D4072022E0921C09A94B
:10F30000FFF7B1FE00281CD109AE02E000266946D5
:10F310004C80002D0BD0E8780028EDD16A4601A979
:10F320002800FFF7A0FE00280BD101AA02E000226E
:10F330006846048068460388DBB24188C9B2300061
:10F3400072DF12B070BDFEE7E0B56B461980019226
:10F3500002906A460021024800F038FC07BD000018
:10F3600001400000F0B58FB00400032101A8FFF7B1
:10F37000C1FC112501A8057045708178F9220A4069
:10F380000221114381701C2108A8FFF7B3FC08A8D3
:10F3900000781021014308A80170002609960B96F9
:10F3A0000C9601A80D900E9602A821788170032773
:10F3B000032101806846FFF79DFC68460570457093
:10F3C0008178E3220A4017438770142103A8FFF7CE
:10F3D00091FC02A803906846049003A801210181D2
:10F3E00046811421818123000C3303AA08A9608877
:10F3F000A2DF0FB0F0BD30B58FB004001C2107A80C
:10F40000FFF778FC6846007F0C21014368460177CE
:10F41000002508950A950B950C950D9501A8217866
:10F4200081700221018003216846FFF763FC1120EF
:10F430006946087048708878E32202400320104330
:10F440008870142102A8FFF755FC01A802906846B5
:10F45000039002A801210181458114218181231D8E
:10F4600002AA07A96088A2DF0FB030BD002800D132
:10F47000704780B5002924D00A88102A04D0112AA8
:10F4800004D0502A05D001BD898800E03A49818224
:10F4900001BD891D0A88038A9A4209D10B8B022B70
:10F4A00006D1897EC907C90F00D00121817501BD30
:10F4B00083889A4205D183691A0002D00A8B1A31D7
:10F4C000984701BD30B585B004000D0001A800BF0C
:10F4D0002AA11022FCF7D4FD002C01D0002D01D16F
:10F4E0000E201FE02448A0822868A0610020A0759B
:10F4F000210001A863DF002814D1684621788170BB
:10F5000001210180A21C69460120A0DF002809D149
:10F5100029002000FFF726FF002803D12900200042
:10F52000FFF769FF05B030BD74B585B0002801D183
:10F530000E201FE0828A104B9A4202D0827D002A60
:10F5400001D1082016E06A46928A152A01DB0720BD
:10F5500010E06A46002300240025002678C26A468F
:10F5600083891380039105A9029101219170694655
:10F57000808AA6DF06B070BDFFFF00009ECADC24B3
:10F580000EE5A9E093F3A3B50000406E7149142283
:10F590005043081800210171C1803222C26001610C
:10F5A00041610181704770B56A4C6578082D1FD0A4
:10F5B00026787519EDB2082D01DB083DEDB2142651
:10F5C0007543651928716A6103C92A000C3203C2A8
:10F5D000EB80049828810020A178002904D100F054
:10F5E00061F8112800D100206178491C617070BD5C
:10F5F000042070BD38B50C006188009123690200B9
:10F60000217820000830544DA468A4002C59A0474C
:10F6100031BD38B54F4CA178002942D00021A170EE
:10F62000022802D0032834D031BD4C4843885B1CEB
:10F63000438022781B049B09142555436519ED88E6
:10F64000AB4214DB150041806078401E6070521C94
:10F65000D2B2082A00DB083A22701420684321182D
:10F66000091D0020FFF7C6FF2800FFF78FFF607815
:10F67000002816D0A078002813D100F013F8002835
:10F680000FD011280DD02178142251436118091D83
:10F6900005E02078142148432118091D0D20FFF7AB
:10F6A000A9FF31BD38B50F202A4C217814225143CF
:10F6B00063181B1DDA6829494D881978012902D081
:10F6C000032911D018E0A80259880D1A19690918E0
:10F6D0009B88181810188022D200954201D2AA08DF
:10F6E00000E0920829DF07E01D480168100089B298
:10F6F000FCF7F7FE401928DF002801D10121A17095
:10F7000032BD70B50025154C6580124805808570A6
:10F7100000263000FFF73AFF761C082EF9D30020B0
:10F7200020800D4982008D50401C3228FAD30020E1
:10F7300070BD10B5094A1388322B01D1042010BDC9
:10F740000B60006804499C0008515B1C138000207A
:10F7500010BD00007834002000330020E83600207F
:10F760001000001038B50324214202D1CD182542E3
:10F7700001D0102032BD009313000A0001000120C7
:10F78000FFF711FF32BD80B5002200920B0001008F
:10F790000320FFF708FF02BD80B500F017FA01BD96
:10F7A000FEB54E4C207800283AD00027012620696B
:10F7B000002801D1009600E00097E068002800D101
:10F7C000012700BF48A5009800280FD101A852DFEB
:10F7D000052801D1009609E0002804D02A00A921BB
:10F7E000FFF7B2FD02E0019821698847002F13D18D
:10F7F00060886946088102A9A06861DF052801D1F7
:10F80000012709E0002804D02A00C821FFF79CFD49
:10F8100002E0A068E16888470098C0B23842D0D0C2
:10F82000F7BD10B5002901D08C0701D0072010BD0D
:10F830002A4CA16062806360294910DF002803D14F
:10F840000120207016202EDF10BD010001D10E20F6
:10F8500070472249C86000207047010001D10E2086
:10F8600070471E49086100207047000080B51B48A2
:10F870004068010008D08047002807D01AA2BB21A9
:10F880004900FFF761FD01BDFFF78AFF01BD70B5BB
:10F8900004000D00160014213000FFF72BFA0120A0
:10F8A000308000213161317BFE220A403273357293
:10F8B0007472002C00D0B072002070BD81B0094974
:10F8C00000910099002001B0704782B00549019174
:10F8D00001990091694660DF02B070479C360020B4
:10F8E00099F70100001F0020443A5C576F726B4685
:10F8F0006F6C6465725C70726F6A6563745C4144BE
:10F900002D30395FD6C7C4DCCBF85C6669726D7781
:10F910006172655C53444B5C736F667464657669B1
:10F9200063655C636F6D6D6F6E5C736F6674646549
:10F93000766963655F68616E646C65725C736F663F
:10F94000746465766963655F68616E646C65722E68
:10F95000630000000CB41CB5040004A801900094DE
:10F9600001AB0A006946084878441C30FBF7A8FB45
:10F970000021009A1170002801D40098001B02B0E9
:10F98000019910BC03B0084743C9FFFF1CB50178BB
:10F99000514C012922D140680178201D00F0D6F990
:10F9A000002804D001216A461170019007E0E06848
:10F9B0002169081A012805D10020694608706846A7
:10F9C000616A8847E06821892269101A81422AD336
:10F9D00001212934200000F033FB13BD022909D195
:10F9E0006A461170C068019001212000293000F0A2
:10F9F00027FB15E0002916D1210028312000143002
:10FA000000F0B1F9002804D101212000283000F0D5
:10FA100068FAE069216A081A05D10320694608706E
:10FA20006846616A884713BDF0B589B004000E00CE
:10FA30001F00294D6A62002E01D1072039E072684B
:10FA400092B23168281D00F06CF9002831D1F268BB
:10FA500092B2B1682800143000F063F9002828D170
:10FA6000684600BF1EA12022FCF70AFBA068069092
:10FA700068462279002A00D0012202750777617951
:10FA8000002900D00E214175E0780290A078039003
:10FA900020780190607800901049684600F0E2F903
:10FAA000002806D100F0F0FA01212935280000F0E5
:10FAB000C7FA09B0F0BD38B50400074D2C7001211C
:10FAC000280000F00EFA112804D121001435280076
:10FAD00000F03CF932BD0000B43500208DF9010082
:10FAE000090000000B0000000A00000008000000F0
:10FAF000000000000000000000509D000300000016
:10FB0000BFF34F8F404841490860BFF34F8F00BF9C
:10FB1000FDE700003EB5FEF7DDF9FEF735FA04001B
:10FB2000012C01D0412C06D18420800213DFFEF786
:10FB3000E7F9FFF7E5FF68466CA12CC92CC03448F3
:10FB400001903449684600F073FB334D280000F003
:10FB5000A5FB00F08CFB00F093FB00232A1D112174
:10FB60000020FEF7E0FF002804D000BF2FA2602194
:10FB7000FFF7EAFB00F04FFCFEF7F6FCFDF7D4FEC2
:10FB8000FEF720F8FEF7C4F80020FEF76DF9042018
:10FB900077DF012047DFFDF733FB20488021090391
:10FBA000416049080160890201601D488168009137
:10FBB00043680268210000BF2EA0FDF76BFF00F034
:10FBC000B9FC48DFFDF726FBF9E7000038B5100067
:10FBD0008168144C2160028862604368A36000BFA2
:10FBE00034A52800FDF756FF6420FEF7A0FCA368AB
:10FBF000626821682800FDF74DFF6420FEF797FC3E
:10FC0000FFF77EFF72B6FEE70400FA050CED00E098
:10FC1000A086010029FC0100D4290020080500501D
:10FC20000CE00300B036002070470000443A5C57F7
:10FC30006F726B466F6C6465725C70726F6A65633D
:10FC4000745C41442D30395FD6C7C4DCCBF85C66A8
:10FC500069726D776172655C4150505C626F6F7460
:10FC60006C6F616465725C6D61696E5F626F6F7409
:10FC70002E6300003E20426F6F746C6F616465728A
:10FC80002053746172742C207265733A2523782C8A
:10FC90002076657273696F6E3A25752C2073697AC8
:10FCA000653A25752C206372633A2523782E0D0A58
:10FCB000000000003E20415050204572726F7220BB
:10FCC00068616E646C65723A20436F64653A2030F7
:10FCD00078255820206C696E653A20256420666975
:10FCE0006C653A2025730D0A000000000100000039
:10FCF000581B00000100000010B50268C36884882A
:10FD00002340D154C168491CC16010BD10B50268C0
:10FD1000836884882340D25C0A708168491C8160B2
:10FD200010BD10B5002901D10E2010BD002A03D04E
:10FD3000531E14001C4001D0092010BD0160511E4B
:10FD4000818000218160C160002010BD10B58268F3
:10FD5000C36884889A1A944203D3FFF7CDFF00202A
:10FD600010BD042010BD80B58268C3689A1A03D004
:10FD7000FFF7CCFF002002BD052002BD405800283F
:10FD800004E0C122920080580140080000D0012008
:10FD9000C0B27047804B01E0A123DB00C0180160B6
:10FDA0008260704752000A4399001143009A120280
:10FDB0000A430199090411439E4A8000115070477B
:10FDC00000B583B00021019100910023012201219F
:10FDD000FFF7E8FF07BD00B583B000220192009253
:10FDE0000B000021FFF7DEFF07BDF8B50400206817
:10FDF000FFF7E6FF0125694F206801218140396046
:10FE000000216068FFF7E7FF6548A1690160617D37
:10FE1000227D0A438264A14E626821683000FFF7A8
:10FE2000B9FF207D01280ED10021A068FFF7D3FF84
:10FE3000E068FFF7C5FFE06885403D60A268E168C3
:10FE40003000FFF7A9FFF1BD80B57B4900220A60B1
:10FE50008A627A49984A11600100022000F07EFB14
:10FE600001BD000070B505000C008D4EF07E00282D
:10FE700001D0082070BD002D01D100BF0AA52800C7
:10FE8000FFF7B3FF746028693060002C02D0287F30
:10FE9000FFF7DAFF04209149086000203076F082F5
:10FEA0000121F176B07670BD090000000B00000062
:10FEB0000A00000008000000000000000000000030
:10FEC00000509D000300000000205B49086074485A
:10FED0008168828A895C828A521C828280480160A1
:10FEE0007047F8B56E4CA27D002A01D01120F2BDFA
:10FEF000A175A0600020A08200904F490860674F64
:10FF00000120B860FFF7E0FF6068002825D1BD0D33
:10FF10008E2676000DE031003800FFF72FFF002815
:10FF200002D1A08AA842F6D1A08AA84201D0FFF748
:10FF3000CBFFA08AA17D8842EDD3A08AA84202D13E
:10FF40000F20009007E031003800FFF717FF00286E
:10FF5000F9D00120F8600020A0750098F2BD61483A
:10FF60000021C16101600120A2490860704710B5FD
:10FF70005D495C4A0023A048C47D002C136001D178
:10FF8000086810BD427E0968C3689954417E491CC7
:10FF9000417610BD000000000C050000080500506F
:10FFA00024250040F8B53E48807E024301D1FFF78A
:10FFB000D6FF3B484068002836D190490860374F4B
:10FFC000922149003800FFF7D9FE0400842149003E
:10FFD0003800FFF7D3FE0500A22149003800FFF7E3
:10FFE000CDFE0600284321000143E9D03100214322
:10FFF00007D1FFF7BCFF2A48407E2949C97D8842C6
:020000040002F8
:10000000DED300202649C875002C01D00320F2BDA4
:10001000002E01D00F20F2BD0120897E002901D0E1
:10002000386005E0786003E08120800022490860A4
:100030000020F2BD000700501C210040800002009B
:10004000F1B500200022164B5C681B4D8126B600DE
:10005000270000D06E60DF7D002F0CD0187E0028B6
:1000600004D0002C00D02E601120F2BD0122009897
:100070001861197604E0D975009CDC605876187612
:100080000098FFF78FFFF2BD10B55B4CA07E0028F3
:1000900003D1FFF764FF0120A07610BD00200040CF
:1000A0006836002000B585B06A46012313701072CF
:1000B0000191514A0CE000000423004000B585B0D6
:1000C00000216A46117010724B4A90680190917538
:1000D000116868465268904705B000BD0025004091
:1000E0001C2500400821004018250040F0B585B0CF
:1000F000414C8126B60000253E4F790D3800FFF7B0
:1001000040FE002821D0922149003800FFF736FE3A
:1001100000281AD03B4885603B480660A07E002836
:1001200001D10120786068460221017034490A68D3
:100130000A600392E17D0172E0680190E575257621
:10014000216868466268904728E004213800FFF77C
:1001500018FE002822D0842149003800FFF70EFE47
:1001600000281BD0FFF703FFE07D617E884215D198
:10017000E168227E002A06D0607EE2752269E26094
:100180002576657608E0A07E002801D10120786000
:100190001D480660E575607EFFF784FF8E214900EB
:1001A0003800FFF7EBFD00280CD0A07DA18A81422A
:1001B00002D2FFF789FE05E012490D60002801D048
:1001C000FFF77CFFA22149003800FFF7D7FD002888
:1001D0000ED00C488562A07E002801D00120386036
:1001E000E07D002804D0E575E168607EFFF75AFFE6
:1001F00005B0F0BD002000406836002044210040DA
:10020000802400401C2100400823004080B5FFF7F7
:100210006DFF01BD4B480068C00700D4704780B532
:1002200000204949086049484068804701BD0000F6
:1002300038B50400454841600178002915D10121F5
:100240000170002C01D100BF5EA4414D2078A86050
:100250006068C003FA218900FCF743F92860217A1D
:10026000102000F07BF9002032BD082032BD0120B3
:1002700034490860374908600220344908707047E3
:100280000020354A04E0354903069B0DD150401C3F
:10029000334909688842F6D370470000F0B583B04F
:1002A0000700002569460D712E480068C305DB0D67
:1002B0000424002B14D0103B032003211940C90053
:1002C0005AB2002A04D5284B1207120F083A00E050
:1002D000264B920892009A58CA409109084000E0C3
:1002E0000420009023A601280BD001A836DF0228A5
:1002F00001D172B605E0002803D032006221FFF779
:1003000023F81748016808290AD23970491C01608E
:100310001748016801223B789A400A430260002492
:10032000009801280BD062B66846007937DF0228B2
:1003300005D0002803D032006E21FFF705F8200019
:10034000FEBD00000403014000010140D43600203E
:100350000405014000000140000601403546526E90
:10036000E436002004ED00E01CED00E000E400E0D5
:1003700008050140443A5C576F726B466F6C6465C8
:10038000725C70726F6A6563745C41442D30395FD2
:10039000D6C7C4DCCBF85C6669726D776172655C48
:1003A00053444B5C647269766572735F6E72665C0F
:1003B0007764745C6E72665F6472765F7764742EC5
:1003C0006300000001000000581B00000100000055
:1003D00052000A4399001143009A12020A430199FC
:1003E000090411434C4A80001150704700B583B096
:1003F000002101910091002301220121FFF7E8FF74
:1004000007BD00B583B00022019200920B000021CD
:10041000FFF7DEFF07BD10B5002407E01A2C09D056
:100420001B2C07D0032C05D0052C03D00121200064
:10043000FFF7E7FF641C1F2CF0DB01210E20FFF704
:10044000E0FF03211D20FFF7DCFF03210020FFF761
:10045000D8FF03210120FFF7D4FF304C802080011A
:100460006060400860600D20FFF7C0FF0C20FFF7C0
:10047000BDFF1320FFF7BAFF1220FFF7B7FF1C20C4
:10048000FFF7B4FF102060600420FFF7AFFF0420E7
:1004900060600220FFF7AAFF8020800260601120C8
:1004A000FFF7A4FF202020600520FFF79FFF0B200F
:1004B000FFF79CFF0620FFF799FF0A20FFF796FF42
:1004C00080200001206040202060400220600F203A
:1004D000FFF78CFF03211020FFF793FF802000031C
:1004E0006060400860608002206010BD80B5002020
:1004F0000C4908600C4800680C4948430C49FBF75C
:10050000F0FF9621490040180549088049680A0013
:1005100001D080B2884701BD000700500805005097
:10052000CC3600200071004008750040302A0000E1
:10053000FF03000080B5FFF7A3FE01BD38B500241E
:1005400005480460034D2868010001D080472C60F5
:1005500031BD0000DC36002040A1004010B582070C
:10056000D30EFF249C40E2438907090E9940030003
:1005700005D50B4C03071B0F083B9B0801E0094CFA
:1005800083089B00E3181C68224011431960012175
:10059000C006C00E8140044801600448016010BDDF
:1005A0001CED00E000E400E080E200E000E100E09B
:1005B0004058002800D00120C0B2704710B51C7808
:1005C000944206D2095D8F4A81501878401C1870F9
:1005D00007E00121029A002A02D0C161002010BD6B
:1005E0004161012010BD30B51C7894420FD2A32583
:1005F000ED0045590D551978491C1970C9B2531EA3
:10060000994205D102210A0281500121016230BDC7
:100610009142FAD130BDFEB582B0040000260878C0
:10062000002811D1012510780AA90978884209D03B
:10063000019692277F0039002000FFF7B9FF0028BC
:100640000FD03CE00195F4E78220400020180662BC
:1006500082204000201886618220400020184660D9
:100660003FE08E2149002000FFF7A2FF002815D0AF
:10067000822040002018866139002000FFF798FF93
:1006800000281CD10B980090039B0AA802780499BB
:100690002000FFF793FF002820D12FE0842149009C
:1006A0002000FFF785FF002818D082204000201886
:1006B000466039002000FFF77BFF002807D082202A
:1006C00040002018066265610298057006E0039BF1
:1006D0000AA8027804992000FFF785FF01980028F6
:1006E0000BD0822149002000FFF762FF002804D0D0
:1006F000822040002650002000E0012005B0F0BD1F
:10070000FCB583B004000D000020002682214900C2
:100710006918086008628861486080218900685013
:1007200022002332D0702321605428000830012198
:10073000816101600A9F0097230026336846027C8E
:1007400003992800FFF73AFF2068002806D05F4889
:10075000A060A068C1218900685012E00197684636
:10076000007C0090039B22002632210023312800C8
:10077000FFF751FF0028F1D123342078002800D062
:100780000326300005B0F0BD0000F7B504000D00F1
:100790001F000020002682214900691808600862B5
:1007A0008861486022002332D07023216054802069
:1007B000800028180121012F02D10222026000E0EE
:1007C0000160296229602068002806D03F48A060A7
:1007D000A068C1218900685010E001960097029B33
:1007E00022002632210023312800FFF714FF0028C1
:1007F000F3D123342078002800D003263000FEBD3A
:10080000000000001C050000F0B585B005000C00DC
:1008100026002136307801902020205C0090E3698A
:100820002200263223312800FFF7F5FE002844D1AC
:10083000B07800281ED1207B022801D0032819D1CE
:10084000E1692269914215D16269E261E37B20216D
:100850006354A1698906CF0F3770032805D100972B
:1008600029002000FFF74CFF27E029002000FFF7B8
:100870008CFF22E06946091D20000C308CC88CC119
:1008800000200421B278002A0DD0124AAA18136859
:1008900013600222134201D0012201E00B4004D078
:1008A0006B461A7001E06B461870F070A069014049
:1008B00003D1616868462268904705B0F0BD80B5F5
:1008C00003490548FFF7A0FF01BD000086020000B4
:1008D000E0350020C40400000040004008494058B2
:1008E000012800D000207047064A800010180268D6
:1008F000054B13400360026809041143016070470F
:100900000060004000070050FFFFFCFFF8B5002624
:10091000009680256D000124042728B2FFF7DEFF32
:10092000002808D039480068204004D000202DB2AB
:1009300032496850264364002D1D7F1EEDD180276B
:100940003F06BE204000FFF7C9FF002806D0002068
:10095000304908603E432C4800680090300713D0AF
:100960000124002534420BD0AA00294881180868C8
:1009700009688903890FC004C00E224B9A5890471A
:1009800064006D1C042DEDD3374035D000251D4883
:100990004019402140560021C943884229D0C0B2A5
:1009A0000600C0218E4317498A192023D25692008F
:1009B0008C5821001DD00006870F1148B100405807
:1009C0008003800F0121B140009A0A4002D0022822
:1009D0000FD101E003280CD1032F07D1022801D148
:1009E000032100E002213000FFF77EFF39003000D4
:1009F000A0476D1C042DCAD3F1BD0000006000406B
:100A0000000700506C3500201005005004630040C2
:100A1000106500407C610040816807E00268116851
:100A200051185368CB18C36008320260C268914203
:100A3000F4D04A1C826008787047F0B587B0010096
:100A40000831029102685208D200891803910025EA
:100A50000495059501684908C900441808344068A0
:100A60006946C307DB0F4B704008C0002018019097
:100A7000002735E002A8FFF7CFFF46B20AE0029850
:100A8000016840180490029949684018059002983E
:100A900008300290049805998842F0D001786A469F
:100AA0001170401C0490BD4210D10198844201D1C4
:100AB00000F01EF8256868464078002801D04846B6
:100AC0002D1860682F180834BD42EED068460078B3
