:020000040001F9
:10B00000C02D002041090200DBC10100DFC60100A4
:10B010000000000000000000000000000000000030
:10B020000000000000000000000000006BC70100ED
:10B030000000000000000000A7FE0100DB09020084
:10B04000E70902002B0A020039030200330802005C
:10B050005306020000000000A50602006DDE01009C
:10B06000570A0200590A020025EB01005B0A0200A0
:10B070005D0A02005F0A0200610A0200630A020020
:10B08000A1DB0100DBD50100650A0200670A0200AE
:10B09000F3D50100690A020021FD01006B0A0200DC
:10B0A0006D0A02006F0A02000000000000000000AC
:10B0B0000000000000000000000000000000000090
:10B0C000F1B5A4B014001F0014ADA9600020E8621F
:10B0D0000AE0A868249A9047A860002800D1CFE22F
:10B0E000E86A401CE862641C2178080001D1E86A23
:10B0F000C8E22529EDD100206861A861E8612862D5
:10B100006862A86202E0010001200843641C217803
:10B110002029F8D023290ED02B2904D02D2907D09F
:10B1200030290BD00DE001000220084380B2EDE78A
:10B1300001000420F9E701000820F6E701001020D3
:10B14000F3E72A290FD1396839600A68091D396087
:10B150006A63002A05D5514269630100042008434F
:10B1600080B2641C12E0002169630AE06A6B794BCB
:10B170009A4205D093009A185200511830396963E9
:10B18000641C21780A00303A0A2AEFD321782E294C
:10B1900003D00021C94329631EE0641C21782A29B9
:10B1A00007D1396839600A68091D39602A63641C4F
:10B1B00012E0002129630AE02A6B664B9A4205D00F
:10B1C00093009A185200511830392963641C217871
:10B1D0000A00303A0A2AEFD328872678310004483B
:10B1E00078440C3000F0DDFE002803D0641C02E03F
:10B1F0000C58000000263A202E54285C682804D100
:10B200002178682901D1622005E06C2806D12078D8
:10B210006C2803D171203A216854641C05A8286168
:10B220002678641C300025382AD01C3800D1D8E09C
:10B23000001F022800D8D4E0133800D1F6E0093806
:10B2400000D1CEE0801E00D15AE1401E00D134E191
:10B25000401E022800D8C4E0001F00D12DE1401F8D
:10B2600000D190E0401E00D1E0E0401E27D0C01E7B
:10B270000BD0801E00D1D9E0C01E00D1D6E049E13C
:10B2800025206946087501204EE13868386001685C
:10B29000001D3860E9602E6B002E03D5084600F0D3
:10B2A0008AFE0AE032000021E86800F08CFE0028E7
:10B2B00002D0E968401A00E03000A86135E1386842
:10B2C00038600268001D38600020C0430021104033
:10B2D00014AA03C205A8E860286900903C2214A8BB
:10B2E00003C802AB03C302A803C8002904D1002885
:10B2F00002D1286B00281DD0521E02A803C80007E7
:10B30000000F3030C0B23A2800DB27300099885453
:10B3100002A803C800090B071843090902AB03C3BD
:10B3200002A803C801D1002804D0E8680099891850
:10B330008842E1D33C20801AA86100998918E9600D
:10B34000296B88420ADA081A2862288F02490140CC
:10B350002987EAE0FFFFFF7FEFFF0000002900D40C
:10B36000E3E03821695C14220A40102A00D0DCE0B6
:10B37000696B6A69891A2A6A891A0A1A012A00DA23
:10B38000D3E02A62D1E03A20285C622819D06828EC
:10B3900006D06A280CD06C281BD0712808D018E081
:10B3A000386838600168001D3860E86A0880BCE0D1
:10B3B000386838600268001D3860E86AC11703C247
:10B3C000B3E0386838600168001D3860E86A0870CA
:10B3D000ABE0386838600168001D3860E86A0860D2
:10B3E000A3E03A68D21D072082433A6003CA3A605C
:10B3F00014AA03C2002902D568692D2109E0288F0B
:10B40000810702D568692B2103E0C00705D568696B
:10B41000202105AA1154401C686105A869694018DB
:10B42000E860310014A800F0FBF97EE03A20285CC7
:10B430006C280BD0712801D06A2807D13A68D21D38
:10B44000072082433A6003CA3A6005E039683960F0
:10B450000868091D3960002114AA03C23A20285C3B
:10B46000682803D114A803C880B20BE0622803D176
:10B4700014A803C8C0B205E0742801D07A2804D10A
:10B4800014A803C8002114AA03C23820285C0007AE
:10B490002DD514A803C8002901D1002827D02020C9
:10B4A0003043782823D16869302105AA1154401C03
:10B4B000411C696105A90E5419E039003A20285C45
:10B4C00000F0E2F814AA03C2002902DA68692D210B
:10B4D00009E0288F810702D568692B2103E0C007A6
:10B4E00005D56869202105AA1154401C686105A88A
:10B4F00069694018E860310014A800F0F9F814E018
:10B5000001206861386838600168001D386068464D
:10B5100001750AE025206946087501206861300040
:10B5200003D005A8467002206861686B6969401AFB
:10B53000296A401AA969401A696A401AE969401AD9
:10B54000A96A401A04903820285C400711D42020B2
:10B5500069460871049801280BDB049E012301AAA7
:10B5600014A9249800F005FD002800D088E0761E7C
:10B57000F4D1686905AE00280FD000903178A86832
:10B58000249A9047A86000287AD0E86A401CE862B4
:10B59000761C0098401E0090F0D13020694608715A
:10B5A0002E6A012E09DB012301AA14A9249800F0B8
:10B5B000E0FC002864D1761EF5D1EE68A869002869
:10B5C0000FD000903178A868249A9047A86000288E
:10B5D00056D0E86A401CE862761C0098401E009035
:10B5E000F0D13020694608716E6A012E09DB012313
:10B5F00001AA14A9249800F0BCFC002840D1761EB2
:10B60000F5D1E868A9694618E86900280FD00090CC
:10B610003178A868249A9047A860002830D0E86A5A
:10B62000401CE862761C0098401E0090F0D130204B
:10B6300069460871AE6A012E09DB012301AA14A92B
:10B64000249800F096FC00281AD1761EF5D13820F7
:10B65000285C400700D447E520206946087104981B
:10B66000012800DA40E5049E012301AA14A92498C8
:10B6700000F07FFC002803D1761E00D134E5F3E70B
:10B680000020C04325B0F0BD0A00622822D06828FF
:10B6900019D06A2808D06C2823D0712804D07428C7
:10B6A0001FD07A2808D01CE01368DB1D07208343D5
:10B6B000136003CB13607047116811600868091D9F
:10B6C000116000217047116811600868091D116040
:10B6D00000B20BE0116811600868091D116040B2EA
:10B6E00004E0116811600868091D1160C1177047F6
:10B6F000F3B583B0006900906846027C6F2A01D1DF
:10B70000082406E020211143782901D00A2400E012
:10B7100010243C25039803C806000F00642A01D0BA
:10B72000692A07D1002905DA00200021801BB941D0
:10B7300006000F00002F10D1002E0ED10398006BD1
:10B7400000280AD1082C3AD103983821405C000720
:10B7500035D53B253020009930E06D1E0195300035
:10B7600039002200E31700F03AFC3032D2B23A2A14
:10B7700003DB6846007C51381218009842553000AF
:10B7800039002200E31700F02AFC06000F0001D167
:10B79000002E05D00398C068009949198842DCD36F
:10B7A000082C0CD103983821405C000707D500987D
:10B7B000405D302803D06D1E3020009948553C2054
:10B7C000401B0399886100994919039AD160039934
:10B7D000096B884209DA081A039908620398008FF6
:10B7E0000E4901400398018715E0002913D50399FC
:10B7F0003822895C14220A40102A0CD10399496B23
:10B80000039A5269891A039A126A891A0D1A012D2C
:10B8100001DB0398056205B0F0BD0000EFFF0000FA
:10B82000F3B591B006AA03C802AB03C312A800780F
:10B8300020210143009161290BD01198006B002851
:10B8400001D5062003E004D1672902D10120119916
:10B850000863119840684100490DA64B994225D1D3
:10B86000000310D11198006800280CD10320119911
:10B87000886112A8007861381A283AD31F487844A2
:10B880007A3000900BE003201199886112A80078AB
:10B8900061381A2829D31A4878446430009003226A
:10B8A00000991198C06800F0CFFBE9E1012919DB8C
:10B8B000914B034091481843119B586090480D1AD2
:10B8C0000026F6430098612827D11198C0683021DE
:10B8D0000170811C119BD96012A90978612915D1C9
:10B8E000782114E000260025ECE70648784414305F
:10B8F000D4E7054878441030C3E700BF1451000076
:10B90000085100000051000004510000582141700E
:10B9100011984069801C11994861002E03D10024C0
:10B9200068468680A3E10098612800D09EE01198C7
:10B93000046B002C01D5212400E0641C24B2601C9F
:10B9400000901198C0C802A803C80022002300F08C
:10B95000A9FB02D280200006474002A8C0C0281FD1
:10B960006946888000260E7606A8471C00980128A4
:10B9700035DB02A803C8002280235B0300F0ABFB89
:10B980002DD81C2102A800F0BFFB02A803C800F0BC
:10B99000FBFB05000098C01F009001280ADB28006F
:10B9A00000F01CFC02000B0002A803C800F08DFC94
:10B9B00002AA03C2F81D072104E0401E2A07120F45
:10B9C00002702D11012D01DB491EF6D5491E02D44E
:10B9D000401E0670FAE7C71D00980128C9DA06A8BC
:10B9E000401C391A06A8421CA14200DA0C0024B2FD
:10B9F000200032D4884205DA06A9091849780829B6
:10BA000000DB0F2606A9091801E0641E491E401E2E
:10BA10000B78B342F9D00F2E04D106A909184B7840
:10BA20005B1C4B70002806D506AA641C019800B266
:10BA3000001D6946888024B2601E0ED411180B7850
:10BA40003033DBB23A2B03DB12AD2D783A3D5B1974
:10BA50000B70401E491E0028F1D51198006B00287C
:10BA600000D404E1601E1199086300E102A803C834
:10BA70000022002300F016FB06D202A803C8802291
:10BA80001206514002AA03C22DB27E4868437E4985
:10BA900000F0A8FC694688800720019909B2421A83
:10BAA00000207A49012A20DB049202AA30CA00262B
:10BAB0000F000498C00707D532003B002000290082
:10BAC00000F0EAFC04000D000498401004903000DF
:10BAD000390032003B0000F0DFFC06000F00049844
:10BAE0000028E6D102A830C029E054420026684F61
:10BAF00019E000BFFF070000FFFF0F800000E03FDC
:10BB0000FE030000E00707D504A803C832003B008D
:10BB100000F0C2FC06000F00641004A803C804AAC9
:10BB20000CCA00F0B9FC04AA03C2002CEAD102A896
:10BB300003C832003B0000F071FD02AA03C2009866
:10BB4000662803D1019800B20A3000E0062011995E
:10BB5000096B08180490142801DB1320049030208E
:10BB60006946087606A8441C049801283BDB02A815
:10BB700003C800F01BFB06000834042530000A212E
:10BB800000F033FC0F0030000A2100F02EFC06000C
:10BB90003037601E077030000A2100F026FC0F00CD
:10BBA00030000A2100F021FC0600A41E3037277067
:10BBB0006D1EE3D108340498083804900128D3DBC3
:10BBC00002A803C800F0F2FA00F012FB02000B001A
:10BBD00002A803C800F079FB00222E4B00F05CFCA9
:10BBE00002AA03C2C3E706A8401C201A06A94A1CE1
:10BBF0006B4605E0401E019909B2491E9980521C0E
:10BC000011783029F6D00099662903D1019909B23B
:10BC1000491C04E0652901D1012100E00021119BAC
:10BC20001B6B5C1824B2A04200DA040024B221008D
:10BC30001DD4814204DA505C352801DB392000E054
:10BC40003020531800E0641E5B1E491E1D7885429B
:10BC5000F9D0392802D1505C401C5054002906D537
:10BC6000521E641C019800B2401C694688800198ED
:10BC700000B2009023B212A80178119800F00CF8DD
:10BC800013B0F0BD97750000A086010000002440AD
:10BC90000000F03F84D79741F3B587B015001C0032
:10BCA00000F037FD0090406A0078694608710798F7
:10BCB000076B012C01DA0124ADA508A8017820202A
:10BCC00008430E9E662801D1761C17E0672800D035
:10BCD0009EE00321C9438E4200DA9DE0BE4200DBB4
:10BCE0009AE0761C07983821405C000702D4BC42D9
:10BCF00000DA270036B2BF1B00D5002707988069FD
:10BD00000799C9680918009136B2012E2EDA401C35
:10BD10003021009A1170012F04DA07993822895CCA
:10BD2000090705D569460979079AD2681154401C5C
:10BD3000079988617042874200DA7E4236B27042CB
:10BD400007994862BF19A74200DA3C0024B207985D
:10BD5000C461220029000798C068079B9B69C0182E
:10BD600000F072F9381B07998862E2E0B44220DAE9
:10BD700022002900009800F067F9079989690919DC
:10BD8000079A9161301B079A5062012F04DA0798D5
:10BD90003822805C000709D568460079079AD26886
:10BDA00050540798C069401C0799C861079887627A
:10BDB000BFE032002900009800F046F9079880693A
:10BDC0008019A41B012F04DA07993822895C09071E
:10BDD00005D569460979079AD2681154401C07991C
:10BDE000886124B2A74200DA3C0024B22200A919DB
:10BDF0000798C068079B9B69C01800F025F9079851
:10BE00008069001907998861381B0799486290E09A
:10BE1000612914D1702015E0BC4205DA0799382257
:10BE2000895C090700D427007F1E00D5002708A8D9
:10BE30000078672801D1652004E0452002E041290F
:10BE400002D1502008A9087007988069411C079A00
:10BE500091612978079AD2681154681C0090012FCB
:10BE600004DA07983821405C000720D507988169DB
:10BE7000481C079A90616A461279079BDB685A54FE
:10BE8000012F14DB641E24B2A74200DA3C0024B266
:10BE900022000099079BDB68181800F0D5F8079876
:10BEA0008069001907998861381B079948620798CB
:10BEB000C06807998969411808A80078087030009F
:10BEC00003D42B2048708D1C03E02D224A708D1C5A
:10BED0004642002404AF08E00A2202A800F034FC25
:10BEE00003983870029E641C7F1C31B20129F3DA7A
:10BEF000022C08DA08A8007820210143652902D124
:10BF0000302028706D1C002C09D1302028706D1C49
:10BF100007E0641E04A8005D303028706D1C012C01
:10BF2000F7DA0798C068079989694018281A0799AD
:10BF3000C86107983821405C14210140102914D1B0
:10BF4000079840690799896940180799496A401814
:10BF50000799C96940180799896A40180799496B78
:10BF6000884202DA081A0799086209B0F0BD000099
:10BF70003000F1B50E0014000027002B0FD01D007B
:10BF80002178B068009A9047B060002806D0F06A27
:10BF9000401CF062641C6D1E01D0F1E7FF433800C5
:10BFA000F2BDC9B200E0401C02788A4202D0002AE9
:10BFB000F9D100207047010000E0491C0A78002AEE
:10BFC000FBD1081A7047C9B201E0401C521E002A7A
:10BFD00003D003788B42F8D170470020704712429B
:10BFE00024D0994228D970B500251B4202D00C00FC
:10BFF000002109E00024012649186441944200D33D
:10C00000A41A7641F8D33100012601E0764109D225
:10C01000001864416D41A41A9D41F7D2A4185D41F6
:10C02000B619F5D3300022002B0070BD1B42D8D1C9
:10C0300008B500F099FB08BD01D19042D3D20200AF
:10C040000B00002100207047124207D08B0706D05A
:10C050000B78491C0370401C521EF7D870478307A9
:10C0600006D00B78491C0370401C521EF9D1704752
:10C0700070B4103A03D378C9103A78C0FBD2530792
:10C0800001D318C918C001D508C908C0D20704D304
:10C090000B880380891C801C002A01D50B78037053
:10C0A00070BC704730B4012464054D00EC420BD8DD
:10C0B0005D00EC4208D80C001C43640004431443A8
:10C0C00004D2994200D1904230BC7047FCD08B42E0
:10C0D000FAD18242F8E730B4012464054D00EC4205
:10C0E0000BD85D00EC4208D80C001C4364000443EC
:10C0F000144304D28B4200D1824230BC7047FCD042
:10C100009942FAD19042F8E710B40200506840001A
:10C11000400D194B984207D15068000302D11068B6
:10C12000002811D0022025E0002823D001290DDBB2
:10C130001B1A99420AD35068002802D500200F49E3
:10C1400001E000200E4903C2012013E043428B426C
:10C1500009DA53680B4C1C40081800052043506056
:10C160000020C04306E05068802109060840506066
:10C170000020106010BC7047FF0700000000F0FFB7
:10C180000000F07FFFFF0F80F4464A1805D200F050
:10C190000FF801D580174008604700F009F8012129
:10C1A000C907884200D90800404260474A1812D2A5
:10C1B000400DC90208430121C9070843520D40211F
:10C1C0000901521A521C06D452421F3201D4D040E7
:10C1D0007047C017704700207047FEE7010009D57F
:10C1E000F446404200F006F80122D20711436047AE
:10C1F000010000BF42221201D21E004207D002D429
:10C20000521E0018FCD5C10A400512058918704756
:10C210008B4200D1824205D98446100062468C468A
:10C2200019006346DF184C18640D7F0D3AD0661C68
:10C23000760537D0E61B352E34DCDB022B43DB0AD8
:10C240000C0DC9022943C912202E0DDB1700203E18
:10C2500006D01F00F741F3405F400026012A7741D6
:10C26000C01871410DD217E01700F741F240574056
:10C27000F3415A40B340F3405A40002680185941D8
:10C280000AD3A21C52050FD0C207012F724117001A
:10C290004008CB0718434908641C24054208AF41F5
:10C2A00070416141F0BC7047641C21050020F9E732
:10C2B0006B4010E06B40ABE7F742F3D1E943F1E7A5
:10C2C0002442EFD100200021ECE7F0B40125ED0776
:10C2D0000F005F40EED40C00871A9C4105D2C01BB2
:10C2E000A141D219634169406B40AE0ADF184C1876
:10C2F000F442E1D2640D7F0DE2D0E61B362ED1DC94
:10C30000DB022B43DB0AA4460C0DC9022943C90AF0
:10C31000012E28DC04D1D6075208DF073A435B0818
:10C32000EF0A76429041994114D039423BD1B61977
:10C3300040414941761C394204D1761C00184941DC
:10C340003942FAD0B9436746B74208D9A41B24053D
:10C350002143A7E70042EAD13642E8D1A2E7E40A46
:10C36000E10700209EE7202E0BDD203E1F00F3405A
:10C37000F7415F40012A002257417E429841914196
:10C380000BE01700F741F2405740F3415A40B340E9
:10C39000F3405A407E42904199410A0303D2641E01
:10C3A000B619404149410027641E24054208AE41A8
:10C3B00078416141F0BC7047F446002804D44942FA
:10C3C00000F013F8404260474042002905D45FD096
:10C3D00000F00BF8404249426047494200F005F83E
:10C3E0004942604703460B43E6D40022030A8B42CE
:10C3F0000BD203098B4219D243088B422ED2411A29
:10C4000000D20146524110467047FF2209023FD038
:10C4100012068B4205D3121209028B4201D312126B
:10C42000090203098B4219D300E0090AC3098B42B0
:10C4300001D3CB01C01A524183098B4201D38B0136
:10C44000C01A524143098B4201D34B01C01A5241D9
:10C4500003098B4201D30B01C01A5241C3088B421E
:10C4600001D3CB00C01A524183088B4201D38B0009
:10C47000C01A524143088B4201D34B00C01A5241AB
:10C48000884200D3401A5241CFD20146104670472D
:10C4900008B500F06BF908BDF0B50E005E4001254F
:10C4A000ED072E40B446AE0ADF184C18F44208D20D
:10C4B000F7420ED2640D01D07F0D12D100206146EB
:10C4C000F0BD05D1F74201D87F0D05D10020C14351
:10C4D000F0BDFBD1640DF9D00020C14349054908E6
:10C4E0008FE0E419C902DB0229432B43DB0A460D26
:10C4F000C00231438E4630B487B295B27D432E0CD4
:10C50000ADB2140C7C43A419260C240425439CB220
:10C510007C43A419190C7943270CC919A4B20F0440
:10C520003C43090C000C97B247432E0CBE1935430F
:10C53000ADB2170C4743360CBF19A6B2BF193E0463
:10C540003543240C3E0C36199FB24743BF19BCB289
:10C550003E0C89191F0C47437F183E043443390CA5
:10C56000704680B297B247432E0CBE193543ADB228
:10C57000170C4743360CBF19A6B2BF193E0435430A
:10C58000240C3E0C36199FB24743BF19BCB23E0C77
:10C5900089191F0C47437F183E043443390C7746F2
:10C5A0003F0C90B278432E0C80190604ADB22E4396
:10C5B000050CA0B22D18120C7A435019020C80B24F
:10C5C000240CA4189AB27A43121914042043120CB2
:10C5D00089181B0C7B43C91830BCEF0A394203D1C0
:10C5E000B61940414941641E6F12BF0DE41B0BDBBD
:10C5F000FF19BC4211DA240500274208AE417841F8
:10C60000614166463143F0BD641C05D1401C614167
:10C61000CF0201D34908F4E750E75DE7F0B40E001C
:10C620005E400125ED072E40B446AE0ADF184C18D7
:10C63000F4423BD2F74241D2640D43D07F0D38D053
:10C64000E41BC902DB0229432B43CF0ADB0A0600A5
:10C65000B61A9F4104D2641EB6197F41B6185F41D5
:10C660006812800D24180018844222DAE80C002198
:10C67000B6197F41B61A9F4102D2B6185F413F1CDE
:10C6800040414941F4D3241C21DD2405B6197F41E2
:10C69000B61A9F4105D33743C60737430026012FFB
:10C6A0007041614166463143F0BC7047FCD1F742AE
:10C6B00005D20020C14349054908F3E704D0002012
:10C6C000C143F1E77F0DFAD000206146ECE7244238
:10C6D000FAD1401C61410F03F6D30020E2E7FEE7E8
:10C6E00080B5124800F043F811A1016041608160FB
:10C6F000C1600161416181610EA242628162C162D9
:10C70000016341630CA282630DA2C26301644164B0
:10C7100001BD10B5054800F02AF804002068002883
:10C7200001D1FFF7DDFF200010BD000034290020FB
:10C73000000000002E00000066616C7365000000C0
:10C7400074727565000000007CB504000E001500D1
:10C7500030002900FFF746FE00904543701B019012
:10C76000684603C803C473BD7047FEE7704770474F
:10C77000F8B50024B74DB848A200A91843689A1824
:10C7800013780B7053784B7093788B70D278CA7093
:10C79000641C042CF0D32C2C38D2A0002E180422B8
:10C7A000311F6846FFF750FC6846A10719D103788E
:10C7B0004178017081784170C2788270C37000BF87
:10C7C00060A30778DF5D0770595C4170995C8170E8
:10C7D000C178595CC17001780DA2A308D25C4A40AF
:10C7E0000270310010390A78037853403370721C9C
:10C7F0004B7846785E4016708B7886785E4056702F
:10C80000C978C07848409070641CC4E7F1BD00004E
:10C810008D01020408102040801B366CD8AB4D9A65
:10C820002F5EBC63C697356AD4B37DFAEFC59139E4
:10C8300072E4D3BD61C29F254A943366CC831D3A0E
:10C8400074E8CB8D01020408102040801B366CD8A0
:10C85000AB4D9A2F5EBC63C697356AD4B37DFAEFB1
:10C86000C5913972E4D3BD61C29F254A943366CC29
:10C87000831D3A74E8CB8D01020408102040801B10
:10C88000366CD8AB4D9A2F5EBC63C697356AD4B36D
:10C890007DFAEFC5913972E4D3BD61C29F254A94F8
:10C8A0003366CC831D3A74E8CB8D01020408102056
:10C8B00040801B366CD8AB4D9A2F5EBC63C6973553
:10C8C0006AD4B37DFAEFC5913972E4D3BD61C29FDA
:10C8D000254A943366CC831D3A74E8CB8D0102045B
:10C8E00008102040801B366CD8AB4D9A2F5EBC637D
:10C8F000C697356AD4B37DFAEFC5913972E4D3BDDA
:10C9000061C29F254A943366CC831D3A74E8CB00FC
:10C91000F1B500214F4A00238C004F4D2D682D1991
:10C92000ED182E786F463F783F013F19FF18D75D0D
:10C9300077402F705B1C042BEFDB491C0429EADBDA
:10C94000F1BD0000637C777BF26B6FC53001672B14
:10C95000FED7AB76CA82C97DFA5947F0ADD4A2AFF3
:10C960009CA472C0B7FD9326363FF7CC34A5E5F101
:10C9700071D8311504C723C31896059A071280E2AF
:10C98000EB27B27509832C1A1B6E5AA0523BD6B303
:10C9900029E32F8453D100ED20FCB15B6ACBBE3973
:10C9A0004A4C58CFD0EFAAFB434D338545F9027F5F
:10C9B000503C9FA851A3408F929D38F5BCB6DA2118
:10C9C00010FFF3D2CD0C13EC5F974417C4A77E3D44
:10C9D000645D197360814FDC222A908846EEB8149A
:10C9E000DE5E0BDBE0323A0A4906245CC2D3AC625D
:10C9F0009195E479E7C8376D8DD54EA96C56F4EA68
:10CA0000657AAE08BA78252E1CA6B4C6E8DD741F78
:10CA10004BBD8B8A703EB5664803F60E613557B93B
:10CA200086C11D9EE1F8981169D98E949B1E87E9F5
:10CA3000CE5528DF8CA1890DBFE6426841992D0FA4
:10CA4000B054BB164100C0091B2250434840C0B23D
:10CA500070470000B4370020A83A0020F0B585B038
:10CA600000200390004801E0A83A002000680399E4
:10CA700089004018029007786846029949788170C9
:10CA80000299897841700299C97801703800FFF7DE
:10CA9000D9FF04003800FFF7D5FFFFF7D3FF604050
:10CAA0006946C8703800FFF7CDFFFFF7CBFFFFF7EF
:10CAB000C9FF694608713800FFF7C4FFFFF7C2FFDE
:10CAC000FFF7C0FFFFF7BEFF68468078FFF7BAFFA9
:10CAD0006946487168468078FFF7B4FFFFF7B2FFF8
:10CAE00068468078FFF7AEFFFFF7ACFFFFF7AAFFBD
:10CAF0006946887168468078FFF7A4FFFFF7A2FFB8
:10CB0000FFF7A0FFFFF79EFF68464078FFF79AFF08
:10CB100068464078FFF796FFFFF794FF04006846E9
:10CB20004078FFF78FFFFFF78DFFFFF78BFF0500C2
:10CB300068464078FFF786FFFFF784FFFFF782FF24
:10CB4000FFF780FF68460078FFF77CFF68460078B3
:10CB5000FFF778FFFFF776FF68460078FFF772FF70
:10CB6000FFF770FFFFF76EFF060068460078FFF7DB
:10CB700069FFFFF767FFFFF765FFFFF763FF684691
:10CB8000C0786946097941406846807848406946DE
:10CB90004979414068468079484069464978414032
:10CBA0004C406540684600786840464002980670F0
:10CBB0003800FFF747FF3800FFF744FFFFF742FF59
:10CBC0003800FFF73FFFFFF73DFFFFF73BFF040093
:10CBD0003800FFF737FFFFF735FFFFF733FFFFF7A9
:10CBE00031FF68468078FFF72DFF694688716846F7
:10CBF0008078FFF727FFFFF725FF694648716846F1
:10CC00008078FFF71FFFFFF71DFFFFF71BFF694647
:10CC1000087168468078FFF715FFFFF713FFFFF7ED
:10CC200011FFFFF70FFF68464078FFF70BFF6946DB
:10CC3000C87068464078FFF705FFFFF703FF6846B6
:10CC40004078FFF7FFFEFFF7FDFEFFF7FBFE6946AA
:10CC5000C87168464078FFF7F5FEFFF7F3FEFFF76F
:10CC6000F1FEFFF7EFFE68460078FFF7EBFE68463F
:10CC70000078FFF7E7FEFFF7E5FE0500684600785D
:10CC8000FFF7E0FEFFF7DEFEFFF7DCFE060068467A
:10CC90000078FFF7D7FEFFF7D5FEFFF7D3FEFFF7CB
:10CCA000D1FE7C40684680796040694649794140C0
:10CCB0006846007948406946497841406846C078EE
:10CCC00048406946C9794140684600784840454037
:10CCD0006E40029846703800FFF7B4FE3800FFF748
:10CCE000B1FEFFF7AFFE04003800FFF7ABFEFFF721
:10CCF000A9FEFFF7A7FE6946C8703800FFF7A2FE3D
:10CD0000FFF7A0FEFFF79EFEFFF79CFE68468078C7
:10CD1000FFF798FE68468078FFF794FEFFF792FED3
:10CD200068468078FFF78EFEFFF78CFEFFF78AFEDD
:10CD30006946087168468078FFF784FEFFF782FE37
:10CD4000FFF780FEFFF77EFE68464078FFF77AFE29
:10CD50006946487168464078FFF774FEFFF772FE37
:10CD60006946887168464078FFF76CFEFFF76AFEF7
:10CD7000FFF768FE6946C87168464078FFF762FEB3
:10CD8000FFF760FEFFF75EFEFFF75CFE6846007887
:10CD9000FFF758FE050068460078FFF753FEFFF7DF
:10CDA00051FE68460078FFF74DFEFFF74BFEFFF798
:10CDB00049FE060068460078FFF744FEFFF742FE92
:10CDC000FFF740FEFFF73EFE7C406846C0786040BB
:10CDD0006946897841406846007948406946497902
:10CDE00041406846807948406946C9794140684673
:10CDF0000078484045406E40029886703800FFF742
:10CE000021FE694688713800FFF71CFEFFF71AFE05
:10CE10003800FFF717FEFFF715FEFFF713FE694610
:10CE200048713800FFF70EFEFFF70CFEFFF70AFE11
:10CE3000FFF708FE68468078FFF704FE68468078B2
:10CE4000FFF700FEFFF7FEFD69460871684680782F
:10CE5000FFF7F8FDFFF7F6FDFFF7F4FD6946C87030
:10CE600068468078FFF7EEFDFFF7ECFDFFF7EAFD7F
:10CE7000FFF7E8FD68464078FFF7E4FD6846407834
:10CE8000FFF7E0FDFFF7DEFD68464078FFF7DAFDCB
:10CE9000FFF7D8FDFFF7D6FD6946C87168464078B0
:10CEA000FFF7D0FDFFF7CEFDFFF7CCFDFFF7CAFD82
:10CEB00068460078FFF7C6FD040068460078FFF773
:10CEC000C1FDFFF7BFFD050068460078FFF7BAFD1A
:10CED000FFF7B8FDFFF7B6FD060068460078FFF7DC
:10CEE000B1FDFFF7AFFDFFF7ADFDFFF7ABFD684606
:10CEF0008079784069464979414068468078484061
:10CF00006946097941406846C07848406946497891
:10CF100041406846C0794840444065406E400298B0
:10CF2000C6700398401C0390042800DA9AE505B007
:10CF3000F0BD000030B500212CA200232A4C24684B
:10CF400064189D0064192578555D25705B1C042BC1
:10CF5000F4DB491C0429F0DB30BD23480068417B29
:10CF6000427A4273427942724278427141708178CA
:10CF7000827A827081728179827B82718173C178B9
:10CF8000C279C270C27AC271C27BC272C173704769
:10CF900000228B5C8354521C102AFADB704738B590
:10CFA0000C00150001002800FFF7F2FF0E48056095
:10CFB0004460FFF7DDFB0A20FFF7AAFC0924FFF716
:10CFC000CCFFFFF7B7FFE0B2FFF7A2FCFFF746FD8B
:10CFD000641E2006F3D1FFF7C0FFFFF7ABFF002070
:10CFE000FFF796FC31BD0000A83A002052096AD52F
:10CFF0003036A538BF40A39E81F3D7FB7CE339824E
:10D000009B2FFF87348E4344C4DEE9CB547B94329C
:10D01000A6C2233DEE4C950B42FAC34E082EA166E4
:10D0200028D924B2765BA2496D8BD12572F8F664BB
:10D0300086689816D4A45CCC5D65B6926C70485036
:10D04000FDEDB9DA5E154657A78D9D8490D8AB00EB
:10D050008CBCD30AF7E45805B8B34506D02C1E8F14
:10D06000CA3F0F02C1AFBD0301138A6B3A91114150
:10D070004F67DCEA97F2CFCEF0B4E67396AC742239
:10D08000E7AD3585E2F937E81C75DF6E47F11A71B7
:10D090001D29C5896FB7620EAA18BE1BFC563E4BF0
:10D0A000C6D279209ADBC0FE78CD5AF41FDDA833B2
:10D0B0008807C731B11210592780EC5F60517FA9F2
:10D0C00019B54A0D2DE57A9F93C99CEFA0E03B4D21
:10D0D000AE2AF5B0C8EBBB3C83539961172B047E95
:10D0E000BA77D626E169146355210C7D002805D452
:10D0F0000121C006C00E81408948016070470028A8
:10D1000005D40121C006C00E8140864801607047E9
:10D11000002805D40121C006C00E8140BD48016031
:10D12000704710B5C20018231340FF249C40E2430F
:10D130008907090E9940002801D4B74B03E0B74B8B
:10D140000007000F083880088000181803681A408C
:10D150001143016010BD0000401E00BF00BF00BFB2
:10D1600000BF00BF00BF00BF00BF00BF00BF00BFC7
:10D1700000BFF1D1704738B580208002A84908600F
:10D18000A8488021490201640160A74C012525605F
:10D190002F20FFF7E1FF6560A44C002525612F20BB
:10D1A000FFF7DAFFE57031BDF8B5A04EF568002D48
:10D1B00038D00024C14800683169401A07023F0A8C
:10D1C000286887421CD33F1A24182800ED69017C87
:10D1D000002913D00021017442698169F3691800A4
:10D1E0000AD010009847002808D000BF0EA2FF21E7
:10D1F000623100F0B9FA01E008009047002DDFD15C
:10D20000B0787178814206D1401CB070C0B202285B
:10D2100001D10020B070B078800030184461142033
:10D22000FFF76DFFF1BD0000433A5C4769745F573B
:10D230006F726B53706163655C41442D31315C6684
:10D2400069726D776172655C53444B5C6C696272A4
:10D2500061726965735C74696D65725C6170705F41
:10D2600074696D65722E6300FFB5704AD0680390D3
:10D27000107869460871002069460B795C1E0C71B4
:10D280000121002B45D093686C462479E4001B19DA
:10D2900000931B7817E02C00ED69002D13D0BD42E0
:10D2A000F9D1AC4207D1F669D660002E03D1AF4E5A
:10D2B0003160106111712E68ED69E561002D02D0B9
:10D2C0002C68A4192C60009D6D78DCB2AC42D3D0E0
:10D2D000009C6468DBB218255D4364195B1C009EEA
:10D2E000B678DDB2B54200D100232578022D02D0F8
:10D2F000032D07D0E7E764680294D6683400250060
:10D30000029FCAE7D468002CDDD02074E469D460A1
:10D31000F8E7D268039B9A4200D0012004B0F0BD28
:10D3200000E100E000E200E0FCB5404AD168019174
:10D33000137800211C00631EDBB2002C06D1D068DC
:10D34000019A904263D00120F6BDD46000282FD10D
:10D350009468DD00641925786678B542EAD066687D
:10D3600018276F43F6196D1C2570A778EDB2BD42E2
:10D3700000D1217074683578012DE9D1257C002D0C
:10D38000E6D1B5686560F568A5603569E5607569E1
:10D39000A5611579002D00D0616065681669AE1B26
:10D3A0003602360ABE4FBE4205D2A56875190AE09C
:10D3B0000400E069F1E71669751B2D022D0AA668C5
:10D3C000B54202D2751B256000E021606160A1605A
:10D3D00001252574E161D668002EB6D0376825682E
:10D3E000AF4203D37D1B3560E661AEE70096376838
:10D3F000AF4205D2ED1B0096F669002E02D0F6E78B
:10D400007F1B37602560E661009DEC619EE7002090
:10D41000F6BD000080E200E000E400E01CED00E06A
:10D4200080E100E00813014004100140F4390020BD
:10D43000FEB5BF4FF86800283CD0006802901F4C32
:10D440002068009038690190BA4D00980199461AF9
:10D450002E40F61CF878002812D1B74880214902E6
:10D46000016401601120FFF753FE1120FFF73EFE1B
:10D470000120B24908602F20FFF76EFE0120F870EE
:10D480000298864200D20600019880192840E06385
:10D490002168009A801A2840891A0D40ED1CA84284
:10D4A0000AD22068E0632F20FFF756FE1120FFF715
:10D4B00026FEF7BDFFF75FFEF7BD00000415014033
:10D4C000F0B585B000249A4D28690390E96802916F
:10D4D0006A781100AB789A420FD0491CC9B2022970
:10D4E00000D100218A00AA18526901928018000216
:10D4F000000A28610120009001E001940094697005
:10D50000FFF7B2FE0600E868009900291FD00199D4
:10D51000009413E0C91A009EF318009300231360CF
:10D520000190D069D368002B08D0039E009FF619A4
:10D530003602360A56609360D461019C002805D0FB
:10D54000020013689942E5D2591A11600126E86079
:10D550002000FFF7E9FE002801D1002E02D002983A
:10D56000FFF766FF0020287105B0F0BD08100140EC
:10D5700010B54278521C8478D3B2A34200D1002265
:10D580000478D3B2A34201D1002010BD0A704168D3
:10D59000407818225043081810BDF0B583B00C0035
:10D5A00017001E00C00000906A4D01A9A868009AEB
:10D5B0008018FFF7DDFF002801D10420FEBD012106
:10D5C000017044605E4909688160C760066108991E
:10D5D000416168460079A968B4E080B55E480021E1
:10D5E000016441648164C16401604160FFF7DCFD56
:10D5F00001BD80B5FFF764FF01BDFBB51500032732
:10D600003D4204D100264A4C002D02D1A6600720DD
:10D61000FEBDFFF7B0FD0298E0612770A5601835E8
:10D620000020A168C20089180E704E706A461279F7
:10D630008A704D6069460979182251436D18401C63
:10D640000328EEDBE6606670A6701420FFF760FD2D
:10D6500003211420FFF765FD1420FFF747FD384D27
:10D660000098686003211120FFF75BFD28682061A6
:10D670000020FEBD374B9B68002B09D0130001D062
:10D68000002801D1072070470068037C002B01D0DF
:10D690000820704703744174426100207047000005
:10D6A000FFFF7F002D480068C205D20D1CD0103A44
:10D6B000D1001820084052B20321002A01D4284B7F
:10D6C00003E0284B1207120F083A920892009A586A
:10D6D000C24090090140012902D0032902D003E091
:10D6E000002070470120704702207047F8B5040001
:10D6F0000D00170017488068002808D0002C06D0BD
:10D70000052D01D20720F2BD6069002801D1082053
:10D71000F2BD607C012801D12E0000E00026FFF759
:10D72000C1FF009733002A002100FFF736FFF2BD4A
:10D73000F4390020FFFFFF000413014000100140F6
:10D7400004150140009A891848701420FFF7D7FC8F
:10D750000020FEBDF43900200011014004ED00E07E
:10D7600000E400E01CED00E0E0B56B46198001929A
:10D7700002906A460021024800F068F807BD0000E8
:10D7800001400000BFF34F8F3F4840490860BFF39E
:10D790004F8F00BFFDE700003EB500F0E7F800F056
:10D7A0003FF90400012C01D0412C06D184208002D5
:10D7B00013DF00F0F1F8FFF7E5FF684668A12CC918
:10D7C0002CC0334801903349684600F0F7F9324DD8
:10D7D000280000F029FA00F010FA00F017FA0023F0
:10D7E0002A1D11210020FFF708FF002804D000BFE8
:10D7F0002EA26021FFF7B8FF00F0CDFA00F068FB21
:10D8000000F0BAFB00F012FD00F09AFD002000F0DD
:10D8100045FE042077DF012047DF00F057FE1F4858
:10D82000802109034160490801601D488168009119
:10D8300043680268210000BF2BA001F05DF901F0F0
:10D840006DF948DF00F0CEFEF9E7000038B51000B2
:10D850008168144C2160028862604368A36000BF45
:10D8600031A5280001F048F9642001F07AF9A36895
:10D8700062682168280001F03FF9642001F071F925
:10D88000FFF780FF72B6FEE70400FA050CED00E03A
:10D89000A0860100A9D80100C02D00200805005075
:10D8A0000CE003009C3A002070470000433A5C47BC
:10D8B00069745F576F726B53706163655C41442D8F
:10D8C00031315C6669726D776172655C4150505CA4
:10D8D000626F6F746C6F616465725C6D61696E5FBD
:10D8E000626F6F742E6300003E20426F6F746C6F26
:10D8F000616465722053746172742C207265733A8E
:10D900002523782C2076657273696F6E3A25752C05
:10D910002073697A653A25752C206372633A252352
:10D92000782E0D0A000000003E2041505020457224
:10D93000726F722068616E646C65723A20436F6426
:10D94000653A203078255820206C696E653A20258C
:10D95000642066696C653A2025730D0A000000009A
:10D9600001000000581B0000010000001CB500BFB2
:10D9700089A003C86A4603C201F0BDF9714C842036
:10D980008002206121000C31684601F0CCF96E481C
:10D990000EC80EC413BD0000F0B5842189020D68C5
:10D9A00085F3088848680024E443EFF30585002DDB
:10D9B00001D1A64600472546064621273FBAF0B4C6
:10D9C0000024002500260027F0B40620C0430047AD
:10D9D000F0BD70B55D4E8025ED002A00F82189026A
:10D9E0003000FEF731FB574C0C22210030000C3088
:10D9F000FEF72AFBF82080022061290020000C306D
:10DA000001F0BBF9032000F092F800232A00310056
:10DA100020000C3001F0A0F9012000F088F870BD62
:10DA200010B588B003A8102101F0D8F968460C2180
:10DA300001F0D4F90020C043842189020A6882429F
:10DA400001D1002023E03F4C6268002A06D08242C8
:10DA500004D0A068002801D0FF2801D1012016E0E1
:10DA60003B48824201D3022011E0002001F0B8F9C6
:10DA7000A16888420AD000206946087001236A46DE
:10DA8000382103A800F02CFD402000E0412008B020
:10DA900010BD000038B5040002D02D48844201D3E7
:10DAA00098246402210000BF2CA001F025F8254D28
:10DAB000842080022861A1B228000C3001F05DF9B9
:10DAC000032000F034F800BF2CA001F015F800206E
:10DAD000686131BDF8B506000800002E20D00100B5
:10DAE0001ED005002F008107890F07D00422511A8C
:10DAF000C9B27F18FF22301801F048F9114C842078
:10DB00008002206163699BB2BAB2310020000C3000
:10DB100001F022F9012000F00AF860694019606103
:10DB2000F1BD0C4803688B4200D14260704709493F
:10DB30000860094848604A688242FCD048687047DB
:10DB400000000000703A00200CE003001C1F0020C1
:10DB500001300100B03A0020FFFFFF0F3E20444695
:10DB6000552065726173652073746172742C207323
:10DB7000697A653A25752E0D0A0000003E2044465C
:10DB80005520657261736520636F6D706C69746593
:10DB9000642E0D0A0000000023DB010000000000DD
:10DBA0004B480068C00700D4704780B50020494941
:10DBB000086049484068804701BD000038B504004E
:10DBC000454841600178002915D101210170002CE0
:10DBD00001D100BF5BA4414D2078A8606068C003FC
:10DBE000FA218900FEF701FC2860217A102001F05B
:10DBF00007FB002032BD082032BD012034490860F7
:10DC00003749086002203449087070470020354ABF
:10DC100004E0354903069B0DD150401C3349096887
:10DC20008842F6D370470000F0B583B007000025A6
:10DC300069460D712E480068C005C00D04240028F7
:10DC400014D01038C2001821114040B2032200281D
:10DC500001D4284B03E0284B0007000F0838800848
:10DC600080001858C8408009024000E00422009259
:10DC700023A6012A0BD001A836DF022801D172B6F3
:10DC800005E0002803D032006221FFF76DFD174840
:10DC9000016808290AD23970491C016017480168D7
:10DCA00001223B789A400A43026000240098012830
:10DCB0000BD062B66846007937DF022805D000280D
:10DCC00003D032006E21FFF74FFD2000FEBD0000A3
:10DCD0000403014000010140C03A00200405014056
:10DCE00000000140000601403546526ED83A00203F
:10DCF00004ED00E000E400E01CED00E00805014058
:10DD0000433A5C4769745F576F726B537061636528
:10DD10005C41442D31315C6669726D776172655C7E
:10DD200053444B5C647269766572735F6E72665CB5
:10DD30007764745C6E72665F6472765F7764742E6B
:10DD40006300000001000000581B000001000000FB
:10DD500052000A4399001143009A12020A430199A2
:10DD6000090411434C4A80001150704700B583B03C
:10DD7000002101910091002301220121FFF7E8FF1A
:10DD800007BD00B583B00022019200920B00002174
:10DD9000FFF7DEFF07BD10B5002403E01A2C05D005
:10DDA0001B2C03D001212000FFF7EBFF641C1F2C6C
:10DDB000F4DB03210220FFF7E4FF03210120FFF73A
:10DDC000E0FF03210520FFF7DCFF03210420FFF71C
:10DDD000D8FF03210A20FFF7D4FF03210920FFF712
:10DDE000D0FF03210B20FFF7CCFF03210E20FFF70C
:10DDF000C8FF03211620FFF7C4FF03211820FFF7F7
:10DE0000C0FF0020FFF7B2FF1E20FFF7AFFF062084
:10DE1000FFF7ACFF0320FFF7A9FF0720FFF7A6FFDE
:10DE20000820FFF7A3FF0D20FFF7A0FF0C20FFF74E
:10DE30009DFF1720FFF79AFF1920FFF797FF132088
:10DE4000FFF794FF1220FFF791FF1D20FFF78EFFD1
:10DE5000124C8020800220601120FFF787FF802075
:10DE6000000320604008206010BD000080B5002045
:10DE70000C4908600C4800680C4948430C49FEF7FF
:10DE8000B4FA9621490040180549088049680A00FB
:10DE900001D080B2884701BD000700500C0500503A
:10DEA000B83A00200071004008750040302A000098
:10DEB000FF030000704738B505000C0003E0287828
:10DEC00001F063FA6D1C2000441E0004F7D131BD3F
:10DED00010B588B004A800BF12A11CC91CC00E4810
:10DEE0000090802189000191401802900391032342
:10DEF0000A4A694604A801F001FA0C21084A116097
:10DF0000002803D00AA23E21FFF72EFC15A000F046
:10DF1000F3FD08B010BD0000EC320020B5DE0100BA
:10DF200040070050100F00000000000000F0EB0060
:10DF3000433A5C4769745F576F726B5370616365F6
:10DF40005C41442D31315C6669726D776172655C4C
:10DF50004150505C7372635C757365725F7561727A
:10DF6000742E63003E205541525420696E69742E10
:10DF70002E2E0D0A0000000000B583B04A4A012190
:10DF800055A0FFF777FB0022802109024748FFF7E1
:10DF9000ADFB6846464901800321C1700A21017129
:10DFA00011214171252181710021C17100F007F813
:10DFB00045A000F0A1FD07BD3E480068704780B550
:10DFC00000F004F83B49086001BD0000F1B582B0E3
:10DFD000008869460880394D68460088A84201DA01
:10DFE0000020FEBD68460088354944183548444342
:10DFF000314E0AE0002907D12800C8214900FEF768
:10E00000F4F9002900D1A4196D1C64210327684686
:10E010000088854207D22800FEF7E7F92F40E9D1B2
:10E020000029F0D1E8E7002568460088FEF7DAF914
:10E0300001910BE0002808D168460088C8214900FA
:10E04000FEF7D0F9002900D1A4196D1C0298C07800
:10E05000401E85420ED200BF20A0405D70432418B0
:10E06000012DF2D16846008838420198E2D100289B
:10E07000EAD1E1E702980079401E70432018029926
:10E080004979E122120151434018029989793C22D1
:10E09000514340180299C9794018FEBD05480168EE
:10E0A000491C0160704700009DE00100343A0020E7
:10E0B000E2070000E03A002080510100B2070000B2
:10E0C0004EF8FFFF8033E1013E2052544320496E59
:10E0D00069742E0D0A000000343A00201F1C1F1E18
:10E0E0001F1E1F1F1E1F1E1F30B59DB038210EA8FA
:10E0F00000F074FE0EA80221017000258570052134
:10E10000C1703821684600F069FE01206946088226
:10E110009E4C2000383005900EA801F04FFC0028DE
:10E1200004D000BFA2A28721FFF71EFB1821200008
:10E1300000F054FE257065602572FA20C000208230
:10E14000B42060821DB030BD70B505008F4C290031
:10E1500020001C3001F0EAFC608B00BF94A62988E7
:10E1600010292FD011291FD0132912D019291ED000
:10E170001A2902D0522903D070BDA879607670BDEB
:10E18000002300220021A9DF00282FD03200CE2159
:10E1900007E00023002285217FDF002826D03200FF
:10E1A000C921FFF7E1FA70BDA0A000F0A5FC002096
:10E1B00020767748608300BFA2A000F09DFC20007D
:10E1C00073DF70BD01202076FFF7F6FE0100714875
:10E1D000016000BF8AA000F08FFC00BF8EA000F09D
:10E1E0008BFCA88860830322042184DF70BD80B586
:10E1F00000F009FD01BD38B50C001500E9B22000A2
:10E2000000F08CFA29002000FFF755FE62480168F3
:10E210008022D20213008B4343600A4082600A20AE
:10E2200001F0B3F80028FAD131BD000070B58AB012
:10E23000564D0023482229003C31082001F04BFDB7
:10E240005BA4002803D022005C21FFF78DFA05AA09
:10E250000121002001F075FD002803D02200622179
:10E26000FFF782FA4D4801F083FD002803D0220019
:10E270006521FFF779FA05A801F081FD002803D098
:10E2800022006921FFF770FA454801F038FD0028A7
:10E2900003D022006D21FFF767FA424801F037FDF5
:10E2A000002803D022007121FFF75EFA1120694691
:10E2B000087003A871DF002803D022003021FFF787
:10E2C00053FA00BF47A1052268467CDF060000BF65
:10E2D00046A000F011FC002E04D0220039213000AD
:10E2E000FFF742FA01A80021002206C001A8182168
:10E2F00001805021418001218180C8214900C180D5
:10E300007ADF002803D022004321FFF72DFA2648A8
:10E310000090694628001C3001F034FC002803D02E
:10E3200022005121FFF720FAFFF7DEFE4CA000F09B
:10E33000E3FB0AB070BD13211448408B76DF7047B1
:10E34000124873DF7047000070B506000D00152DF0
:10E350001BDA0E4C2A00310020001C3001F044FC76
:10E360001249884208D1C82000F0FBFB2A00310086
:10E3700020001C3001F038FC082806D0002804D00A
:10E38000010000BF3BA000F0B7FB70BD702800206B
:10E39000FFFF0000181F002004050050001E002091
:10E3A00049E10100EFE10100F7E101000430000064
:10E3B000433A5C4769745F576F726B537061636572
:10E3C0005C41442D31315C6669726D776172655CC8
:10E3D0004150505C7372635C757365725F626C650B
:10E3E0002E630000452D424F580000003E2044653A
:10E3F00076696365204E616D653A25730D0A0000EC
:10E400003E20417574684F4B5F5453202530327560
:10E410002E530D0A000000003E20424C4520436F61
:10E420006E6E65637465642E0D0A00003E20424CDA
:10E4300045204469736F6E6E65637465642E0D0AC2
:10E44000000000003E20424C4520616476657274F5
:10E450006973696E6720626567696E2E0D0A000038
:10E460003E20424C452053746172742E2E2E0D0AAC
:10E47000000000003E20424C452073656E6420661B
:10E4800061696C65642C206572726F7220636F64C1
:10E49000653A307825580D0A0000000080B508491B
:10E4A000087800280AD1684612DF6A461278002AE6
:10E4B00002D001220A7002BD022002BD082002BD66
:10E4C000D43A002039DF70473ADF7047A2480F2165
:10E4D0000181002141818181AE494118416070472D
:10E4E000F4B590B007000E001D0001A80C2100F04B
:10E4F00075FC781D694602780A7042784A70964C1D
:10E50000228A68460178881A401E04283ED2B0004C
:10E51000387000F045F904220100781CFDF794FDE5
:10E520006846791D02780A7042784A70109800286F
:10E5300008D00A2D00DB09252A000146F81DFDF749
:10E5400083FD04E0092201A9F81DFDF77DFD04AD5E
:10E550002800103000210022002300264EC0102287
:10E56000390028001030FDF76FFD10228A4821186D
:10E5700004A8FDF769FD04A84DDF10212800203014
:10E58000FFF7E2FE05A000F0B7FA02E00AA000F0F3
:10E59000B3FA68460078208211B0F0BD3E20446591
:10E5A0007669636520617574682068616E6473685C
:10E5B000616B652E0D0A00003E206175746820694C
:10E5C0006E6465782066616C75742C207265636575
:10E5D000766976653A25752C2073746F72653A25D5
:10E5E000750D0A0070B58AB004A8142100F0F6FB7E
:10E5F00001A80C2100F0F2FB574C68480078002875
:10E6000011D0207800280ED10120207041206946C9
:10E610000871012301AA382104A8FFF761FF00BF98
:10E6200029A000F069FA60890100A289521A48D035
:10E630006268238919401423594352181178561CD3
:10E64000401C60813078020007D08007800F0328CB
:10E6500030D1300000F026F92CE0481E69460870E1
:10E66000002507E02DB27019417800BF23A000F00B
:10E6700043FA6D1C6946097828B28842F2DB102201
:10E6800045482118701C00F09FF800BF16A000F04C
:10E6900033FA002506E02DB27019417817A000F07A
:10E6A0002BFA6D1C6946097828B28842F3DB701C8E
:10E6B00000F0AEF814A000F01FFA61892DA000F060
:10E6C0001BFA0AB070BD00003E20626F6F746C6F61
:10E6D0006172646572696E6720616C7265616479EC
:10E6E0002E2E2E0D0A0000003E2041455320446589
:10E6F00063727970743A0D0A000000003E20307891
:10E70000253032582E0D0A003E20434D44204861EA
:10E710006E646C652E2E2E0D0A00000070B5604CE4
:10E72000A58923896689AE1BB34214DB66682B403A
:10E7300014225343F2181170531C0A0001001800F0
:10E74000FDF782FC6D1CA58104A000F0D5F9A1891C
:10E7500008A000F0D1F970BD001F00203E20434DFD
:10E760004420526563656976696E672E2E2E0D0A08
:10E77000000000003E20434D442048616E646C65FB
:10E78000203078253032752E6E756D6265720D0AF7
:10E79000000000002C0800001C0800008828002051
:10E7A00010B582B00020694608706846FFF78AFEFF
:10E7B000684600780828F8DB864C08212000FFF71F
:10E7C00083FE200016BD0000F0B585B004000E00E9
:10E7D000002C1AD0002E18D01700102F15DB1007B0
:10E7E00013D100250BE06A4631002000FEF7D7FB6D
:10E7F000102269462000FDF727FC10341035BD4279
:10E80000F1DB00BF7BA000F077F905B0F0BD0000A0
:10E810007FB5050001A80C2100F0E0FA28788408F3
:10E820006D1C21007AA000F067F9322C37D1E81D69
:10E83000694602780A7042784A7068460688664CD3
:10E840002660042229000831FDF7FEFB0098606075
:10E85000042229000C316846FDF7F6FB0098A06001
:10E8600003466268310000BF70A000F045F960689F
:10E87000FFF710F979A000F03FF9422069460871CE
:10E88000012301AA38212800FFF72AFEFFF7A1F88B
:10E89000524832214170002141828182C1827FBD74
:10E8A000001F0020F8B50278920843789E011643B5
:10E8B000871C8D1E310000BF6FA000F01DF9474C72
:10E8C000608A864212D1401C6082A68A802109019A
:10E8D000EDB2491BB14207DB2A003900A0191C30F8
:10E8E000FDF7B2FB7019A082607832286FD1A28A3E
:10E8F00037496618384D6968E38AC91A914241D18F
:10E9000037498A423EDAD2B2310020001C30FFF78C
:10E910005BFFA18AC9B220001C30FFF7DBF8FFF7CC
:10E920007FF80400210000BF5BA000F0E5F86A68F2
:10E9300084218902002000F053FAAA68010000BF78
:10E940005FA000F0D9F8412C41D101206946087040
:10E9500001236A4638213800FFF7C2FD60A000F0AD
:10E96000CBF8322000F0FDF8FFF7E5FC0A2000F0BC
:10E97000F8F8BFF34F8F1B481B490860BFF34F8F58
:10E9800000BFFDE78025ED00AA4220DB012117A092
:10E99000FFF791FA2A00310020001C30FFF714FF26
:10E9A000002120001C30FFF795F8142000F0D9F862
:10E9B000E08A4019E082A08A421BA282100406D09D
:10E9C00092B20B48211820001C3001F017FAF1BD5B
:10E9D0001C080000C83A0020703A0020001F0020E8
:10E9E000010400000400FA050CED00E03E00000008
:10E9F0001C0400003E2044656372797074696F6E78
:10EA000020737563636573732E2E2E2E2E0D0A00F0
:10EA10003E205265636569766520636F6D6D616E3A
:10EA20006420307825582E0D0A0000003E20444610
:10EA3000552073746172742C2076657273696F6EE1
:10EA40003A25752C2073697A653A25752C206372F6
:10EA5000633A2523782C200D0A0000003E20666CC6
:10EA600061736820616C726561647920436C6561D3
:10EA7000722E0D0A000000003E2052656365697623
:10EA800065204F72646572204E756D6265723A2022
:10EA9000307825582E0D0A003E20444655207265D8
:10EAA0006365697665204F4B2C20766572696679BF
:10EAB000207374617475733A2523780D0A00000081
:10EAC0003E20496D616765206372633A2523782C87
:10EAD00020444655206372633A2523780D0A0000CE
:10EAE0003E205265737461727420656E7465722085
:10EAF0004150500D0A0000000EB400B582B003A9C9
:10EB000000916B4602000121034878440A30FCF76B
:10EB1000D7FA029906B00847FD1E000080B5FFF73E
:10EB200075F801BD38B5002405480460034D286818
:10EB3000010001D080472C6031BD0000D03A002098
:10EB400040A10040401E00BF00BF00BF00BF00BF8B
:10EB500000BF00BF00BF00BF00BF00BF00BFF1D1BA
:10EB6000704701B505E00098401E00900348FFF78C
:10EB7000E9FF00980028F6D101BD0000E70300007E
:10EB8000714914225043081800210171C1803222BA
:10EB9000C260016141610181704770B56A4C65785E
:10EBA000082D1FD026787519EDB2082D01DB083D20
:10EBB000EDB214267543651928716A6103C92A00EC
:10EBC0000C3203C2EB80049828810020A178002930
:10EBD00004D100F061F8112800D100206178491CAF
:10EBE000617070BD042070BD38B50C006188009163
:10EBF00023690200217820000830544DA468A40045
:10EC00002C59A04731BD38B54F4CA178002942D0CE
:10EC10000021A170022802D0032834D031BD4C4815
:10EC200043885B1C438022781B049B0914255543B1
:10EC30006519ED88AB4214DB150041806078401EF9
:10EC40006070521CD2B2082A00DB083A22701420ED
:10EC500068432018011D0020FFF7C6FF2800FFF7BA
:10EC60008FFF6078002816D0A078002813D100F01C
:10EC700013F800280FD011280DD021781422514309
:10EC80006118091D05E02078142148432018011D52
:10EC90000D20FFF7A9FF31BD38B50F202A4C217890
:10ECA0001422514361180B1DDA6829494D881978DF
:10ECB000012902D0032911D018E0A80259880D1AA1
:10ECC000196909189B88181810188022D2009542DB
:10ECD00001D2AA0800E0920829DF07E01D48016878
:10ECE000100089B2FDF781FB401928DF002801D10F
:10ECF0000121A17032BD70B50025154C6580124808
:10ED00000580857000263000FFF73AFF761C082E3C
:10ED1000F9D3002020800D4982008D50401C3228FC
:10ED2000FAD3002070BD10B5094A1388322B01D1E7
:10ED3000042010BD0B60006804499C0008515B1C56
:10ED40001380002010BD000064380020EC36002045
:10ED5000DC3A00201000001038B5032421420AD10B
:10ED6000CD18254207D1009313000A0001000120AD
:10ED7000FFF713FF32BD102032BD80B50022009294
:10ED80000B0001000320FFF708FF02BD1206130A63
:10ED90001A43130C1A4300BF094205D0830705D05C
:10EDA0000270401C491EF9D170470000130030B4B6
:10EDB00014001500103902D310393CC0FCD24907A9
:10EDC00000D30CC000D504C0890002D30280801C8F
:10EDD000002900D5027030BC704700000022E5E732
:10EDE00030B5002306A408E00D7845402D06AD0D92
:10EDF0006559000A6840491C5B1C9342F4D330BD3E
:10EE000000000000963007772C610EEEBA51099988
:10EE100019C46D078FF46A7035A563E9A395649EE4
:10EE20003288DB0EA4B8DC791EE9D5E088D9D29708
:10EE30002B4CB609BD7CB17E072DB8E7911DBF9064
:10EE40006410B71DF220B06A4871B9F3DE41BE8488
:10EE50007DD4DA1AEBE4DD6D51B5D4F4C785D383E4
:10EE600056986C13C0A86B647AF962FDECC9658A88
:10EE70004F5C0114D96C0663633D0FFAF50D088DE4
:10EE8000C8206E3B5E10694CE44160D5727167A288
:10EE9000D1E4033C47D4044BFD850DD26BB50AA5E4
:10EEA000FAA8B5356C98B242D6C9BBDB40F9BCAC08
:10EEB000E36CD832755CDF45CF0DD6DC593DD1AB64
:10EEC000AC30D9263A00DE518051D7C81661D0BF88
:10EED000B5F4B42123C4B3569995BACF0FA5BDB8E4
:10EEE0009EB802280888055FB2D90CC624E90BB188
:10EEF000877C6F2F114C6858AB1D61C13D2D66B6E4
:10EF00009041DC760671DB01BC20D2982A10D5EF47
:10EF10008985B1711FB5B606A5E4BF9F33D4B8E8A3
:10EF2000A2C9077834F9000F8EA8099618980EE147
:10EF3000BB0D6A7F2D3D6D08976C6491015C63E6A3
:10EF4000F4516B6B62616C1CD83065854E0062F2C7
:10EF5000ED95066C7BA5011BC1F4088257C40FF523
:10EF6000C6D9B06550E9B712EAB8BE8B7C88B9FC47
:10EF7000DF1DDD62492DDA15F37CD38C654CD4FBA3
:10EF80005861B24DCE51B53A7400BCA3E230BBD447
:10EF900041A5DF4AD795D83D6DC4D1A4FBF4D6D3A3
:10EFA0006AE96943FCD96E34468867ADD0B860DA47
:10EFB000732D0444E51D03335F4C0AAAC97C0DDDA3
:10EFC0003C710550AA41022710100BBE86200CC9C7
:10EFD00025B56857B3856F2009D466B99FE461CE23
:10EFE0000EF9DE5E98C9D9292298D0B0B4A8D7C747
:10EFF000173DB359810DB42E3B5CBDB7AD6CBAC0A3
:10F000002083B8EDB6B3BF9A0CE2B6039AD2B174BE
:10F010003947D5EAAF77D29D1526DB048316DC731A
:10F02000120B63E3843B64943E6A6D0DA85A6A7ABE
:10F030000BCF0EE49DFF099327AE000AB19E077D1A
:10F0400044930FF0D2A3088768F2011EFEC206693E
:10F050005D5762F7CB67658071366C19E7066B6E9A
:10F06000761BD4FEE02BD3895A7ADA10CC4ADD67BE
:10F070006FDFB9F9F9EFBE8E43BEB717D58EB0601A
:10F08000E8A3D6D67E93D1A1C4C2D83852F2DF4FBE
:10F09000F167BBD16757BCA6DD06B53F4B36B2481A
:10F0A000DA2B0DD84C1B0AAFF64A0336607A0441BE
:10F0B000C3EF60DF55DF67A8EF8E6E3179BE69461A
:10F0C0008CB361CB1A8366BCA0D26F2536E268523E
:10F0D00095770CCC03470BBBB91602222F2605559A
:10F0E000BE3BBAC5280BBDB2925AB42B046AB35CBE
:10F0F000A7FFD7C231CFD0B58B9ED92C1DAEDE5B1A
:10F10000B0C2649B26F263EC9CA36A750A936D02FD
:10F11000A906099C3F360EEB856707721357000559
:10F12000824ABF95147AB8E2AE2BB17B381BB60C7D
:10F130009B8ED2920DBED5E5B7EFDC7C21DFDB0BD9
:10F14000D4D2D38642E2D4F1F8B3DD686E83DA1FFD
:10F15000CD16BE815B26B9F6E177B06F7747B71859
:10F16000E65A0888706A0FFFCA3B06665C0B0111FD
:10F17000FF9E658F69AE62F8D3FF6B6145CF6C1659
:10F1800078E20AA0EED20DD75483044EC2B30339FD
:10F19000612667A7F71660D04D476949DB776E3E59
:10F1A0004A6AD1AEDC5AD6D9660BDF40F03BD8377D
:10F1B00053AEBCA9C59EBBDE7FCFB247E9FFB530D9
:10F1C0001CF2BDBD8AC2BACA3093B353A6A3B424FD
:10F1D0000536D0BA9306D7CD2957DE54BF67D92359
:10F1E0002E7A66B3B84A61C4021B685D942B6F2AFD
:10F1F00037BE0BB4A18E0CC31BDF055A8DEF022D59
:10F2000010B5C20018231340FF249C40E243890735
:10F21000090E994003000FD40D4C83089B00E3189E
:10F220001C682240114319600121C006C00E8140B4
:10F2300008480160084809E0084B0007000F08383B
:10F2400080088000181803681A401143016010BD3F
:10F2500000E400E080E200E000E100E01CED00E0FE
:10F260001CB50178514C012922D140680178201D3C
:10F2700000F001FE616A002804D001226B461A707A
:10F28000019007E0E0682269101A012804D10020EB
:10F290006A46107068468847E06821892269101A1A
:10F2A00081422AD301212000293000F05FFF13BDE5
:10F2B000022909D16A461170C0680190012120001D
:10F2C000293000F053FF15E0002916D12100283124
:10F2D0002000143000F0DCFD002804D101212000C2
:10F2E000283000F094FEE069216A081A05D1032055
:10F2F000694608706846616A884713BDF0B589B0F1
:10F3000004000D001F00294E7262002D01D107205C
:10F3100039E06A6892B22968301D00F097FD002834
:10F3200031D1EA6892B2A9683000143000F08EFD45
:10F33000002828D1684600BF1EA12022FCF798FEB5
:10F34000A06806902079002800D001206946087541
:10F350000F776079002800D00E204875E078029081
:10F36000A07803902078019060780090104968465A
:10F3700000F00EFE002806D100F01CFF0121300035
:10F38000293000F0F3FE09B0F0BD38B50400074D98
:10F390002C700121280000F03AFE112804D1210030
:10F3A0002800143000F067FD32BD0000A0390020B5
:10F3B00061F20100090000000B0000000A000000DB
:10F3C00008000000000000000000000000509D0048
:10F3D000030000000870000A4870022070477CB5E6
:10F3E00004000D0028880930824201D20C2076BD2D
:10F3F000684671DF00281FD10820298860542888BA
:10F40000401C28801B2180B221542888401C288061
:10F410006E460622711C80B22018FCF715FE288863
:10F42000801D28803278002A00D0012280B2225428
:10F430002888401C2880002076BD39B581B00C009A
:10F440000178012904D14078002801D107203EBD70
:10F450001588A81C834222D3012905D10198407840
:10F460002818801C83421AD3581B831E68460380C9
:10F47000694610882018801C7DDF002830D1019853
:10F480000178082002290ED16D462D8899B2A94233
:10F4900007D269460B8069460988FF290ED30C20E4
:10F4A0003EBD0920F7E70129F3D1019D6D7899B29E
:10F4B000A94200D929006B461980ECE76946098802
:10F4C000491C1388E1541188491C118089B2605489
:10F4D0001088401C10806946098840181080002060
:10F4E0003EBDF7B584B000240C9D2888029000260C
:10F4F00004E02888097840182880761C0498008841
:10F50000864234DA01A804994968B20089180A8849
:10F5100002804A8842800022694665DF002833D194
:10F5200068460078097E8842E7D1002C01D000208F
:10F5300000E0022029886A46928E6F463F78CF19F4
:10F54000381882421CDB002C09D1491C29806846EE
:10F55000007D89B258542888401C288001242888BE
:10F560001A18694601A865DF0028C2D00CE0002CFB
:10F5700009D028880299401A401E80B2FF2801DD78
:10F580000C2001E05854002007B0F0BDFEB5060085
:10F590001700089D099C019400950222FFF7A1FF26
:10F5A000002807D101940095029B102239003000F9
:10F5B000FFF797FFFEBD7CB582B005000C001188F7
:10F5C000881D834201D20C2014E028886A461080EE
:10F5D00068460288062A0CDB1D4B1E4EB24201DB38
:10F5E0009A4206D16888062803DBB04204DB9842C1
:10F5F00008D0072004B070BD9A4203D06A46128832
:10F600009042F6D30520605402980088401C02996D
:10F610000880122180B2215402980088401C02996F
:10F62000088080B221182888FFF7D4FE0299098843
:10F6300008180299088080B221186888FFF7CAFE6E
:10F64000029909880818029908800020D2E7000072
:10F65000FFFF0000810C000070B504000E001500D3
:10F66000A088801C29880A18921C934201D3FF2885
:10F6700001D30C2070BD401C70542888401C288089
:10F68000FF2180B231542888401C288080B2311874
:10F690002088FFF79FFE298808182880A28811007B
:10F6A0000CD0A168002901D1072070BD80B23018AC
:10F6B000FCF7CAFC2888A18840182880002070BD6B
:10F6C000F1B50F001600806A002836D0002408E04B
:10F6D00080B23818FCF7B8FC3088A9884018308010
:10F6E000641C009928310979E0B2884227D2009839
:10F6F000806AE4B20C2161434518A888801CFF2869
:10F7000001D30C20F2BD401C318878543088401C55
:10F710003080162180B239543088401C308080B24D
:10F7200039182888FFF756FE318808183080AA88D3
:10F730001100D5D0A9680029CAD10720F2BD002048
:10F74000F2BDFEB506000D001400002021886A46B7
:10F750001181208031002C3189681122002913D0B9
:10F7600009786B461B89032B3BD302232B7023881C
:10F770005B1C23809BB2EA5423885B1C23809BB2D2
:10F78000E9542188491C218031002C314968002925
:10F790001DD00091238869460F89190012318F42CC
:10F7A0001FD3EA542188491C2180102289B26A544F
:10F7B0002188491C21800F21009A525C2388EA5439
:10F7C000491E2288521C228049B20029F4D53100FA
:10F7D0002C3189780A0025D0228868460389D01CFC
:10F7E000834278D30220A8542088401C20801C2209
:10F7F00080B22A542088401C208001290BD02CD3B1
:10F80000032904D005D3042927D1032104E00221D0
:10F8100002E0012100E0002180B229542088401C30
:10F820002080002031002C314978002907D068461B
:10F83000028921002800FFF7D2FD00280CD1B17801
:10F84000002922D0684600892188091D884242D3B8
:10F85000684679DF002802D0FEBD0720FEBD0320E8
:10F86000218868542088401C2080192180B22954A6
:10F870002088401C208080B2291868460088FFF745
:10F88000A9FD2188081820800020F1780A0017D0EF
:10F8900049B2228868460389D01C83421BD30220C8
:10F8A000A8542088401C2080012280B22A5420883D
:10F8B000401C208080B229542088401C20800020D9
:10F8C000716800291AD000200956228868460389E9
:10F8D000D01C834201D20C20FEBD0220A8542088F7
:10F8E000401C20800A2280B22A542088401C20809C
:10F8F00080B229542088401C2080002031890029B2
:10F900000CD068460089019000942B000622022149
:10F9100030000830FFF73AFE00284ED1318A002926
:10F920000CD068460089019000942B000722032127
:10F9300030001030FFF72AFE00283ED1318B00291D
:10F940000CD068460089019000942B0015221421E8
:10F9500030001830FFF71AFE00282ED1376A002F2A
:10F9600008D068460389220029003800FFF723FEEB
:10F97000002822D1776A002F08D068460389220028
:10F9800029003800FFF768FE002816D12C21715C91
:10F99000002908D068460389220029003000FFF7BB
:10F9A0008FFE002809D13178002906D068460389E6
:10F9B000220029003000FFF740FDFEBD70B592B077
:10F9C0000D001F216A4651801180002400280AD0B2
:10F9D000C17849070FD5921C09A9FFF7B2FE00288C
:10F9E0001ED109AE02E0002669464C80002D0DD0E4
:10F9F000E878002801D0072012E06A4601A9280013
:10FA0000FFF79FFE00280BD101AA02E00022684602
:10FA1000048068460388DBB24188C9B2300072DFD7
:10FA200012B070BDF0B58FB00400032101A8FFF73C
:10FA3000D5F9112501A8057045708178F9220A4091
:10FA40000221114381701C2108A8FFF7C7F908A8FB
:10FA500000781021014308A80170002609960B9632
:10FA60000C9601A80D900E9602A8217881700327AC
:10FA7000032101806846FFF7B1F9684605704570BB
:10FA80008178E3220A4017438770142103A8FFF707
:10FA9000A5F902A803906846049003A801210181FA
:10FAA00046811421818123000C3303AA08A96088B0
:10FAB000A2DF0FB0F0BD30B58FB004001C2107A845
:10FAC000FFF78CF96846007F0C21014368460177F7
:10FAD000002508950A950B950C950D9501A82178A0
:10FAE00081700221018003216846FFF777F9112018
:10FAF0006946087048708878E3220240032010436A
:10FB00008870142102A8FFF769F901A802906846DD
:10FB1000039002A801210181458114218181231DC7
:10FB200002AA07A96088A2DF0FB030BD002800D16B
:10FB3000704710B5002924D00A88102A04D0112A51
:10FB400004D0502A05D010BD898800E03A4981824E
:10FB500010BDCA88048AA2420AD1CB8B022B07D1DE
:10FB60002022895CC907C90F00D00121817510BD11
:10FB700083889A4205D183691A0002D0CA8B20314A
:10FB8000984710BD30B585B004000D0001A800BF36
:10FB90002AA11022FCF76CFA002C01D0002D01D113
:10FBA0000E201FE02448A0822868A0610020A075D4
:10FBB000210001A863DF002814D1684621788170F4
:10FBC00001210180A21C69460120A0DF002809D183
:10FBD00029002000FFF726FF002803D1290020007C
:10FBE000FFF769FF05B030BD74B585B0002801D1BD
:10FBF0000E201FE0828A104B9A4202D0827D002A9A
:10FC000001D1082016E06A46928A152A01DB0720F6
:10FC100010E06A46002300240025002678C26A46C8
:10FC200083891380039105A902910121917069468E
:10FC3000808AA6DF06B070BDFFFF00009ECADC24EC
:10FC40000EE5A9E093F3A3B50000406E80B5FDF783
:10FC5000FDFD01BDFEB54E4C207800283AD00027AE
:10FC600001262069002801D1009600E00097E06895
:10FC7000002800D1012700BF48A5009800280FD117
:10FC800001A852DF052801D1009609E0002804D020
:10FC90002A00A921FDF768FD02E001982169884743
:10FCA000002F13D160886946088102A9A06861DF2E
:10FCB000052801D1012709E0002804D02A00C82125
:10FCC000FDF752FD02E0A068E16888470098C0B2E5
:10FCD0003842D0D0F7BD10B500290ED08C070CD11A
:10FCE0002B4CA160628063602A4910DF002803D199
:10FCF0000120207016202EDF10BD072010BD01004E
:10FD000001D10E2070472249C860002070470100D1
:10FD100001D10E2070471E49086100207047000085
:10FD200080B51B484068010008D08047002807D0F4
:10FD30001AA2BB214900FDF717FD01BDFFF78AFF9D
:10FD400001BD70B504000D00160014213000FFF74E
:10FD500045F80120308000213161317BFE220A40CC
:10FD6000327335727472002C00D0B072002070BDF6
:10FD700081B0094900910099002001B0704782B01C
:10FD80000549019101990091694660DF02B0704711
:10FD9000883A00204DFC0100001F0020433A5C47D8
:10FDA00069745F576F726B53706163655C41442D7A
:10FDB00031315C6669726D776172655C53444B5C8E
:10FDC000736F66746465766963655C636F6D6D6F90
:10FDD0006E5C736F66746465766963655F68616E97
:10FDE000646C65725C736F66746465766963655F85
:10FDF00068616E646C65722E6300000012420FD061
:10FE0000814202D25318984203D310B5FCF71CF973
:10FE100008BD80185B1E1978401E0170521EF9D172
:10FE2000704710B50268C36884882340D154C16804
:10FE3000491CC16010BD10B50268836884882340E6
:10FE4000D25C0A708168491C816010BD10B5002920
:10FE500001D10E2010BD130003D0531E14001C400E
:10FE600001D0092010BD0160511E818000218160F8
:10FE7000C160002010BD10B58268C36884889A1ADA
:10FE8000944203D3FFF7CDFF002010BD042010BD26
:10FE900080B58268C3689A1A03D0FFF7CCFF0020B0
:10FEA00002BD052002BDFEE74058002804E0C12243
:10FEB000920080580140080000D00120C0B2704775
:10FEC000804B01E0A123DB00C01801608260704715
:10FED00052000A4399001143009A12020A43019901
:10FEE000090411439E4A80001150704700B583B049
:10FEF000002101910091002301220121FFF7E8FF79
:10FF000007BD00B583B00022019200920B000021D2
:10FF1000FFF7DEFF07BDF8B504002068FFF7E6FF36
:10FF20000125694F20680121814039600021606806
:10FF3000FFF7E7FF6548A1690160617D227D0A4303
:10FF40008264A14E626821683000FFF7B9FF207D0E
:10FF500001280ED10021A068FFF7D3FFE068FFF76A
:10FF6000C5FFE06885403D60A268E1683000FFF7AA
:10FF7000A9FFF1BD80B57B4900220A608A627A49F7
:10FF8000984A116001000220FFF73AF901BD000014
:10FF900070B505000C008D4EF07E002801D00820C1
:10FFA00070BD002D01D100BF0AA52800FFF7B3FFE7
:10FFB000746028693060002C02D0287FFFF7DAFFD8
:10FFC00004209149086000203076F0820121F1760A
:10FFD000B07670BD090000000B0000000A000000B0
:10FFE00008000000000000000000000000509D001C
:10FFF0000300000000205B49086074488168828A21
:020000040002F8
:10000000895C828A521C8282804801607047F8B500
:100010006E4CA27D002A01D01120F2BDA175A06016
:100020000020A08200904F490860674F0120B8600F
:10003000FFF7E0FF6068002825D1BD0D8E26760011
:100040000DE031003800FFF72FFF002802D1A08A11
:10005000A842F6D1A08AA84201D0FFF7CBFFA08A20
:10006000A17D8842EDD3A08AA84202D10F20009042
:1000700007E031003800FFF717FF0028F9D0012012
:10008000F8600020A0750098F2BD61480021C161B0
:1000900001600120A2490860704710B55D495C4AC3
:1000A0000023A048C47D002C136001D1086810BD56
:1000B000427E0968C3689954417E491C417610BD4F
:1000C000000000000C050000080500502425004039
:1000D000F8B53E48807E024301D1FFF7D6FF3B488A
:1000E0004068002836D190490860374F9221490076
:1000F0003800FFF7D9FE0400842149003800FFF7DB
:10010000D3FE0500A22149003800FFF7CDFE06000E
:10011000284321000143E9D03100214307D1FFF7F3
:10012000BCFF2A48407E2949C97D8842DED3002091
:100130002649C875002C01D00320F2BD002E01D045
:100140000F20F2BD0120897E002901D0386005E032
:10015000786003E081208000224908600020F2BD21
:10016000000700501C21004080000200F1B5002073
:100170000022164B5C681B4D8126B600270000D07C
:100180006E60DF7D002F0CD0187E002804D0002C7C
:1001900000D02E601120F2BD01220098186119765E
:1001A00004E0D975009CDC60587618760098FFF75B
:1001B0008FFFF2BD10B55B4CA07E002803D1FFF786
:1001C00064FF0120A07610BD00200040543A0020BA
:1001D00000B585B06A460123137010720191514A2F
:1001E0000CE000000423004000B585B000216A4601
:1001F000117010724B4A90680190917511686846B1
:100200005268904705B000BD002500401C25004005
:100210000821004018250040F0B585B0414C8126EA
:10022000B60000253E4F790D3800FFF740FE00284C
:1002300021D0922149003800FFF736FE00281AD05D
:100240003B4885603B480660A07E002801D1012024
:10025000786068460221017034490A680A60039296
:10026000E17D0172E0680190E575257621686846B8
:100270006268904728E004213800FFF718FE002844
:1002800022D0842149003800FFF70EFE00281BD041
:10029000FFF703FFE07D617E884215D1E168227E91
:1002A000100006D0607EE2752269E26025766576F0
:1002B00008E0A07E002801D1012078601D4806607A
:1002C000E575607EFFF784FF8E2149003800FFF757
:1002D000EBFD00280CD0A07DA18A814202D2FFF75D
:1002E00089FE05E012490D60010001D0FFF77CFF97
:1002F000A22149003800FFF7D7FD00280ED00C4896
:100300008562A07E002801D001203860E07D0028B1
:1003100004D0E575E168607EFFF75AFF05B0F0BDD7
:1003200000200040543A0020442100408024004036
:100330001C2100400823004080B5FFF76DFF01BD80
:100340004058002800D00120C0B2704718B51C7872
:10035000944206D2095D904A81501878401C18706A
:1003600008E014300121039A002A02D081600020A5
:1003700012BD0160012012BD000030B51C7894420E
:100380000FD2A325ED0045590D551978491C197058
:10039000C9B2531E994205D102210A02815001219E
:1003A000016230BD9142FAD130BDFEB582B0040089
:1003B00000260878002811D1012510780AA90978AB
:1003C000884209D0019692277F0039002000FFF76C
:1003D000B7FF00280FD03CE00195F4E782204000F1
:1003E000201806628220400020188661822040008A
:1003F000201846603FE08E2149002000FFF7A0FF53
:10040000002815D082204000201886613900200085
:10041000FFF796FF00281CD10B980090039B0AA8B9
:10042000027804992000FFF791FF002820D12FE0E7
:10043000842149002000FFF783FF002818D0822084
:1004400040002018466039002000FFF779FF00289F
:1004500007D082204000201806626561029805706E
:1004600006E0039B0AA8027804992000FFF785FFA5
:10047000019800280BD0822149002000FFF760FF7F
:10048000002804D0822040002650002000E00120F7
:1004900005B0F0BDFCB583B004000D0000200026BF
:1004A00082214900691808600862886148608021DB
:1004B0008900685022002332D07023216054280024
:1004C00008300121816101600A9F009723002633D3
:1004D0006846027C03992800FFF738FF206800284F
:1004E00006D05F48A060A068C1218900685012E072
:1004F00001976846007C0090039B22002632210071
:1005000023312800FFF751FF0028F1D12320205C80
:10051000002800D00326300005B0F0BD0000F7B57C
:1005200004000D001F0000200026822149006918E8
:10053000086008628861486022002332D07023215D
:1005400060548020800028180121012F02D102224E
:10055000026000E00160296229602068002806D05E
:100560003F48A060A068C1218900685010E0019652
:100570000097029B22002632210023312800FFF73A
:1005800014FF0028F3D12320205C002800D003268C
:100590003000FEBD000000001C050000F0B585B075
:1005A00005000C0026002136307801902020205CC8
:1005B0000090E3692200263223312800FFF7F5FE80
:1005C000002844D1B07800281ED1207B022801D019
:1005D000032819D1E1692269914215D16269E2616A
:1005E000E37B20216354A1698906CF0F377003286C
:1005F00005D1009729002000FFF74CFF27E02900D4
:100600002000FFF78CFF22E06846001D21000C311E
:100610008CC98CC000200421B278002A0DD0124A67
:10062000AA18136813600222134201D0012201E0CC
:100630000B4004D06B461A7001E06B461870F070E6
:10064000A069014003D1616868462268904705B0FF
:10065000F0BD80B503490548FFF7A0FF01BD0000CC
:1006600086020000CC390020C40400000040004095
:10067000094940180068012800D000207047074A47
:10068000800010180268064B1340036002680904DA
:1006900011430160704700000060004000070050F7
:1006A000FFFFFCFFF8B50026009680256D000124B1
:1006B000042728B2FFF7DCFF002809D0394800687A
:1006C000204005D000202DB2324969180860264329
:1006D00064002D1D7F1EECD180273F06BE20400008
:1006E000FFF7C6FF002806D00020304908603E43CF
:1006F0002B4800680090300713D0012400253442B5
:100700000BD0AA0028488118086809688903890F56
:10071000C004C00E214B9A58904764006D1C042DF4
:10072000EDD3374035D000251C48401940214056B4
:100730000021C943884229D0C0B20600C0218E439F
:1007400016498A192023D25692008C5821001DD0B8
:100750000006870F1048B10040588003800F012128
:10076000B140009A0A4002D002280FD101E00328CC
:100770000CD1032F07D1022801D1032100E002216F
:100780003000FFF77CFF39003000A0476D1C042DBE
:10079000CAD3F1BD00600040000700505839002066
:1007A0001005005004630040106500407C6100406B
:1007B00038B5A322D200801802686B461A700A7FEF
:1007C0000C7DA24202D21B780C69A3540A7F521CF2
:1007D0000A77D2B2531C9BB20C7BA34202DA89681F
:1007E000C95C03E00D7DAB4202DAC97E416006E0E0
:1007F0001000A04203D3AA428041C00F32BD0120A5
:1008000032BD38B50C000025842149004550210037
:10081000FFF7CEFF00280BD1A07EFF2803D00121D7
:1008200081400848016065762571201D2168884750
:1008300031BD80B502490448FFF7E3FF01BD000068
:10084000143A0020080500500030004010B5F02296
:100850000F2018490B78012B1BD14B68034018D18E
:100860008B68134202D1CC6814400CD0F0241C4099
:10087000102C02D1CC68144005D01340302B08D185
:10088000CB68134005D10C4B0C4C2360E30B0C4C94
:1008900023600B78012B0CD14B68184009D1886874
:1008A0001040402805D1C868024002D10120054906
:1008B000086010BDE00F00F0DFFF07C00405004036
:1008C000186C00400806004070B40121002213E0BB
:1008D0000468001D0C4202D04D466D1E6419226052
:1008E000241D1B1F042BFAD225009E0701D5228050
:1008F000AD1C0B4000D02A700368001D002BE7D10F
:1009000070BC704730B501684118446862088A18A5
:100910008368E40701D54C461B19914201D10C3084
:1009200030BD0C7864B2491C0D78491C1D705B1CED
:10093000002C02D5641CF9D1EFE7641EF4D5ECE776
:100940000321064802680A430260054802680A4318
:100950000260044880470448004700002405004026
:10096000540500404D0802004B0A020010B507492B
:1009700079441831064C7C44163404E0081D0A689A
:10098000891888470100A142F8D110BD0800000075
:100990002400000035FFFFFF240D0000C02D0020C3
:1009A0000000000061FFFFFFC8000000E60000003B
:1009B000001F002000F00BF8002801D0FFF7D6FF41
:1009C000002000BF00BFFCF7E7FE00F002F80120A6
:1009D000704780B500F002F801BDFEE707463846D3
:1009E00000F002F8FBE7FEE780B500BF00BF024A57
:1009F00011001820ABBEFBE726000200686A6C7489
:100A00007A4C00006E616E004E414E00696E6600C9
:100A1000494E460038B505000C00200000F006F8ED
:100A2000A04200D00025280032BDFEE780B5024973
:100A300000F004F802BD00BFF428002010B5040047
:100A4000C0B2FEF7A2FC200010BD00BF00BF00BF77
:100A500000BFFFF7AFFFFEE7FEE7FEE7FEE7FEE7BA
:100A6000FEE7FEE7FEE7FEE7FEE7FEE7FEE7FEE75E
:100A7000810081008100810081008100810081006E
:100A8000810081008100810081008100810081005E
:100A9000D4000FAF2202930412C507E8091A1B1CE9
:100AA0001D1E2E81008100BD000124F4E500FEFF23
:100AB000E40002010002B7001F020401010839002E
:100AC0002058390020083900200839002008390052
