:020000040001F9
:10B00000F82C0020F9E801002BE101002FE10100FC
:10B010000000000000000000000000000000000030
:10B0200000000000000000000000000093E90100A3
:10B0300000000000000000009FE90100C1E90100DC
:10B04000C3E90100C5E9010021E60100EBE70100C9
:10B0500043E40100000000005DE60100B5C6010008
:10B06000C7E90100C9E90100C1CE0100CBE9010037
:10B07000CDE90100CFE90100D1E90100D3E90100E8
:10B080004DC4010087BF0100D5E90100D7E90100E7
:10B090009FBF0100D9E9010029E00100DBE90100BF
:10B0A000DDE90100DFE90100000000000000000010
:10B0B0000000000000000000000000000000000090
:10B0C000F8B50024B74DB848A200A91843689A18EB
:10B0D00013780B7053784B7093788B70D278CA705A
:10B0E000641C042CF0D32C2C38D2A0002E1804227F
:10B0F000311F684600F0A2FC6846A10719D1037809
:10B100004178017081784170C2788270C37000BF4D
:10B1100060A30778DF5D0770595C4170995C8170AE
:10B12000C178595CC17001780DA2A308D25C4A4075
:10B130000270310010390A78037853403370721C62
:10B140004B7846785E4016708B7886785E405670F5
:10B15000C978C07848409070641CC4E7F1BD000015
:10B160008D01020408102040801B366CD8AB4D9A2C
:10B170002F5EBC63C697356AD4B37DFAEFC59139AB
:10B1800072E4D3BD61C29F254A943366CC831D3AD5
:10B1900074E8CB8D01020408102040801B366CD867
:10B1A000AB4D9A2F5EBC63C697356AD4B37DFAEF78
:10B1B000C5913972E4D3BD61C29F254A943366CCF0
:10B1C000831D3A74E8CB8D01020408102040801BD7
:10B1D000366CD8AB4D9A2F5EBC63C697356AD4B334
:10B1E0007DFAEFC5913972E4D3BD61C29F254A94BF
:10B1F0003366CC831D3A74E8CB8D0102040810201D
:10B2000040801B366CD8AB4D9A2F5EBC63C6973519
:10B210006AD4B37DFAEFC5913972E4D3BD61C29FA0
:10B22000254A943366CC831D3A74E8CB8D01020421
:10B2300008102040801B366CD8AB4D9A2F5EBC6343
:10B24000C697356AD4B37DFAEFC5913972E4D3BDA0
:10B2500061C29F254A943366CC831D3A74E8CB00C3
:10B26000F1B500214F4A00238C004F4D2D682D1958
:10B27000ED182E786F463F783F013F19FF18D75DD4
:10B2800077402F705B1C042BEFDB491C0429EADBA1
:10B29000F1BD0000637C777BF26B6FC53001672BDB
:10B2A000FED7AB76CA82C97DFA5947F0ADD4A2AFBA
:10B2B0009CA472C0B7FD9326363FF7CC34A5E5F1C8
:10B2C00071D8311504C723C31896059A071280E276
:10B2D000EB27B27509832C1A1B6E5AA0523BD6B3CA
:10B2E00029E32F8453D100ED20FCB15B6ACBBE393A
:10B2F0004A4C58CFD0EFAAFB434D338545F9027F26
:10B30000503C9FA851A3408F929D38F5BCB6DA21DE
:10B3100010FFF3D2CD0C13EC5F974417C4A77E3D0A
:10B32000645D197360814FDC222A908846EEB81460
:10B33000DE5E0BDBE0323A0A4906245CC2D3AC6223
:10B340009195E479E7C8376D8DD54EA96C56F4EA2E
:10B35000657AAE08BA78252E1CA6B4C6E8DD741F3F
:10B360004BBD8B8A703EB5664803F60E613557B902
:10B3700086C11D9EE1F8981169D98E949B1E87E9BC
:10B38000CE5528DF8CA1890DBFE6426841992D0F6B
:10B39000B054BB164100C0091B2250434840C0B204
:10B3A00070470000EC32002064350020F0B585B015
:10B3B00000200390004801E06435002000680399F4
:10B3C0008900401802900778684602994978817090
:10B3D0000299897841700299C97801703800FFF7A5
:10B3E000D9FF04003800FFF7D5FFFFF7D3FF604017
:10B3F0006946C8703800FFF7CDFFFFF7CBFFFFF7B6
:10B40000C9FF694608713800FFF7C4FFFFF7C2FFA4
:10B41000FFF7C0FFFFF7BEFF68468078FFF7BAFF6F
:10B420006946487168468078FFF7B4FFFFF7B2FFBE
:10B4300068468078FFF7AEFFFFF7ACFFFFF7AAFF83
:10B440006946887168468078FFF7A4FFFFF7A2FF7E
:10B45000FFF7A0FFFFF79EFF68464078FFF79AFFCF
:10B4600068464078FFF796FFFFF794FF04006846B0
:10B470004078FFF78FFFFFF78DFFFFF78BFF050089
:10B4800068464078FFF786FFFFF784FFFFF782FFEB
:10B49000FFF780FF68460078FFF77CFF684600787A
:10B4A000FFF778FFFFF776FF68460078FFF772FF37
:10B4B000FFF770FFFFF76EFF060068460078FFF7A2
:10B4C00069FFFFF767FFFFF765FFFFF763FF684658
:10B4D000C0786946097941406846807848406946A5
:10B4E00049794140684680794840694649784140F9
:10B4F0004C406540684600786840464002980670B7
:10B500003800FFF747FF3800FFF744FFFFF742FF1F
:10B510003800FFF73FFFFFF73DFFFFF73BFF040059
:10B520003800FFF737FFFFF735FFFFF733FFFFF76F
:10B5300031FF68468078FFF72DFF694688716846BD
:10B540008078FFF727FFFFF725FF694648716846B7
:10B550008078FFF71FFFFFF71DFFFFF71BFF69460E
:10B56000087168468078FFF715FFFFF713FFFFF7B4
:10B5700011FFFFF70FFF68464078FFF70BFF6946A2
:10B58000C87068464078FFF705FFFFF703FF68467D
:10B590004078FFF7FFFEFFF7FDFEFFF7FBFE694671
:10B5A000C87168464078FFF7F5FEFFF7F3FEFFF736
:10B5B000F1FEFFF7EFFE68460078FFF7EBFE684606
:10B5C0000078FFF7E7FEFFF7E5FE05006846007824
:10B5D000FFF7E0FEFFF7DEFEFFF7DCFE0600684641
:10B5E0000078FFF7D7FEFFF7D5FEFFF7D3FEFFF792
:10B5F000D1FE7C4068468079604069464979414087
:10B600006846007948406946497841406846C078B4
:10B6100048406946C97941406846007848404540FD
:10B620006E40029846703800FFF7B4FE3800FFF70E
:10B63000B1FEFFF7AFFE04003800FFF7ABFEFFF7E7
:10B64000A9FEFFF7A7FE6946C8703800FFF7A2FE03
:10B65000FFF7A0FEFFF79EFEFFF79CFE684680788E
:10B66000FFF798FE68468078FFF794FEFFF792FE9A
:10B6700068468078FFF78EFEFFF78CFEFFF78AFEA4
:10B680006946087168468078FFF784FEFFF782FEFE
:10B69000FFF780FEFFF77EFE68464078FFF77AFEF0
:10B6A0006946487168464078FFF774FEFFF772FEFE
:10B6B0006946887168464078FFF76CFEFFF76AFEBE
:10B6C000FFF768FE6946C87168464078FFF762FE7A
:10B6D000FFF760FEFFF75EFEFFF75CFE684600784E
:10B6E000FFF758FE050068460078FFF753FEFFF7A6
:10B6F00051FE68460078FFF74DFEFFF74BFEFFF75F
:10B7000049FE060068460078FFF744FEFFF742FE58
:10B71000FFF740FEFFF73EFE7C406846C078604081
:10B7200069468978414068460079484069464979C8
:10B7300041406846807948406946C9794140684639
:10B740000078484045406E40029886703800FFF708
:10B7500021FE694688713800FFF71CFEFFF71AFECC
:10B760003800FFF717FEFFF715FEFFF713FE6946D7
:10B7700048713800FFF70EFEFFF70CFEFFF70AFED8
:10B78000FFF708FE68468078FFF704FE6846807879
:10B79000FFF700FEFFF7FEFD6946087168468078F6
:10B7A000FFF7F8FDFFF7F6FDFFF7F4FD6946C870F7
:10B7B00068468078FFF7EEFDFFF7ECFDFFF7EAFD46
:10B7C000FFF7E8FD68464078FFF7E4FD68464078FB
:10B7D000FFF7E0FDFFF7DEFD68464078FFF7DAFD92
:10B7E000FFF7D8FDFFF7D6FD6946C8716846407877
:10B7F000FFF7D0FDFFF7CEFDFFF7CCFDFFF7CAFD49
:10B8000068460078FFF7C6FD040068460078FFF739
:10B81000C1FDFFF7BFFD050068460078FFF7BAFDE0
:10B82000FFF7B8FDFFF7B6FD060068460078FFF7A2
:10B83000B1FDFFF7AFFDFFF7ADFDFFF7ABFD6846CC
:10B840008079784069464979414068468078484027
:10B850006946097941406846C07848406946497858
:10B8600041406846C0794840444065406E40029877
:10B87000C6700398401C0390042800DA9AE505B0CE
:10B88000F0BD000030B500212CA200232A4C246812
:10B8900064189D0064192578555D25705B1C042B88
:10B8A000F4DB491C0429F0DB30BD23480068417BF0
:10B8B000427A427342794272427842714170817891
:10B8C000827A827081728179827B82718173C17880
:10B8D000C279C270C27AC271C27BC272C173704730
:10B8E00000228B5C8354521C102AFADB704738B557
:10B8F0000C00150001002800FFF7F2FF0E4805605C
:10B900004460FFF7DDFB0A20FFF7AAFC0924FFF7DC
:10B91000CCFFFFF7B7FFE0B2FFF7A2FCFFF746FD51
:10B92000641E2006F3D1FFF7C0FFFFF7ABFF002036
:10B93000FFF796FC31BD00006435002052096AD53E
:10B940003036A538BF40A39E81F3D7FB7CE3398214
:10B950009B2FFF87348E4344C4DEE9CB547B943263
:10B96000A6C2233DEE4C950B42FAC34E082EA166AB
:10B9700028D924B2765BA2496D8BD12572F8F66482
:10B9800086689816D4A45CCC5D65B6926C704850FD
:10B99000FDEDB9DA5E154657A78D9D8490D8AB00B2
:10B9A0008CBCD30AF7E45805B8B34506D02C1E8FDB
:10B9B000CA3F0F02C1AFBD0301138A6B3A91114117
:10B9C0004F67DCEA97F2CFCEF0B4E67396AC742200
:10B9D000E7AD3585E2F937E81C75DF6E47F11A717E
:10B9E0001D29C5896FB7620EAA18BE1BFC563E4BB7
:10B9F000C6D279209ADBC0FE78CD5AF41FDDA83379
:10BA00008807C731B11210592780EC5F60517FA9B8
:10BA100019B54A0D2DE57A9F93C99CEFA0E03B4DE7
:10BA2000AE2AF5B0C8EBBB3C83539961172B047E5B
:10BA3000BA77D626E169146355210C7D124207D0EE
:10BA40008B0706D00B78491C0370401C521EF7D898
:10BA50007047830706D00B78491C0370401C521EA8
:10BA6000F9D1704770B4103A03D378C9103A78C04E
:10BA7000FBD2530701D318C918C001D508C908C0A3
:10BA8000D20704D30B880380891C801C002A01D5AF
:10BA90000B78037070BC7047002805D40121C006E4
:10BAA000C00E8140894801607047002805D40121FB
:10BAB000C006C00E8140864801607047002805D44A
:10BAC0000121C006C00E8140BD480160704710B51D
:10BAD000C20018231340FF249C40E2438907090E4B
:10BAE0009940002801D4B74B03E0B74B0007000F83
:10BAF000083880088000181803681A401143016054
:10BB000010BD0000401E00BF00BF00BF00BF00BF4F
:10BB100000BF00BF00BF00BF00BF00BF00BFF1D12A
:10BB2000704738B580208002A8490860A848802165
:10BB3000490201640160A74C012525602F20FFF711
:10BB4000E1FF6560A44C002525612F20FFF7DAFF97
:10BB5000E57031BDF8B5A04EF568002D38D0002451
:10BB6000C14800683169401A07023F0A28688742C5
:10BB70001CD33F1A24182800ED69017C002913D03A
:10BB80000021017442698169F36918000AD010002C
:10BB90009847002808D000BF0EA2FF21623100F0B4
:10BBA000B9FA01E008009047002DDFD1B078717834
:10BBB000814206D1401CB070C0B2022801D10020E1
:10BBC000B070B0788000301844611420FFF76DFF2A
:10BBD000F1BD0000433A5C4769745F576F726B5365
:10BBE000706163655C41452D30315C6669726D77CB
:10BBF0006172655C53444B5C6C6962726172696529
:10BC0000735C74696D65725C6170705F74696D6599
:10BC1000722E6300FFB5704AD068039010786946B1
:10BC20000871002069460B795C1E0C710121002B04
:10BC300045D093686C462479E4001B1900931B7867
:10BC400017E02C00ED69002D13D0BD42F9D1AC42B4
:10BC500007D1F669D660002E03D1AF4E3160106176
:10BC600011712E68ED69E561002D02D02C68A419D0
:10BC70002C60009D6D78DCB2AC42D3D0009C64682F
:10BC8000DBB218255D4364195B1C009EB678DDB2FB
:10BC9000B54200D100232578022D02D0032D07D014
:10BCA000E7E764680294D66834002500029FCAE77B
:10BCB000D468002CDDD02074E469D460F8E7D26841
:10BCC000039B9A4200D0012004B0F0BD00E100E0E7
:10BCD00000E200E0FCB5404AD168019113780021F0
:10BCE0001C00631EDBB2002C06D1D068019A904282
:10BCF00063D00120F6BDD46000282FD19468DD0008
:10BD0000641925786678B542EAD0666818276F43CB
:10BD1000F6196D1C2570A778EDB2BD4200D12170D7
:10BD200074683578012DE9D1257C002DE6D1B56800
:10BD30006560F568A5603569E5607569A561157987
:10BD4000002D00D0616065681669AE1B3602360AA8
:10BD5000BE4FBE4205D2A56875190AE00400E0692D
:10BD6000F1E71669751B2D022D0AA668B54202D2AD
:10BD7000751B256000E021606160A16001252574CC
:10BD8000E161D668002EB6D037682568AF4203D38C
:10BD90007D1B3560E661AEE700963768AF4205D29D
:10BDA000ED1B0096F669002E02D0F6E77F1B376088
:10BDB0002560E661009DEC619EE70020F6BD000075
:10BDC00080E200E000E400E01CED00E080E100E043
:10BDD0000813014004100140B0340020FEB5BF4FED
:10BDE000F86800283CD0006802901F4C2068009042
:10BDF00038690190BA4D00980199461A2E40F61CF8
:10BE0000F878002812D1B748802149020164016006
:10BE10001120FFF753FE1120FFF73EFE0120B2492B
:10BE200008602F20FFF76EFE0120F870029886420E
:10BE300000D20600019880192840E0632168009A2A
:10BE4000801A2840891A0D40ED1CA8420AD22068A9
:10BE5000E0632F20FFF756FE1120FFF726FEF7BD07
:10BE6000FFF75FFEF7BD000004150140F0B585B097
:10BE700000249A4D28690390E96802916A781100BC
:10BE8000AB789A420FD0491CC9B2022900D10021D7
:10BE90008A00AA185269019280180002000A2861DB
:10BEA0000120009001E0019400946970FFF7B2FE58
:10BEB0000600E868009900291FD00199009413E05A
:10BEC000C91A009EF3180093002313600190D069F3
:10BED000D368002B08D0039E009FF6193602360A5D
:10BEE00056609360D461019C002805D0020013685D
:10BEF0009942E5D2591A11600126E8602000FFF747
:10BF0000E9FE002801D1002E02D00298FFF766FF5B
:10BF10000020287105B0F0BD0810014010B542782E
:10BF2000521C8478D3B2A34200D100220478D3B249
:10BF3000A34201D1002010BD0A7041684078182248
:10BF40005043081810BDF0B583B00C0017001E0058
:10BF5000C00000906A4D01A9A868009A8018FFF7F8
:10BF6000DDFF002801D10420FEBD012101704460E5
:10BF70005E4909688160C760066108994161684649
:10BF80000079A968B4E080B55E480021016441648D
:10BF90008164C16401604160FFF7DCFD01BD80B5D3
:10BFA000FFF764FF01BDFBB5150003273D4204D137
:10BFB00000264A4C002D02D1A6600720FEBDFFF7E7
:10BFC000B0FD0298E0612770A56018350020A168D7
:10BFD000C20089180E704E706A4612798A704D60E0
:10BFE00069460979182251436D18401C0328EEDB7D
:10BFF000E6606670A6701420FFF760FD0321142030
:10C00000FFF765FD1420FFF747FD384D0098686085
:10C0100003211120FFF75BFD286820610020FEBD91
:10C02000374B9B68002B09D0130001D0002801D1A9
:10C03000072070470068037C002B01D00820704760
:10C04000037441744261002070470000FFFF7F00CD
:10C050002D480068C205D20D1CD0103AD10018201E
:10C06000084052B20321002A01D4284B03E0284B98
:10C070001207120F083A920892009A58C24090098B
:10C080000140012902D0032902D003E000207047BB
:10C090000120704702207047F8B504000D0017001A
:10C0A00017488068002808D0002C06D0052D01D242
:10C0B0000720F2BD6069002801D10820F2BD607C34
:10C0C000012801D12E0000E00026FFF7C1FF0097F4
:10C0D00033002A002100FFF736FFF2BDB034002004
:10C0E000FFFFFF0004130140001001400415014050
:10C0F000009A891848701420FFF7D7FC0020FEBD75
:10C10000B03400200011014004ED00E000E400E044
:10C110001CED00E0E0B56B461980019202906A4682
:10C120000021024800F05BF807BD0000014000005C
:10C13000BFF34F8F334834490860BFF34F8F00BFC0
:10C14000FDE7000010B584B000F090F800F0E8F8CA
:10C15000012801D0412806D18420800213DF00F09D
:10C160009BF8FFF7E5FF68463DA11CC91CC02748A6
:10C1700001902749684600F077F9264C200000F02E
:10C18000A9F900F090F900F097F90023221D112180
:10C190000020FFF708FF002804D000BF21A2612182
:10C1A000FFF7B8FF00F04DFA00F0A8FA00F0D2FB5C
:10C1B00000F050FC002000F095FC042077DF012007
:10C1C00047DF00F0A7FC144880218900416049083E
:10C1D000016000F071FE48DF00F0FFFCF9E780B578
:10C1E0000E48916801601188416051688160642047
:10C1F00000F085FE642000F082FEFFF799FF72B622
:10C20000FEE700000400FA050CED00E0A086010046
:10C2100021C20100F82C00200805005058350020EC
:10C2200070470000433A5C4769745F576F726B5305
:10C23000706163655C41452D30315C6669726D7774
:10C240006172655C4150505C626F6F746C6F6164C9
:10C2500065725C6D61696E5F626F6F742E63000062
:10C2600001000000581B0000010000001CB500BFC9
:10C2700074A003C86A4603C200F00BFF6B4C842015
:10C280008002206121000C31684600F01AFF6848E6
:10C290000EC80EC413BD0000F0B5842189020D68DC
:10C2A00085F3088848680024E443EFF30585002DF2
:10C2B00001D1A64600472546064621273FBAF0B4DD
:10C2C0000024002500260027F0B40620C0430047C4
:10C2D000F0BD70B5574E8025ED002A00F821890287
:10C2E0003000FFF7ABFB514C0C22210030000C302A
:10C2F000FFF7A4FBF82080022061290020000C3009
:10C3000000F009FF032000F088F800232A00310024
:10C3100020000C3000F0EEFE012000F07EF870BD31
:10C3200010B588B003A8102100F026FF68460C2144
:10C3300000F022FF0020C043842189020A68824263
:10C3400001D1002023E0394C6268002A06D08242E5
:10C3500004D0A068002801D0FF2801D1012016E0F8
:10C360003548824201D3022011E0002000F006FF90
:10C37000A16888420AD000206946087001236A46F5
:10C38000382103A800F0D0FB402000E0412008B095
:10C3900010BD10B5002802D02749884201D3C02023
:10C3A0008001224C84218902216181B220000C305D
:10C3B00000F0B1FE032000F030F80020606110BDF5
:10C3C000F8B506000800002E20D001001ED00500A0
:10C3D0002F008107890F07D00422511AC9B27F1894
:10C3E000FF22301800F0A0FE104C84208002206153
:10C3F00063699BB2BAB2310020000C3000F07AFEC3
:10C40000012000F00AF8606940196061F1BD0B4835
:10C4100003688B4200D142607047084908600848B1
:10C4200048604A688242FCD0486870472C3500203A
:10C430000CE003001C1F0020013001006C350020BF
:10C44000FFFFFF0F0FC40100000000004B48006811
:10C45000C00700D4704780B50020494908604948AA
:10C460004068804701BD000038B504004548416080
:10C470000178002915D101210170002C01D100BFE4
:10C480005BA4414D2078A8606068C003FA21890050
:10C4900001F09DF82860217A102001F0EFF80020CB
:10C4A00032BD082032BD0120344908603749086098
:10C4B00002203449087070470020354A04E03549AD
:10C4C00003069B0DD150401C334909688842F6D3BE
:10C4D00070470000F0B583B00700002569460D7174
:10C4E0002E480068C005C00D0424002814D0103860
:10C4F000C2001821114040B20322002801D4284B69
:10C5000003E0284B0007000F083880088000185807
:10C51000C8408009024000E00422009223A6012ABC
:10C520000BD001A836DF022801D172B605E0002841
:10C5300003D032006221FFF7EDFD1748016808299A
:10C540000AD23970491C01601748016801223B7802
:10C550009A400A4302600024009801280BD062B67A
:10C560006846007937DF022805D0002803D0320062
:10C570006E21FFF7CFFD2000FEBD00000403014047
:10C58000000101407C35002004050140000001400D
:10C59000000601403546526E9435002004ED00E05F
:10C5A00000E400E01CED00E008050140433A5C4770
:10C5B00069745F576F726B53706163655C41452DA1
:10C5C00030315C6669726D776172655C53444B5CB7
:10C5D000647269766572735F6E72665C7764745CB0
:10C5E0006E72665F6472765F7764742E630000001B
:10C5F00001000000581B00000100000052000A4327
:10C6000099001143009A12020A4301990904114347
:10C61000334A80001150704700B583B0002101916A
:10C620000091002301220121FFF7E8FF07BD00B5BB
:10C6300083B00022019200920B000021FFF7DEFF81
:10C6400007BD10B5002403E01A2C05D01B2C03D025
:10C6500001212000FFF7EBFF641C1F2CF4DB0021FD
:10C660000120FFF7E4FF03210A20FFF7E0FF032189
:10C670000B20FFF7DCFF0E20FFF7CEFF0D20FFF7AA
:10C68000CBFF0220FFF7C8FF164C04206060092092
:10C69000FFF7C2FF0820FFF7BFFF80208000206067
:10C6A000400820601120FFF7B7FF80208002606003
:10C6B00010BD000080B500200C4908600C480068DF
:10C6C0000C4948430C4900F082FFFF21C631401A53
:10C6D0000549088049680A0001D080B2884701BD39
:10C6E000000700500805005074350020007100401C
:10C6F0000875004094110000FF03000000B583B0EE
:10C700004A4A01210CA0FFF78BFC0022802109027C
:10C710004748FFF7C1FC6846464901800421C170C3
:10C720001421017111214171252181710021C171F3
:10C7300000F007F807BD0000F03400203E48006814
:10C74000704780B500F004F83B49086001BD000067
:10C75000F1B582B0008869460880394D6846008886
:10C76000A84201DA0020FEBD684600883549441819
:10C7700035484443314E0AE0002907D12800C8213A
:10C78000490000F024FF002900D1A4196D1C642188
:10C79000032768460088854207D2280000F017FF6B
:10C7A0002F40E9D10029F0D1E8E70025684600884C
:10C7B00000F00AFF01910BE0002808D168460088CC
:10C7C000C821490000F000FF002900D1A4196D1C08
:10C7D0000298C078401E85420ED200BF1BA0405D6B
:10C7E00070432418012DF2D1684600883842019820
:10C7F000E2D10028EAD1E1E702980079401E7043B7
:10C80000201802994979E1221201514340180299F6
:10C8100089793C22514340180299C9794018FEBDDC
:10C8200005480168491C01607047000021C80100EB
:10C83000F0340020E20700009C3500208051010008
:10C84000B20700004EF8FFFF8033E1011F1C1F1EDE
:10C850001F1E1F1F1E1F1E1F30B59DB038210EA8A2
:10C8600000F08AFC0EA802210170002585700521C8
:10C87000C1703821684600F07FFC012069460882BB
:10C88000824C2000383005900EA801F01BFA0028D9
:10C8900004D000BF86A28921FFF73CFC18212000AC
:10C8A00000F06AFC257065602572FA20C0002082C5
:10C8B000B42060821DB030BD70B50400734D2100FE
:10C8C00028001C3001F0B6FA688B00BF78A62188DA
:10C8D000102928D011291FD0132912D019291BD0B3
:10C8E0001A2902D0522903D070BDA079687670BD94
:10C8F000002300220021A9DF00281FD03200D4210C
:10C9000007E00023002285217FDF002816D03200B7
:10C91000CF21FFF7FFFB70BD002028765C486883BD
:10C92000280073DF70BD01202876FFF707FF594903
:10C930000860A08868830322042184DF70BD80B56D
:10C9400000F02FFB01BD80B50800D1B200F09EF9C8
:10C9500001BD000030B58BB04C4D002348222900AA
:10C960003C31082001F03BFB51A4002803D02200F9
:10C970005E21FFF7CFFB05AA0121002001F065FB36
:10C98000002803D022006421FFF7C4FB424801F0D5
:10C9900073FB002803D022006721FFF7BBFB05A82B
:10C9A00001F071FB002803D022006B21FFF7B2FBDE
:10C9B0003A4801F028FB002803D022006F21FFF73E
:10C9C000A9FB374801F027FB002803D02200732180
:10C9D000FFF7A0FB11206946087003A871DF00284B
:10C9E00003D022003121FFF795FB03222DA16846D9
:10C9F0007CDF002803D022003B21FFF78BFB01A83E
:10CA00000021002206C001A8182101805021418088
:10CA100001218180C8214900C1807ADF002803D02C
:10CA200022004521FFF776FB1F4800906946280049
:10CA30001C3001F02BFA002803D022005321FFF70D
:10CA400069FBFFF709FF0BB030BD13210F48408B86
:10CA500076DF70470D4873DF704770B506000D0034
:10CA6000152D12DA094C2A00310020001C3001F08B
:10CA70003FFA0E49884208D1C82000F040FA2A0047
:10CA8000310020001C3001F033FA70BD7028002006
:10CA9000FFFF0000181F0020001E0020B9C8010081
:10CAA0003FC901004146550047C90100043000005C
:10CAB000433A5C4769745F576F726B53706163658B
:10CAC0005C41452D30315C6669726D776172655CE1
:10CAD0004150505C7372635C757365725F626C6524
:10CAE0002E63000080B50849087800280AD16846FE
:10CAF00012DF6A461278002A02D001220A7002BDB3
:10CB0000022002BD082002BD9035002039DF7047A9
:10CB10003ADF704769480F210181002141818181FD
:10CB20007149411841607047F4B590B007000E009C
:10CB30001D0001A80C2100F01FFB781D694602783A
:10CB40000A7042784A705D4C68460078218A401A23
:10CB5000401E04283CD2B00001210143397000F08E
:10CB6000AFF804220100781CFEF768FF6846791DC3
:10CB700002780A7042784A701098002808D00A2D6E
:10CB800000DB09252A000146F81DFEF757FF04E0E7
:10CB9000092201A9F81DFEF751FF04AD280010304D
:10CBA00000210022002300264EC010223900280058
:10CBB0001030FEF743FF10227A48211804A8FEF730
:10CBC0003DFF04A84DDF102128002030FFF745FF6E
:10CBD00068460078208211B0F0BDF0B589B000271A
:10CBE00004A8142100F0C8FA01A80C2100F0C4FA2E
:10CBF000324D6D48007800280DD0287800280AD1E1
:10CC000001202870672069460871012301AA2C21A0
:10CC100004A8FFF789FF68890100AA89521A33D056
:10CC20006A682B8919401423594352181178561CED
:10CC3000401C688130780324020006D00440032C95
:10CC400022D1300000F0B2F81EE0481E694608709C
:10CC5000002000E0401C6A46127801B29142F9DBE4
:10CC6000102250482918701C00F040F800E07F1C8A
:10CC70006946097838B28842F9DB70780440012CA3
:10CC800002D1701C00F051F809B0F0BD70B50B4C2A
:10CC9000A58923896689AE1BB3420DDB66682B40EC
:10CCA00014225343F2181170531C0A00010018009B
:10CCB000FEF7C4FE6D1CA58170BD0000001F0020A2
:10CCC00010B582B00020694608706846FFF71EFF65
:10CCD000684600780828F8DB704C08212000FFF730
:10CCE00017FF200016BD00002C080000F0B585B02D
:10CCF00004000E00002C16D0002E14D01700102FA8
:10CD000011DB10070FD100250BE06A46310020002F
:10CD1000FEF7EDFD102269462000FEF78FFE10346D
:10CD20001035BD42F1DB05B0F0BD30B585B0040073
:10CD300001A80C2100F020FA20788008641C3E280D
:10CD40002ED1E01D694602780A7042784A70544D2F
:10CD50006846008828600422210008316846FEF7F2
:10CD60006DFE00986860042221000C316846FEF7D1
:10CD700065FE0098A8606868FFF70BFB68206946AD
:10CD80000871012301AA2C212000FFF7CDFEFFF737
:10CD9000A0FA44483E214170002141828182C18233
:10CDA00005B030BD1C08000088280020F8B50278C6
:10CDB0009308427892011A43851C8E1E394C608A72
:10CDC000824268D1401C6082A78A80210901F6B2A4
:10CDD000891BB94207DB32002900E0191C30FEF73D
:10CDE0002DFEB819A08260783E2854D1A28A2A4923
:10CDF00061182B4B5B68E68A9B1B93422BD12A4B15
:10CE00009A4228DAD2B220001C30FFF76FFFA18AC5
:10CE1000C9B220001C30FFF7D3FAFFF781FA41288E
:10CE200039D155206946087001236A462C21280013
:10CE3000FFF77AFE322000F062F8FFF706FE0A20C4
:10CE400000F05DF8BFF34F8F184819490860BFF331
:10CE50004F8F00BFFDE78025ED00AA421BDB2A00B3
:10CE600020001C30FFF742FF002120001C30FFF79C
:10CE7000A7FA142000F043F8E08A4019E082A08A63
:10CE8000421BA282100406D092B20A482118200048
:10CE90001C3001F037F9F1BD1C080000843500207A
:10CEA0002C350020001F0020010400000400FA05BA
:10CEB0000CED00E01C04000080B5FFF7FDFA01BD99
:10CEC00038B5002405480460034D2868010001D0EE
:10CED00080472C6031BD00008C35002040A100400F
:10CEE000401E00BF00BF00BF00BF00BF00BF00BFAB
:10CEF00000BF00BF00BF00BF00BFF1D1704701B548
:10CF000005E00098401E00900348FFF7E9FF0098F5
:10CF10000028F6D101BD0000E7030000714914228A
:10CF20005043081800210171C1803222C2600161A2
:10CF300041610181704770B56A4C6578082D1FD03A
:10CF400026787519EDB2082D01DB083DEDB21426E7
:10CF50007543651928716A6103C92A000C3203C23E
:10CF6000EB80049828810020A178002904D100F0EA
:10CF700061F8112800D100206178491C617070BDF2
:10CF8000042070BD38B50C0061880091236902004F
:10CF9000217820000830544DA468A4002C59A047E3
:10CFA00031BD38B54F4CA178002942D00021A17085
:10CFB000022802D0032834D031BD4C4843885B1C82
:10CFC000438022781B049B09142555436519ED887D
:10CFD000AB4214DB150041806078401E6070521C2B
:10CFE000D2B2082A00DB083A2270142068432018C5
:10CFF000011D0020FFF7C6FF2800FFF78FFF6078B4
:10D00000002816D0A078002813D100F013F80028CB
:10D010000FD011280DD02178142251436118091D19
:10D0200005E02078142148432018011D0D20FFF74A
:10D03000A9FF31BD38B50F202A4C21781422514365
:10D0400061180B1DDA6829494D881978012902D029
:10D05000032911D018E0A80259880D1A1969091876
:10D060009B88181810188022D200954201D2AA0875
:10D0700000E0920829DF07E01D480168100089B22E
:10D0800000F0A5FA401928DF002801D10121A17084
:10D0900032BD70B50025154C65801248058085703D
:10D0A00000263000FFF73AFF761C082EF9D3002047
:10D0B00020800D4982008D50401C3228FAD3002078
:10D0C00070BD10B5094A1388322B01D1042010BD60
:10D0D0000B60006804499C0008515B1C1380002011
:10D0E00010BD00009C330020243200209835002021
:10D0F0001000001038B5032421420AD1CD18254272
:10D1000007D1009313000A0001000120FFF713FF6D
:10D1100032BD102032BD80B5002200920B0001000C
:10D120000320FFF708FF02BD1206130A1A43130C6F
:10D130001A4300BF094205D0830705D00270401C86
:10D14000491EF9D170470000130030B414001500D7
:10D15000103902D310393CC0FCD2490700D30CC0AF
:10D1600000D504C0890002D30280801C002900D5AC
:10D17000027030BC704700000022E5E730B50023A4
:10D1800006A408E00D7845402D06AD0D6559000A4E
:10D190006840491C5B1C9342F4D330BD0000000082
:10D1A000963007772C610EEEBA51099919C46D07B4
:10D1B0008FF46A7035A563E9A395649E3288DB0E0F
:10D1C000A4B8DC791EE9D5E088D9D2972B4CB609F2
:10D1D000BD7CB17E072DB8E7911DBF906410B71DCF
:10D1E000F220B06A4871B9F3DE41BE847DD4DA1A08
:10D1F000EBE4DD6D51B5D4F4C785D38356986C1339
:10D20000C0A86B647AF962FDECC9658A4F5C0114B1
:10D21000D96C0663633D0FFAF50D088DC8206E3B8F
:10D220005E10694CE44160D5727167A2D1E4033CA1
:10D2300047D4044BFD850DD26BB50AA5FAA8B535C8
:10D240006C98B242D6C9BBDB40F9BCACE36CD832B7
:10D25000755CDF45CF0DD6DC593DD1ABAC30D9265E
:10D260003A00DE518051D7C81661D0BFB5F4B42161
:10D2700023C4B3569995BACF0FA5BDB89EB802285E
:10D280000888055FB2D90CC624E90BB1877C6F2FE3
:10D29000114C6858AB1D61C13D2D66B69041DC76DE
:10D2A0000671DB01BC20D2982A10D5EF8985B171B7
:10D2B0001FB5B606A5E4BF9F33D4B8E8A2C9077866
:10D2C00034F9000F8EA8099618980EE1BB0D6A7FFD
:10D2D0002D3D6D08976C6491015C63E6F4516B6BB6
:10D2E00062616C1CD83065854E0062F2ED95066C6B
:10D2F0007BA5011BC1F4088257C40FF5C6D9B065E0
:10D3000050E9B712EAB8BE8B7C88B9FCDF1DDD623C
:10D31000492DDA15F37CD38C654CD4FB5861B24DA2
:10D32000CE51B53A7400BCA3E230BBD441A5DF4A6C
:10D33000D795D83D6DC4D1A4FBF4D6D36AE969432F
:10D34000FCD96E34468867ADD0B860DA732D0444DA
:10D35000E51D03335F4C0AAAC97C0DDD3C71055005
:10D36000AA41022710100BBE86200CC925B56857AC
:10D37000B3856F2009D466B99FE461CE0EF9DE5EF5
:10D3800098C9D9292298D0B0B4A8D7C7173DB359A6
:10D39000810DB42E3B5CBDB7AD6CBAC02083B8ED37
:10D3A000B6B3BF9A0CE2B6039AD2B1743947D5EA44
:10D3B000AF77D29D1526DB048316DC73120B63E373
:10D3C000843B64943E6A6D0DA85A6A7A0BCF0EE4D2
:10D3D0009DFF099327AE000AB19E077D44930FF08D
:10D3E000D2A3088768F2011EFEC206695D5762F784
:10D3F000CB67658071366C19E7066B6E761BD4FEC1
:10D40000E02BD3895A7ADA10CC4ADD676FDFB9F99D
:10D41000F9EFBE8E43BEB717D58EB060E8A3D6D65F
:10D420007E93D1A1C4C2D83852F2DF4FF167BBD18D
:10D430006757BCA6DD06B53F4B36B248DA2B0DD890
:10D440004C1B0AAFF64A0336607A0441C3EF60DF33
:10D4500055DF67A8EF8E6E3179BE69468CB361CB1C
:10D460001A8366BCA0D26F2536E2685295770CCC41
:10D4700003470BBBB91602222F260555BE3BBAC582
:10D48000280BBDB2925AB42B046AB35CA7FFD7C273
:10D4900031CFD0B58B9ED92C1DAEDE5BB0C2649B64
:10D4A00026F263EC9CA36A750A936D02A906099C97
:10D4B0003F360EEB8567077213570005824ABF950A
:10D4C000147AB8E2AE2BB17B381BB60C9B8ED2928D
:10D4D0000DBED5E5B7EFDC7C21DFDB0BD4D2D386E4
:10D4E00042E2D4F1F8B3DD686E83DA1FCD16BE8157
:10D4F0005B26B9F6E177B06F7747B718E65A088828
:10D50000706A0FFFCA3B06665C0B0111FF9E658FB8
:10D5100069AE62F8D3FF6B6145CF6C1678E20AA062
:10D52000EED20DD75483044EC2B30339612667A7E8
:10D53000F71660D04D476949DB776E3E4A6AD1AE37
:10D54000DC5AD6D9660BDF40F03BD83753AEBCA9C6
:10D55000C59EBBDE7FCFB247E9FFB5301CF2BDBD33
:10D560008AC2BACA3093B353A6A3B4240536D0BA3C
:10D570009306D7CD2957DE54BF67D9232E7A66B3D9
:10D58000B84A61C4021B685D942B6F2A37BE0BB486
:10D59000A18E0CC31BDF055A8DEF022DF446002827
:10D5A00004D4494200F013F8404260474042002949
:10D5B00005D45FD000F00BF8404249426047494231
:10D5C00000F005F84942604703460B43E6D40022C9
:10D5D000030A8B420BD203098B4219D243088B42B8
:10D5E0002ED2411A00D20146524110467047FF2206
:10D5F00009023FD012068B4205D3121209028B4258
:10D6000001D31212090203098B4219D300E0090A5F
:10D61000C3098B4201D3CB01C01A524183098B420B
:10D6200001D38B01C01A524143098B4201D34B01F4
:10D63000C01A524103098B4201D30B01C01A524157
:10D64000C3088B4201D3CB00C01A524183088B42DE
:10D6500001D38B00C01A524143088B4201D34B00C7
:10D66000C01A5241884200D3401A5241CFD20146DB
:10D670001046704708B500F059FD08BD10B5C2004E
:10D6800018231340FF249C40E2438907090E994068
:10D6900003000FD40D4C83089B00E3181C68224044
:10D6A000114319600121C006C00E81400848016085
:10D6B000084809E0084B0007000F08388008800080
:10D6C000181803681A401143016010BD00E400E01F
:10D6D00080E200E000E100E01CED00E00870000ADC
:10D6E0004870022070477CB504000D00288809307E
:10D6F000824201D20C2076BD684671DF00281FD11E
:10D700000820298860542888401C28801B2180B26A
:10D7100021542888401C28806E460622711C80B245
:10D720002018FEF78BF92888801D28803278002A7F
:10D7300000D0012280B222542888401C288000207A
:10D7400076BD39B581B00C000178012904D140784B
:10D75000002801D107203EBD1588A81C834222D392
:10D76000012905D1019840782818801C83421AD3DA
:10D77000581B831E68460380694610882018801C49
:10D780007DDF002830D101980178082002290ED1D0
:10D790006D462D8899B2A94207D269460B80694629
:10D7A0000988FF290ED30C203EBD0920F7E7012987
:10D7B000F3D1019D6D7899B2A94200D929006B4639
:10D7C0001980ECE769460988491C1388E1541188DF
:10D7D000491C118089B260541088401C1080694631
:10D7E00009884018108000203EBDF7B584B00024A1
:10D7F0000C9D28880290002604E0288809784018AB
:10D800002880761C04980088864234DA01A804999E
:10D810004968B20089180A8802804A88428000223A
:10D82000694665DF002833D168460078097E884262
:10D83000E7D1002C01D0002000E0022029886A46B0
:10D84000928E6F463F78CF19381882421CDB002C2D
:10D8500009D1491C29806846007D89B2585428881E
:10D86000401C2880012428881A18694601A865DF11
:10D870000028C2D00CE0002C09D028880299401A58
:10D88000401E80B2FF2801DD0C2001E0585400202A
:10D8900007B0F0BDFEB506001700089D099C019475
:10D8A00000950222FFF7A1FF002807D101940095FF
:10D8B000029B102239003000FFF797FFFEBD7CB5B8
:10D8C00082B005000C001188881D834201D20C2013
:10D8D00014E028886A46108068460288062A0CDB15
:10D8E0001D4B1E4EB24201DB9A4206D168880628C3
:10D8F00003DBB04204DB984208D0072004B070BDBF
:10D900009A4203D06A4612889042F6D305206054AA
:10D9100002980088401C02990880122180B221548C
:10D9200002980088401C0299088080B2211828883B
:10D93000FFF7D4FE0299098808180299088080B27E
:10D9400021186888FFF7CAFE029909880818029909
:10D9500008800020D2E70000FFFF0000810C0000DB
:10D9600070B504000E001500A088801C29880A18D4
:10D97000921C934201D3FF2801D30C2070BD401CA0
:10D9800070542888401C2880FF2180B23154288898
:10D99000401C288080B231182088FFF79FFE29881C
:10D9A00008182880A28811000CD0A168002901D194
:10D9B000072070BD80B23018FEF740F82888A18893
:10D9C00040182880002070BDF1B50F001600806A55
:10D9D000002836D0002408E080B23818FEF72EF870
:10D9E0003088A98840183080641C00992831097952
:10D9F000E0B2884227D20098806AE4B20C216143E9
:10DA00004518A888801CFF2801D30C20F2BD401CBB
:10DA1000318878543088401C3080162180B23954C7
:10DA20003088401C308080B239182888FFF756FEB5
:10DA3000318808183080AA881100D5D0A96800293B
:10DA4000CAD10720F2BD0020F2BDFEB506000D00D0
:10DA50001400002021886A461181208031002C3179
:10DA600089681122002913D009786B461B89032B82
:10DA70003BD302232B7023885B1C23809BB2EA5488
:10DA800023885B1C23809BB2E9542188491C218098
:10DA900031002C31496800291DD000912388694646
:10DAA0000F89190012318F421FD3EA542188491C73
:10DAB0002180102289B26A542188491C21800F21BB
:10DAC000009A525C2388EA54491E2288521C228004
:10DAD00049B20029F4D531002C3189780A0025D0CB
:10DAE000228868460389D01C834278D30220A85438
:10DAF0002088401C20801C2280B22A542088401C90
:10DB0000208001290BD02CD3032904D005D304296C
:10DB100027D1032104E0022102E0012100E00021DD
:10DB200080B229542088401C2080002031002C31F4
:10DB30004978002907D06846028921002800FFF7AC
:10DB4000D2FD00280CD1B178002922D06846008986
:10DB50002188091D884242D3684679DF002802D017
:10DB6000FEBD0720FEBD0320218868542088401C8C
:10DB70002080192180B229542088401C208080B246
:10DB8000291868460088FFF7A9FD21880818208019
:10DB90000020F1780A0017D049B22288684603892C
:10DBA000D01C83421BD30220A8542088401C208014
:10DBB000012280B22A542088401C208080B229543F
:10DBC0002088401C20800020716800291AD0002085
:10DBD0000956228868460389D01C834201D20C2052
:10DBE000FEBD0220A8542088401C20800A2280B25A
:10DBF0002A542088401C208080B229542088401C50
:10DC000020800020318900290CD0684600890190CD
:10DC100000942B000622022130000830FFF73AFE64
:10DC200000284ED1318A00290CD068460089019025
:10DC300000942B000722032130001030FFF72AFE4A
:10DC400000283ED1318B00290CD068460089019014
:10DC500000942B001522142130001830FFF71AFE13
:10DC600000282ED1376A002F08D068460389220089
:10DC700029003800FFF723FE002822D1776A002F01
:10DC800008D068460389220029003800FFF768FEA3
:10DC9000002816D12C21715C002908D06846038920
:10DCA000220029003000FFF78FFE002809D13178CB
:10DCB000002906D068460389220029003000FFF7BA
:10DCC00040FDFEBD70B592B00D001F216A46518027
:10DCD0001180002400280AD0C17849070FD5921C72
:10DCE00009A9FFF7B2FE00281ED109AE02E0002606
:10DCF00069464C80002D0DD0E878002801D007201F
:10DD000012E06A4601A92800FFF79FFE00280BD108
:10DD100001AA02E000226846048068460388DBB25C
:10DD20004188C9B2300072DF12B070BDF0B58FB05B
:10DD30000400032101A8FFF71FFA112501A80570AF
:10DD400045708178F9220A400221114381701C211B
:10DD500008A8FFF711FA08A800781021014308A8C5
:10DD60000170002609960B960C9601A80D900E9650
:10DD700002A8217881700327032101806846FFF7FC
:10DD8000FBF96846057045708178E3220A40174325
:10DD90008770142103A8FFF7EFF902A803906846E3
:10DDA000049003A80121018146811421818123006F
:10DDB0000C3303AA08A96088A2DF0FB0F0BD30B50C
:10DDC0008FB004001C2107A8FFF7D6F96846007F32
:10DDD0000C21014368460177002508950A950B95AB
:10DDE0000C950D9501A821788170022101800321F5
:10DDF0006846FFF7C1F911206946087048708878B5
:10DE0000E3220240032010438870142102A8FFF788
:10DE1000B3F901A802906846039002A8012101818C
:10DE2000458114218181231D02AA07A96088A2DFF0
:10DE30000FB030BD002800D1704710B5002924D0A4
:10DE40000A88102A04D0112A04D0502A05D010BD07
:10DE5000898800E03A49818210BDCA88048AA242BA
:10DE60000AD1CB8B022B07D12022895CC907C90FAD
:10DE700000D00121817510BD83889A4205D1836944
:10DE80001A0002D0CA8B2031984710BD30B585B03A
:10DE900004000D0001A800BF2AA11022FDF7E2FD39
:10DEA000002C01D0002D01D10E201FE02448A082BB
:10DEB0002868A0610020A075210001A863DF002868
:10DEC00014D168462178817001210180A21C694625
:10DED0000120A0DF002809D129002000FFF726FF3C
:10DEE000002803D129002000FFF769FF05B030BDED
:10DEF00074B585B0002801D10E201FE0828A104B36
:10DF00009A4202D0827D002A01D1082016E06A469A
:10DF1000928A152A01DB072010E06A4600230024BC
:10DF20000025002678C26A4683891380039105A9DB
:10DF30000291012191706946808AA6DF06B070BD0A
:10DF4000FFFF00009AC22CA43EA5A9E093F3A3B55D
:10DF50000000406E80B5FEF742F901BDFEB54E4CA3
:10DF6000207800283AD0002701262069002801D116
:10DF7000009600E00097E068002800D1012700BF6C
:10DF800048A5009800280FD101A852DF052801D12B
:10DF9000009609E0002804D02A00A921FEF7BAF86B
:10DFA00002E0019821698847002F13D160886946F3
:10DFB000088102A9A06861DF052801D1012709E0D5
:10DFC000002804D02A00C821FEF7A4F802E0A068C7
:10DFD000E16888470098C0B23842D0D0F7BD10B58C
:10DFE00000290ED08C070CD12B4CA160628063609D
:10DFF0002A4910DF002803D10120207016202EDFCF
:10E0000010BD072010BD010001D10E20704722492C
:10E01000C86000207047010001D10E2070471E49E2
:10E02000086100207047000080B51B48406801006F
:10E0300008D08047002807D01AA2BB214900FEF76C
:10E0400069F801BDFFF78AFF01BD70B504000D003E
:10E05000160014213000FFF78FF8012030800021D6
:10E060003161317BFE220A40327335727472002CAA
:10E0700000D0B072002070BD81B0094900910099B4
:10E08000002001B0704782B00549019101990091CB
:10E09000694660DF02B070474435002055DF01005B
:10E0A000001F0020433A5C4769745F576F726B53DF
:10E0B000706163655C41452D30315C6669726D77D6
:10E0C0006172655C53444B5C736F6674646576691A
:10E0D00063655C636F6D6D6F6E5C736F66746465B2
:10E0E000766963655F68616E646C65725C736F66A8
:10E0F000746465766963655F68616E646C65722ED1
:10E100006300000012420FD0814202D2531898429D
:10E1100003D310B5FDF792FC08BD80185B1E19787B
:10E12000401E0170521EF9D17047FEE77047FEE7AE
:10E130004058002800D00120C0B2704718B51C78A4
:10E14000944206D2095D904A81501878401C18709C
:10E1500008E014300121039A002A02D081600020D7
:10E1600012BD0160012012BD000030B51C78944240
:10E170000FD2A325ED0045590D551978491C19708A
:10E18000C9B2531E994205D102210A0281500121D0
:10E19000016230BD9142FAD130BDFEB582B00400BB
:10E1A00000260878002811D1012510780AA90978DD
:10E1B000884209D0019692277F0039002000FFF79E
:10E1C000B7FF00280FD03CE00195F4E78220400023
:10E1D00020180662822040002018866182204000BC
:10E1E000201846603FE08E2149002000FFF7A0FF85
:10E1F000002815D0822040002018866139002000B8
:10E20000FFF796FF00281CD10B980090039B0AA8EB
:10E21000027804992000FFF791FF002820D12FE019
:10E22000842149002000FFF783FF002818D08220B6
:10E2300040002018466039002000FFF779FF0028D1
:10E2400007D08220400020180662656102980570A0
:10E2500006E0039B0AA8027804992000FFF785FFD7
:10E26000019800280BD0822149002000FFF760FFB1
:10E27000002804D0822040002650002000E0012029
:10E2800005B0F0BDFCB583B004000D0000200026F1
:10E29000822149006918086008628861486080210D
:10E2A0008900685022002332D07023216054280056
:10E2B00008300121816101600A9F00972300263305
:10E2C0006846027C03992800FFF738FF2068002881
:10E2D00006D05F48A060A068C1218900685012E0A4
:10E2E00001976846007C0090039B220026322100A3
:10E2F00023312800FFF751FF0028F1D12320205CB3
:10E30000002800D00326300005B0F0BD0000F7B5AE
:10E3100004000D001F00002000268221490069181A
:10E32000086008628861486022002332D07023218F
:10E3300060548020800028180121012F02D1022280
:10E34000026000E00160296229602068002806D090
:10E350003F48A060A068C1218900685010E0019684
:10E360000097029B22002632210023312800FFF76C
:10E3700014FF0028F3D12320205C002800D00326BE
:10E380003000FEBD000000001C050000F0B585B0A7
:10E3900005000C0026002136307801902020205CFA
:10E3A0000090E3692200263223312800FFF7F5FEB2
:10E3B000002844D1B07800281ED1207B022801D04B
:10E3C000032819D1E1692269914215D16269E2619C
:10E3D000E37B20216354A1698906CF0F377003289E
:10E3E00005D1009729002000FFF74CFF27E0290006
:10E3F0002000FFF78CFF22E06846001D21000C3151
:10E400008CC98CC000200421B278002A0DD0124A99
:10E41000AA18136813600222134201D0012201E0FE
:10E420000B4004D06B461A7001E06B461870F07018
:10E43000A069014003D1616868462268904705B031
:10E44000F0BD80B503490548FFF7A0FF01BD0000FE
:10E450008602000088340020C40400000040004010
:10E460004058002804E0C122920080580140080072
:10E4700000D00120C0B27047002010490860104849
:10E480008168828A895C828A521C82821A48016071
:10E49000704710B51A49194A00235D48C47D002C05
:10E4A000136001D1086810BD427E0968C3689954A1
:10E4B000417E491C417610BD000000001C21004037
:10E4C0001035002000B585B06A4601231370107224
:10E4D00001914F4A0AE0000000B585B000216A466C
:10E4E000117010724A4A90680190917511686846DF
:10E4F0005268904705B000BD1C250040082100402F
:10E5000018250040F0B585B0414C8126B6000025A5
:10E510003E4F790D3800FFF7A6FF002821D0922149
:10E5200049003800FFF79CFF00281AD03A48856060
:10E530003A480660A07E002801D101207860684634
:10E540000221017033490A680A600392E17D017279
:10E55000E0680190E5752576216868466268904715
:10E5600028E004213800FFF77EFF002822D0842114
:10E5700049003800FFF774FF00281BD0FFF789FF20
:10E58000E07D617E884215D1E168227E100006D0D0
:10E59000607EE2752269E2602576657608E0A07EFD
:10E5A000002801D1012078601C480660E575607E76
:10E5B000FFF788FF8E2149003800FFF751FF002840
:10E5C0000CD0A07DA18A814202D2FFF755FF05E061
:10E5D00011490D60010001D0FFF77EFFA221490023
:10E5E0003800FFF73DFF00280ED00B488562A07E63
:10E5F000002801D001203860E07D002804D0E575B6
:10E60000E168607EFFF75EFF05B0F0BD00200040CE
:10E6100010350020802400401C21004008230040C9
:10E6200080B5FFF76FFF01BD094940180068012858
:10E6300000D000207047074A800010180268064B7F
:10E640001340036002680904114301607047000031
:10E650000060004000070050FFFFFCFFF8B50026F7
:10E66000009680256D000124042728B2FFF7DCFF07
:10E67000002809D039480068204005D000202DB27C
:10E68000324969180860264364002D1D7F1EECD1B5
:10E6900080273F06BE204000FFF7C6FF002806D0B7
:10E6A0000020304908603E432B4800680090300746
:10E6B00013D00124002534420BD0AA002848811829
:10E6C000086809688903890FC004C00E214B9A5855
:10E6D000904764006D1C042DEDD3374035D00025E4
:10E6E0001C484019402140560021C943884229D086
:10E6F000C0B20600C0218E4316498A192023D25683
:10E7000092008C5821001DD00006870F1048B100E0
:10E7100040588003800F0121B140009A0A4002D086
:10E7200002280FD101E003280CD1032F07D10228C2
:10E7300001D1032100E002213000FFF77CFF390006
:10E740003000A0476D1C042DCAD3F1BD006000400D
:10E7500000070050403400201005005004630040C2
:10E76000106500407C61004038B5A322D2008018BB
:10E7700002686B461A700A7F0C7DA24202D21B7897
:10E780000C69A3540A7F521C0A77D2B2531C9BB265
:10E790000C7BA34202DA8968C95C03E00D7DAB42C1
:10E7A00002DAC97E416006E01000A04203D3AA420B
:10E7B0008041C00F32BD012032BD38B50C000025AC
:10E7C0008421490045502100FFF7CEFF00280BD1DE
:10E7D000A07EFF2803D001218140084801606576B2
:10E7E0002571201D2168884731BD80B50249044844
:10E7F000FFF7E3FF01BD0000D03400200805005002
:10E800000030004010B5F0220F2018490B78012B82
:10E810001BD14B68034018D18B68134202D1CC68DE
:10E8200014400CD0F0241C40102C02D1CC681440B1
:10E8300005D01340302B08D1CB68134005D10C4BC9
:10E840000C4C2360E30B0C4C23600B78012B0CD198
:10E850004B68184009D188681040402805D1C86825
:10E86000024002D101200549086010BDE00F00F010
:10E87000DFFF07C004050040186C00400806004098
:10E8800070B40121002213E00468001D0C4202D084
:10E890004D466D1E64192260241D1B1F042BFAD2E5
:10E8A00025009E0701D52280AD1C0B4000D02A70A8
:10E8B0000368001D002BE7D170BC704730B50168BC
:10E8C0004118446862088A188368E40701D54C46F9
:10E8D0001B19914201D10C3030BD0C7864B2491C37
:10E8E0000D78491C1D705B1C002C02D5641CF9D1ED
:10E8F000EFE7641EF4D5ECE70321064802680A43FB
:10E900000260054802680A430260044880470448E0
:10E9100000470000240500405405004005E80100C0
:10E92000B5E9010010B5074979441831064C7C441B
:10E93000163404E0081D0A68891888470100A142BE
:10E94000F8D110BD080000002400000035FFFFFFD3
:10E95000A8080000F82C00200000000061FFFFFF65
:10E960008000000090000000001F002000F00BF865
:10E97000002801D0FFF7D6FF002000BF00BFFDF741
:10E98000E1FB00F002F80120704780B500F002F8CA
:10E9900001BDFEE70746384600F002F8FBE7FEE758
:10E9A00080B500BF00BF024A11001820ABBEFBE7D4
:10E9B0002600020000BF00BF00BF00BFFFF7D6FF68
:10E9C000FEE7FEE7FEE7FEE7FEE7FEE7FEE7FEE71F
:10E9D000FEE7FEE7FEE7FEE7FEE7FEE7FEE7FEE70F
:10E9E000810081008100810081008100810081001F
:10E9F000810081008100810081008100810081000F
:10EA0000D4000FAF2202930412C507E8091A1B1C99
:10EA10001D1E2E81008100BD000124F4E500FEFFD3
:08EA2000E40002010002B7004E
:040000050001E9B558
:00000001FF
